{
	"contracts/crowdfunding.sol": {
		"CrowdFunding": {
			"abi": [
				{
					"anonymous": false,
					"inputs": [
						{
							"indexed": false,
							"internalType": "string",
							"name": "_campaignName",
							"type": "string"
						}
					],
					"name": "campaignDeadlineReached",
					"type": "event"
				},
				{
					"anonymous": false,
					"inputs": [
						{
							"indexed": false,
							"internalType": "address",
							"name": "_donatorAddress",
							"type": "address"
						},
						{
							"indexed": false,
							"internalType": "uint256",
							"name": "_amount",
							"type": "uint256"
						}
					],
					"name": "donationReceived",
					"type": "event"
				},
				{
					"anonymous": false,
					"inputs": [
						{
							"indexed": false,
							"internalType": "address[]",
							"name": "_donatorAddress",
							"type": "address[]"
						}
					],
					"name": "donatorsRefunded",
					"type": "event"
				},
				{
					"anonymous": false,
					"inputs": [
						{
							"indexed": false,
							"internalType": "address",
							"name": "_receiverAddress",
							"type": "address"
						},
						{
							"indexed": false,
							"internalType": "uint256",
							"name": "_receivedAmount",
							"type": "uint256"
						}
					],
					"name": "fundSentToReceiver",
					"type": "event"
				},
				{
					"anonymous": false,
					"inputs": [
						{
							"indexed": false,
							"internalType": "string",
							"name": "_campaignName",
							"type": "string"
						},
						{
							"indexed": false,
							"internalType": "uint256",
							"name": "_targetAmount",
							"type": "uint256"
						},
						{
							"indexed": false,
							"internalType": "uint256",
							"name": "_currentBalance",
							"type": "uint256"
						}
					],
					"name": "targetReached",
					"type": "event"
				},
				{
					"inputs": [
						{
							"internalType": "uint256",
							"name": "",
							"type": "uint256"
						}
					],
					"name": "campaigns",
					"outputs": [
						{
							"internalType": "address",
							"name": "owner",
							"type": "address"
						},
						{
							"internalType": "string",
							"name": "campaignName",
							"type": "string"
						},
						{
							"internalType": "address payable",
							"name": "donationReceiver",
							"type": "address"
						},
						{
							"internalType": "uint256",
							"name": "target",
							"type": "uint256"
						},
						{
							"internalType": "bool",
							"name": "isOpen",
							"type": "bool"
						},
						{
							"internalType": "uint256",
							"name": "totalBalance",
							"type": "uint256"
						},
						{
							"internalType": "uint256",
							"name": "deadline",
							"type": "uint256"
						}
					],
					"stateMutability": "view",
					"type": "function"
				},
				{
					"inputs": [
						{
							"internalType": "string",
							"name": "_campaignName",
							"type": "string"
						},
						{
							"internalType": "address payable",
							"name": "_donatonReceiver",
							"type": "address"
						},
						{
							"internalType": "uint256",
							"name": "_target",
							"type": "uint256"
						},
						{
							"internalType": "uint256",
							"name": "_campaignDuration",
							"type": "uint256"
						}
					],
					"name": "createCampaign",
					"outputs": [],
					"stateMutability": "nonpayable",
					"type": "function"
				},
				{
					"inputs": [
						{
							"internalType": "string",
							"name": "_campaignName",
							"type": "string"
						}
					],
					"name": "donateToCampaign",
					"outputs": [],
					"stateMutability": "payable",
					"type": "function"
				},
				{
					"inputs": [
						{
							"internalType": "uint256",
							"name": "_campaignNo",
							"type": "uint256"
						}
					],
					"name": "releaseFundToDonators",
					"outputs": [],
					"stateMutability": "payable",
					"type": "function"
				},
				{
					"inputs": [
						{
							"internalType": "uint256",
							"name": "_campaignNo",
							"type": "uint256"
						}
					],
					"name": "releaseFundToReceiver",
					"outputs": [],
					"stateMutability": "payable",
					"type": "function"
				}
			],
			"devdoc": {
				"kind": "dev",
				"methods": {},
				"version": 1
			},
			"evm": {
				"assembly": "    /* \"contracts/crowdfunding.sol\":57:4478  contract CrowdFunding {... */\n  mstore(0x40, 0x80)\n    /* \"contracts/crowdfunding.sol\":426:427  0 */\n  0x00\n    /* \"contracts/crowdfunding.sol\":405:427  uint256 campaignNo = 0 */\n  0x01\n  sstore\n    /* \"contracts/crowdfunding.sol\":57:4478  contract CrowdFunding {... */\n  callvalue\n  dup1\n  iszero\n  tag_1\n  jumpi\n  0x00\n  dup1\n  revert\ntag_1:\n  pop\n  dataSize(sub_0)\n  dup1\n  dataOffset(sub_0)\n  0x00\n  codecopy\n  0x00\n  return\nstop\n\nsub_0: assembly {\n        /* \"contracts/crowdfunding.sol\":57:4478  contract CrowdFunding {... */\n      mstore(0x40, 0x80)\n      jumpi(tag_1, lt(calldatasize, 0x04))\n      shr(0xe0, calldataload(0x00))\n      dup1\n      0x141961bc\n      eq\n      tag_2\n      jumpi\n      dup1\n      0x45f25d63\n      eq\n      tag_3\n      jumpi\n      dup1\n      0xc7cba632\n      eq\n      tag_4\n      jumpi\n      dup1\n      0xdcb64d86\n      eq\n      tag_5\n      jumpi\n      dup1\n      0xde932cee\n      eq\n      tag_6\n      jumpi\n    tag_1:\n      0x00\n      dup1\n      revert\n        /* \"contracts/crowdfunding.sol\":354:399  mapping(uint256 => Campaign) public campaigns */\n    tag_2:\n      callvalue\n      dup1\n      iszero\n      tag_7\n      jumpi\n      0x00\n      dup1\n      revert\n    tag_7:\n      pop\n      tag_8\n      0x04\n      dup1\n      calldatasize\n      sub\n      dup2\n      add\n      swap1\n      tag_9\n      swap2\n      swap1\n      tag_10\n      jump\t// in\n    tag_9:\n      tag_11\n      jump\t// in\n    tag_8:\n      mload(0x40)\n      tag_12\n      swap8\n      swap7\n      swap6\n      swap5\n      swap4\n      swap3\n      swap2\n      swap1\n      tag_13\n      jump\t// in\n    tag_12:\n      mload(0x40)\n      dup1\n      swap2\n      sub\n      swap1\n      return\n        /* \"contracts/crowdfunding.sol\":3537:4061  function donateToCampaign(string memory _campaignName) public payable {... */\n    tag_3:\n      tag_14\n      0x04\n      dup1\n      calldatasize\n      sub\n      dup2\n      add\n      swap1\n      tag_15\n      swap2\n      swap1\n      tag_16\n      jump\t// in\n    tag_15:\n      tag_17\n      jump\t// in\n    tag_14:\n      stop\n        /* \"contracts/crowdfunding.sol\":4404:4476  function releaseFundToDonators(uint _campaignNo) public payable {... */\n    tag_4:\n      tag_18\n      0x04\n      dup1\n      calldatasize\n      sub\n      dup2\n      add\n      swap1\n      tag_19\n      swap2\n      swap1\n      tag_10\n      jump\t// in\n    tag_19:\n      tag_20\n      jump\t// in\n    tag_18:\n      stop\n        /* \"contracts/crowdfunding.sol\":4067:4398  function releaseFundToReceiver(uint _campaignNo) public payable {... */\n    tag_5:\n      tag_21\n      0x04\n      dup1\n      calldatasize\n      sub\n      dup2\n      add\n      swap1\n      tag_22\n      swap2\n      swap1\n      tag_10\n      jump\t// in\n    tag_22:\n      tag_23\n      jump\t// in\n    tag_21:\n      stop\n        /* \"contracts/crowdfunding.sol\":434:1039  function createCampaign(... */\n    tag_6:\n      callvalue\n      dup1\n      iszero\n      tag_24\n      jumpi\n      0x00\n      dup1\n      revert\n    tag_24:\n      pop\n      tag_25\n      0x04\n      dup1\n      calldatasize\n      sub\n      dup2\n      add\n      swap1\n      tag_26\n      swap2\n      swap1\n      tag_27\n      jump\t// in\n    tag_26:\n      tag_28\n      jump\t// in\n    tag_25:\n      stop\n        /* \"contracts/crowdfunding.sol\":354:399  mapping(uint256 => Campaign) public campaigns */\n    tag_11:\n      mstore(0x20, 0x00)\n      dup1\n      0x00\n      mstore\n      keccak256(0x00, 0x40)\n      0x00\n      swap2\n      pop\n      swap1\n      pop\n      dup1\n      0x00\n      add\n      0x00\n      swap1\n      sload\n      swap1\n      0x0100\n      exp\n      swap1\n      div\n      0xffffffffffffffffffffffffffffffffffffffff\n      and\n      swap1\n      dup1\n      0x01\n      add\n      dup1\n      sload\n      tag_29\n      swap1\n      tag_30\n      jump\t// in\n    tag_29:\n      dup1\n      0x1f\n      add\n      0x20\n      dup1\n      swap2\n      div\n      mul\n      0x20\n      add\n      mload(0x40)\n      swap1\n      dup2\n      add\n      0x40\n      mstore\n      dup1\n      swap3\n      swap2\n      swap1\n      dup2\n      dup2\n      mstore\n      0x20\n      add\n      dup3\n      dup1\n      sload\n      tag_31\n      swap1\n      tag_30\n      jump\t// in\n    tag_31:\n      dup1\n      iszero\n      tag_32\n      jumpi\n      dup1\n      0x1f\n      lt\n      tag_33\n      jumpi\n      0x0100\n      dup1\n      dup4\n      sload\n      div\n      mul\n      dup4\n      mstore\n      swap2\n      0x20\n      add\n      swap2\n      jump(tag_32)\n    tag_33:\n      dup3\n      add\n      swap2\n      swap1\n      0x00\n      mstore\n      keccak256(0x00, 0x20)\n      swap1\n    tag_34:\n      dup2\n      sload\n      dup2\n      mstore\n      swap1\n      0x01\n      add\n      swap1\n      0x20\n      add\n      dup1\n      dup4\n      gt\n      tag_34\n      jumpi\n      dup3\n      swap1\n      sub\n      0x1f\n      and\n      dup3\n      add\n      swap2\n    tag_32:\n      pop\n      pop\n      pop\n      pop\n      pop\n      swap1\n      dup1\n      0x02\n      add\n      0x00\n      swap1\n      sload\n      swap1\n      0x0100\n      exp\n      swap1\n      div\n      0xffffffffffffffffffffffffffffffffffffffff\n      and\n      swap1\n      dup1\n      0x03\n      add\n      sload\n      swap1\n      dup1\n      0x04\n      add\n      0x00\n      swap1\n      sload\n      swap1\n      0x0100\n      exp\n      swap1\n      div\n      0xff\n      and\n      swap1\n      dup1\n      0x05\n      add\n      sload\n      swap1\n      dup1\n      0x06\n      add\n      sload\n      swap1\n      pop\n      dup8\n      jump\t// out\n        /* \"contracts/crowdfunding.sol\":3537:4061  function donateToCampaign(string memory _campaignName) public payable {... */\n    tag_17:\n        /* \"contracts/crowdfunding.sol\":3638:3669  campaignIsActive(_campaignName) */\n      tag_36\n        /* \"contracts/crowdfunding.sol\":3655:3668  _campaignName */\n      dup2\n        /* \"contracts/crowdfunding.sol\":3638:3654  campaignIsActive */\n      tag_37\n        /* \"contracts/crowdfunding.sol\":3638:3669  campaignIsActive(_campaignName) */\n      jump\t// in\n    tag_36:\n        /* \"contracts/crowdfunding.sol\":3617:3733  require(... */\n      tag_38\n      jumpi\n      mload(0x40)\n      0x08c379a000000000000000000000000000000000000000000000000000000000\n      dup2\n      mstore\n      0x04\n      add\n      tag_39\n      swap1\n      tag_40\n      jump\t// in\n    tag_39:\n      mload(0x40)\n      dup1\n      swap2\n      sub\n      swap1\n      revert\n    tag_38:\n        /* \"contracts/crowdfunding.sol\":3748:3757  uint256 i */\n      0x00\n        /* \"contracts/crowdfunding.sol\":3743:4055  for (uint256 i = 0; i < campaignNo; i++) {... */\n    tag_41:\n        /* \"contracts/crowdfunding.sol\":3767:3777  campaignNo */\n      sload(0x01)\n        /* \"contracts/crowdfunding.sol\":3763:3764  i */\n      dup2\n        /* \"contracts/crowdfunding.sol\":3763:3777  i < campaignNo */\n      lt\n        /* \"contracts/crowdfunding.sol\":3743:4055  for (uint256 i = 0; i < campaignNo; i++) {... */\n      iszero\n      tag_42\n      jumpi\n        /* \"contracts/crowdfunding.sol\":3802:3836  campaignNameMatches(_campaignName) */\n      tag_44\n        /* \"contracts/crowdfunding.sol\":3822:3835  _campaignName */\n      dup3\n        /* \"contracts/crowdfunding.sol\":3802:3821  campaignNameMatches */\n      tag_45\n        /* \"contracts/crowdfunding.sol\":3802:3836  campaignNameMatches(_campaignName) */\n      jump\t// in\n    tag_44:\n        /* \"contracts/crowdfunding.sol\":3798:3899  if (campaignNameMatches(_campaignName))... */\n      iszero\n      tag_46\n      jumpi\n        /* \"contracts/crowdfunding.sol\":3890:3899  msg.value */\n      callvalue\n        /* \"contracts/crowdfunding.sol\":3854:3863  campaigns */\n      0x00\n        /* \"contracts/crowdfunding.sol\":3854:3866  campaigns[i] */\n      dup1\n        /* \"contracts/crowdfunding.sol\":3864:3865  i */\n      dup4\n        /* \"contracts/crowdfunding.sol\":3854:3866  campaigns[i] */\n      dup2\n      mstore\n      0x20\n      add\n      swap1\n      dup2\n      mstore\n      0x20\n      add\n      0x00\n      keccak256\n        /* \"contracts/crowdfunding.sol\":3854:3875  campaigns[i].donators */\n      0x07\n      add\n        /* \"contracts/crowdfunding.sol\":3854:3887  campaigns[i].donators[msg.sender] */\n      0x00\n        /* \"contracts/crowdfunding.sol\":3876:3886  msg.sender */\n      caller\n        /* \"contracts/crowdfunding.sol\":3854:3887  campaigns[i].donators[msg.sender] */\n      0xffffffffffffffffffffffffffffffffffffffff\n      and\n      0xffffffffffffffffffffffffffffffffffffffff\n      and\n      dup2\n      mstore\n      0x20\n      add\n      swap1\n      dup2\n      mstore\n      0x20\n      add\n      0x00\n      keccak256\n        /* \"contracts/crowdfunding.sol\":3854:3899  campaigns[i].donators[msg.sender] = msg.value */\n      dup2\n      swap1\n      sstore\n      pop\n        /* \"contracts/crowdfunding.sol\":3798:3899  if (campaignNameMatches(_campaignName))... */\n    tag_46:\n        /* \"contracts/crowdfunding.sol\":3942:3951  msg.value */\n      callvalue\n        /* \"contracts/crowdfunding.sol\":3913:3922  campaigns */\n      0x00\n        /* \"contracts/crowdfunding.sol\":3913:3925  campaigns[i] */\n      dup1\n        /* \"contracts/crowdfunding.sol\":3923:3924  i */\n      dup4\n        /* \"contracts/crowdfunding.sol\":3913:3925  campaigns[i] */\n      dup2\n      mstore\n      0x20\n      add\n      swap1\n      dup2\n      mstore\n      0x20\n      add\n      0x00\n      keccak256\n        /* \"contracts/crowdfunding.sol\":3913:3938  campaigns[i].totalBalance */\n      0x05\n      add\n      0x00\n        /* \"contracts/crowdfunding.sol\":3913:3951  campaigns[i].totalBalance += msg.value */\n      dup3\n      dup3\n      sload\n      tag_47\n      swap2\n      swap1\n      tag_48\n      jump\t// in\n    tag_47:\n      swap3\n      pop\n      pop\n      dup2\n      swap1\n      sstore\n      pop\n        /* \"contracts/crowdfunding.sol\":3970:4009  donationReceived(msg.sender, msg.value) */\n      0xe2639ef551ad89950da1145fe1fd600e818336d6e8aa88426efe387c49accebb\n        /* \"contracts/crowdfunding.sol\":3987:3997  msg.sender */\n      caller\n        /* \"contracts/crowdfunding.sol\":3999:4008  msg.value */\n      callvalue\n        /* \"contracts/crowdfunding.sol\":3970:4009  donationReceived(msg.sender, msg.value) */\n      mload(0x40)\n      tag_49\n      swap3\n      swap2\n      swap1\n      tag_50\n      jump\t// in\n    tag_49:\n      mload(0x40)\n      dup1\n      swap2\n      sub\n      swap1\n      log1\n        /* \"contracts/crowdfunding.sol\":4023:4044  checkCampaignState(i) */\n      tag_51\n        /* \"contracts/crowdfunding.sol\":4042:4043  i */\n      dup2\n        /* \"contracts/crowdfunding.sol\":4023:4041  checkCampaignState */\n      tag_52\n        /* \"contracts/crowdfunding.sol\":4023:4044  checkCampaignState(i) */\n      jump\t// in\n    tag_51:\n        /* \"contracts/crowdfunding.sol\":3779:3782  i++ */\n      dup1\n      dup1\n      0x01\n      add\n      swap2\n      pop\n      pop\n        /* \"contracts/crowdfunding.sol\":3743:4055  for (uint256 i = 0; i < campaignNo; i++) {... */\n      jump(tag_41)\n    tag_42:\n      pop\n        /* \"contracts/crowdfunding.sol\":3537:4061  function donateToCampaign(string memory _campaignName) public payable {... */\n      pop\n      jump\t// out\n        /* \"contracts/crowdfunding.sol\":4404:4476  function releaseFundToDonators(uint _campaignNo) public payable {... */\n    tag_20:\n      pop\n      jump\t// out\n        /* \"contracts/crowdfunding.sol\":4067:4398  function releaseFundToReceiver(uint _campaignNo) public payable {... */\n    tag_23:\n        /* \"contracts/crowdfunding.sol\":4141:4172  address payable receiverAddress */\n      0x00\n        /* \"contracts/crowdfunding.sol\":4175:4184  campaigns */\n      dup1\n        /* \"contracts/crowdfunding.sol\":4175:4197  campaigns[_campaignNo] */\n      0x00\n        /* \"contracts/crowdfunding.sol\":4185:4196  _campaignNo */\n      dup4\n        /* \"contracts/crowdfunding.sol\":4175:4197  campaigns[_campaignNo] */\n      dup2\n      mstore\n      0x20\n      add\n      swap1\n      dup2\n      mstore\n      0x20\n      add\n      0x00\n      keccak256\n        /* \"contracts/crowdfunding.sol\":4175:4214  campaigns[_campaignNo].donationReceiver */\n      0x02\n      add\n      0x00\n      swap1\n      sload\n      swap1\n      0x0100\n      exp\n      swap1\n      div\n      0xffffffffffffffffffffffffffffffffffffffff\n      and\n        /* \"contracts/crowdfunding.sol\":4141:4214  address payable receiverAddress = campaigns[_campaignNo].donationReceiver */\n      swap1\n      pop\n        /* \"contracts/crowdfunding.sol\":4224:4241  uint totalBalance */\n      0x00\n        /* \"contracts/crowdfunding.sol\":4244:4253  campaigns */\n      dup1\n        /* \"contracts/crowdfunding.sol\":4244:4266  campaigns[_campaignNo] */\n      0x00\n        /* \"contracts/crowdfunding.sol\":4254:4265  _campaignNo */\n      dup5\n        /* \"contracts/crowdfunding.sol\":4244:4266  campaigns[_campaignNo] */\n      dup2\n      mstore\n      0x20\n      add\n      swap1\n      dup2\n      mstore\n      0x20\n      add\n      0x00\n      keccak256\n        /* \"contracts/crowdfunding.sol\":4244:4279  campaigns[_campaignNo].totalBalance */\n      0x05\n      add\n      sload\n        /* \"contracts/crowdfunding.sol\":4224:4279  uint totalBalance = campaigns[_campaignNo].totalBalance */\n      swap1\n      pop\n        /* \"contracts/crowdfunding.sol\":4289:4304  receiverAddress */\n      dup2\n        /* \"contracts/crowdfunding.sol\":4289:4313  receiverAddress.transfer */\n      0xffffffffffffffffffffffffffffffffffffffff\n      and\n        /* \"contracts/crowdfunding.sol\":4289:4327  receiverAddress.transfer(totalBalance) */\n      0x08fc\n        /* \"contracts/crowdfunding.sol\":4314:4326  totalBalance */\n      dup3\n        /* \"contracts/crowdfunding.sol\":4289:4327  receiverAddress.transfer(totalBalance) */\n      swap1\n      dup2\n      iszero\n      mul\n      swap1\n      mload(0x40)\n      0x00\n      mload(0x40)\n      dup1\n      dup4\n      sub\n      dup2\n      dup6\n      dup9\n      dup9\n      call\n      swap4\n      pop\n      pop\n      pop\n      pop\n      iszero\n      dup1\n      iszero\n      tag_56\n      jumpi\n      returndatasize\n      0x00\n      dup1\n      returndatacopy\n      revert(0x00, returndatasize)\n    tag_56:\n      pop\n        /* \"contracts/crowdfunding.sol\":4342:4391  fundSentToReceiver(receiverAddress, totalBalance) */\n      0x9450824ff67d7a8a9a13a233327b29a923ff6e7572a146e9ee18f38e7e423c06\n        /* \"contracts/crowdfunding.sol\":4361:4376  receiverAddress */\n      dup3\n        /* \"contracts/crowdfunding.sol\":4378:4390  totalBalance */\n      dup3\n        /* \"contracts/crowdfunding.sol\":4342:4391  fundSentToReceiver(receiverAddress, totalBalance) */\n      mload(0x40)\n      tag_57\n      swap3\n      swap2\n      swap1\n      tag_58\n      jump\t// in\n    tag_57:\n      mload(0x40)\n      dup1\n      swap2\n      sub\n      swap1\n      log1\n        /* \"contracts/crowdfunding.sol\":4131:4398  {... */\n      pop\n      pop\n        /* \"contracts/crowdfunding.sol\":4067:4398  function releaseFundToReceiver(uint _campaignNo) public payable {... */\n      pop\n      jump\t// out\n        /* \"contracts/crowdfunding.sol\":434:1039  function createCampaign(... */\n    tag_28:\n        /* \"contracts/crowdfunding.sol\":620:648  Campaign storage newCampaign */\n      0x00\n        /* \"contracts/crowdfunding.sol\":651:660  campaigns */\n      dup1\n        /* \"contracts/crowdfunding.sol\":651:672  campaigns[campaignNo] */\n      0x00\n        /* \"contracts/crowdfunding.sol\":661:671  campaignNo */\n      sload(0x01)\n        /* \"contracts/crowdfunding.sol\":651:672  campaigns[campaignNo] */\n      dup2\n      mstore\n      0x20\n      add\n      swap1\n      dup2\n      mstore\n      0x20\n      add\n      0x00\n      keccak256\n        /* \"contracts/crowdfunding.sol\":620:672  Campaign storage newCampaign = campaigns[campaignNo] */\n      swap1\n      pop\n        /* \"contracts/crowdfunding.sol\":702:712  msg.sender */\n      caller\n        /* \"contracts/crowdfunding.sol\":682:693  newCampaign */\n      dup2\n        /* \"contracts/crowdfunding.sol\":682:699  newCampaign.owner */\n      0x00\n      add\n      0x00\n        /* \"contracts/crowdfunding.sol\":682:712  newCampaign.owner = msg.sender */\n      0x0100\n      exp\n      dup2\n      sload\n      dup2\n      0xffffffffffffffffffffffffffffffffffffffff\n      mul\n      not\n      and\n      swap1\n      dup4\n      0xffffffffffffffffffffffffffffffffffffffff\n      and\n      mul\n      or\n      swap1\n      sstore\n      pop\n        /* \"contracts/crowdfunding.sol\":749:762  _campaignName */\n      dup5\n        /* \"contracts/crowdfunding.sol\":722:733  newCampaign */\n      dup2\n        /* \"contracts/crowdfunding.sol\":722:746  newCampaign.campaignName */\n      0x01\n      add\n        /* \"contracts/crowdfunding.sol\":722:762  newCampaign.campaignName = _campaignName */\n      swap1\n      dup2\n      tag_60\n      swap2\n      swap1\n      tag_61\n      jump\t// in\n    tag_60:\n      pop\n        /* \"contracts/crowdfunding.sol\":803:819  _donatonReceiver */\n      dup4\n        /* \"contracts/crowdfunding.sol\":772:783  newCampaign */\n      dup2\n        /* \"contracts/crowdfunding.sol\":772:800  newCampaign.donationReceiver */\n      0x02\n      add\n      0x00\n        /* \"contracts/crowdfunding.sol\":772:819  newCampaign.donationReceiver = _donatonReceiver */\n      0x0100\n      exp\n      dup2\n      sload\n      dup2\n      0xffffffffffffffffffffffffffffffffffffffff\n      mul\n      not\n      and\n      swap1\n      dup4\n      0xffffffffffffffffffffffffffffffffffffffff\n      and\n      mul\n      or\n      swap1\n      sstore\n      pop\n        /* \"contracts/crowdfunding.sol\":850:857  _target */\n      dup3\n        /* \"contracts/crowdfunding.sol\":829:840  newCampaign */\n      dup2\n        /* \"contracts/crowdfunding.sol\":829:847  newCampaign.target */\n      0x03\n      add\n        /* \"contracts/crowdfunding.sol\":829:857  newCampaign.target = _target */\n      dup2\n      swap1\n      sstore\n      pop\n        /* \"contracts/crowdfunding.sol\":888:892  true */\n      0x01\n        /* \"contracts/crowdfunding.sol\":867:878  newCampaign */\n      dup2\n        /* \"contracts/crowdfunding.sol\":867:885  newCampaign.isOpen */\n      0x04\n      add\n      0x00\n        /* \"contracts/crowdfunding.sol\":867:892  newCampaign.isOpen = true */\n      0x0100\n      exp\n      dup2\n      sload\n      dup2\n      0xff\n      mul\n      not\n      and\n      swap1\n      dup4\n      iszero\n      iszero\n      mul\n      or\n      swap1\n      sstore\n      pop\n        /* \"contracts/crowdfunding.sol\":929:930  0 */\n      0x00\n        /* \"contracts/crowdfunding.sol\":902:913  newCampaign */\n      dup2\n        /* \"contracts/crowdfunding.sol\":902:926  newCampaign.totalBalance */\n      0x05\n      add\n        /* \"contracts/crowdfunding.sol\":902:930  newCampaign.totalBalance = 0 */\n      dup2\n      swap1\n      sstore\n      pop\n        /* \"contracts/crowdfunding.sol\":1002:1008  1 days */\n      0x015180\n        /* \"contracts/crowdfunding.sol\":984:999  block.timestamp */\n      timestamp\n        /* \"contracts/crowdfunding.sol\":984:1008  block.timestamp * 1 days */\n      tag_62\n      swap2\n      swap1\n      tag_63\n      jump\t// in\n    tag_62:\n        /* \"contracts/crowdfunding.sol\":963:980  _campaignDuration */\n      dup3\n        /* \"contracts/crowdfunding.sol\":963:1009  _campaignDuration + (block.timestamp * 1 days) */\n      tag_64\n      swap2\n      swap1\n      tag_48\n      jump\t// in\n    tag_64:\n        /* \"contracts/crowdfunding.sol\":940:951  newCampaign */\n      dup2\n        /* \"contracts/crowdfunding.sol\":940:960  newCampaign.deadline */\n      0x06\n      add\n        /* \"contracts/crowdfunding.sol\":940:1009  newCampaign.deadline = _campaignDuration + (block.timestamp * 1 days) */\n      dup2\n      swap1\n      sstore\n      pop\n        /* \"contracts/crowdfunding.sol\":1020:1030  campaignNo */\n      0x01\n      0x00\n        /* \"contracts/crowdfunding.sol\":1020:1032  campaignNo++ */\n      dup2\n      sload\n      dup1\n      swap3\n      swap2\n      swap1\n      tag_65\n      swap1\n      tag_66\n      jump\t// in\n    tag_65:\n      swap2\n      swap1\n      pop\n      sstore\n      pop\n        /* \"contracts/crowdfunding.sol\":610:1039  {... */\n      pop\n        /* \"contracts/crowdfunding.sol\":434:1039  function createCampaign(... */\n      pop\n      pop\n      pop\n      pop\n      jump\t// out\n        /* \"contracts/crowdfunding.sol\":1864:2355  function campaignIsActive(string memory _campaignName)... */\n    tag_37:\n        /* \"contracts/crowdfunding.sol\":1965:1985  bool _campaignStatus */\n      0x00\n        /* \"contracts/crowdfunding.sol\":2006:2015  uint256 i */\n      dup1\n        /* \"contracts/crowdfunding.sol\":2018:2019  0 */\n      0x00\n        /* \"contracts/crowdfunding.sol\":2006:2019  uint256 i = 0 */\n      swap1\n      pop\n        /* \"contracts/crowdfunding.sol\":2001:2327  for (uint256 i = 0; i < campaignNo; i++) {... */\n    tag_68:\n        /* \"contracts/crowdfunding.sol\":2025:2035  campaignNo */\n      sload(0x01)\n        /* \"contracts/crowdfunding.sol\":2021:2022  i */\n      dup2\n        /* \"contracts/crowdfunding.sol\":2021:2035  i < campaignNo */\n      lt\n        /* \"contracts/crowdfunding.sol\":2001:2327  for (uint256 i = 0; i < campaignNo; i++) {... */\n      iszero\n      tag_69\n      jumpi\n        /* \"contracts/crowdfunding.sol\":2178:2191  _campaignName */\n      dup3\n        /* \"contracts/crowdfunding.sol\":2161:2192  abi.encodePacked(_campaignName) */\n      add(0x20, mload(0x40))\n      tag_71\n      swap2\n      swap1\n      tag_72\n      jump\t// in\n    tag_71:\n      mload(0x40)\n      0x20\n      dup2\n      dup4\n      sub\n      sub\n      dup2\n      mstore\n      swap1\n      0x40\n      mstore\n        /* \"contracts/crowdfunding.sol\":2151:2193  keccak256(abi.encodePacked(_campaignName)) */\n      dup1\n      mload\n      swap1\n      0x20\n      add\n      keccak256\n        /* \"contracts/crowdfunding.sol\":2104:2113  campaigns */\n      0x00\n        /* \"contracts/crowdfunding.sol\":2104:2116  campaigns[i] */\n      dup1\n        /* \"contracts/crowdfunding.sol\":2114:2115  i */\n      dup4\n        /* \"contracts/crowdfunding.sol\":2104:2116  campaigns[i] */\n      dup2\n      mstore\n      0x20\n      add\n      swap1\n      dup2\n      mstore\n      0x20\n      add\n      0x00\n      keccak256\n        /* \"contracts/crowdfunding.sol\":2104:2129  campaigns[i].campaignName */\n      0x01\n      add\n        /* \"contracts/crowdfunding.sol\":2087:2130  abi.encodePacked(campaigns[i].campaignName) */\n      add(0x20, mload(0x40))\n      tag_73\n      swap2\n      swap1\n      tag_74\n      jump\t// in\n    tag_73:\n      mload(0x40)\n      0x20\n      dup2\n      dup4\n      sub\n      sub\n      dup2\n      mstore\n      swap1\n      0x40\n      mstore\n        /* \"contracts/crowdfunding.sol\":2077:2131  keccak256(abi.encodePacked(campaigns[i].campaignName)) */\n      dup1\n      mload\n      swap1\n      0x20\n      add\n      keccak256\n        /* \"contracts/crowdfunding.sol\":2077:2193  keccak256(abi.encodePacked(campaigns[i].campaignName)) ==... */\n      sub\n        /* \"contracts/crowdfunding.sol\":2056:2317  if (... */\n      tag_75\n      jumpi\n        /* \"contracts/crowdfunding.sol\":2230:2239  campaigns */\n      0x00\n        /* \"contracts/crowdfunding.sol\":2230:2242  campaigns[i] */\n      dup1\n        /* \"contracts/crowdfunding.sol\":2240:2241  i */\n      dup3\n        /* \"contracts/crowdfunding.sol\":2230:2242  campaigns[i] */\n      dup2\n      mstore\n      0x20\n      add\n      swap1\n      dup2\n      mstore\n      0x20\n      add\n      0x00\n      keccak256\n        /* \"contracts/crowdfunding.sol\":2230:2249  campaigns[i].isOpen */\n      0x04\n      add\n      0x00\n      swap1\n      sload\n      swap1\n      0x0100\n      exp\n      swap1\n      div\n      0xff\n      and\n        /* \"contracts/crowdfunding.sol\":2226:2303  if (campaigns[i].isOpen) {... */\n      iszero\n      tag_76\n      jumpi\n        /* \"contracts/crowdfunding.sol\":2280:2284  true */\n      0x01\n        /* \"contracts/crowdfunding.sol\":2273:2284  return true */\n      swap2\n      pop\n      pop\n      jump(tag_67)\n        /* \"contracts/crowdfunding.sol\":2226:2303  if (campaigns[i].isOpen) {... */\n    tag_76:\n        /* \"contracts/crowdfunding.sol\":2056:2317  if (... */\n    tag_75:\n        /* \"contracts/crowdfunding.sol\":2037:2040  i++ */\n      dup1\n      dup1\n      0x01\n      add\n      swap2\n      pop\n      pop\n        /* \"contracts/crowdfunding.sol\":2001:2327  for (uint256 i = 0; i < campaignNo; i++) {... */\n      jump(tag_68)\n    tag_69:\n      pop\n        /* \"contracts/crowdfunding.sol\":2343:2348  false */\n      0x00\n        /* \"contracts/crowdfunding.sol\":2336:2348  return false */\n      swap1\n      pop\n        /* \"contracts/crowdfunding.sol\":1864:2355  function campaignIsActive(string memory _campaignName)... */\n    tag_67:\n      swap2\n      swap1\n      pop\n      jump\t// out\n        /* \"contracts/crowdfunding.sol\":1434:1858  function campaignNameMatches(string memory _campaignName)... */\n    tag_45:\n        /* \"contracts/crowdfunding.sol\":1538:1553  bool _isMatched */\n      0x00\n        /* \"contracts/crowdfunding.sol\":1574:1583  uint256 i */\n      dup1\n        /* \"contracts/crowdfunding.sol\":1586:1587  0 */\n      0x00\n        /* \"contracts/crowdfunding.sol\":1574:1587  uint256 i = 0 */\n      swap1\n      pop\n        /* \"contracts/crowdfunding.sol\":1569:1830  for (uint256 i = 0; i < campaignNo; i++) {... */\n    tag_78:\n        /* \"contracts/crowdfunding.sol\":1593:1603  campaignNo */\n      sload(0x01)\n        /* \"contracts/crowdfunding.sol\":1589:1590  i */\n      dup2\n        /* \"contracts/crowdfunding.sol\":1589:1603  i < campaignNo */\n      lt\n        /* \"contracts/crowdfunding.sol\":1569:1830  for (uint256 i = 0; i < campaignNo; i++) {... */\n      iszero\n      tag_79\n      jumpi\n        /* \"contracts/crowdfunding.sol\":1746:1759  _campaignName */\n      dup3\n        /* \"contracts/crowdfunding.sol\":1729:1760  abi.encodePacked(_campaignName) */\n      add(0x20, mload(0x40))\n      tag_81\n      swap2\n      swap1\n      tag_72\n      jump\t// in\n    tag_81:\n      mload(0x40)\n      0x20\n      dup2\n      dup4\n      sub\n      sub\n      dup2\n      mstore\n      swap1\n      0x40\n      mstore\n        /* \"contracts/crowdfunding.sol\":1719:1761  keccak256(abi.encodePacked(_campaignName)) */\n      dup1\n      mload\n      swap1\n      0x20\n      add\n      keccak256\n        /* \"contracts/crowdfunding.sol\":1672:1681  campaigns */\n      0x00\n        /* \"contracts/crowdfunding.sol\":1672:1684  campaigns[i] */\n      dup1\n        /* \"contracts/crowdfunding.sol\":1682:1683  i */\n      dup4\n        /* \"contracts/crowdfunding.sol\":1672:1684  campaigns[i] */\n      dup2\n      mstore\n      0x20\n      add\n      swap1\n      dup2\n      mstore\n      0x20\n      add\n      0x00\n      keccak256\n        /* \"contracts/crowdfunding.sol\":1672:1697  campaigns[i].campaignName */\n      0x01\n      add\n        /* \"contracts/crowdfunding.sol\":1655:1698  abi.encodePacked(campaigns[i].campaignName) */\n      add(0x20, mload(0x40))\n      tag_82\n      swap2\n      swap1\n      tag_74\n      jump\t// in\n    tag_82:\n      mload(0x40)\n      0x20\n      dup2\n      dup4\n      sub\n      sub\n      dup2\n      mstore\n      swap1\n      0x40\n      mstore\n        /* \"contracts/crowdfunding.sol\":1645:1699  keccak256(abi.encodePacked(campaigns[i].campaignName)) */\n      dup1\n      mload\n      swap1\n      0x20\n      add\n      keccak256\n        /* \"contracts/crowdfunding.sol\":1645:1761  keccak256(abi.encodePacked(campaigns[i].campaignName)) ==... */\n      sub\n        /* \"contracts/crowdfunding.sol\":1624:1820  if (... */\n      tag_83\n      jumpi\n        /* \"contracts/crowdfunding.sol\":1801:1805  true */\n      0x01\n        /* \"contracts/crowdfunding.sol\":1794:1805  return true */\n      swap2\n      pop\n      pop\n      jump(tag_77)\n        /* \"contracts/crowdfunding.sol\":1624:1820  if (... */\n    tag_83:\n        /* \"contracts/crowdfunding.sol\":1605:1608  i++ */\n      dup1\n      dup1\n      0x01\n      add\n      swap2\n      pop\n      pop\n        /* \"contracts/crowdfunding.sol\":1569:1830  for (uint256 i = 0; i < campaignNo; i++) {... */\n      jump(tag_78)\n    tag_79:\n      pop\n        /* \"contracts/crowdfunding.sol\":1846:1851  false */\n      0x00\n        /* \"contracts/crowdfunding.sol\":1839:1851  return false */\n      swap1\n      pop\n        /* \"contracts/crowdfunding.sol\":1434:1858  function campaignNameMatches(string memory _campaignName)... */\n    tag_77:\n      swap2\n      swap1\n      pop\n      jump\t// out\n        /* \"contracts/crowdfunding.sol\":2868:3531  function checkCampaignState(uint256 _campaignNo) private {... */\n    tag_52:\n        /* \"contracts/crowdfunding.sol\":2939:2967  isTargetReached(_campaignNo) */\n      tag_85\n        /* \"contracts/crowdfunding.sol\":2955:2966  _campaignNo */\n      dup2\n        /* \"contracts/crowdfunding.sol\":2939:2954  isTargetReached */\n      tag_86\n        /* \"contracts/crowdfunding.sol\":2939:2967  isTargetReached(_campaignNo) */\n      jump\t// in\n    tag_85:\n        /* \"contracts/crowdfunding.sol\":2935:3516  if (isTargetReached(_campaignNo)) {... */\n      iszero\n      tag_87\n      jumpi\n        /* \"contracts/crowdfunding.sol\":3015:3020  false */\n      0x00\n        /* \"contracts/crowdfunding.sol\":2983:2992  campaigns */\n      dup1\n        /* \"contracts/crowdfunding.sol\":2983:3005  campaigns[_campaignNo] */\n      0x00\n        /* \"contracts/crowdfunding.sol\":2993:3004  _campaignNo */\n      dup4\n        /* \"contracts/crowdfunding.sol\":2983:3005  campaigns[_campaignNo] */\n      dup2\n      mstore\n      0x20\n      add\n      swap1\n      dup2\n      mstore\n      0x20\n      add\n      0x00\n      keccak256\n        /* \"contracts/crowdfunding.sol\":2983:3012  campaigns[_campaignNo].isOpen */\n      0x04\n      add\n      0x00\n        /* \"contracts/crowdfunding.sol\":2983:3020  campaigns[_campaignNo].isOpen = false */\n      0x0100\n      exp\n      dup2\n      sload\n      dup2\n      0xff\n      mul\n      not\n      and\n      swap1\n      dup4\n      iszero\n      iszero\n      mul\n      or\n      swap1\n      sstore\n      pop\n        /* \"contracts/crowdfunding.sol\":3040:3220  targetReached(... */\n      0x161c6ca4afb6a9d993acb2fc7bfbd596905272215a679ae15395f8f94b36ff35\n        /* \"contracts/crowdfunding.sol\":3071:3080  campaigns */\n      0x00\n        /* \"contracts/crowdfunding.sol\":3071:3093  campaigns[_campaignNo] */\n      dup1\n        /* \"contracts/crowdfunding.sol\":3081:3092  _campaignNo */\n      dup4\n        /* \"contracts/crowdfunding.sol\":3071:3093  campaigns[_campaignNo] */\n      dup2\n      mstore\n      0x20\n      add\n      swap1\n      dup2\n      mstore\n      0x20\n      add\n      0x00\n      keccak256\n        /* \"contracts/crowdfunding.sol\":3071:3106  campaigns[_campaignNo].campaignName */\n      0x01\n      add\n        /* \"contracts/crowdfunding.sol\":3124:3133  campaigns */\n      0x00\n        /* \"contracts/crowdfunding.sol\":3124:3146  campaigns[_campaignNo] */\n      dup1\n        /* \"contracts/crowdfunding.sol\":3134:3145  _campaignNo */\n      dup5\n        /* \"contracts/crowdfunding.sol\":3124:3146  campaigns[_campaignNo] */\n      dup2\n      mstore\n      0x20\n      add\n      swap1\n      dup2\n      mstore\n      0x20\n      add\n      0x00\n      keccak256\n        /* \"contracts/crowdfunding.sol\":3124:3153  campaigns[_campaignNo].target */\n      0x03\n      add\n      sload\n        /* \"contracts/crowdfunding.sol\":3171:3180  campaigns */\n      0x00\n        /* \"contracts/crowdfunding.sol\":3171:3193  campaigns[_campaignNo] */\n      dup1\n        /* \"contracts/crowdfunding.sol\":3181:3192  _campaignNo */\n      dup6\n        /* \"contracts/crowdfunding.sol\":3171:3193  campaigns[_campaignNo] */\n      dup2\n      mstore\n      0x20\n      add\n      swap1\n      dup2\n      mstore\n      0x20\n      add\n      0x00\n      keccak256\n        /* \"contracts/crowdfunding.sol\":3171:3206  campaigns[_campaignNo].totalBalance */\n      0x05\n      add\n      sload\n        /* \"contracts/crowdfunding.sol\":3040:3220  targetReached(... */\n      mload(0x40)\n      tag_88\n      swap4\n      swap3\n      swap2\n      swap1\n      tag_89\n      jump\t// in\n    tag_88:\n      mload(0x40)\n      dup1\n      swap2\n      sub\n      swap1\n      log1\n        /* \"contracts/crowdfunding.sol\":3234:3268  releaseFundToReceiver(_campaignNo) */\n      tag_90\n        /* \"contracts/crowdfunding.sol\":3256:3267  _campaignNo */\n      dup2\n        /* \"contracts/crowdfunding.sol\":3234:3255  releaseFundToReceiver */\n      tag_23\n        /* \"contracts/crowdfunding.sol\":3234:3268  releaseFundToReceiver(_campaignNo) */\n      jump\t// in\n    tag_90:\n        /* \"contracts/crowdfunding.sol\":2935:3516  if (isTargetReached(_campaignNo)) {... */\n      jump(tag_91)\n    tag_87:\n        /* \"contracts/crowdfunding.sol\":3296:3326  isDeadlineReached(_campaignNo) */\n      tag_92\n        /* \"contracts/crowdfunding.sol\":3314:3325  _campaignNo */\n      dup2\n        /* \"contracts/crowdfunding.sol\":3296:3313  isDeadlineReached */\n      tag_93\n        /* \"contracts/crowdfunding.sol\":3296:3326  isDeadlineReached(_campaignNo) */\n      jump\t// in\n    tag_92:\n        /* \"contracts/crowdfunding.sol\":3293:3516  if(isDeadlineReached(_campaignNo)){... */\n      iszero\n      tag_94\n      jumpi\n        /* \"contracts/crowdfunding.sol\":3373:3378  false */\n      0x00\n        /* \"contracts/crowdfunding.sol\":3341:3350  campaigns */\n      dup1\n        /* \"contracts/crowdfunding.sol\":3341:3363  campaigns[_campaignNo] */\n      0x00\n        /* \"contracts/crowdfunding.sol\":3351:3362  _campaignNo */\n      dup4\n        /* \"contracts/crowdfunding.sol\":3341:3363  campaigns[_campaignNo] */\n      dup2\n      mstore\n      0x20\n      add\n      swap1\n      dup2\n      mstore\n      0x20\n      add\n      0x00\n      keccak256\n        /* \"contracts/crowdfunding.sol\":3341:3370  campaigns[_campaignNo].isOpen */\n      0x04\n      add\n      0x00\n        /* \"contracts/crowdfunding.sol\":3341:3378  campaigns[_campaignNo].isOpen = false */\n      0x0100\n      exp\n      dup2\n      sload\n      dup2\n      0xff\n      mul\n      not\n      and\n      swap1\n      dup4\n      iszero\n      iszero\n      mul\n      or\n      swap1\n      sstore\n      pop\n        /* \"contracts/crowdfunding.sol\":3397:3457  campaignDeadlineReached(campaigns[_campaignNo].campaignName) */\n      0x7e83bb819d77dde1b95d6fea75b0bb56f02543b94670f327c26cace89cad9444\n        /* \"contracts/crowdfunding.sol\":3421:3430  campaigns */\n      0x00\n        /* \"contracts/crowdfunding.sol\":3421:3443  campaigns[_campaignNo] */\n      dup1\n        /* \"contracts/crowdfunding.sol\":3431:3442  _campaignNo */\n      dup4\n        /* \"contracts/crowdfunding.sol\":3421:3443  campaigns[_campaignNo] */\n      dup2\n      mstore\n      0x20\n      add\n      swap1\n      dup2\n      mstore\n      0x20\n      add\n      0x00\n      keccak256\n        /* \"contracts/crowdfunding.sol\":3421:3456  campaigns[_campaignNo].campaignName */\n      0x01\n      add\n        /* \"contracts/crowdfunding.sol\":3397:3457  campaignDeadlineReached(campaigns[_campaignNo].campaignName) */\n      mload(0x40)\n      tag_95\n      swap2\n      swap1\n      tag_96\n      jump\t// in\n    tag_95:\n      mload(0x40)\n      dup1\n      swap2\n      sub\n      swap1\n      log1\n        /* \"contracts/crowdfunding.sol\":3471:3505  releaseFundToDonators(_campaignNo) */\n      tag_97\n        /* \"contracts/crowdfunding.sol\":3493:3504  _campaignNo */\n      dup2\n        /* \"contracts/crowdfunding.sol\":3471:3492  releaseFundToDonators */\n      tag_20\n        /* \"contracts/crowdfunding.sol\":3471:3505  releaseFundToDonators(_campaignNo) */\n      jump\t// in\n    tag_97:\n        /* \"contracts/crowdfunding.sol\":3293:3516  if(isDeadlineReached(_campaignNo)){... */\n    tag_94:\n        /* \"contracts/crowdfunding.sol\":2935:3516  if (isTargetReached(_campaignNo)) {... */\n    tag_91:\n        /* \"contracts/crowdfunding.sol\":2868:3531  function checkCampaignState(uint256 _campaignNo) private {... */\n      pop\n      jump\t// out\n        /* \"contracts/crowdfunding.sol\":2361:2636  function isTargetReached(uint256 _campaignNo)... */\n    tag_86:\n        /* \"contracts/crowdfunding.sol\":2445:2460  bool _isReached */\n      0x00\n        /* \"contracts/crowdfunding.sol\":2532:2541  campaigns */\n      dup1\n        /* \"contracts/crowdfunding.sol\":2532:2554  campaigns[_campaignNo] */\n      0x00\n        /* \"contracts/crowdfunding.sol\":2542:2553  _campaignNo */\n      dup4\n        /* \"contracts/crowdfunding.sol\":2532:2554  campaigns[_campaignNo] */\n      dup2\n      mstore\n      0x20\n      add\n      swap1\n      dup2\n      mstore\n      0x20\n      add\n      0x00\n      keccak256\n        /* \"contracts/crowdfunding.sol\":2532:2561  campaigns[_campaignNo].target */\n      0x03\n      add\n      sload\n        /* \"contracts/crowdfunding.sol\":2493:2502  campaigns */\n      0x00\n        /* \"contracts/crowdfunding.sol\":2493:2515  campaigns[_campaignNo] */\n      dup1\n        /* \"contracts/crowdfunding.sol\":2503:2514  _campaignNo */\n      dup5\n        /* \"contracts/crowdfunding.sol\":2493:2515  campaigns[_campaignNo] */\n      dup2\n      mstore\n      0x20\n      add\n      swap1\n      dup2\n      mstore\n      0x20\n      add\n      0x00\n      keccak256\n        /* \"contracts/crowdfunding.sol\":2493:2528  campaigns[_campaignNo].totalBalance */\n      0x05\n      add\n      sload\n        /* \"contracts/crowdfunding.sol\":2493:2561  campaigns[_campaignNo].totalBalance >= campaigns[_campaignNo].target */\n      lt\n        /* \"contracts/crowdfunding.sol\":2476:2608  if (... */\n      tag_99\n      jumpi\n        /* \"contracts/crowdfunding.sol\":2593:2597  true */\n      0x01\n        /* \"contracts/crowdfunding.sol\":2586:2597  return true */\n      swap1\n      pop\n      jump(tag_98)\n        /* \"contracts/crowdfunding.sol\":2476:2608  if (... */\n    tag_99:\n        /* \"contracts/crowdfunding.sol\":2624:2629  false */\n      0x00\n        /* \"contracts/crowdfunding.sol\":2617:2629  return false */\n      swap1\n      pop\n        /* \"contracts/crowdfunding.sol\":2361:2636  function isTargetReached(uint256 _campaignNo)... */\n    tag_98:\n      swap2\n      swap1\n      pop\n      jump\t// out\n        /* \"contracts/crowdfunding.sol\":2642:2862  function isDeadlineReached(uint _campaignNo) private view returns(bool _isReached){... */\n    tag_93:\n        /* \"contracts/crowdfunding.sol\":2708:2723  bool _isReached */\n      0x00\n        /* \"contracts/crowdfunding.sol\":2790:2796  1 days */\n      0x015180\n        /* \"contracts/crowdfunding.sol\":2772:2787  block.timestamp */\n      timestamp\n        /* \"contracts/crowdfunding.sol\":2772:2796  block.timestamp * 1 days */\n      tag_101\n      swap2\n      swap1\n      tag_63\n      jump\t// in\n    tag_101:\n        /* \"contracts/crowdfunding.sol\":2737:2746  campaigns */\n      0x00\n        /* \"contracts/crowdfunding.sol\":2737:2759  campaigns[_campaignNo] */\n      dup1\n        /* \"contracts/crowdfunding.sol\":2747:2758  _campaignNo */\n      dup5\n        /* \"contracts/crowdfunding.sol\":2737:2759  campaigns[_campaignNo] */\n      dup2\n      mstore\n      0x20\n      add\n      swap1\n      dup2\n      mstore\n      0x20\n      add\n      0x00\n      keccak256\n        /* \"contracts/crowdfunding.sol\":2737:2768  campaigns[_campaignNo].deadline */\n      0x06\n      add\n      sload\n        /* \"contracts/crowdfunding.sol\":2737:2797  campaigns[_campaignNo].deadline > (block.timestamp * 1 days) */\n      gt\n        /* \"contracts/crowdfunding.sol\":2734:2834  if(campaigns[_campaignNo].deadline > (block.timestamp * 1 days)){... */\n      iszero\n      tag_102\n      jumpi\n        /* \"contracts/crowdfunding.sol\":2819:2823  true */\n      0x01\n        /* \"contracts/crowdfunding.sol\":2812:2823  return true */\n      swap1\n      pop\n      jump(tag_100)\n        /* \"contracts/crowdfunding.sol\":2734:2834  if(campaigns[_campaignNo].deadline > (block.timestamp * 1 days)){... */\n    tag_102:\n        /* \"contracts/crowdfunding.sol\":2850:2855  false */\n      0x00\n        /* \"contracts/crowdfunding.sol\":2843:2855  return false */\n      swap1\n      pop\n        /* \"contracts/crowdfunding.sol\":2642:2862  function isDeadlineReached(uint _campaignNo) private view returns(bool _isReached){... */\n    tag_100:\n      swap2\n      swap1\n      pop\n      jump\t// out\n        /* \"#utility.yul\":7:82   */\n    tag_103:\n        /* \"#utility.yul\":40:46   */\n      0x00\n        /* \"#utility.yul\":73:75   */\n      0x40\n        /* \"#utility.yul\":67:76   */\n      mload\n        /* \"#utility.yul\":57:76   */\n      swap1\n      pop\n        /* \"#utility.yul\":7:82   */\n      swap1\n      jump\t// out\n        /* \"#utility.yul\":88:205   */\n    tag_104:\n        /* \"#utility.yul\":197:198   */\n      0x00\n        /* \"#utility.yul\":194:195   */\n      dup1\n        /* \"#utility.yul\":187:199   */\n      revert\n        /* \"#utility.yul\":211:328   */\n    tag_105:\n        /* \"#utility.yul\":320:321   */\n      0x00\n        /* \"#utility.yul\":317:318   */\n      dup1\n        /* \"#utility.yul\":310:322   */\n      revert\n        /* \"#utility.yul\":334:411   */\n    tag_106:\n        /* \"#utility.yul\":371:378   */\n      0x00\n        /* \"#utility.yul\":400:405   */\n      dup2\n        /* \"#utility.yul\":389:405   */\n      swap1\n      pop\n        /* \"#utility.yul\":334:411   */\n      swap2\n      swap1\n      pop\n      jump\t// out\n        /* \"#utility.yul\":417:539   */\n    tag_107:\n        /* \"#utility.yul\":490:514   */\n      tag_166\n        /* \"#utility.yul\":508:513   */\n      dup2\n        /* \"#utility.yul\":490:514   */\n      tag_106\n      jump\t// in\n    tag_166:\n        /* \"#utility.yul\":483:488   */\n      dup2\n        /* \"#utility.yul\":480:515   */\n      eq\n        /* \"#utility.yul\":470:533   */\n      tag_167\n      jumpi\n        /* \"#utility.yul\":529:530   */\n      0x00\n        /* \"#utility.yul\":526:527   */\n      dup1\n        /* \"#utility.yul\":519:531   */\n      revert\n        /* \"#utility.yul\":470:533   */\n    tag_167:\n        /* \"#utility.yul\":417:539   */\n      pop\n      jump\t// out\n        /* \"#utility.yul\":545:684   */\n    tag_108:\n        /* \"#utility.yul\":591:596   */\n      0x00\n        /* \"#utility.yul\":629:635   */\n      dup2\n        /* \"#utility.yul\":616:636   */\n      calldataload\n        /* \"#utility.yul\":607:636   */\n      swap1\n      pop\n        /* \"#utility.yul\":645:678   */\n      tag_169\n        /* \"#utility.yul\":672:677   */\n      dup2\n        /* \"#utility.yul\":645:678   */\n      tag_107\n      jump\t// in\n    tag_169:\n        /* \"#utility.yul\":545:684   */\n      swap3\n      swap2\n      pop\n      pop\n      jump\t// out\n        /* \"#utility.yul\":690:1019   */\n    tag_10:\n        /* \"#utility.yul\":749:755   */\n      0x00\n        /* \"#utility.yul\":798:800   */\n      0x20\n        /* \"#utility.yul\":786:795   */\n      dup3\n        /* \"#utility.yul\":777:784   */\n      dup5\n        /* \"#utility.yul\":773:796   */\n      sub\n        /* \"#utility.yul\":769:801   */\n      slt\n        /* \"#utility.yul\":766:885   */\n      iszero\n      tag_171\n      jumpi\n        /* \"#utility.yul\":804:883   */\n      tag_172\n      tag_104\n      jump\t// in\n    tag_172:\n        /* \"#utility.yul\":766:885   */\n    tag_171:\n        /* \"#utility.yul\":924:925   */\n      0x00\n        /* \"#utility.yul\":949:1002   */\n      tag_173\n        /* \"#utility.yul\":994:1001   */\n      dup5\n        /* \"#utility.yul\":985:991   */\n      dup3\n        /* \"#utility.yul\":974:983   */\n      dup6\n        /* \"#utility.yul\":970:992   */\n      add\n        /* \"#utility.yul\":949:1002   */\n      tag_108\n      jump\t// in\n    tag_173:\n        /* \"#utility.yul\":939:1002   */\n      swap2\n      pop\n        /* \"#utility.yul\":895:1012   */\n      pop\n        /* \"#utility.yul\":690:1019   */\n      swap3\n      swap2\n      pop\n      pop\n      jump\t// out\n        /* \"#utility.yul\":1025:1151   */\n    tag_109:\n        /* \"#utility.yul\":1062:1069   */\n      0x00\n        /* \"#utility.yul\":1102:1144   */\n      0xffffffffffffffffffffffffffffffffffffffff\n        /* \"#utility.yul\":1095:1100   */\n      dup3\n        /* \"#utility.yul\":1091:1145   */\n      and\n        /* \"#utility.yul\":1080:1145   */\n      swap1\n      pop\n        /* \"#utility.yul\":1025:1151   */\n      swap2\n      swap1\n      pop\n      jump\t// out\n        /* \"#utility.yul\":1157:1253   */\n    tag_110:\n        /* \"#utility.yul\":1194:1201   */\n      0x00\n        /* \"#utility.yul\":1223:1247   */\n      tag_176\n        /* \"#utility.yul\":1241:1246   */\n      dup3\n        /* \"#utility.yul\":1223:1247   */\n      tag_109\n      jump\t// in\n    tag_176:\n        /* \"#utility.yul\":1212:1247   */\n      swap1\n      pop\n        /* \"#utility.yul\":1157:1253   */\n      swap2\n      swap1\n      pop\n      jump\t// out\n        /* \"#utility.yul\":1259:1377   */\n    tag_111:\n        /* \"#utility.yul\":1346:1370   */\n      tag_178\n        /* \"#utility.yul\":1364:1369   */\n      dup2\n        /* \"#utility.yul\":1346:1370   */\n      tag_110\n      jump\t// in\n    tag_178:\n        /* \"#utility.yul\":1341:1344   */\n      dup3\n        /* \"#utility.yul\":1334:1371   */\n      mstore\n        /* \"#utility.yul\":1259:1377   */\n      pop\n      pop\n      jump\t// out\n        /* \"#utility.yul\":1383:1482   */\n    tag_112:\n        /* \"#utility.yul\":1435:1441   */\n      0x00\n        /* \"#utility.yul\":1469:1474   */\n      dup2\n        /* \"#utility.yul\":1463:1475   */\n      mload\n        /* \"#utility.yul\":1453:1475   */\n      swap1\n      pop\n        /* \"#utility.yul\":1383:1482   */\n      swap2\n      swap1\n      pop\n      jump\t// out\n        /* \"#utility.yul\":1488:1657   */\n    tag_113:\n        /* \"#utility.yul\":1572:1583   */\n      0x00\n        /* \"#utility.yul\":1606:1612   */\n      dup3\n        /* \"#utility.yul\":1601:1604   */\n      dup3\n        /* \"#utility.yul\":1594:1613   */\n      mstore\n        /* \"#utility.yul\":1646:1650   */\n      0x20\n        /* \"#utility.yul\":1641:1644   */\n      dup3\n        /* \"#utility.yul\":1637:1651   */\n      add\n        /* \"#utility.yul\":1622:1651   */\n      swap1\n      pop\n        /* \"#utility.yul\":1488:1657   */\n      swap3\n      swap2\n      pop\n      pop\n      jump\t// out\n        /* \"#utility.yul\":1663:1909   */\n    tag_114:\n        /* \"#utility.yul\":1744:1745   */\n      0x00\n        /* \"#utility.yul\":1754:1867   */\n    tag_182:\n        /* \"#utility.yul\":1768:1774   */\n      dup4\n        /* \"#utility.yul\":1765:1766   */\n      dup2\n        /* \"#utility.yul\":1762:1775   */\n      lt\n        /* \"#utility.yul\":1754:1867   */\n      iszero\n      tag_184\n      jumpi\n        /* \"#utility.yul\":1853:1854   */\n      dup1\n        /* \"#utility.yul\":1848:1851   */\n      dup3\n        /* \"#utility.yul\":1844:1855   */\n      add\n        /* \"#utility.yul\":1838:1856   */\n      mload\n        /* \"#utility.yul\":1834:1835   */\n      dup2\n        /* \"#utility.yul\":1829:1832   */\n      dup5\n        /* \"#utility.yul\":1825:1836   */\n      add\n        /* \"#utility.yul\":1818:1857   */\n      mstore\n        /* \"#utility.yul\":1790:1792   */\n      0x20\n        /* \"#utility.yul\":1787:1788   */\n      dup2\n        /* \"#utility.yul\":1783:1793   */\n      add\n        /* \"#utility.yul\":1778:1793   */\n      swap1\n      pop\n        /* \"#utility.yul\":1754:1867   */\n      jump(tag_182)\n    tag_184:\n        /* \"#utility.yul\":1901:1902   */\n      0x00\n        /* \"#utility.yul\":1892:1898   */\n      dup5\n        /* \"#utility.yul\":1887:1890   */\n      dup5\n        /* \"#utility.yul\":1883:1899   */\n      add\n        /* \"#utility.yul\":1876:1903   */\n      mstore\n        /* \"#utility.yul\":1725:1909   */\n      pop\n        /* \"#utility.yul\":1663:1909   */\n      pop\n      pop\n      pop\n      jump\t// out\n        /* \"#utility.yul\":1915:2017   */\n    tag_115:\n        /* \"#utility.yul\":1956:1962   */\n      0x00\n        /* \"#utility.yul\":2007:2009   */\n      0x1f\n        /* \"#utility.yul\":2003:2010   */\n      not\n        /* \"#utility.yul\":1998:2000   */\n      0x1f\n        /* \"#utility.yul\":1991:1996   */\n      dup4\n        /* \"#utility.yul\":1987:2001   */\n      add\n        /* \"#utility.yul\":1983:2011   */\n      and\n        /* \"#utility.yul\":1973:2011   */\n      swap1\n      pop\n        /* \"#utility.yul\":1915:2017   */\n      swap2\n      swap1\n      pop\n      jump\t// out\n        /* \"#utility.yul\":2023:2400   */\n    tag_116:\n        /* \"#utility.yul\":2111:2114   */\n      0x00\n        /* \"#utility.yul\":2139:2178   */\n      tag_187\n        /* \"#utility.yul\":2172:2177   */\n      dup3\n        /* \"#utility.yul\":2139:2178   */\n      tag_112\n      jump\t// in\n    tag_187:\n        /* \"#utility.yul\":2194:2265   */\n      tag_188\n        /* \"#utility.yul\":2258:2264   */\n      dup2\n        /* \"#utility.yul\":2253:2256   */\n      dup6\n        /* \"#utility.yul\":2194:2265   */\n      tag_113\n      jump\t// in\n    tag_188:\n        /* \"#utility.yul\":2187:2265   */\n      swap4\n      pop\n        /* \"#utility.yul\":2274:2339   */\n      tag_189\n        /* \"#utility.yul\":2332:2338   */\n      dup2\n        /* \"#utility.yul\":2327:2330   */\n      dup6\n        /* \"#utility.yul\":2320:2324   */\n      0x20\n        /* \"#utility.yul\":2313:2318   */\n      dup7\n        /* \"#utility.yul\":2309:2325   */\n      add\n        /* \"#utility.yul\":2274:2339   */\n      tag_114\n      jump\t// in\n    tag_189:\n        /* \"#utility.yul\":2364:2393   */\n      tag_190\n        /* \"#utility.yul\":2386:2392   */\n      dup2\n        /* \"#utility.yul\":2364:2393   */\n      tag_115\n      jump\t// in\n    tag_190:\n        /* \"#utility.yul\":2359:2362   */\n      dup5\n        /* \"#utility.yul\":2355:2394   */\n      add\n        /* \"#utility.yul\":2348:2394   */\n      swap2\n      pop\n        /* \"#utility.yul\":2115:2400   */\n      pop\n        /* \"#utility.yul\":2023:2400   */\n      swap3\n      swap2\n      pop\n      pop\n      jump\t// out\n        /* \"#utility.yul\":2406:2510   */\n    tag_117:\n        /* \"#utility.yul\":2451:2458   */\n      0x00\n        /* \"#utility.yul\":2480:2504   */\n      tag_192\n        /* \"#utility.yul\":2498:2503   */\n      dup3\n        /* \"#utility.yul\":2480:2504   */\n      tag_109\n      jump\t// in\n    tag_192:\n        /* \"#utility.yul\":2469:2504   */\n      swap1\n      pop\n        /* \"#utility.yul\":2406:2510   */\n      swap2\n      swap1\n      pop\n      jump\t// out\n        /* \"#utility.yul\":2516:2658   */\n    tag_118:\n        /* \"#utility.yul\":2619:2651   */\n      tag_194\n        /* \"#utility.yul\":2645:2650   */\n      dup2\n        /* \"#utility.yul\":2619:2651   */\n      tag_117\n      jump\t// in\n    tag_194:\n        /* \"#utility.yul\":2614:2617   */\n      dup3\n        /* \"#utility.yul\":2607:2652   */\n      mstore\n        /* \"#utility.yul\":2516:2658   */\n      pop\n      pop\n      jump\t// out\n        /* \"#utility.yul\":2664:2782   */\n    tag_119:\n        /* \"#utility.yul\":2751:2775   */\n      tag_196\n        /* \"#utility.yul\":2769:2774   */\n      dup2\n        /* \"#utility.yul\":2751:2775   */\n      tag_106\n      jump\t// in\n    tag_196:\n        /* \"#utility.yul\":2746:2749   */\n      dup3\n        /* \"#utility.yul\":2739:2776   */\n      mstore\n        /* \"#utility.yul\":2664:2782   */\n      pop\n      pop\n      jump\t// out\n        /* \"#utility.yul\":2788:2878   */\n    tag_120:\n        /* \"#utility.yul\":2822:2829   */\n      0x00\n        /* \"#utility.yul\":2865:2870   */\n      dup2\n        /* \"#utility.yul\":2858:2871   */\n      iszero\n        /* \"#utility.yul\":2851:2872   */\n      iszero\n        /* \"#utility.yul\":2840:2872   */\n      swap1\n      pop\n        /* \"#utility.yul\":2788:2878   */\n      swap2\n      swap1\n      pop\n      jump\t// out\n        /* \"#utility.yul\":2884:2993   */\n    tag_121:\n        /* \"#utility.yul\":2965:2986   */\n      tag_199\n        /* \"#utility.yul\":2980:2985   */\n      dup2\n        /* \"#utility.yul\":2965:2986   */\n      tag_120\n      jump\t// in\n    tag_199:\n        /* \"#utility.yul\":2960:2963   */\n      dup3\n        /* \"#utility.yul\":2953:2987   */\n      mstore\n        /* \"#utility.yul\":2884:2993   */\n      pop\n      pop\n      jump\t// out\n        /* \"#utility.yul\":2999:3996   */\n    tag_13:\n        /* \"#utility.yul\":3290:3294   */\n      0x00\n        /* \"#utility.yul\":3328:3331   */\n      0xe0\n        /* \"#utility.yul\":3317:3326   */\n      dup3\n        /* \"#utility.yul\":3313:3332   */\n      add\n        /* \"#utility.yul\":3305:3332   */\n      swap1\n      pop\n        /* \"#utility.yul\":3342:3413   */\n      tag_201\n        /* \"#utility.yul\":3410:3411   */\n      0x00\n        /* \"#utility.yul\":3399:3408   */\n      dup4\n        /* \"#utility.yul\":3395:3412   */\n      add\n        /* \"#utility.yul\":3386:3392   */\n      dup11\n        /* \"#utility.yul\":3342:3413   */\n      tag_111\n      jump\t// in\n    tag_201:\n        /* \"#utility.yul\":3460:3469   */\n      dup2\n        /* \"#utility.yul\":3454:3458   */\n      dup2\n        /* \"#utility.yul\":3450:3470   */\n      sub\n        /* \"#utility.yul\":3445:3447   */\n      0x20\n        /* \"#utility.yul\":3434:3443   */\n      dup4\n        /* \"#utility.yul\":3430:3448   */\n      add\n        /* \"#utility.yul\":3423:3471   */\n      mstore\n        /* \"#utility.yul\":3488:3566   */\n      tag_202\n        /* \"#utility.yul\":3561:3565   */\n      dup2\n        /* \"#utility.yul\":3552:3558   */\n      dup10\n        /* \"#utility.yul\":3488:3566   */\n      tag_116\n      jump\t// in\n    tag_202:\n        /* \"#utility.yul\":3480:3566   */\n      swap1\n      pop\n        /* \"#utility.yul\":3576:3664   */\n      tag_203\n        /* \"#utility.yul\":3660:3662   */\n      0x40\n        /* \"#utility.yul\":3649:3658   */\n      dup4\n        /* \"#utility.yul\":3645:3663   */\n      add\n        /* \"#utility.yul\":3636:3642   */\n      dup9\n        /* \"#utility.yul\":3576:3664   */\n      tag_118\n      jump\t// in\n    tag_203:\n        /* \"#utility.yul\":3674:3746   */\n      tag_204\n        /* \"#utility.yul\":3742:3744   */\n      0x60\n        /* \"#utility.yul\":3731:3740   */\n      dup4\n        /* \"#utility.yul\":3727:3745   */\n      add\n        /* \"#utility.yul\":3718:3724   */\n      dup8\n        /* \"#utility.yul\":3674:3746   */\n      tag_119\n      jump\t// in\n    tag_204:\n        /* \"#utility.yul\":3756:3823   */\n      tag_205\n        /* \"#utility.yul\":3818:3821   */\n      0x80\n        /* \"#utility.yul\":3807:3816   */\n      dup4\n        /* \"#utility.yul\":3803:3822   */\n      add\n        /* \"#utility.yul\":3794:3800   */\n      dup7\n        /* \"#utility.yul\":3756:3823   */\n      tag_121\n      jump\t// in\n    tag_205:\n        /* \"#utility.yul\":3833:3906   */\n      tag_206\n        /* \"#utility.yul\":3901:3904   */\n      0xa0\n        /* \"#utility.yul\":3890:3899   */\n      dup4\n        /* \"#utility.yul\":3886:3905   */\n      add\n        /* \"#utility.yul\":3877:3883   */\n      dup6\n        /* \"#utility.yul\":3833:3906   */\n      tag_119\n      jump\t// in\n    tag_206:\n        /* \"#utility.yul\":3916:3989   */\n      tag_207\n        /* \"#utility.yul\":3984:3987   */\n      0xc0\n        /* \"#utility.yul\":3973:3982   */\n      dup4\n        /* \"#utility.yul\":3969:3988   */\n      add\n        /* \"#utility.yul\":3960:3966   */\n      dup5\n        /* \"#utility.yul\":3916:3989   */\n      tag_119\n      jump\t// in\n    tag_207:\n        /* \"#utility.yul\":2999:3996   */\n      swap9\n      swap8\n      pop\n      pop\n      pop\n      pop\n      pop\n      pop\n      pop\n      pop\n      jump\t// out\n        /* \"#utility.yul\":4002:4119   */\n    tag_122:\n        /* \"#utility.yul\":4111:4112   */\n      0x00\n        /* \"#utility.yul\":4108:4109   */\n      dup1\n        /* \"#utility.yul\":4101:4113   */\n      revert\n        /* \"#utility.yul\":4125:4242   */\n    tag_123:\n        /* \"#utility.yul\":4234:4235   */\n      0x00\n        /* \"#utility.yul\":4231:4232   */\n      dup1\n        /* \"#utility.yul\":4224:4236   */\n      revert\n        /* \"#utility.yul\":4248:4428   */\n    tag_124:\n        /* \"#utility.yul\":4296:4373   */\n      0x4e487b7100000000000000000000000000000000000000000000000000000000\n        /* \"#utility.yul\":4293:4294   */\n      0x00\n        /* \"#utility.yul\":4286:4374   */\n      mstore\n        /* \"#utility.yul\":4393:4397   */\n      0x41\n        /* \"#utility.yul\":4390:4391   */\n      0x04\n        /* \"#utility.yul\":4383:4398   */\n      mstore\n        /* \"#utility.yul\":4417:4421   */\n      0x24\n        /* \"#utility.yul\":4414:4415   */\n      0x00\n        /* \"#utility.yul\":4407:4422   */\n      revert\n        /* \"#utility.yul\":4434:4715   */\n    tag_125:\n        /* \"#utility.yul\":4517:4544   */\n      tag_212\n        /* \"#utility.yul\":4539:4543   */\n      dup3\n        /* \"#utility.yul\":4517:4544   */\n      tag_115\n      jump\t// in\n    tag_212:\n        /* \"#utility.yul\":4509:4515   */\n      dup2\n        /* \"#utility.yul\":4505:4545   */\n      add\n        /* \"#utility.yul\":4647:4653   */\n      dup2\n        /* \"#utility.yul\":4635:4645   */\n      dup2\n        /* \"#utility.yul\":4632:4654   */\n      lt\n        /* \"#utility.yul\":4611:4629   */\n      0xffffffffffffffff\n        /* \"#utility.yul\":4599:4609   */\n      dup3\n        /* \"#utility.yul\":4596:4630   */\n      gt\n        /* \"#utility.yul\":4593:4655   */\n      or\n        /* \"#utility.yul\":4590:4678   */\n      iszero\n      tag_213\n      jumpi\n        /* \"#utility.yul\":4658:4676   */\n      tag_214\n      tag_124\n      jump\t// in\n    tag_214:\n        /* \"#utility.yul\":4590:4678   */\n    tag_213:\n        /* \"#utility.yul\":4698:4708   */\n      dup1\n        /* \"#utility.yul\":4694:4696   */\n      0x40\n        /* \"#utility.yul\":4687:4709   */\n      mstore\n        /* \"#utility.yul\":4477:4715   */\n      pop\n        /* \"#utility.yul\":4434:4715   */\n      pop\n      pop\n      jump\t// out\n        /* \"#utility.yul\":4721:4850   */\n    tag_126:\n        /* \"#utility.yul\":4755:4761   */\n      0x00\n        /* \"#utility.yul\":4782:4802   */\n      tag_216\n      tag_103\n      jump\t// in\n    tag_216:\n        /* \"#utility.yul\":4772:4802   */\n      swap1\n      pop\n        /* \"#utility.yul\":4811:4844   */\n      tag_217\n        /* \"#utility.yul\":4839:4843   */\n      dup3\n        /* \"#utility.yul\":4831:4837   */\n      dup3\n        /* \"#utility.yul\":4811:4844   */\n      tag_125\n      jump\t// in\n    tag_217:\n        /* \"#utility.yul\":4721:4850   */\n      swap2\n      swap1\n      pop\n      jump\t// out\n        /* \"#utility.yul\":4856:5164   */\n    tag_127:\n        /* \"#utility.yul\":4918:4922   */\n      0x00\n        /* \"#utility.yul\":5008:5026   */\n      0xffffffffffffffff\n        /* \"#utility.yul\":5000:5006   */\n      dup3\n        /* \"#utility.yul\":4997:5027   */\n      gt\n        /* \"#utility.yul\":4994:5050   */\n      iszero\n      tag_219\n      jumpi\n        /* \"#utility.yul\":5030:5048   */\n      tag_220\n      tag_124\n      jump\t// in\n    tag_220:\n        /* \"#utility.yul\":4994:5050   */\n    tag_219:\n        /* \"#utility.yul\":5068:5097   */\n      tag_221\n        /* \"#utility.yul\":5090:5096   */\n      dup3\n        /* \"#utility.yul\":5068:5097   */\n      tag_115\n      jump\t// in\n    tag_221:\n        /* \"#utility.yul\":5060:5097   */\n      swap1\n      pop\n        /* \"#utility.yul\":5152:5156   */\n      0x20\n        /* \"#utility.yul\":5146:5150   */\n      dup2\n        /* \"#utility.yul\":5142:5157   */\n      add\n        /* \"#utility.yul\":5134:5157   */\n      swap1\n      pop\n        /* \"#utility.yul\":4856:5164   */\n      swap2\n      swap1\n      pop\n      jump\t// out\n        /* \"#utility.yul\":5170:5316   */\n    tag_128:\n        /* \"#utility.yul\":5267:5273   */\n      dup3\n        /* \"#utility.yul\":5262:5265   */\n      dup2\n        /* \"#utility.yul\":5257:5260   */\n      dup4\n        /* \"#utility.yul\":5244:5274   */\n      calldatacopy\n        /* \"#utility.yul\":5308:5309   */\n      0x00\n        /* \"#utility.yul\":5299:5305   */\n      dup4\n        /* \"#utility.yul\":5294:5297   */\n      dup4\n        /* \"#utility.yul\":5290:5306   */\n      add\n        /* \"#utility.yul\":5283:5310   */\n      mstore\n        /* \"#utility.yul\":5170:5316   */\n      pop\n      pop\n      pop\n      jump\t// out\n        /* \"#utility.yul\":5322:5747   */\n    tag_129:\n        /* \"#utility.yul\":5400:5405   */\n      0x00\n        /* \"#utility.yul\":5425:5491   */\n      tag_224\n        /* \"#utility.yul\":5441:5490   */\n      tag_225\n        /* \"#utility.yul\":5483:5489   */\n      dup5\n        /* \"#utility.yul\":5441:5490   */\n      tag_127\n      jump\t// in\n    tag_225:\n        /* \"#utility.yul\":5425:5491   */\n      tag_126\n      jump\t// in\n    tag_224:\n        /* \"#utility.yul\":5416:5491   */\n      swap1\n      pop\n        /* \"#utility.yul\":5514:5520   */\n      dup3\n        /* \"#utility.yul\":5507:5512   */\n      dup2\n        /* \"#utility.yul\":5500:5521   */\n      mstore\n        /* \"#utility.yul\":5552:5556   */\n      0x20\n        /* \"#utility.yul\":5545:5550   */\n      dup2\n        /* \"#utility.yul\":5541:5557   */\n      add\n        /* \"#utility.yul\":5590:5593   */\n      dup5\n        /* \"#utility.yul\":5581:5587   */\n      dup5\n        /* \"#utility.yul\":5576:5579   */\n      dup5\n        /* \"#utility.yul\":5572:5588   */\n      add\n        /* \"#utility.yul\":5569:5594   */\n      gt\n        /* \"#utility.yul\":5566:5678   */\n      iszero\n      tag_226\n      jumpi\n        /* \"#utility.yul\":5597:5676   */\n      tag_227\n      tag_123\n      jump\t// in\n    tag_227:\n        /* \"#utility.yul\":5566:5678   */\n    tag_226:\n        /* \"#utility.yul\":5687:5741   */\n      tag_228\n        /* \"#utility.yul\":5734:5740   */\n      dup5\n        /* \"#utility.yul\":5729:5732   */\n      dup3\n        /* \"#utility.yul\":5724:5727   */\n      dup6\n        /* \"#utility.yul\":5687:5741   */\n      tag_128\n      jump\t// in\n    tag_228:\n        /* \"#utility.yul\":5406:5747   */\n      pop\n        /* \"#utility.yul\":5322:5747   */\n      swap4\n      swap3\n      pop\n      pop\n      pop\n      jump\t// out\n        /* \"#utility.yul\":5767:6107   */\n    tag_130:\n        /* \"#utility.yul\":5823:5828   */\n      0x00\n        /* \"#utility.yul\":5872:5875   */\n      dup3\n        /* \"#utility.yul\":5865:5869   */\n      0x1f\n        /* \"#utility.yul\":5857:5863   */\n      dup4\n        /* \"#utility.yul\":5853:5870   */\n      add\n        /* \"#utility.yul\":5849:5876   */\n      slt\n        /* \"#utility.yul\":5839:5961   */\n      tag_230\n      jumpi\n        /* \"#utility.yul\":5880:5959   */\n      tag_231\n      tag_122\n      jump\t// in\n    tag_231:\n        /* \"#utility.yul\":5839:5961   */\n    tag_230:\n        /* \"#utility.yul\":5997:6003   */\n      dup2\n        /* \"#utility.yul\":5984:6004   */\n      calldataload\n        /* \"#utility.yul\":6022:6101   */\n      tag_232\n        /* \"#utility.yul\":6097:6100   */\n      dup5\n        /* \"#utility.yul\":6089:6095   */\n      dup3\n        /* \"#utility.yul\":6082:6086   */\n      0x20\n        /* \"#utility.yul\":6074:6080   */\n      dup7\n        /* \"#utility.yul\":6070:6087   */\n      add\n        /* \"#utility.yul\":6022:6101   */\n      tag_129\n      jump\t// in\n    tag_232:\n        /* \"#utility.yul\":6013:6101   */\n      swap2\n      pop\n        /* \"#utility.yul\":5829:6107   */\n      pop\n        /* \"#utility.yul\":5767:6107   */\n      swap3\n      swap2\n      pop\n      pop\n      jump\t// out\n        /* \"#utility.yul\":6113:6622   */\n    tag_16:\n        /* \"#utility.yul\":6182:6188   */\n      0x00\n        /* \"#utility.yul\":6231:6233   */\n      0x20\n        /* \"#utility.yul\":6219:6228   */\n      dup3\n        /* \"#utility.yul\":6210:6217   */\n      dup5\n        /* \"#utility.yul\":6206:6229   */\n      sub\n        /* \"#utility.yul\":6202:6234   */\n      slt\n        /* \"#utility.yul\":6199:6318   */\n      iszero\n      tag_234\n      jumpi\n        /* \"#utility.yul\":6237:6316   */\n      tag_235\n      tag_104\n      jump\t// in\n    tag_235:\n        /* \"#utility.yul\":6199:6318   */\n    tag_234:\n        /* \"#utility.yul\":6385:6386   */\n      0x00\n        /* \"#utility.yul\":6374:6383   */\n      dup3\n        /* \"#utility.yul\":6370:6387   */\n      add\n        /* \"#utility.yul\":6357:6388   */\n      calldataload\n        /* \"#utility.yul\":6415:6433   */\n      0xffffffffffffffff\n        /* \"#utility.yul\":6407:6413   */\n      dup2\n        /* \"#utility.yul\":6404:6434   */\n      gt\n        /* \"#utility.yul\":6401:6518   */\n      iszero\n      tag_236\n      jumpi\n        /* \"#utility.yul\":6437:6516   */\n      tag_237\n      tag_105\n      jump\t// in\n    tag_237:\n        /* \"#utility.yul\":6401:6518   */\n    tag_236:\n        /* \"#utility.yul\":6542:6605   */\n      tag_238\n        /* \"#utility.yul\":6597:6604   */\n      dup5\n        /* \"#utility.yul\":6588:6594   */\n      dup3\n        /* \"#utility.yul\":6577:6586   */\n      dup6\n        /* \"#utility.yul\":6573:6595   */\n      add\n        /* \"#utility.yul\":6542:6605   */\n      tag_130\n      jump\t// in\n    tag_238:\n        /* \"#utility.yul\":6532:6605   */\n      swap2\n      pop\n        /* \"#utility.yul\":6328:6615   */\n      pop\n        /* \"#utility.yul\":6113:6622   */\n      swap3\n      swap2\n      pop\n      pop\n      jump\t// out\n        /* \"#utility.yul\":6628:6766   */\n    tag_131:\n        /* \"#utility.yul\":6709:6741   */\n      tag_240\n        /* \"#utility.yul\":6735:6740   */\n      dup2\n        /* \"#utility.yul\":6709:6741   */\n      tag_117\n      jump\t// in\n    tag_240:\n        /* \"#utility.yul\":6702:6707   */\n      dup2\n        /* \"#utility.yul\":6699:6742   */\n      eq\n        /* \"#utility.yul\":6689:6760   */\n      tag_241\n      jumpi\n        /* \"#utility.yul\":6756:6757   */\n      0x00\n        /* \"#utility.yul\":6753:6754   */\n      dup1\n        /* \"#utility.yul\":6746:6758   */\n      revert\n        /* \"#utility.yul\":6689:6760   */\n    tag_241:\n        /* \"#utility.yul\":6628:6766   */\n      pop\n      jump\t// out\n        /* \"#utility.yul\":6772:6927   */\n    tag_132:\n        /* \"#utility.yul\":6826:6831   */\n      0x00\n        /* \"#utility.yul\":6864:6870   */\n      dup2\n        /* \"#utility.yul\":6851:6871   */\n      calldataload\n        /* \"#utility.yul\":6842:6871   */\n      swap1\n      pop\n        /* \"#utility.yul\":6880:6921   */\n      tag_243\n        /* \"#utility.yul\":6915:6920   */\n      dup2\n        /* \"#utility.yul\":6880:6921   */\n      tag_131\n      jump\t// in\n    tag_243:\n        /* \"#utility.yul\":6772:6927   */\n      swap3\n      swap2\n      pop\n      pop\n      jump\t// out\n        /* \"#utility.yul\":6933:7894   */\n    tag_27:\n        /* \"#utility.yul\":7037:7043   */\n      0x00\n        /* \"#utility.yul\":7045:7051   */\n      dup1\n        /* \"#utility.yul\":7053:7059   */\n      0x00\n        /* \"#utility.yul\":7061:7067   */\n      dup1\n        /* \"#utility.yul\":7110:7113   */\n      0x80\n        /* \"#utility.yul\":7098:7107   */\n      dup6\n        /* \"#utility.yul\":7089:7096   */\n      dup8\n        /* \"#utility.yul\":7085:7108   */\n      sub\n        /* \"#utility.yul\":7081:7114   */\n      slt\n        /* \"#utility.yul\":7078:7198   */\n      iszero\n      tag_245\n      jumpi\n        /* \"#utility.yul\":7117:7196   */\n      tag_246\n      tag_104\n      jump\t// in\n    tag_246:\n        /* \"#utility.yul\":7078:7198   */\n    tag_245:\n        /* \"#utility.yul\":7265:7266   */\n      0x00\n        /* \"#utility.yul\":7254:7263   */\n      dup6\n        /* \"#utility.yul\":7250:7267   */\n      add\n        /* \"#utility.yul\":7237:7268   */\n      calldataload\n        /* \"#utility.yul\":7295:7313   */\n      0xffffffffffffffff\n        /* \"#utility.yul\":7287:7293   */\n      dup2\n        /* \"#utility.yul\":7284:7314   */\n      gt\n        /* \"#utility.yul\":7281:7398   */\n      iszero\n      tag_247\n      jumpi\n        /* \"#utility.yul\":7317:7396   */\n      tag_248\n      tag_105\n      jump\t// in\n    tag_248:\n        /* \"#utility.yul\":7281:7398   */\n    tag_247:\n        /* \"#utility.yul\":7422:7485   */\n      tag_249\n        /* \"#utility.yul\":7477:7484   */\n      dup8\n        /* \"#utility.yul\":7468:7474   */\n      dup3\n        /* \"#utility.yul\":7457:7466   */\n      dup9\n        /* \"#utility.yul\":7453:7475   */\n      add\n        /* \"#utility.yul\":7422:7485   */\n      tag_130\n      jump\t// in\n    tag_249:\n        /* \"#utility.yul\":7412:7485   */\n      swap5\n      pop\n        /* \"#utility.yul\":7208:7495   */\n      pop\n        /* \"#utility.yul\":7534:7536   */\n      0x20\n        /* \"#utility.yul\":7560:7621   */\n      tag_250\n        /* \"#utility.yul\":7613:7620   */\n      dup8\n        /* \"#utility.yul\":7604:7610   */\n      dup3\n        /* \"#utility.yul\":7593:7602   */\n      dup9\n        /* \"#utility.yul\":7589:7611   */\n      add\n        /* \"#utility.yul\":7560:7621   */\n      tag_132\n      jump\t// in\n    tag_250:\n        /* \"#utility.yul\":7550:7621   */\n      swap4\n      pop\n        /* \"#utility.yul\":7505:7631   */\n      pop\n        /* \"#utility.yul\":7670:7672   */\n      0x40\n        /* \"#utility.yul\":7696:7749   */\n      tag_251\n        /* \"#utility.yul\":7741:7748   */\n      dup8\n        /* \"#utility.yul\":7732:7738   */\n      dup3\n        /* \"#utility.yul\":7721:7730   */\n      dup9\n        /* \"#utility.yul\":7717:7739   */\n      add\n        /* \"#utility.yul\":7696:7749   */\n      tag_108\n      jump\t// in\n    tag_251:\n        /* \"#utility.yul\":7686:7749   */\n      swap3\n      pop\n        /* \"#utility.yul\":7641:7759   */\n      pop\n        /* \"#utility.yul\":7798:7800   */\n      0x60\n        /* \"#utility.yul\":7824:7877   */\n      tag_252\n        /* \"#utility.yul\":7869:7876   */\n      dup8\n        /* \"#utility.yul\":7860:7866   */\n      dup3\n        /* \"#utility.yul\":7849:7858   */\n      dup9\n        /* \"#utility.yul\":7845:7867   */\n      add\n        /* \"#utility.yul\":7824:7877   */\n      tag_108\n      jump\t// in\n    tag_252:\n        /* \"#utility.yul\":7814:7877   */\n      swap2\n      pop\n        /* \"#utility.yul\":7769:7887   */\n      pop\n        /* \"#utility.yul\":6933:7894   */\n      swap3\n      swap6\n      swap2\n      swap5\n      pop\n      swap3\n      pop\n      jump\t// out\n        /* \"#utility.yul\":7900:8080   */\n    tag_133:\n        /* \"#utility.yul\":7948:8025   */\n      0x4e487b7100000000000000000000000000000000000000000000000000000000\n        /* \"#utility.yul\":7945:7946   */\n      0x00\n        /* \"#utility.yul\":7938:8026   */\n      mstore\n        /* \"#utility.yul\":8045:8049   */\n      0x22\n        /* \"#utility.yul\":8042:8043   */\n      0x04\n        /* \"#utility.yul\":8035:8050   */\n      mstore\n        /* \"#utility.yul\":8069:8073   */\n      0x24\n        /* \"#utility.yul\":8066:8067   */\n      0x00\n        /* \"#utility.yul\":8059:8074   */\n      revert\n        /* \"#utility.yul\":8086:8406   */\n    tag_30:\n        /* \"#utility.yul\":8130:8136   */\n      0x00\n        /* \"#utility.yul\":8167:8168   */\n      0x02\n        /* \"#utility.yul\":8161:8165   */\n      dup3\n        /* \"#utility.yul\":8157:8169   */\n      div\n        /* \"#utility.yul\":8147:8169   */\n      swap1\n      pop\n        /* \"#utility.yul\":8214:8215   */\n      0x01\n        /* \"#utility.yul\":8208:8212   */\n      dup3\n        /* \"#utility.yul\":8204:8216   */\n      and\n        /* \"#utility.yul\":8235:8253   */\n      dup1\n        /* \"#utility.yul\":8225:8306   */\n      tag_255\n      jumpi\n        /* \"#utility.yul\":8291:8295   */\n      0x7f\n        /* \"#utility.yul\":8283:8289   */\n      dup3\n        /* \"#utility.yul\":8279:8296   */\n      and\n        /* \"#utility.yul\":8269:8296   */\n      swap2\n      pop\n        /* \"#utility.yul\":8225:8306   */\n    tag_255:\n        /* \"#utility.yul\":8353:8355   */\n      0x20\n        /* \"#utility.yul\":8345:8351   */\n      dup3\n        /* \"#utility.yul\":8342:8356   */\n      lt\n        /* \"#utility.yul\":8322:8340   */\n      dup2\n        /* \"#utility.yul\":8319:8357   */\n      sub\n        /* \"#utility.yul\":8316:8400   */\n      tag_256\n      jumpi\n        /* \"#utility.yul\":8372:8390   */\n      tag_257\n      tag_133\n      jump\t// in\n    tag_257:\n        /* \"#utility.yul\":8316:8400   */\n    tag_256:\n        /* \"#utility.yul\":8137:8406   */\n      pop\n        /* \"#utility.yul\":8086:8406   */\n      swap2\n      swap1\n      pop\n      jump\t// out\n        /* \"#utility.yul\":8412:8637   */\n    tag_134:\n        /* \"#utility.yul\":8552:8586   */\n      0x43616d706169676e204e6f742056616c6964206f72204e6f74204f70656e2041\n        /* \"#utility.yul\":8548:8549   */\n      0x00\n        /* \"#utility.yul\":8540:8546   */\n      dup3\n        /* \"#utility.yul\":8536:8550   */\n      add\n        /* \"#utility.yul\":8529:8587   */\n      mstore\n        /* \"#utility.yul\":8621:8629   */\n      0x6e796d6f72650000000000000000000000000000000000000000000000000000\n        /* \"#utility.yul\":8616:8618   */\n      0x20\n        /* \"#utility.yul\":8608:8614   */\n      dup3\n        /* \"#utility.yul\":8604:8619   */\n      add\n        /* \"#utility.yul\":8597:8630   */\n      mstore\n        /* \"#utility.yul\":8412:8637   */\n      pop\n      jump\t// out\n        /* \"#utility.yul\":8643:9009   */\n    tag_135:\n        /* \"#utility.yul\":8785:8788   */\n      0x00\n        /* \"#utility.yul\":8806:8873   */\n      tag_260\n        /* \"#utility.yul\":8870:8872   */\n      0x26\n        /* \"#utility.yul\":8865:8868   */\n      dup4\n        /* \"#utility.yul\":8806:8873   */\n      tag_113\n      jump\t// in\n    tag_260:\n        /* \"#utility.yul\":8799:8873   */\n      swap2\n      pop\n        /* \"#utility.yul\":8882:8975   */\n      tag_261\n        /* \"#utility.yul\":8971:8974   */\n      dup3\n        /* \"#utility.yul\":8882:8975   */\n      tag_134\n      jump\t// in\n    tag_261:\n        /* \"#utility.yul\":9000:9002   */\n      0x40\n        /* \"#utility.yul\":8995:8998   */\n      dup3\n        /* \"#utility.yul\":8991:9003   */\n      add\n        /* \"#utility.yul\":8984:9003   */\n      swap1\n      pop\n        /* \"#utility.yul\":8643:9009   */\n      swap2\n      swap1\n      pop\n      jump\t// out\n        /* \"#utility.yul\":9015:9434   */\n    tag_40:\n        /* \"#utility.yul\":9181:9185   */\n      0x00\n        /* \"#utility.yul\":9219:9221   */\n      0x20\n        /* \"#utility.yul\":9208:9217   */\n      dup3\n        /* \"#utility.yul\":9204:9222   */\n      add\n        /* \"#utility.yul\":9196:9222   */\n      swap1\n      pop\n        /* \"#utility.yul\":9268:9277   */\n      dup2\n        /* \"#utility.yul\":9262:9266   */\n      dup2\n        /* \"#utility.yul\":9258:9278   */\n      sub\n        /* \"#utility.yul\":9254:9255   */\n      0x00\n        /* \"#utility.yul\":9243:9252   */\n      dup4\n        /* \"#utility.yul\":9239:9256   */\n      add\n        /* \"#utility.yul\":9232:9279   */\n      mstore\n        /* \"#utility.yul\":9296:9427   */\n      tag_263\n        /* \"#utility.yul\":9422:9426   */\n      dup2\n        /* \"#utility.yul\":9296:9427   */\n      tag_135\n      jump\t// in\n    tag_263:\n        /* \"#utility.yul\":9288:9427   */\n      swap1\n      pop\n        /* \"#utility.yul\":9015:9434   */\n      swap2\n      swap1\n      pop\n      jump\t// out\n        /* \"#utility.yul\":9440:9620   */\n    tag_136:\n        /* \"#utility.yul\":9488:9565   */\n      0x4e487b7100000000000000000000000000000000000000000000000000000000\n        /* \"#utility.yul\":9485:9486   */\n      0x00\n        /* \"#utility.yul\":9478:9566   */\n      mstore\n        /* \"#utility.yul\":9585:9589   */\n      0x11\n        /* \"#utility.yul\":9582:9583   */\n      0x04\n        /* \"#utility.yul\":9575:9590   */\n      mstore\n        /* \"#utility.yul\":9609:9613   */\n      0x24\n        /* \"#utility.yul\":9606:9607   */\n      0x00\n        /* \"#utility.yul\":9599:9614   */\n      revert\n        /* \"#utility.yul\":9626:9817   */\n    tag_48:\n        /* \"#utility.yul\":9666:9669   */\n      0x00\n        /* \"#utility.yul\":9685:9705   */\n      tag_266\n        /* \"#utility.yul\":9703:9704   */\n      dup3\n        /* \"#utility.yul\":9685:9705   */\n      tag_106\n      jump\t// in\n    tag_266:\n        /* \"#utility.yul\":9680:9705   */\n      swap2\n      pop\n        /* \"#utility.yul\":9719:9739   */\n      tag_267\n        /* \"#utility.yul\":9737:9738   */\n      dup4\n        /* \"#utility.yul\":9719:9739   */\n      tag_106\n      jump\t// in\n    tag_267:\n        /* \"#utility.yul\":9714:9739   */\n      swap3\n      pop\n        /* \"#utility.yul\":9762:9763   */\n      dup3\n        /* \"#utility.yul\":9759:9760   */\n      dup3\n        /* \"#utility.yul\":9755:9764   */\n      add\n        /* \"#utility.yul\":9748:9764   */\n      swap1\n      pop\n        /* \"#utility.yul\":9783:9786   */\n      dup1\n        /* \"#utility.yul\":9780:9781   */\n      dup3\n        /* \"#utility.yul\":9777:9787   */\n      gt\n        /* \"#utility.yul\":9774:9810   */\n      iszero\n      tag_268\n      jumpi\n        /* \"#utility.yul\":9790:9808   */\n      tag_269\n      tag_136\n      jump\t// in\n    tag_269:\n        /* \"#utility.yul\":9774:9810   */\n    tag_268:\n        /* \"#utility.yul\":9626:9817   */\n      swap3\n      swap2\n      pop\n      pop\n      jump\t// out\n        /* \"#utility.yul\":9823:10155   */\n    tag_50:\n        /* \"#utility.yul\":9944:9948   */\n      0x00\n        /* \"#utility.yul\":9982:9984   */\n      0x40\n        /* \"#utility.yul\":9971:9980   */\n      dup3\n        /* \"#utility.yul\":9967:9985   */\n      add\n        /* \"#utility.yul\":9959:9985   */\n      swap1\n      pop\n        /* \"#utility.yul\":9995:10066   */\n      tag_271\n        /* \"#utility.yul\":10063:10064   */\n      0x00\n        /* \"#utility.yul\":10052:10061   */\n      dup4\n        /* \"#utility.yul\":10048:10065   */\n      add\n        /* \"#utility.yul\":10039:10045   */\n      dup6\n        /* \"#utility.yul\":9995:10066   */\n      tag_111\n      jump\t// in\n    tag_271:\n        /* \"#utility.yul\":10076:10148   */\n      tag_272\n        /* \"#utility.yul\":10144:10146   */\n      0x20\n        /* \"#utility.yul\":10133:10142   */\n      dup4\n        /* \"#utility.yul\":10129:10147   */\n      add\n        /* \"#utility.yul\":10120:10126   */\n      dup5\n        /* \"#utility.yul\":10076:10148   */\n      tag_119\n      jump\t// in\n    tag_272:\n        /* \"#utility.yul\":9823:10155   */\n      swap4\n      swap3\n      pop\n      pop\n      pop\n      jump\t// out\n        /* \"#utility.yul\":10161:10221   */\n    tag_137:\n        /* \"#utility.yul\":10189:10192   */\n      0x00\n        /* \"#utility.yul\":10210:10215   */\n      dup2\n        /* \"#utility.yul\":10203:10215   */\n      swap1\n      pop\n        /* \"#utility.yul\":10161:10221   */\n      swap2\n      swap1\n      pop\n      jump\t// out\n        /* \"#utility.yul\":10227:10369   */\n    tag_138:\n        /* \"#utility.yul\":10277:10286   */\n      0x00\n        /* \"#utility.yul\":10310:10363   */\n      tag_275\n        /* \"#utility.yul\":10328:10362   */\n      tag_276\n        /* \"#utility.yul\":10337:10361   */\n      tag_277\n        /* \"#utility.yul\":10355:10360   */\n      dup5\n        /* \"#utility.yul\":10337:10361   */\n      tag_109\n      jump\t// in\n    tag_277:\n        /* \"#utility.yul\":10328:10362   */\n      tag_137\n      jump\t// in\n    tag_276:\n        /* \"#utility.yul\":10310:10363   */\n      tag_109\n      jump\t// in\n    tag_275:\n        /* \"#utility.yul\":10297:10363   */\n      swap1\n      pop\n        /* \"#utility.yul\":10227:10369   */\n      swap2\n      swap1\n      pop\n      jump\t// out\n        /* \"#utility.yul\":10375:10501   */\n    tag_139:\n        /* \"#utility.yul\":10425:10434   */\n      0x00\n        /* \"#utility.yul\":10458:10495   */\n      tag_279\n        /* \"#utility.yul\":10489:10494   */\n      dup3\n        /* \"#utility.yul\":10458:10495   */\n      tag_138\n      jump\t// in\n    tag_279:\n        /* \"#utility.yul\":10445:10495   */\n      swap1\n      pop\n        /* \"#utility.yul\":10375:10501   */\n      swap2\n      swap1\n      pop\n      jump\t// out\n        /* \"#utility.yul\":10507:10641   */\n    tag_140:\n        /* \"#utility.yul\":10565:10574   */\n      0x00\n        /* \"#utility.yul\":10598:10635   */\n      tag_281\n        /* \"#utility.yul\":10629:10634   */\n      dup3\n        /* \"#utility.yul\":10598:10635   */\n      tag_139\n      jump\t// in\n    tag_281:\n        /* \"#utility.yul\":10585:10635   */\n      swap1\n      pop\n        /* \"#utility.yul\":10507:10641   */\n      swap2\n      swap1\n      pop\n      jump\t// out\n        /* \"#utility.yul\":10647:10794   */\n    tag_141:\n        /* \"#utility.yul\":10742:10787   */\n      tag_283\n        /* \"#utility.yul\":10781:10786   */\n      dup2\n        /* \"#utility.yul\":10742:10787   */\n      tag_140\n      jump\t// in\n    tag_283:\n        /* \"#utility.yul\":10737:10740   */\n      dup3\n        /* \"#utility.yul\":10730:10788   */\n      mstore\n        /* \"#utility.yul\":10647:10794   */\n      pop\n      pop\n      jump\t// out\n        /* \"#utility.yul\":10800:11148   */\n    tag_58:\n        /* \"#utility.yul\":10929:10933   */\n      0x00\n        /* \"#utility.yul\":10967:10969   */\n      0x40\n        /* \"#utility.yul\":10956:10965   */\n      dup3\n        /* \"#utility.yul\":10952:10970   */\n      add\n        /* \"#utility.yul\":10944:10970   */\n      swap1\n      pop\n        /* \"#utility.yul\":10980:11059   */\n      tag_285\n        /* \"#utility.yul\":11056:11057   */\n      0x00\n        /* \"#utility.yul\":11045:11054   */\n      dup4\n        /* \"#utility.yul\":11041:11058   */\n      add\n        /* \"#utility.yul\":11032:11038   */\n      dup6\n        /* \"#utility.yul\":10980:11059   */\n      tag_141\n      jump\t// in\n    tag_285:\n        /* \"#utility.yul\":11069:11141   */\n      tag_286\n        /* \"#utility.yul\":11137:11139   */\n      0x20\n        /* \"#utility.yul\":11126:11135   */\n      dup4\n        /* \"#utility.yul\":11122:11140   */\n      add\n        /* \"#utility.yul\":11113:11119   */\n      dup5\n        /* \"#utility.yul\":11069:11141   */\n      tag_119\n      jump\t// in\n    tag_286:\n        /* \"#utility.yul\":10800:11148   */\n      swap4\n      swap3\n      pop\n      pop\n      pop\n      jump\t// out\n        /* \"#utility.yul\":11154:11295   */\n    tag_142:\n        /* \"#utility.yul\":11203:11207   */\n      0x00\n        /* \"#utility.yul\":11226:11229   */\n      dup2\n        /* \"#utility.yul\":11218:11229   */\n      swap1\n      pop\n        /* \"#utility.yul\":11249:11252   */\n      dup2\n        /* \"#utility.yul\":11246:11247   */\n      0x00\n        /* \"#utility.yul\":11239:11253   */\n      mstore\n        /* \"#utility.yul\":11283:11287   */\n      0x20\n        /* \"#utility.yul\":11280:11281   */\n      0x00\n        /* \"#utility.yul\":11270:11288   */\n      keccak256\n        /* \"#utility.yul\":11262:11288   */\n      swap1\n      pop\n        /* \"#utility.yul\":11154:11295   */\n      swap2\n      swap1\n      pop\n      jump\t// out\n        /* \"#utility.yul\":11301:11394   */\n    tag_143:\n        /* \"#utility.yul\":11338:11344   */\n      0x00\n        /* \"#utility.yul\":11385:11387   */\n      0x20\n        /* \"#utility.yul\":11380:11382   */\n      0x1f\n        /* \"#utility.yul\":11373:11378   */\n      dup4\n        /* \"#utility.yul\":11369:11383   */\n      add\n        /* \"#utility.yul\":11365:11388   */\n      div\n        /* \"#utility.yul\":11355:11388   */\n      swap1\n      pop\n        /* \"#utility.yul\":11301:11394   */\n      swap2\n      swap1\n      pop\n      jump\t// out\n        /* \"#utility.yul\":11400:11507   */\n    tag_144:\n        /* \"#utility.yul\":11444:11452   */\n      0x00\n        /* \"#utility.yul\":11494:11499   */\n      dup3\n        /* \"#utility.yul\":11488:11492   */\n      dup3\n        /* \"#utility.yul\":11484:11500   */\n      shl\n        /* \"#utility.yul\":11463:11500   */\n      swap1\n      pop\n        /* \"#utility.yul\":11400:11507   */\n      swap3\n      swap2\n      pop\n      pop\n      jump\t// out\n        /* \"#utility.yul\":11513:11906   */\n    tag_145:\n        /* \"#utility.yul\":11582:11588   */\n      0x00\n        /* \"#utility.yul\":11632:11633   */\n      0x08\n        /* \"#utility.yul\":11620:11630   */\n      dup4\n        /* \"#utility.yul\":11616:11634   */\n      mul\n        /* \"#utility.yul\":11655:11752   */\n      tag_291\n        /* \"#utility.yul\":11685:11751   */\n      0xffffffffffffffffffffffffffffffffffffffffffffffffffffffffffffffff\n        /* \"#utility.yul\":11674:11683   */\n      dup3\n        /* \"#utility.yul\":11655:11752   */\n      tag_144\n      jump\t// in\n    tag_291:\n        /* \"#utility.yul\":11773:11812   */\n      tag_292\n        /* \"#utility.yul\":11803:11811   */\n      dup7\n        /* \"#utility.yul\":11792:11801   */\n      dup4\n        /* \"#utility.yul\":11773:11812   */\n      tag_144\n      jump\t// in\n    tag_292:\n        /* \"#utility.yul\":11761:11812   */\n      swap6\n      pop\n        /* \"#utility.yul\":11845:11849   */\n      dup1\n        /* \"#utility.yul\":11841:11850   */\n      not\n        /* \"#utility.yul\":11834:11839   */\n      dup5\n        /* \"#utility.yul\":11830:11851   */\n      and\n        /* \"#utility.yul\":11821:11851   */\n      swap4\n      pop\n        /* \"#utility.yul\":11894:11898   */\n      dup1\n        /* \"#utility.yul\":11884:11892   */\n      dup7\n        /* \"#utility.yul\":11880:11899   */\n      and\n        /* \"#utility.yul\":11873:11878   */\n      dup5\n        /* \"#utility.yul\":11870:11900   */\n      or\n        /* \"#utility.yul\":11860:11900   */\n      swap3\n      pop\n        /* \"#utility.yul\":11589:11906   */\n      pop\n      pop\n        /* \"#utility.yul\":11513:11906   */\n      swap4\n      swap3\n      pop\n      pop\n      pop\n      jump\t// out\n        /* \"#utility.yul\":11912:12054   */\n    tag_146:\n        /* \"#utility.yul\":11962:11971   */\n      0x00\n        /* \"#utility.yul\":11995:12048   */\n      tag_294\n        /* \"#utility.yul\":12013:12047   */\n      tag_295\n        /* \"#utility.yul\":12022:12046   */\n      tag_296\n        /* \"#utility.yul\":12040:12045   */\n      dup5\n        /* \"#utility.yul\":12022:12046   */\n      tag_106\n      jump\t// in\n    tag_296:\n        /* \"#utility.yul\":12013:12047   */\n      tag_137\n      jump\t// in\n    tag_295:\n        /* \"#utility.yul\":11995:12048   */\n      tag_106\n      jump\t// in\n    tag_294:\n        /* \"#utility.yul\":11982:12048   */\n      swap1\n      pop\n        /* \"#utility.yul\":11912:12054   */\n      swap2\n      swap1\n      pop\n      jump\t// out\n        /* \"#utility.yul\":12060:12135   */\n    tag_147:\n        /* \"#utility.yul\":12103:12106   */\n      0x00\n        /* \"#utility.yul\":12124:12129   */\n      dup2\n        /* \"#utility.yul\":12117:12129   */\n      swap1\n      pop\n        /* \"#utility.yul\":12060:12135   */\n      swap2\n      swap1\n      pop\n      jump\t// out\n        /* \"#utility.yul\":12141:12410   */\n    tag_148:\n        /* \"#utility.yul\":12251:12290   */\n      tag_299\n        /* \"#utility.yul\":12282:12289   */\n      dup4\n        /* \"#utility.yul\":12251:12290   */\n      tag_146\n      jump\t// in\n    tag_299:\n        /* \"#utility.yul\":12312:12403   */\n      tag_300\n        /* \"#utility.yul\":12361:12402   */\n      tag_301\n        /* \"#utility.yul\":12385:12401   */\n      dup3\n        /* \"#utility.yul\":12361:12402   */\n      tag_147\n      jump\t// in\n    tag_301:\n        /* \"#utility.yul\":12353:12359   */\n      dup5\n        /* \"#utility.yul\":12346:12350   */\n      dup5\n        /* \"#utility.yul\":12340:12351   */\n      sload\n        /* \"#utility.yul\":12312:12403   */\n      tag_145\n      jump\t// in\n    tag_300:\n        /* \"#utility.yul\":12306:12310   */\n      dup3\n        /* \"#utility.yul\":12299:12404   */\n      sstore\n        /* \"#utility.yul\":12217:12410   */\n      pop\n        /* \"#utility.yul\":12141:12410   */\n      pop\n      pop\n      pop\n      jump\t// out\n        /* \"#utility.yul\":12416:12489   */\n    tag_149:\n        /* \"#utility.yul\":12461:12464   */\n      0x00\n        /* \"#utility.yul\":12416:12489   */\n      swap1\n      jump\t// out\n        /* \"#utility.yul\":12495:12684   */\n    tag_150:\n        /* \"#utility.yul\":12572:12604   */\n      tag_304\n      tag_149\n      jump\t// in\n    tag_304:\n        /* \"#utility.yul\":12613:12678   */\n      tag_305\n        /* \"#utility.yul\":12671:12677   */\n      dup2\n        /* \"#utility.yul\":12663:12669   */\n      dup5\n        /* \"#utility.yul\":12657:12661   */\n      dup5\n        /* \"#utility.yul\":12613:12678   */\n      tag_148\n      jump\t// in\n    tag_305:\n        /* \"#utility.yul\":12548:12684   */\n      pop\n        /* \"#utility.yul\":12495:12684   */\n      pop\n      pop\n      jump\t// out\n        /* \"#utility.yul\":12690:12876   */\n    tag_151:\n        /* \"#utility.yul\":12750:12870   */\n    tag_307:\n        /* \"#utility.yul\":12767:12770   */\n      dup2\n        /* \"#utility.yul\":12760:12765   */\n      dup2\n        /* \"#utility.yul\":12757:12771   */\n      lt\n        /* \"#utility.yul\":12750:12870   */\n      iszero\n      tag_309\n      jumpi\n        /* \"#utility.yul\":12821:12860   */\n      tag_310\n        /* \"#utility.yul\":12858:12859   */\n      0x00\n        /* \"#utility.yul\":12851:12856   */\n      dup3\n        /* \"#utility.yul\":12821:12860   */\n      tag_150\n      jump\t// in\n    tag_310:\n        /* \"#utility.yul\":12794:12795   */\n      0x01\n        /* \"#utility.yul\":12787:12792   */\n      dup2\n        /* \"#utility.yul\":12783:12796   */\n      add\n        /* \"#utility.yul\":12774:12796   */\n      swap1\n      pop\n        /* \"#utility.yul\":12750:12870   */\n      jump(tag_307)\n    tag_309:\n        /* \"#utility.yul\":12690:12876   */\n      pop\n      pop\n      jump\t// out\n        /* \"#utility.yul\":12882:13425   */\n    tag_152:\n        /* \"#utility.yul\":12983:12985   */\n      0x1f\n        /* \"#utility.yul\":12978:12981   */\n      dup3\n        /* \"#utility.yul\":12975:12986   */\n      gt\n        /* \"#utility.yul\":12972:13418   */\n      iszero\n      tag_312\n      jumpi\n        /* \"#utility.yul\":13017:13055   */\n      tag_313\n        /* \"#utility.yul\":13049:13054   */\n      dup2\n        /* \"#utility.yul\":13017:13055   */\n      tag_142\n      jump\t// in\n    tag_313:\n        /* \"#utility.yul\":13101:13130   */\n      tag_314\n        /* \"#utility.yul\":13119:13129   */\n      dup5\n        /* \"#utility.yul\":13101:13130   */\n      tag_143\n      jump\t// in\n    tag_314:\n        /* \"#utility.yul\":13091:13099   */\n      dup2\n        /* \"#utility.yul\":13087:13131   */\n      add\n        /* \"#utility.yul\":13284:13286   */\n      0x20\n        /* \"#utility.yul\":13272:13282   */\n      dup6\n        /* \"#utility.yul\":13269:13287   */\n      lt\n        /* \"#utility.yul\":13266:13315   */\n      iszero\n      tag_315\n      jumpi\n        /* \"#utility.yul\":13305:13313   */\n      dup2\n        /* \"#utility.yul\":13290:13313   */\n      swap1\n      pop\n        /* \"#utility.yul\":13266:13315   */\n    tag_315:\n        /* \"#utility.yul\":13328:13408   */\n      tag_316\n        /* \"#utility.yul\":13384:13406   */\n      tag_317\n        /* \"#utility.yul\":13402:13405   */\n      dup6\n        /* \"#utility.yul\":13384:13406   */\n      tag_143\n      jump\t// in\n    tag_317:\n        /* \"#utility.yul\":13374:13382   */\n      dup4\n        /* \"#utility.yul\":13370:13407   */\n      add\n        /* \"#utility.yul\":13357:13368   */\n      dup3\n        /* \"#utility.yul\":13328:13408   */\n      tag_151\n      jump\t// in\n    tag_316:\n        /* \"#utility.yul\":12987:13418   */\n      pop\n      pop\n        /* \"#utility.yul\":12972:13418   */\n    tag_312:\n        /* \"#utility.yul\":12882:13425   */\n      pop\n      pop\n      pop\n      jump\t// out\n        /* \"#utility.yul\":13431:13548   */\n    tag_153:\n        /* \"#utility.yul\":13485:13493   */\n      0x00\n        /* \"#utility.yul\":13535:13540   */\n      dup3\n        /* \"#utility.yul\":13529:13533   */\n      dup3\n        /* \"#utility.yul\":13525:13541   */\n      shr\n        /* \"#utility.yul\":13504:13541   */\n      swap1\n      pop\n        /* \"#utility.yul\":13431:13548   */\n      swap3\n      swap2\n      pop\n      pop\n      jump\t// out\n        /* \"#utility.yul\":13554:13723   */\n    tag_154:\n        /* \"#utility.yul\":13598:13604   */\n      0x00\n        /* \"#utility.yul\":13631:13682   */\n      tag_320\n        /* \"#utility.yul\":13679:13680   */\n      0x00\n        /* \"#utility.yul\":13675:13681   */\n      not\n        /* \"#utility.yul\":13667:13672   */\n      dup5\n        /* \"#utility.yul\":13664:13665   */\n      0x08\n        /* \"#utility.yul\":13660:13673   */\n      mul\n        /* \"#utility.yul\":13631:13682   */\n      tag_153\n      jump\t// in\n    tag_320:\n        /* \"#utility.yul\":13627:13683   */\n      not\n        /* \"#utility.yul\":13712:13716   */\n      dup1\n        /* \"#utility.yul\":13706:13710   */\n      dup4\n        /* \"#utility.yul\":13702:13717   */\n      and\n        /* \"#utility.yul\":13692:13717   */\n      swap2\n      pop\n        /* \"#utility.yul\":13605:13723   */\n      pop\n        /* \"#utility.yul\":13554:13723   */\n      swap3\n      swap2\n      pop\n      pop\n      jump\t// out\n        /* \"#utility.yul\":13728:14023   */\n    tag_155:\n        /* \"#utility.yul\":13804:13808   */\n      0x00\n        /* \"#utility.yul\":13950:13979   */\n      tag_322\n        /* \"#utility.yul\":13975:13978   */\n      dup4\n        /* \"#utility.yul\":13969:13973   */\n      dup4\n        /* \"#utility.yul\":13950:13979   */\n      tag_154\n      jump\t// in\n    tag_322:\n        /* \"#utility.yul\":13942:13979   */\n      swap2\n      pop\n        /* \"#utility.yul\":14012:14015   */\n      dup3\n        /* \"#utility.yul\":14009:14010   */\n      0x02\n        /* \"#utility.yul\":14005:14016   */\n      mul\n        /* \"#utility.yul\":13999:14003   */\n      dup3\n        /* \"#utility.yul\":13996:14017   */\n      or\n        /* \"#utility.yul\":13988:14017   */\n      swap1\n      pop\n        /* \"#utility.yul\":13728:14023   */\n      swap3\n      swap2\n      pop\n      pop\n      jump\t// out\n        /* \"#utility.yul\":14028:15423   */\n    tag_61:\n        /* \"#utility.yul\":14145:14182   */\n      tag_324\n        /* \"#utility.yul\":14178:14181   */\n      dup3\n        /* \"#utility.yul\":14145:14182   */\n      tag_112\n      jump\t// in\n    tag_324:\n        /* \"#utility.yul\":14247:14265   */\n      0xffffffffffffffff\n        /* \"#utility.yul\":14239:14245   */\n      dup2\n        /* \"#utility.yul\":14236:14266   */\n      gt\n        /* \"#utility.yul\":14233:14289   */\n      iszero\n      tag_325\n      jumpi\n        /* \"#utility.yul\":14269:14287   */\n      tag_326\n      tag_124\n      jump\t// in\n    tag_326:\n        /* \"#utility.yul\":14233:14289   */\n    tag_325:\n        /* \"#utility.yul\":14313:14351   */\n      tag_327\n        /* \"#utility.yul\":14345:14349   */\n      dup3\n        /* \"#utility.yul\":14339:14350   */\n      sload\n        /* \"#utility.yul\":14313:14351   */\n      tag_30\n      jump\t// in\n    tag_327:\n        /* \"#utility.yul\":14398:14465   */\n      tag_328\n        /* \"#utility.yul\":14458:14464   */\n      dup3\n        /* \"#utility.yul\":14450:14456   */\n      dup3\n        /* \"#utility.yul\":14444:14448   */\n      dup6\n        /* \"#utility.yul\":14398:14465   */\n      tag_152\n      jump\t// in\n    tag_328:\n        /* \"#utility.yul\":14492:14493   */\n      0x00\n        /* \"#utility.yul\":14516:14520   */\n      0x20\n        /* \"#utility.yul\":14503:14520   */\n      swap1\n      pop\n        /* \"#utility.yul\":14548:14550   */\n      0x1f\n        /* \"#utility.yul\":14540:14546   */\n      dup4\n        /* \"#utility.yul\":14537:14551   */\n      gt\n        /* \"#utility.yul\":14565:14566   */\n      0x01\n        /* \"#utility.yul\":14560:15178   */\n      dup2\n      eq\n      tag_330\n      jumpi\n        /* \"#utility.yul\":15222:15223   */\n      0x00\n        /* \"#utility.yul\":15239:15245   */\n      dup5\n        /* \"#utility.yul\":15236:15313   */\n      iszero\n      tag_331\n      jumpi\n        /* \"#utility.yul\":15288:15297   */\n      dup3\n        /* \"#utility.yul\":15283:15286   */\n      dup8\n        /* \"#utility.yul\":15279:15298   */\n      add\n        /* \"#utility.yul\":15273:15299   */\n      mload\n        /* \"#utility.yul\":15264:15299   */\n      swap1\n      pop\n        /* \"#utility.yul\":15236:15313   */\n    tag_331:\n        /* \"#utility.yul\":15339:15406   */\n      tag_332\n        /* \"#utility.yul\":15399:15405   */\n      dup6\n        /* \"#utility.yul\":15392:15397   */\n      dup3\n        /* \"#utility.yul\":15339:15406   */\n      tag_155\n      jump\t// in\n    tag_332:\n        /* \"#utility.yul\":15333:15337   */\n      dup7\n        /* \"#utility.yul\":15326:15407   */\n      sstore\n        /* \"#utility.yul\":15195:15417   */\n      pop\n        /* \"#utility.yul\":14530:15417   */\n      jump(tag_329)\n        /* \"#utility.yul\":14560:15178   */\n    tag_330:\n        /* \"#utility.yul\":14612:14616   */\n      0x1f\n        /* \"#utility.yul\":14608:14617   */\n      not\n        /* \"#utility.yul\":14600:14606   */\n      dup5\n        /* \"#utility.yul\":14596:14618   */\n      and\n        /* \"#utility.yul\":14646:14683   */\n      tag_333\n        /* \"#utility.yul\":14678:14682   */\n      dup7\n        /* \"#utility.yul\":14646:14683   */\n      tag_142\n      jump\t// in\n    tag_333:\n        /* \"#utility.yul\":14705:14706   */\n      0x00\n        /* \"#utility.yul\":14719:14927   */\n    tag_334:\n        /* \"#utility.yul\":14733:14740   */\n      dup3\n        /* \"#utility.yul\":14730:14731   */\n      dup2\n        /* \"#utility.yul\":14727:14741   */\n      lt\n        /* \"#utility.yul\":14719:14927   */\n      iszero\n      tag_336\n      jumpi\n        /* \"#utility.yul\":14812:14821   */\n      dup5\n        /* \"#utility.yul\":14807:14810   */\n      dup10\n        /* \"#utility.yul\":14803:14822   */\n      add\n        /* \"#utility.yul\":14797:14823   */\n      mload\n        /* \"#utility.yul\":14789:14795   */\n      dup3\n        /* \"#utility.yul\":14782:14824   */\n      sstore\n        /* \"#utility.yul\":14863:14864   */\n      0x01\n        /* \"#utility.yul\":14855:14861   */\n      dup3\n        /* \"#utility.yul\":14851:14865   */\n      add\n        /* \"#utility.yul\":14841:14865   */\n      swap2\n      pop\n        /* \"#utility.yul\":14910:14912   */\n      0x20\n        /* \"#utility.yul\":14899:14908   */\n      dup6\n        /* \"#utility.yul\":14895:14913   */\n      add\n        /* \"#utility.yul\":14882:14913   */\n      swap5\n      pop\n        /* \"#utility.yul\":14756:14760   */\n      0x20\n        /* \"#utility.yul\":14753:14754   */\n      dup2\n        /* \"#utility.yul\":14749:14761   */\n      add\n        /* \"#utility.yul\":14744:14761   */\n      swap1\n      pop\n        /* \"#utility.yul\":14719:14927   */\n      jump(tag_334)\n    tag_336:\n        /* \"#utility.yul\":14955:14961   */\n      dup7\n        /* \"#utility.yul\":14946:14953   */\n      dup4\n        /* \"#utility.yul\":14943:14962   */\n      lt\n        /* \"#utility.yul\":14940:15119   */\n      iszero\n      tag_337\n      jumpi\n        /* \"#utility.yul\":15013:15022   */\n      dup5\n        /* \"#utility.yul\":15008:15011   */\n      dup10\n        /* \"#utility.yul\":15004:15023   */\n      add\n        /* \"#utility.yul\":14998:15024   */\n      mload\n        /* \"#utility.yul\":15056:15104   */\n      tag_338\n        /* \"#utility.yul\":15098:15102   */\n      0x1f\n        /* \"#utility.yul\":15090:15096   */\n      dup10\n        /* \"#utility.yul\":15086:15103   */\n      and\n        /* \"#utility.yul\":15075:15084   */\n      dup3\n        /* \"#utility.yul\":15056:15104   */\n      tag_154\n      jump\t// in\n    tag_338:\n        /* \"#utility.yul\":15048:15054   */\n      dup4\n        /* \"#utility.yul\":15041:15105   */\n      sstore\n        /* \"#utility.yul\":14963:15119   */\n      pop\n        /* \"#utility.yul\":14940:15119   */\n    tag_337:\n        /* \"#utility.yul\":15165:15166   */\n      0x01\n        /* \"#utility.yul\":15161:15162   */\n      0x02\n        /* \"#utility.yul\":15153:15159   */\n      dup9\n        /* \"#utility.yul\":15149:15163   */\n      mul\n        /* \"#utility.yul\":15145:15167   */\n      add\n        /* \"#utility.yul\":15139:15143   */\n      dup9\n        /* \"#utility.yul\":15132:15168   */\n      sstore\n        /* \"#utility.yul\":14567:15178   */\n      pop\n      pop\n      pop\n        /* \"#utility.yul\":14530:15417   */\n    tag_329:\n      pop\n        /* \"#utility.yul\":14120:15423   */\n      pop\n      pop\n      pop\n        /* \"#utility.yul\":14028:15423   */\n      pop\n      pop\n      jump\t// out\n        /* \"#utility.yul\":15429:15839   */\n    tag_63:\n        /* \"#utility.yul\":15469:15476   */\n      0x00\n        /* \"#utility.yul\":15492:15512   */\n      tag_340\n        /* \"#utility.yul\":15510:15511   */\n      dup3\n        /* \"#utility.yul\":15492:15512   */\n      tag_106\n      jump\t// in\n    tag_340:\n        /* \"#utility.yul\":15487:15512   */\n      swap2\n      pop\n        /* \"#utility.yul\":15526:15546   */\n      tag_341\n        /* \"#utility.yul\":15544:15545   */\n      dup4\n        /* \"#utility.yul\":15526:15546   */\n      tag_106\n      jump\t// in\n    tag_341:\n        /* \"#utility.yul\":15521:15546   */\n      swap3\n      pop\n        /* \"#utility.yul\":15581:15582   */\n      dup3\n        /* \"#utility.yul\":15578:15579   */\n      dup3\n        /* \"#utility.yul\":15574:15583   */\n      mul\n        /* \"#utility.yul\":15603:15633   */\n      tag_342\n        /* \"#utility.yul\":15621:15632   */\n      dup2\n        /* \"#utility.yul\":15603:15633   */\n      tag_106\n      jump\t// in\n    tag_342:\n        /* \"#utility.yul\":15592:15633   */\n      swap2\n      pop\n        /* \"#utility.yul\":15782:15783   */\n      dup3\n        /* \"#utility.yul\":15773:15780   */\n      dup3\n        /* \"#utility.yul\":15769:15784   */\n      div\n        /* \"#utility.yul\":15766:15767   */\n      dup5\n        /* \"#utility.yul\":15763:15785   */\n      eq\n        /* \"#utility.yul\":15743:15744   */\n      dup4\n        /* \"#utility.yul\":15736:15745   */\n      iszero\n        /* \"#utility.yul\":15716:15799   */\n      or\n        /* \"#utility.yul\":15693:15832   */\n      tag_343\n      jumpi\n        /* \"#utility.yul\":15812:15830   */\n      tag_344\n      tag_136\n      jump\t// in\n    tag_344:\n        /* \"#utility.yul\":15693:15832   */\n    tag_343:\n        /* \"#utility.yul\":15477:15839   */\n      pop\n        /* \"#utility.yul\":15429:15839   */\n      swap3\n      swap2\n      pop\n      pop\n      jump\t// out\n        /* \"#utility.yul\":15845:16078   */\n    tag_66:\n        /* \"#utility.yul\":15884:15887   */\n      0x00\n        /* \"#utility.yul\":15907:15931   */\n      tag_346\n        /* \"#utility.yul\":15925:15930   */\n      dup3\n        /* \"#utility.yul\":15907:15931   */\n      tag_106\n      jump\t// in\n    tag_346:\n        /* \"#utility.yul\":15898:15931   */\n      swap2\n      pop\n        /* \"#utility.yul\":15953:16019   */\n      0xffffffffffffffffffffffffffffffffffffffffffffffffffffffffffffffff\n        /* \"#utility.yul\":15946:15951   */\n      dup3\n        /* \"#utility.yul\":15943:16020   */\n      sub\n        /* \"#utility.yul\":15940:16043   */\n      tag_347\n      jumpi\n        /* \"#utility.yul\":16023:16041   */\n      tag_348\n      tag_136\n      jump\t// in\n    tag_348:\n        /* \"#utility.yul\":15940:16043   */\n    tag_347:\n        /* \"#utility.yul\":16070:16071   */\n      0x01\n        /* \"#utility.yul\":16063:16068   */\n      dup3\n        /* \"#utility.yul\":16059:16072   */\n      add\n        /* \"#utility.yul\":16052:16072   */\n      swap1\n      pop\n        /* \"#utility.yul\":15845:16078   */\n      swap2\n      swap1\n      pop\n      jump\t// out\n        /* \"#utility.yul\":16084:16232   */\n    tag_156:\n        /* \"#utility.yul\":16186:16197   */\n      0x00\n        /* \"#utility.yul\":16223:16226   */\n      dup2\n        /* \"#utility.yul\":16208:16226   */\n      swap1\n      pop\n        /* \"#utility.yul\":16084:16232   */\n      swap3\n      swap2\n      pop\n      pop\n      jump\t// out\n        /* \"#utility.yul\":16238:16628   */\n    tag_157:\n        /* \"#utility.yul\":16344:16347   */\n      0x00\n        /* \"#utility.yul\":16372:16411   */\n      tag_351\n        /* \"#utility.yul\":16405:16410   */\n      dup3\n        /* \"#utility.yul\":16372:16411   */\n      tag_112\n      jump\t// in\n    tag_351:\n        /* \"#utility.yul\":16427:16516   */\n      tag_352\n        /* \"#utility.yul\":16509:16515   */\n      dup2\n        /* \"#utility.yul\":16504:16507   */\n      dup6\n        /* \"#utility.yul\":16427:16516   */\n      tag_156\n      jump\t// in\n    tag_352:\n        /* \"#utility.yul\":16420:16516   */\n      swap4\n      pop\n        /* \"#utility.yul\":16525:16590   */\n      tag_353\n        /* \"#utility.yul\":16583:16589   */\n      dup2\n        /* \"#utility.yul\":16578:16581   */\n      dup6\n        /* \"#utility.yul\":16571:16575   */\n      0x20\n        /* \"#utility.yul\":16564:16569   */\n      dup7\n        /* \"#utility.yul\":16560:16576   */\n      add\n        /* \"#utility.yul\":16525:16590   */\n      tag_114\n      jump\t// in\n    tag_353:\n        /* \"#utility.yul\":16615:16621   */\n      dup1\n        /* \"#utility.yul\":16610:16613   */\n      dup5\n        /* \"#utility.yul\":16606:16622   */\n      add\n        /* \"#utility.yul\":16599:16622   */\n      swap2\n      pop\n        /* \"#utility.yul\":16348:16628   */\n      pop\n        /* \"#utility.yul\":16238:16628   */\n      swap3\n      swap2\n      pop\n      pop\n      jump\t// out\n        /* \"#utility.yul\":16634:16909   */\n    tag_72:\n        /* \"#utility.yul\":16766:16769   */\n      0x00\n        /* \"#utility.yul\":16788:16883   */\n      tag_355\n        /* \"#utility.yul\":16879:16882   */\n      dup3\n        /* \"#utility.yul\":16870:16876   */\n      dup5\n        /* \"#utility.yul\":16788:16883   */\n      tag_157\n      jump\t// in\n    tag_355:\n        /* \"#utility.yul\":16781:16883   */\n      swap2\n      pop\n        /* \"#utility.yul\":16900:16903   */\n      dup2\n        /* \"#utility.yul\":16893:16903   */\n      swap1\n      pop\n        /* \"#utility.yul\":16634:16909   */\n      swap3\n      swap2\n      pop\n      pop\n      jump\t// out\n        /* \"#utility.yul\":16939:17813   */\n    tag_158:\n        /* \"#utility.yul\":17042:17045   */\n      0x00\n        /* \"#utility.yul\":17079:17084   */\n      dup2\n        /* \"#utility.yul\":17073:17085   */\n      sload\n        /* \"#utility.yul\":17108:17144   */\n      tag_357\n        /* \"#utility.yul\":17134:17143   */\n      dup2\n        /* \"#utility.yul\":17108:17144   */\n      tag_30\n      jump\t// in\n    tag_357:\n        /* \"#utility.yul\":17160:17249   */\n      tag_358\n        /* \"#utility.yul\":17242:17248   */\n      dup2\n        /* \"#utility.yul\":17237:17240   */\n      dup7\n        /* \"#utility.yul\":17160:17249   */\n      tag_156\n      jump\t// in\n    tag_358:\n        /* \"#utility.yul\":17153:17249   */\n      swap5\n      pop\n        /* \"#utility.yul\":17280:17281   */\n      0x01\n        /* \"#utility.yul\":17269:17278   */\n      dup3\n        /* \"#utility.yul\":17265:17282   */\n      and\n        /* \"#utility.yul\":17296:17297   */\n      0x00\n        /* \"#utility.yul\":17291:17457   */\n      dup2\n      eq\n      tag_360\n      jumpi\n        /* \"#utility.yul\":17471:17472   */\n      0x01\n        /* \"#utility.yul\":17466:17807   */\n      dup2\n      eq\n      tag_361\n      jumpi\n        /* \"#utility.yul\":17258:17807   */\n      jump(tag_359)\n        /* \"#utility.yul\":17291:17457   */\n    tag_360:\n        /* \"#utility.yul\":17375:17379   */\n      0xff\n        /* \"#utility.yul\":17371:17380   */\n      not\n        /* \"#utility.yul\":17360:17369   */\n      dup4\n        /* \"#utility.yul\":17356:17381   */\n      and\n        /* \"#utility.yul\":17351:17354   */\n      dup7\n        /* \"#utility.yul\":17344:17382   */\n      mstore\n        /* \"#utility.yul\":17437:17443   */\n      dup2\n        /* \"#utility.yul\":17430:17444   */\n      iszero\n        /* \"#utility.yul\":17423:17445   */\n      iszero\n        /* \"#utility.yul\":17415:17421   */\n      dup3\n        /* \"#utility.yul\":17411:17446   */\n      mul\n        /* \"#utility.yul\":17406:17409   */\n      dup7\n        /* \"#utility.yul\":17402:17447   */\n      add\n        /* \"#utility.yul\":17395:17447   */\n      swap4\n      pop\n        /* \"#utility.yul\":17291:17457   */\n      jump(tag_359)\n        /* \"#utility.yul\":17466:17807   */\n    tag_361:\n        /* \"#utility.yul\":17533:17571   */\n      tag_362\n        /* \"#utility.yul\":17565:17570   */\n      dup6\n        /* \"#utility.yul\":17533:17571   */\n      tag_142\n      jump\t// in\n    tag_362:\n        /* \"#utility.yul\":17593:17594   */\n      0x00\n        /* \"#utility.yul\":17607:17761   */\n    tag_363:\n        /* \"#utility.yul\":17621:17627   */\n      dup4\n        /* \"#utility.yul\":17618:17619   */\n      dup2\n        /* \"#utility.yul\":17615:17628   */\n      lt\n        /* \"#utility.yul\":17607:17761   */\n      iszero\n      tag_365\n      jumpi\n        /* \"#utility.yul\":17695:17702   */\n      dup2\n        /* \"#utility.yul\":17689:17703   */\n      sload\n        /* \"#utility.yul\":17685:17686   */\n      dup2\n        /* \"#utility.yul\":17680:17683   */\n      dup10\n        /* \"#utility.yul\":17676:17687   */\n      add\n        /* \"#utility.yul\":17669:17704   */\n      mstore\n        /* \"#utility.yul\":17745:17746   */\n      0x01\n        /* \"#utility.yul\":17736:17743   */\n      dup3\n        /* \"#utility.yul\":17732:17747   */\n      add\n        /* \"#utility.yul\":17721:17747   */\n      swap2\n      pop\n        /* \"#utility.yul\":17643:17647   */\n      0x20\n        /* \"#utility.yul\":17640:17641   */\n      dup2\n        /* \"#utility.yul\":17636:17648   */\n      add\n        /* \"#utility.yul\":17631:17648   */\n      swap1\n      pop\n        /* \"#utility.yul\":17607:17761   */\n      jump(tag_363)\n    tag_365:\n        /* \"#utility.yul\":17790:17796   */\n      dup4\n        /* \"#utility.yul\":17785:17788   */\n      dup9\n        /* \"#utility.yul\":17781:17797   */\n      add\n        /* \"#utility.yul\":17774:17797   */\n      swap6\n      pop\n        /* \"#utility.yul\":17473:17807   */\n      pop\n      pop\n        /* \"#utility.yul\":17258:17807   */\n    tag_359:\n      pop\n        /* \"#utility.yul\":17046:17813   */\n      pop\n      pop\n        /* \"#utility.yul\":16939:17813   */\n      swap3\n      swap2\n      pop\n      pop\n      jump\t// out\n        /* \"#utility.yul\":17819:18088   */\n    tag_74:\n        /* \"#utility.yul\":17948:17951   */\n      0x00\n        /* \"#utility.yul\":17970:18062   */\n      tag_367\n        /* \"#utility.yul\":18058:18061   */\n      dup3\n        /* \"#utility.yul\":18049:18055   */\n      dup5\n        /* \"#utility.yul\":17970:18062   */\n      tag_158\n      jump\t// in\n    tag_367:\n        /* \"#utility.yul\":17963:18062   */\n      swap2\n      pop\n        /* \"#utility.yul\":18079:18082   */\n      dup2\n        /* \"#utility.yul\":18072:18082   */\n      swap1\n      pop\n        /* \"#utility.yul\":17819:18088   */\n      swap3\n      swap2\n      pop\n      pop\n      jump\t// out\n        /* \"#utility.yul\":18118:18949   */\n    tag_159:\n        /* \"#utility.yul\":18203:18206   */\n      0x00\n        /* \"#utility.yul\":18240:18245   */\n      dup2\n        /* \"#utility.yul\":18234:18246   */\n      sload\n        /* \"#utility.yul\":18269:18305   */\n      tag_369\n        /* \"#utility.yul\":18295:18304   */\n      dup2\n        /* \"#utility.yul\":18269:18305   */\n      tag_30\n      jump\t// in\n    tag_369:\n        /* \"#utility.yul\":18321:18392   */\n      tag_370\n        /* \"#utility.yul\":18385:18391   */\n      dup2\n        /* \"#utility.yul\":18380:18383   */\n      dup7\n        /* \"#utility.yul\":18321:18392   */\n      tag_113\n      jump\t// in\n    tag_370:\n        /* \"#utility.yul\":18314:18392   */\n      swap5\n      pop\n        /* \"#utility.yul\":18423:18424   */\n      0x01\n        /* \"#utility.yul\":18412:18421   */\n      dup3\n        /* \"#utility.yul\":18408:18425   */\n      and\n        /* \"#utility.yul\":18439:18440   */\n      0x00\n        /* \"#utility.yul\":18434:18598   */\n      dup2\n      eq\n      tag_372\n      jumpi\n        /* \"#utility.yul\":18612:18613   */\n      0x01\n        /* \"#utility.yul\":18607:18943   */\n      dup2\n      eq\n      tag_373\n      jumpi\n        /* \"#utility.yul\":18401:18943   */\n      jump(tag_371)\n        /* \"#utility.yul\":18434:18598   */\n    tag_372:\n        /* \"#utility.yul\":18518:18522   */\n      0xff\n        /* \"#utility.yul\":18514:18523   */\n      not\n        /* \"#utility.yul\":18503:18512   */\n      dup4\n        /* \"#utility.yul\":18499:18524   */\n      and\n        /* \"#utility.yul\":18494:18497   */\n      dup7\n        /* \"#utility.yul\":18487:18525   */\n      mstore\n        /* \"#utility.yul\":18578:18584   */\n      dup2\n        /* \"#utility.yul\":18571:18585   */\n      iszero\n        /* \"#utility.yul\":18564:18586   */\n      iszero\n        /* \"#utility.yul\":18558:18562   */\n      0x20\n        /* \"#utility.yul\":18554:18587   */\n      mul\n        /* \"#utility.yul\":18549:18552   */\n      dup7\n        /* \"#utility.yul\":18545:18588   */\n      add\n        /* \"#utility.yul\":18538:18588   */\n      swap4\n      pop\n        /* \"#utility.yul\":18434:18598   */\n      jump(tag_371)\n        /* \"#utility.yul\":18607:18943   */\n    tag_373:\n        /* \"#utility.yul\":18674:18712   */\n      tag_374\n        /* \"#utility.yul\":18706:18711   */\n      dup6\n        /* \"#utility.yul\":18674:18712   */\n      tag_142\n      jump\t// in\n    tag_374:\n        /* \"#utility.yul\":18734:18735   */\n      0x00\n        /* \"#utility.yul\":18748:18902   */\n    tag_375:\n        /* \"#utility.yul\":18762:18768   */\n      dup4\n        /* \"#utility.yul\":18759:18760   */\n      dup2\n        /* \"#utility.yul\":18756:18769   */\n      lt\n        /* \"#utility.yul\":18748:18902   */\n      iszero\n      tag_377\n      jumpi\n        /* \"#utility.yul\":18836:18843   */\n      dup2\n        /* \"#utility.yul\":18830:18844   */\n      sload\n        /* \"#utility.yul\":18826:18827   */\n      dup2\n        /* \"#utility.yul\":18821:18824   */\n      dup10\n        /* \"#utility.yul\":18817:18828   */\n      add\n        /* \"#utility.yul\":18810:18845   */\n      mstore\n        /* \"#utility.yul\":18886:18887   */\n      0x01\n        /* \"#utility.yul\":18877:18884   */\n      dup3\n        /* \"#utility.yul\":18873:18888   */\n      add\n        /* \"#utility.yul\":18862:18888   */\n      swap2\n      pop\n        /* \"#utility.yul\":18784:18788   */\n      0x20\n        /* \"#utility.yul\":18781:18782   */\n      dup2\n        /* \"#utility.yul\":18777:18789   */\n      add\n        /* \"#utility.yul\":18772:18789   */\n      swap1\n      pop\n        /* \"#utility.yul\":18748:18902   */\n      jump(tag_375)\n    tag_377:\n        /* \"#utility.yul\":18931:18932   */\n      dup1\n        /* \"#utility.yul\":18926:18929   */\n      dup9\n        /* \"#utility.yul\":18922:18933   */\n      add\n        /* \"#utility.yul\":18915:18933   */\n      swap6\n      pop\n        /* \"#utility.yul\":18614:18943   */\n      pop\n      pop\n        /* \"#utility.yul\":18401:18943   */\n    tag_371:\n      pop\n        /* \"#utility.yul\":18207:18949   */\n      pop\n      pop\n        /* \"#utility.yul\":18118:18949   */\n      swap3\n      swap2\n      pop\n      pop\n      jump\t// out\n        /* \"#utility.yul\":18955:19482   */\n    tag_89:\n        /* \"#utility.yul\":19121:19125   */\n      0x00\n        /* \"#utility.yul\":19159:19161   */\n      0x60\n        /* \"#utility.yul\":19148:19157   */\n      dup3\n        /* \"#utility.yul\":19144:19162   */\n      add\n        /* \"#utility.yul\":19136:19162   */\n      swap1\n      pop\n        /* \"#utility.yul\":19208:19217   */\n      dup2\n        /* \"#utility.yul\":19202:19206   */\n      dup2\n        /* \"#utility.yul\":19198:19218   */\n      sub\n        /* \"#utility.yul\":19194:19195   */\n      0x00\n        /* \"#utility.yul\":19183:19192   */\n      dup4\n        /* \"#utility.yul\":19179:19196   */\n      add\n        /* \"#utility.yul\":19172:19219   */\n      mstore\n        /* \"#utility.yul\":19236:19311   */\n      tag_379\n        /* \"#utility.yul\":19306:19310   */\n      dup2\n        /* \"#utility.yul\":19297:19303   */\n      dup7\n        /* \"#utility.yul\":19236:19311   */\n      tag_159\n      jump\t// in\n    tag_379:\n        /* \"#utility.yul\":19228:19311   */\n      swap1\n      pop\n        /* \"#utility.yul\":19321:19393   */\n      tag_380\n        /* \"#utility.yul\":19389:19391   */\n      0x20\n        /* \"#utility.yul\":19378:19387   */\n      dup4\n        /* \"#utility.yul\":19374:19392   */\n      add\n        /* \"#utility.yul\":19365:19371   */\n      dup6\n        /* \"#utility.yul\":19321:19393   */\n      tag_119\n      jump\t// in\n    tag_380:\n        /* \"#utility.yul\":19403:19475   */\n      tag_381\n        /* \"#utility.yul\":19471:19473   */\n      0x40\n        /* \"#utility.yul\":19460:19469   */\n      dup4\n        /* \"#utility.yul\":19456:19474   */\n      add\n        /* \"#utility.yul\":19447:19453   */\n      dup5\n        /* \"#utility.yul\":19403:19475   */\n      tag_119\n      jump\t// in\n    tag_381:\n        /* \"#utility.yul\":18955:19482   */\n      swap5\n      swap4\n      pop\n      pop\n      pop\n      pop\n      jump\t// out\n        /* \"#utility.yul\":19488:19795   */\n    tag_96:\n        /* \"#utility.yul\":19598:19602   */\n      0x00\n        /* \"#utility.yul\":19636:19638   */\n      0x20\n        /* \"#utility.yul\":19625:19634   */\n      dup3\n        /* \"#utility.yul\":19621:19639   */\n      add\n        /* \"#utility.yul\":19613:19639   */\n      swap1\n      pop\n        /* \"#utility.yul\":19685:19694   */\n      dup2\n        /* \"#utility.yul\":19679:19683   */\n      dup2\n        /* \"#utility.yul\":19675:19695   */\n      sub\n        /* \"#utility.yul\":19671:19672   */\n      0x00\n        /* \"#utility.yul\":19660:19669   */\n      dup4\n        /* \"#utility.yul\":19656:19673   */\n      add\n        /* \"#utility.yul\":19649:19696   */\n      mstore\n        /* \"#utility.yul\":19713:19788   */\n      tag_383\n        /* \"#utility.yul\":19783:19787   */\n      dup2\n        /* \"#utility.yul\":19774:19780   */\n      dup5\n        /* \"#utility.yul\":19713:19788   */\n      tag_159\n      jump\t// in\n    tag_383:\n        /* \"#utility.yul\":19705:19788   */\n      swap1\n      pop\n        /* \"#utility.yul\":19488:19795   */\n      swap3\n      swap2\n      pop\n      pop\n      jump\t// out\n\n    auxdata: 0xa2646970667358221220dc4a30efe95d4638067e75975fc223b70947b0080d7dd8afcba06a8a3e9cf5ac64736f6c63430008160033\n}\n",
				"bytecode": {
					"linkReferences": {},
					"object": "60806040525f600155348015610013575f80fd5b50611334806100215f395ff3fe608060405260043610610049575f3560e01c8063141961bc1461004d57806345f25d631461008f578063c7cba632146100ab578063dcb64d86146100c7578063de932cee146100e3575b5f80fd5b348015610058575f80fd5b50610073600480360381019061006e919061088e565b61010b565b60405161008697969594939291906109cb565b60405180910390f35b6100a960048036038101906100a49190610b6b565b610218565b005b6100c560048036038101906100c0919061088e565b61034a565b005b6100e160048036038101906100dc919061088e565b61034d565b005b3480156100ee575f80fd5b5061010960048036038101906101049190610bdc565b61041c565b005b5f602052805f5260405f205f91509050805f015f9054906101000a900473ffffffffffffffffffffffffffffffffffffffff169080600101805461014e90610c89565b80601f016020809104026020016040519081016040528092919081815260200182805461017a90610c89565b80156101c55780601f1061019c576101008083540402835291602001916101c5565b820191905f5260205f20905b8154815290600101906020018083116101a857829003601f168201915b505050505090806002015f9054906101000a900473ffffffffffffffffffffffffffffffffffffffff1690806003015490806004015f9054906101000a900460ff16908060050154908060060154905087565b61022181610534565b610260576040517f08c379a000000000000000000000000000000000000000000000000000000000815260040161025790610d29565b60405180910390fd5b5f5b60015481101561034657610275826105f0565b156102ce57345f808381526020019081526020015f206007015f3373ffffffffffffffffffffffffffffffffffffffff1673ffffffffffffffffffffffffffffffffffffffff1681526020019081526020015f20819055505b345f808381526020019081526020015f206005015f8282546102f09190610d74565b925050819055507fe2639ef551ad89950da1145fe1fd600e818336d6e8aa88426efe387c49accebb3334604051610328929190610da7565b60405180910390a161033981610686565b8080600101915050610262565b5050565b50565b5f805f8381526020019081526020015f206002015f9054906101000a900473ffffffffffffffffffffffffffffffffffffffff1690505f805f8481526020019081526020015f206005015490508173ffffffffffffffffffffffffffffffffffffffff166108fc8290811502906040515f60405180830381858888f193505050501580156103dd573d5f803e3d5ffd5b507f9450824ff67d7a8a9a13a233327b29a923ff6e7572a146e9ee18f38e7e423c06828260405161040f929190610e29565b60405180910390a1505050565b5f805f60015481526020019081526020015f20905033815f015f6101000a81548173ffffffffffffffffffffffffffffffffffffffff021916908373ffffffffffffffffffffffffffffffffffffffff160217905550848160010190816104839190610fe4565b5083816002015f6101000a81548173ffffffffffffffffffffffffffffffffffffffff021916908373ffffffffffffffffffffffffffffffffffffffff1602179055508281600301819055506001816004015f6101000a81548160ff0219169083151502179055505f8160050181905550620151804261050391906110b3565b8261050e9190610d74565b816006018190555060015f815480929190610528906110f4565b91905055505050505050565b5f805f90505b6001548110156105e657826040516020016105559190611175565b604051602081830303815290604052805190602001205f808381526020019081526020015f2060010160405160200161058e919061120b565b60405160208183030381529060405280519060200120036105d9575f808281526020019081526020015f206004015f9054906101000a900460ff16156105d85760019150506105eb565b5b808060010191505061053a565b505f90505b919050565b5f805f90505b60015481101561067c57826040516020016106119190611175565b604051602081830303815290604052805190602001205f808381526020019081526020015f2060010160405160200161064a919061120b565b604051602081830303815290604052805190602001200361066f576001915050610681565b80806001019150506105f6565b505f90505b919050565b61068f816107ce565b1561073f575f805f8381526020019081526020015f206004015f6101000a81548160ff0219169083151502179055507f161c6ca4afb6a9d993acb2fc7bfbd596905272215a679ae15395f8f94b36ff355f808381526020019081526020015f206001015f808481526020019081526020015f20600301545f808581526020019081526020015f2060050154604051610729939291906112a2565b60405180910390a161073a8161034d565b6107cb565b6107488161080e565b156107ca575f805f8381526020019081526020015f206004015f6101000a81548160ff0219169083151502179055507f7e83bb819d77dde1b95d6fea75b0bb56f02543b94670f327c26cace89cad94445f808381526020019081526020015f206001016040516107b891906112de565b60405180910390a16107c98161034a565b5b5b50565b5f805f8381526020019081526020015f20600301545f808481526020019081526020015f2060050154106108055760019050610809565b5f90505b919050565b5f620151804261081e91906110b3565b5f808481526020019081526020015f206006015411156108415760019050610845565b5f90505b919050565b5f604051905090565b5f80fd5b5f80fd5b5f819050919050565b61086d8161085b565b8114610877575f80fd5b50565b5f8135905061088881610864565b92915050565b5f602082840312156108a3576108a2610853565b5b5f6108b08482850161087a565b91505092915050565b5f73ffffffffffffffffffffffffffffffffffffffff82169050919050565b5f6108e2826108b9565b9050919050565b6108f2816108d8565b82525050565b5f81519050919050565b5f82825260208201905092915050565b5f5b8381101561092f578082015181840152602081019050610914565b5f8484015250505050565b5f601f19601f8301169050919050565b5f610954826108f8565b61095e8185610902565b935061096e818560208601610912565b6109778161093a565b840191505092915050565b5f61098c826108b9565b9050919050565b61099c81610982565b82525050565b6109ab8161085b565b82525050565b5f8115159050919050565b6109c5816109b1565b82525050565b5f60e0820190506109de5f83018a6108e9565b81810360208301526109f0818961094a565b90506109ff6040830188610993565b610a0c60608301876109a2565b610a1960808301866109bc565b610a2660a08301856109a2565b610a3360c08301846109a2565b98975050505050505050565b5f80fd5b5f80fd5b7f4e487b71000000000000000000000000000000000000000000000000000000005f52604160045260245ffd5b610a7d8261093a565b810181811067ffffffffffffffff82111715610a9c57610a9b610a47565b5b80604052505050565b5f610aae61084a565b9050610aba8282610a74565b919050565b5f67ffffffffffffffff821115610ad957610ad8610a47565b5b610ae28261093a565b9050602081019050919050565b828183375f83830152505050565b5f610b0f610b0a84610abf565b610aa5565b905082815260208101848484011115610b2b57610b2a610a43565b5b610b36848285610aef565b509392505050565b5f82601f830112610b5257610b51610a3f565b5b8135610b62848260208601610afd565b91505092915050565b5f60208284031215610b8057610b7f610853565b5b5f82013567ffffffffffffffff811115610b9d57610b9c610857565b5b610ba984828501610b3e565b91505092915050565b610bbb81610982565b8114610bc5575f80fd5b50565b5f81359050610bd681610bb2565b92915050565b5f805f8060808587031215610bf457610bf3610853565b5b5f85013567ffffffffffffffff811115610c1157610c10610857565b5b610c1d87828801610b3e565b9450506020610c2e87828801610bc8565b9350506040610c3f8782880161087a565b9250506060610c508782880161087a565b91505092959194509250565b7f4e487b71000000000000000000000000000000000000000000000000000000005f52602260045260245ffd5b5f6002820490506001821680610ca057607f821691505b602082108103610cb357610cb2610c5c565b5b50919050565b7f43616d706169676e204e6f742056616c6964206f72204e6f74204f70656e20415f8201527f6e796d6f72650000000000000000000000000000000000000000000000000000602082015250565b5f610d13602683610902565b9150610d1e82610cb9565b604082019050919050565b5f6020820190508181035f830152610d4081610d07565b9050919050565b7f4e487b71000000000000000000000000000000000000000000000000000000005f52601160045260245ffd5b5f610d7e8261085b565b9150610d898361085b565b9250828201905080821115610da157610da0610d47565b5b92915050565b5f604082019050610dba5f8301856108e9565b610dc760208301846109a2565b9392505050565b5f819050919050565b5f610df1610dec610de7846108b9565b610dce565b6108b9565b9050919050565b5f610e0282610dd7565b9050919050565b5f610e1382610df8565b9050919050565b610e2381610e09565b82525050565b5f604082019050610e3c5f830185610e1a565b610e4960208301846109a2565b9392505050565b5f819050815f5260205f209050919050565b5f6020601f8301049050919050565b5f82821b905092915050565b5f60088302610eac7fffffffffffffffffffffffffffffffffffffffffffffffffffffffffffffffff82610e71565b610eb68683610e71565b95508019841693508086168417925050509392505050565b5f610ee8610ee3610ede8461085b565b610dce565b61085b565b9050919050565b5f819050919050565b610f0183610ece565b610f15610f0d82610eef565b848454610e7d565b825550505050565b5f90565b610f29610f1d565b610f34818484610ef8565b505050565b5b81811015610f5757610f4c5f82610f21565b600181019050610f3a565b5050565b601f821115610f9c57610f6d81610e50565b610f7684610e62565b81016020851015610f85578190505b610f99610f9185610e62565b830182610f39565b50505b505050565b5f82821c905092915050565b5f610fbc5f1984600802610fa1565b1980831691505092915050565b5f610fd48383610fad565b9150826002028217905092915050565b610fed826108f8565b67ffffffffffffffff81111561100657611005610a47565b5b6110108254610c89565b61101b828285610f5b565b5f60209050601f83116001811461104c575f841561103a578287015190505b6110448582610fc9565b8655506110ab565b601f19841661105a86610e50565b5f5b828110156110815784890151825560018201915060208501945060208101905061105c565b8683101561109e578489015161109a601f891682610fad565b8355505b6001600288020188555050505b505050505050565b5f6110bd8261085b565b91506110c88361085b565b92508282026110d68161085b565b915082820484148315176110ed576110ec610d47565b5b5092915050565b5f6110fe8261085b565b91507fffffffffffffffffffffffffffffffffffffffffffffffffffffffffffffffff82036111305761112f610d47565b5b600182019050919050565b5f81905092915050565b5f61114f826108f8565b611159818561113b565b9350611169818560208601610912565b80840191505092915050565b5f6111808284611145565b915081905092915050565b5f815461119781610c89565b6111a1818661113b565b9450600182165f81146111bb57600181146111d057611202565b60ff1983168652811515820286019350611202565b6111d985610e50565b5f5b838110156111fa578154818901526001820191506020810190506111db565b838801955050505b50505092915050565b5f611216828461118b565b915081905092915050565b5f815461122d81610c89565b6112378186610902565b9450600182165f8114611251576001811461126757611299565b60ff198316865281151560200286019350611299565b61127085610e50565b5f5b8381101561129157815481890152600182019150602081019050611272565b808801955050505b50505092915050565b5f6060820190508181035f8301526112ba8186611221565b90506112c960208301856109a2565b6112d660408301846109a2565b949350505050565b5f6020820190508181035f8301526112f68184611221565b90509291505056fea2646970667358221220dc4a30efe95d4638067e75975fc223b70947b0080d7dd8afcba06a8a3e9cf5ac64736f6c63430008160033",
					"opcodes": "PUSH1 0x80 PUSH1 0x40 MSTORE PUSH0 PUSH1 0x1 SSTORE CALLVALUE DUP1 ISZERO PUSH2 0x13 JUMPI PUSH0 DUP1 REVERT JUMPDEST POP PUSH2 0x1334 DUP1 PUSH2 0x21 PUSH0 CODECOPY PUSH0 RETURN INVALID PUSH1 0x80 PUSH1 0x40 MSTORE PUSH1 0x4 CALLDATASIZE LT PUSH2 0x49 JUMPI PUSH0 CALLDATALOAD PUSH1 0xE0 SHR DUP1 PUSH4 0x141961BC EQ PUSH2 0x4D JUMPI DUP1 PUSH4 0x45F25D63 EQ PUSH2 0x8F JUMPI DUP1 PUSH4 0xC7CBA632 EQ PUSH2 0xAB JUMPI DUP1 PUSH4 0xDCB64D86 EQ PUSH2 0xC7 JUMPI DUP1 PUSH4 0xDE932CEE EQ PUSH2 0xE3 JUMPI JUMPDEST PUSH0 DUP1 REVERT JUMPDEST CALLVALUE DUP1 ISZERO PUSH2 0x58 JUMPI PUSH0 DUP1 REVERT JUMPDEST POP PUSH2 0x73 PUSH1 0x4 DUP1 CALLDATASIZE SUB DUP2 ADD SWAP1 PUSH2 0x6E SWAP2 SWAP1 PUSH2 0x88E JUMP JUMPDEST PUSH2 0x10B JUMP JUMPDEST PUSH1 0x40 MLOAD PUSH2 0x86 SWAP8 SWAP7 SWAP6 SWAP5 SWAP4 SWAP3 SWAP2 SWAP1 PUSH2 0x9CB JUMP JUMPDEST PUSH1 0x40 MLOAD DUP1 SWAP2 SUB SWAP1 RETURN JUMPDEST PUSH2 0xA9 PUSH1 0x4 DUP1 CALLDATASIZE SUB DUP2 ADD SWAP1 PUSH2 0xA4 SWAP2 SWAP1 PUSH2 0xB6B JUMP JUMPDEST PUSH2 0x218 JUMP JUMPDEST STOP JUMPDEST PUSH2 0xC5 PUSH1 0x4 DUP1 CALLDATASIZE SUB DUP2 ADD SWAP1 PUSH2 0xC0 SWAP2 SWAP1 PUSH2 0x88E JUMP JUMPDEST PUSH2 0x34A JUMP JUMPDEST STOP JUMPDEST PUSH2 0xE1 PUSH1 0x4 DUP1 CALLDATASIZE SUB DUP2 ADD SWAP1 PUSH2 0xDC SWAP2 SWAP1 PUSH2 0x88E JUMP JUMPDEST PUSH2 0x34D JUMP JUMPDEST STOP JUMPDEST CALLVALUE DUP1 ISZERO PUSH2 0xEE JUMPI PUSH0 DUP1 REVERT JUMPDEST POP PUSH2 0x109 PUSH1 0x4 DUP1 CALLDATASIZE SUB DUP2 ADD SWAP1 PUSH2 0x104 SWAP2 SWAP1 PUSH2 0xBDC JUMP JUMPDEST PUSH2 0x41C JUMP JUMPDEST STOP JUMPDEST PUSH0 PUSH1 0x20 MSTORE DUP1 PUSH0 MSTORE PUSH1 0x40 PUSH0 KECCAK256 PUSH0 SWAP2 POP SWAP1 POP DUP1 PUSH0 ADD PUSH0 SWAP1 SLOAD SWAP1 PUSH2 0x100 EXP SWAP1 DIV PUSH20 0xFFFFFFFFFFFFFFFFFFFFFFFFFFFFFFFFFFFFFFFF AND SWAP1 DUP1 PUSH1 0x1 ADD DUP1 SLOAD PUSH2 0x14E SWAP1 PUSH2 0xC89 JUMP JUMPDEST DUP1 PUSH1 0x1F ADD PUSH1 0x20 DUP1 SWAP2 DIV MUL PUSH1 0x20 ADD PUSH1 0x40 MLOAD SWAP1 DUP2 ADD PUSH1 0x40 MSTORE DUP1 SWAP3 SWAP2 SWAP1 DUP2 DUP2 MSTORE PUSH1 0x20 ADD DUP3 DUP1 SLOAD PUSH2 0x17A SWAP1 PUSH2 0xC89 JUMP JUMPDEST DUP1 ISZERO PUSH2 0x1C5 JUMPI DUP1 PUSH1 0x1F LT PUSH2 0x19C JUMPI PUSH2 0x100 DUP1 DUP4 SLOAD DIV MUL DUP4 MSTORE SWAP2 PUSH1 0x20 ADD SWAP2 PUSH2 0x1C5 JUMP JUMPDEST DUP3 ADD SWAP2 SWAP1 PUSH0 MSTORE PUSH1 0x20 PUSH0 KECCAK256 SWAP1 JUMPDEST DUP2 SLOAD DUP2 MSTORE SWAP1 PUSH1 0x1 ADD SWAP1 PUSH1 0x20 ADD DUP1 DUP4 GT PUSH2 0x1A8 JUMPI DUP3 SWAP1 SUB PUSH1 0x1F AND DUP3 ADD SWAP2 JUMPDEST POP POP POP POP POP SWAP1 DUP1 PUSH1 0x2 ADD PUSH0 SWAP1 SLOAD SWAP1 PUSH2 0x100 EXP SWAP1 DIV PUSH20 0xFFFFFFFFFFFFFFFFFFFFFFFFFFFFFFFFFFFFFFFF AND SWAP1 DUP1 PUSH1 0x3 ADD SLOAD SWAP1 DUP1 PUSH1 0x4 ADD PUSH0 SWAP1 SLOAD SWAP1 PUSH2 0x100 EXP SWAP1 DIV PUSH1 0xFF AND SWAP1 DUP1 PUSH1 0x5 ADD SLOAD SWAP1 DUP1 PUSH1 0x6 ADD SLOAD SWAP1 POP DUP8 JUMP JUMPDEST PUSH2 0x221 DUP2 PUSH2 0x534 JUMP JUMPDEST PUSH2 0x260 JUMPI PUSH1 0x40 MLOAD PUSH32 0x8C379A000000000000000000000000000000000000000000000000000000000 DUP2 MSTORE PUSH1 0x4 ADD PUSH2 0x257 SWAP1 PUSH2 0xD29 JUMP JUMPDEST PUSH1 0x40 MLOAD DUP1 SWAP2 SUB SWAP1 REVERT JUMPDEST PUSH0 JUMPDEST PUSH1 0x1 SLOAD DUP2 LT ISZERO PUSH2 0x346 JUMPI PUSH2 0x275 DUP3 PUSH2 0x5F0 JUMP JUMPDEST ISZERO PUSH2 0x2CE JUMPI CALLVALUE PUSH0 DUP1 DUP4 DUP2 MSTORE PUSH1 0x20 ADD SWAP1 DUP2 MSTORE PUSH1 0x20 ADD PUSH0 KECCAK256 PUSH1 0x7 ADD PUSH0 CALLER PUSH20 0xFFFFFFFFFFFFFFFFFFFFFFFFFFFFFFFFFFFFFFFF AND PUSH20 0xFFFFFFFFFFFFFFFFFFFFFFFFFFFFFFFFFFFFFFFF AND DUP2 MSTORE PUSH1 0x20 ADD SWAP1 DUP2 MSTORE PUSH1 0x20 ADD PUSH0 KECCAK256 DUP2 SWAP1 SSTORE POP JUMPDEST CALLVALUE PUSH0 DUP1 DUP4 DUP2 MSTORE PUSH1 0x20 ADD SWAP1 DUP2 MSTORE PUSH1 0x20 ADD PUSH0 KECCAK256 PUSH1 0x5 ADD PUSH0 DUP3 DUP3 SLOAD PUSH2 0x2F0 SWAP2 SWAP1 PUSH2 0xD74 JUMP JUMPDEST SWAP3 POP POP DUP2 SWAP1 SSTORE POP PUSH32 0xE2639EF551AD89950DA1145FE1FD600E818336D6E8AA88426EFE387C49ACCEBB CALLER CALLVALUE PUSH1 0x40 MLOAD PUSH2 0x328 SWAP3 SWAP2 SWAP1 PUSH2 0xDA7 JUMP JUMPDEST PUSH1 0x40 MLOAD DUP1 SWAP2 SUB SWAP1 LOG1 PUSH2 0x339 DUP2 PUSH2 0x686 JUMP JUMPDEST DUP1 DUP1 PUSH1 0x1 ADD SWAP2 POP POP PUSH2 0x262 JUMP JUMPDEST POP POP JUMP JUMPDEST POP JUMP JUMPDEST PUSH0 DUP1 PUSH0 DUP4 DUP2 MSTORE PUSH1 0x20 ADD SWAP1 DUP2 MSTORE PUSH1 0x20 ADD PUSH0 KECCAK256 PUSH1 0x2 ADD PUSH0 SWAP1 SLOAD SWAP1 PUSH2 0x100 EXP SWAP1 DIV PUSH20 0xFFFFFFFFFFFFFFFFFFFFFFFFFFFFFFFFFFFFFFFF AND SWAP1 POP PUSH0 DUP1 PUSH0 DUP5 DUP2 MSTORE PUSH1 0x20 ADD SWAP1 DUP2 MSTORE PUSH1 0x20 ADD PUSH0 KECCAK256 PUSH1 0x5 ADD SLOAD SWAP1 POP DUP2 PUSH20 0xFFFFFFFFFFFFFFFFFFFFFFFFFFFFFFFFFFFFFFFF AND PUSH2 0x8FC DUP3 SWAP1 DUP2 ISZERO MUL SWAP1 PUSH1 0x40 MLOAD PUSH0 PUSH1 0x40 MLOAD DUP1 DUP4 SUB DUP2 DUP6 DUP9 DUP9 CALL SWAP4 POP POP POP POP ISZERO DUP1 ISZERO PUSH2 0x3DD JUMPI RETURNDATASIZE PUSH0 DUP1 RETURNDATACOPY RETURNDATASIZE PUSH0 REVERT JUMPDEST POP PUSH32 0x9450824FF67D7A8A9A13A233327B29A923FF6E7572A146E9EE18F38E7E423C06 DUP3 DUP3 PUSH1 0x40 MLOAD PUSH2 0x40F SWAP3 SWAP2 SWAP1 PUSH2 0xE29 JUMP JUMPDEST PUSH1 0x40 MLOAD DUP1 SWAP2 SUB SWAP1 LOG1 POP POP POP JUMP JUMPDEST PUSH0 DUP1 PUSH0 PUSH1 0x1 SLOAD DUP2 MSTORE PUSH1 0x20 ADD SWAP1 DUP2 MSTORE PUSH1 0x20 ADD PUSH0 KECCAK256 SWAP1 POP CALLER DUP2 PUSH0 ADD PUSH0 PUSH2 0x100 EXP DUP2 SLOAD DUP2 PUSH20 0xFFFFFFFFFFFFFFFFFFFFFFFFFFFFFFFFFFFFFFFF MUL NOT AND SWAP1 DUP4 PUSH20 0xFFFFFFFFFFFFFFFFFFFFFFFFFFFFFFFFFFFFFFFF AND MUL OR SWAP1 SSTORE POP DUP5 DUP2 PUSH1 0x1 ADD SWAP1 DUP2 PUSH2 0x483 SWAP2 SWAP1 PUSH2 0xFE4 JUMP JUMPDEST POP DUP4 DUP2 PUSH1 0x2 ADD PUSH0 PUSH2 0x100 EXP DUP2 SLOAD DUP2 PUSH20 0xFFFFFFFFFFFFFFFFFFFFFFFFFFFFFFFFFFFFFFFF MUL NOT AND SWAP1 DUP4 PUSH20 0xFFFFFFFFFFFFFFFFFFFFFFFFFFFFFFFFFFFFFFFF AND MUL OR SWAP1 SSTORE POP DUP3 DUP2 PUSH1 0x3 ADD DUP2 SWAP1 SSTORE POP PUSH1 0x1 DUP2 PUSH1 0x4 ADD PUSH0 PUSH2 0x100 EXP DUP2 SLOAD DUP2 PUSH1 0xFF MUL NOT AND SWAP1 DUP4 ISZERO ISZERO MUL OR SWAP1 SSTORE POP PUSH0 DUP2 PUSH1 0x5 ADD DUP2 SWAP1 SSTORE POP PUSH3 0x15180 TIMESTAMP PUSH2 0x503 SWAP2 SWAP1 PUSH2 0x10B3 JUMP JUMPDEST DUP3 PUSH2 0x50E SWAP2 SWAP1 PUSH2 0xD74 JUMP JUMPDEST DUP2 PUSH1 0x6 ADD DUP2 SWAP1 SSTORE POP PUSH1 0x1 PUSH0 DUP2 SLOAD DUP1 SWAP3 SWAP2 SWAP1 PUSH2 0x528 SWAP1 PUSH2 0x10F4 JUMP JUMPDEST SWAP2 SWAP1 POP SSTORE POP POP POP POP POP POP JUMP JUMPDEST PUSH0 DUP1 PUSH0 SWAP1 POP JUMPDEST PUSH1 0x1 SLOAD DUP2 LT ISZERO PUSH2 0x5E6 JUMPI DUP3 PUSH1 0x40 MLOAD PUSH1 0x20 ADD PUSH2 0x555 SWAP2 SWAP1 PUSH2 0x1175 JUMP JUMPDEST PUSH1 0x40 MLOAD PUSH1 0x20 DUP2 DUP4 SUB SUB DUP2 MSTORE SWAP1 PUSH1 0x40 MSTORE DUP1 MLOAD SWAP1 PUSH1 0x20 ADD KECCAK256 PUSH0 DUP1 DUP4 DUP2 MSTORE PUSH1 0x20 ADD SWAP1 DUP2 MSTORE PUSH1 0x20 ADD PUSH0 KECCAK256 PUSH1 0x1 ADD PUSH1 0x40 MLOAD PUSH1 0x20 ADD PUSH2 0x58E SWAP2 SWAP1 PUSH2 0x120B JUMP JUMPDEST PUSH1 0x40 MLOAD PUSH1 0x20 DUP2 DUP4 SUB SUB DUP2 MSTORE SWAP1 PUSH1 0x40 MSTORE DUP1 MLOAD SWAP1 PUSH1 0x20 ADD KECCAK256 SUB PUSH2 0x5D9 JUMPI PUSH0 DUP1 DUP3 DUP2 MSTORE PUSH1 0x20 ADD SWAP1 DUP2 MSTORE PUSH1 0x20 ADD PUSH0 KECCAK256 PUSH1 0x4 ADD PUSH0 SWAP1 SLOAD SWAP1 PUSH2 0x100 EXP SWAP1 DIV PUSH1 0xFF AND ISZERO PUSH2 0x5D8 JUMPI PUSH1 0x1 SWAP2 POP POP PUSH2 0x5EB JUMP JUMPDEST JUMPDEST DUP1 DUP1 PUSH1 0x1 ADD SWAP2 POP POP PUSH2 0x53A JUMP JUMPDEST POP PUSH0 SWAP1 POP JUMPDEST SWAP2 SWAP1 POP JUMP JUMPDEST PUSH0 DUP1 PUSH0 SWAP1 POP JUMPDEST PUSH1 0x1 SLOAD DUP2 LT ISZERO PUSH2 0x67C JUMPI DUP3 PUSH1 0x40 MLOAD PUSH1 0x20 ADD PUSH2 0x611 SWAP2 SWAP1 PUSH2 0x1175 JUMP JUMPDEST PUSH1 0x40 MLOAD PUSH1 0x20 DUP2 DUP4 SUB SUB DUP2 MSTORE SWAP1 PUSH1 0x40 MSTORE DUP1 MLOAD SWAP1 PUSH1 0x20 ADD KECCAK256 PUSH0 DUP1 DUP4 DUP2 MSTORE PUSH1 0x20 ADD SWAP1 DUP2 MSTORE PUSH1 0x20 ADD PUSH0 KECCAK256 PUSH1 0x1 ADD PUSH1 0x40 MLOAD PUSH1 0x20 ADD PUSH2 0x64A SWAP2 SWAP1 PUSH2 0x120B JUMP JUMPDEST PUSH1 0x40 MLOAD PUSH1 0x20 DUP2 DUP4 SUB SUB DUP2 MSTORE SWAP1 PUSH1 0x40 MSTORE DUP1 MLOAD SWAP1 PUSH1 0x20 ADD KECCAK256 SUB PUSH2 0x66F JUMPI PUSH1 0x1 SWAP2 POP POP PUSH2 0x681 JUMP JUMPDEST DUP1 DUP1 PUSH1 0x1 ADD SWAP2 POP POP PUSH2 0x5F6 JUMP JUMPDEST POP PUSH0 SWAP1 POP JUMPDEST SWAP2 SWAP1 POP JUMP JUMPDEST PUSH2 0x68F DUP2 PUSH2 0x7CE JUMP JUMPDEST ISZERO PUSH2 0x73F JUMPI PUSH0 DUP1 PUSH0 DUP4 DUP2 MSTORE PUSH1 0x20 ADD SWAP1 DUP2 MSTORE PUSH1 0x20 ADD PUSH0 KECCAK256 PUSH1 0x4 ADD PUSH0 PUSH2 0x100 EXP DUP2 SLOAD DUP2 PUSH1 0xFF MUL NOT AND SWAP1 DUP4 ISZERO ISZERO MUL OR SWAP1 SSTORE POP PUSH32 0x161C6CA4AFB6A9D993ACB2FC7BFBD596905272215A679AE15395F8F94B36FF35 PUSH0 DUP1 DUP4 DUP2 MSTORE PUSH1 0x20 ADD SWAP1 DUP2 MSTORE PUSH1 0x20 ADD PUSH0 KECCAK256 PUSH1 0x1 ADD PUSH0 DUP1 DUP5 DUP2 MSTORE PUSH1 0x20 ADD SWAP1 DUP2 MSTORE PUSH1 0x20 ADD PUSH0 KECCAK256 PUSH1 0x3 ADD SLOAD PUSH0 DUP1 DUP6 DUP2 MSTORE PUSH1 0x20 ADD SWAP1 DUP2 MSTORE PUSH1 0x20 ADD PUSH0 KECCAK256 PUSH1 0x5 ADD SLOAD PUSH1 0x40 MLOAD PUSH2 0x729 SWAP4 SWAP3 SWAP2 SWAP1 PUSH2 0x12A2 JUMP JUMPDEST PUSH1 0x40 MLOAD DUP1 SWAP2 SUB SWAP1 LOG1 PUSH2 0x73A DUP2 PUSH2 0x34D JUMP JUMPDEST PUSH2 0x7CB JUMP JUMPDEST PUSH2 0x748 DUP2 PUSH2 0x80E JUMP JUMPDEST ISZERO PUSH2 0x7CA JUMPI PUSH0 DUP1 PUSH0 DUP4 DUP2 MSTORE PUSH1 0x20 ADD SWAP1 DUP2 MSTORE PUSH1 0x20 ADD PUSH0 KECCAK256 PUSH1 0x4 ADD PUSH0 PUSH2 0x100 EXP DUP2 SLOAD DUP2 PUSH1 0xFF MUL NOT AND SWAP1 DUP4 ISZERO ISZERO MUL OR SWAP1 SSTORE POP PUSH32 0x7E83BB819D77DDE1B95D6FEA75B0BB56F02543B94670F327C26CACE89CAD9444 PUSH0 DUP1 DUP4 DUP2 MSTORE PUSH1 0x20 ADD SWAP1 DUP2 MSTORE PUSH1 0x20 ADD PUSH0 KECCAK256 PUSH1 0x1 ADD PUSH1 0x40 MLOAD PUSH2 0x7B8 SWAP2 SWAP1 PUSH2 0x12DE JUMP JUMPDEST PUSH1 0x40 MLOAD DUP1 SWAP2 SUB SWAP1 LOG1 PUSH2 0x7C9 DUP2 PUSH2 0x34A JUMP JUMPDEST JUMPDEST JUMPDEST POP JUMP JUMPDEST PUSH0 DUP1 PUSH0 DUP4 DUP2 MSTORE PUSH1 0x20 ADD SWAP1 DUP2 MSTORE PUSH1 0x20 ADD PUSH0 KECCAK256 PUSH1 0x3 ADD SLOAD PUSH0 DUP1 DUP5 DUP2 MSTORE PUSH1 0x20 ADD SWAP1 DUP2 MSTORE PUSH1 0x20 ADD PUSH0 KECCAK256 PUSH1 0x5 ADD SLOAD LT PUSH2 0x805 JUMPI PUSH1 0x1 SWAP1 POP PUSH2 0x809 JUMP JUMPDEST PUSH0 SWAP1 POP JUMPDEST SWAP2 SWAP1 POP JUMP JUMPDEST PUSH0 PUSH3 0x15180 TIMESTAMP PUSH2 0x81E SWAP2 SWAP1 PUSH2 0x10B3 JUMP JUMPDEST PUSH0 DUP1 DUP5 DUP2 MSTORE PUSH1 0x20 ADD SWAP1 DUP2 MSTORE PUSH1 0x20 ADD PUSH0 KECCAK256 PUSH1 0x6 ADD SLOAD GT ISZERO PUSH2 0x841 JUMPI PUSH1 0x1 SWAP1 POP PUSH2 0x845 JUMP JUMPDEST PUSH0 SWAP1 POP JUMPDEST SWAP2 SWAP1 POP JUMP JUMPDEST PUSH0 PUSH1 0x40 MLOAD SWAP1 POP SWAP1 JUMP JUMPDEST PUSH0 DUP1 REVERT JUMPDEST PUSH0 DUP1 REVERT JUMPDEST PUSH0 DUP2 SWAP1 POP SWAP2 SWAP1 POP JUMP JUMPDEST PUSH2 0x86D DUP2 PUSH2 0x85B JUMP JUMPDEST DUP2 EQ PUSH2 0x877 JUMPI PUSH0 DUP1 REVERT JUMPDEST POP JUMP JUMPDEST PUSH0 DUP2 CALLDATALOAD SWAP1 POP PUSH2 0x888 DUP2 PUSH2 0x864 JUMP JUMPDEST SWAP3 SWAP2 POP POP JUMP JUMPDEST PUSH0 PUSH1 0x20 DUP3 DUP5 SUB SLT ISZERO PUSH2 0x8A3 JUMPI PUSH2 0x8A2 PUSH2 0x853 JUMP JUMPDEST JUMPDEST PUSH0 PUSH2 0x8B0 DUP5 DUP3 DUP6 ADD PUSH2 0x87A JUMP JUMPDEST SWAP2 POP POP SWAP3 SWAP2 POP POP JUMP JUMPDEST PUSH0 PUSH20 0xFFFFFFFFFFFFFFFFFFFFFFFFFFFFFFFFFFFFFFFF DUP3 AND SWAP1 POP SWAP2 SWAP1 POP JUMP JUMPDEST PUSH0 PUSH2 0x8E2 DUP3 PUSH2 0x8B9 JUMP JUMPDEST SWAP1 POP SWAP2 SWAP1 POP JUMP JUMPDEST PUSH2 0x8F2 DUP2 PUSH2 0x8D8 JUMP JUMPDEST DUP3 MSTORE POP POP JUMP JUMPDEST PUSH0 DUP2 MLOAD SWAP1 POP SWAP2 SWAP1 POP JUMP JUMPDEST PUSH0 DUP3 DUP3 MSTORE PUSH1 0x20 DUP3 ADD SWAP1 POP SWAP3 SWAP2 POP POP JUMP JUMPDEST PUSH0 JUMPDEST DUP4 DUP2 LT ISZERO PUSH2 0x92F JUMPI DUP1 DUP3 ADD MLOAD DUP2 DUP5 ADD MSTORE PUSH1 0x20 DUP2 ADD SWAP1 POP PUSH2 0x914 JUMP JUMPDEST PUSH0 DUP5 DUP5 ADD MSTORE POP POP POP POP JUMP JUMPDEST PUSH0 PUSH1 0x1F NOT PUSH1 0x1F DUP4 ADD AND SWAP1 POP SWAP2 SWAP1 POP JUMP JUMPDEST PUSH0 PUSH2 0x954 DUP3 PUSH2 0x8F8 JUMP JUMPDEST PUSH2 0x95E DUP2 DUP6 PUSH2 0x902 JUMP JUMPDEST SWAP4 POP PUSH2 0x96E DUP2 DUP6 PUSH1 0x20 DUP7 ADD PUSH2 0x912 JUMP JUMPDEST PUSH2 0x977 DUP2 PUSH2 0x93A JUMP JUMPDEST DUP5 ADD SWAP2 POP POP SWAP3 SWAP2 POP POP JUMP JUMPDEST PUSH0 PUSH2 0x98C DUP3 PUSH2 0x8B9 JUMP JUMPDEST SWAP1 POP SWAP2 SWAP1 POP JUMP JUMPDEST PUSH2 0x99C DUP2 PUSH2 0x982 JUMP JUMPDEST DUP3 MSTORE POP POP JUMP JUMPDEST PUSH2 0x9AB DUP2 PUSH2 0x85B JUMP JUMPDEST DUP3 MSTORE POP POP JUMP JUMPDEST PUSH0 DUP2 ISZERO ISZERO SWAP1 POP SWAP2 SWAP1 POP JUMP JUMPDEST PUSH2 0x9C5 DUP2 PUSH2 0x9B1 JUMP JUMPDEST DUP3 MSTORE POP POP JUMP JUMPDEST PUSH0 PUSH1 0xE0 DUP3 ADD SWAP1 POP PUSH2 0x9DE PUSH0 DUP4 ADD DUP11 PUSH2 0x8E9 JUMP JUMPDEST DUP2 DUP2 SUB PUSH1 0x20 DUP4 ADD MSTORE PUSH2 0x9F0 DUP2 DUP10 PUSH2 0x94A JUMP JUMPDEST SWAP1 POP PUSH2 0x9FF PUSH1 0x40 DUP4 ADD DUP9 PUSH2 0x993 JUMP JUMPDEST PUSH2 0xA0C PUSH1 0x60 DUP4 ADD DUP8 PUSH2 0x9A2 JUMP JUMPDEST PUSH2 0xA19 PUSH1 0x80 DUP4 ADD DUP7 PUSH2 0x9BC JUMP JUMPDEST PUSH2 0xA26 PUSH1 0xA0 DUP4 ADD DUP6 PUSH2 0x9A2 JUMP JUMPDEST PUSH2 0xA33 PUSH1 0xC0 DUP4 ADD DUP5 PUSH2 0x9A2 JUMP JUMPDEST SWAP9 SWAP8 POP POP POP POP POP POP POP POP JUMP JUMPDEST PUSH0 DUP1 REVERT JUMPDEST PUSH0 DUP1 REVERT JUMPDEST PUSH32 0x4E487B7100000000000000000000000000000000000000000000000000000000 PUSH0 MSTORE PUSH1 0x41 PUSH1 0x4 MSTORE PUSH1 0x24 PUSH0 REVERT JUMPDEST PUSH2 0xA7D DUP3 PUSH2 0x93A JUMP JUMPDEST DUP2 ADD DUP2 DUP2 LT PUSH8 0xFFFFFFFFFFFFFFFF DUP3 GT OR ISZERO PUSH2 0xA9C JUMPI PUSH2 0xA9B PUSH2 0xA47 JUMP JUMPDEST JUMPDEST DUP1 PUSH1 0x40 MSTORE POP POP POP JUMP JUMPDEST PUSH0 PUSH2 0xAAE PUSH2 0x84A JUMP JUMPDEST SWAP1 POP PUSH2 0xABA DUP3 DUP3 PUSH2 0xA74 JUMP JUMPDEST SWAP2 SWAP1 POP JUMP JUMPDEST PUSH0 PUSH8 0xFFFFFFFFFFFFFFFF DUP3 GT ISZERO PUSH2 0xAD9 JUMPI PUSH2 0xAD8 PUSH2 0xA47 JUMP JUMPDEST JUMPDEST PUSH2 0xAE2 DUP3 PUSH2 0x93A JUMP JUMPDEST SWAP1 POP PUSH1 0x20 DUP2 ADD SWAP1 POP SWAP2 SWAP1 POP JUMP JUMPDEST DUP3 DUP2 DUP4 CALLDATACOPY PUSH0 DUP4 DUP4 ADD MSTORE POP POP POP JUMP JUMPDEST PUSH0 PUSH2 0xB0F PUSH2 0xB0A DUP5 PUSH2 0xABF JUMP JUMPDEST PUSH2 0xAA5 JUMP JUMPDEST SWAP1 POP DUP3 DUP2 MSTORE PUSH1 0x20 DUP2 ADD DUP5 DUP5 DUP5 ADD GT ISZERO PUSH2 0xB2B JUMPI PUSH2 0xB2A PUSH2 0xA43 JUMP JUMPDEST JUMPDEST PUSH2 0xB36 DUP5 DUP3 DUP6 PUSH2 0xAEF JUMP JUMPDEST POP SWAP4 SWAP3 POP POP POP JUMP JUMPDEST PUSH0 DUP3 PUSH1 0x1F DUP4 ADD SLT PUSH2 0xB52 JUMPI PUSH2 0xB51 PUSH2 0xA3F JUMP JUMPDEST JUMPDEST DUP2 CALLDATALOAD PUSH2 0xB62 DUP5 DUP3 PUSH1 0x20 DUP7 ADD PUSH2 0xAFD JUMP JUMPDEST SWAP2 POP POP SWAP3 SWAP2 POP POP JUMP JUMPDEST PUSH0 PUSH1 0x20 DUP3 DUP5 SUB SLT ISZERO PUSH2 0xB80 JUMPI PUSH2 0xB7F PUSH2 0x853 JUMP JUMPDEST JUMPDEST PUSH0 DUP3 ADD CALLDATALOAD PUSH8 0xFFFFFFFFFFFFFFFF DUP2 GT ISZERO PUSH2 0xB9D JUMPI PUSH2 0xB9C PUSH2 0x857 JUMP JUMPDEST JUMPDEST PUSH2 0xBA9 DUP5 DUP3 DUP6 ADD PUSH2 0xB3E JUMP JUMPDEST SWAP2 POP POP SWAP3 SWAP2 POP POP JUMP JUMPDEST PUSH2 0xBBB DUP2 PUSH2 0x982 JUMP JUMPDEST DUP2 EQ PUSH2 0xBC5 JUMPI PUSH0 DUP1 REVERT JUMPDEST POP JUMP JUMPDEST PUSH0 DUP2 CALLDATALOAD SWAP1 POP PUSH2 0xBD6 DUP2 PUSH2 0xBB2 JUMP JUMPDEST SWAP3 SWAP2 POP POP JUMP JUMPDEST PUSH0 DUP1 PUSH0 DUP1 PUSH1 0x80 DUP6 DUP8 SUB SLT ISZERO PUSH2 0xBF4 JUMPI PUSH2 0xBF3 PUSH2 0x853 JUMP JUMPDEST JUMPDEST PUSH0 DUP6 ADD CALLDATALOAD PUSH8 0xFFFFFFFFFFFFFFFF DUP2 GT ISZERO PUSH2 0xC11 JUMPI PUSH2 0xC10 PUSH2 0x857 JUMP JUMPDEST JUMPDEST PUSH2 0xC1D DUP8 DUP3 DUP9 ADD PUSH2 0xB3E JUMP JUMPDEST SWAP5 POP POP PUSH1 0x20 PUSH2 0xC2E DUP8 DUP3 DUP9 ADD PUSH2 0xBC8 JUMP JUMPDEST SWAP4 POP POP PUSH1 0x40 PUSH2 0xC3F DUP8 DUP3 DUP9 ADD PUSH2 0x87A JUMP JUMPDEST SWAP3 POP POP PUSH1 0x60 PUSH2 0xC50 DUP8 DUP3 DUP9 ADD PUSH2 0x87A JUMP JUMPDEST SWAP2 POP POP SWAP3 SWAP6 SWAP2 SWAP5 POP SWAP3 POP JUMP JUMPDEST PUSH32 0x4E487B7100000000000000000000000000000000000000000000000000000000 PUSH0 MSTORE PUSH1 0x22 PUSH1 0x4 MSTORE PUSH1 0x24 PUSH0 REVERT JUMPDEST PUSH0 PUSH1 0x2 DUP3 DIV SWAP1 POP PUSH1 0x1 DUP3 AND DUP1 PUSH2 0xCA0 JUMPI PUSH1 0x7F DUP3 AND SWAP2 POP JUMPDEST PUSH1 0x20 DUP3 LT DUP2 SUB PUSH2 0xCB3 JUMPI PUSH2 0xCB2 PUSH2 0xC5C JUMP JUMPDEST JUMPDEST POP SWAP2 SWAP1 POP JUMP JUMPDEST PUSH32 0x43616D706169676E204E6F742056616C6964206F72204E6F74204F70656E2041 PUSH0 DUP3 ADD MSTORE PUSH32 0x6E796D6F72650000000000000000000000000000000000000000000000000000 PUSH1 0x20 DUP3 ADD MSTORE POP JUMP JUMPDEST PUSH0 PUSH2 0xD13 PUSH1 0x26 DUP4 PUSH2 0x902 JUMP JUMPDEST SWAP2 POP PUSH2 0xD1E DUP3 PUSH2 0xCB9 JUMP JUMPDEST PUSH1 0x40 DUP3 ADD SWAP1 POP SWAP2 SWAP1 POP JUMP JUMPDEST PUSH0 PUSH1 0x20 DUP3 ADD SWAP1 POP DUP2 DUP2 SUB PUSH0 DUP4 ADD MSTORE PUSH2 0xD40 DUP2 PUSH2 0xD07 JUMP JUMPDEST SWAP1 POP SWAP2 SWAP1 POP JUMP JUMPDEST PUSH32 0x4E487B7100000000000000000000000000000000000000000000000000000000 PUSH0 MSTORE PUSH1 0x11 PUSH1 0x4 MSTORE PUSH1 0x24 PUSH0 REVERT JUMPDEST PUSH0 PUSH2 0xD7E DUP3 PUSH2 0x85B JUMP JUMPDEST SWAP2 POP PUSH2 0xD89 DUP4 PUSH2 0x85B JUMP JUMPDEST SWAP3 POP DUP3 DUP3 ADD SWAP1 POP DUP1 DUP3 GT ISZERO PUSH2 0xDA1 JUMPI PUSH2 0xDA0 PUSH2 0xD47 JUMP JUMPDEST JUMPDEST SWAP3 SWAP2 POP POP JUMP JUMPDEST PUSH0 PUSH1 0x40 DUP3 ADD SWAP1 POP PUSH2 0xDBA PUSH0 DUP4 ADD DUP6 PUSH2 0x8E9 JUMP JUMPDEST PUSH2 0xDC7 PUSH1 0x20 DUP4 ADD DUP5 PUSH2 0x9A2 JUMP JUMPDEST SWAP4 SWAP3 POP POP POP JUMP JUMPDEST PUSH0 DUP2 SWAP1 POP SWAP2 SWAP1 POP JUMP JUMPDEST PUSH0 PUSH2 0xDF1 PUSH2 0xDEC PUSH2 0xDE7 DUP5 PUSH2 0x8B9 JUMP JUMPDEST PUSH2 0xDCE JUMP JUMPDEST PUSH2 0x8B9 JUMP JUMPDEST SWAP1 POP SWAP2 SWAP1 POP JUMP JUMPDEST PUSH0 PUSH2 0xE02 DUP3 PUSH2 0xDD7 JUMP JUMPDEST SWAP1 POP SWAP2 SWAP1 POP JUMP JUMPDEST PUSH0 PUSH2 0xE13 DUP3 PUSH2 0xDF8 JUMP JUMPDEST SWAP1 POP SWAP2 SWAP1 POP JUMP JUMPDEST PUSH2 0xE23 DUP2 PUSH2 0xE09 JUMP JUMPDEST DUP3 MSTORE POP POP JUMP JUMPDEST PUSH0 PUSH1 0x40 DUP3 ADD SWAP1 POP PUSH2 0xE3C PUSH0 DUP4 ADD DUP6 PUSH2 0xE1A JUMP JUMPDEST PUSH2 0xE49 PUSH1 0x20 DUP4 ADD DUP5 PUSH2 0x9A2 JUMP JUMPDEST SWAP4 SWAP3 POP POP POP JUMP JUMPDEST PUSH0 DUP2 SWAP1 POP DUP2 PUSH0 MSTORE PUSH1 0x20 PUSH0 KECCAK256 SWAP1 POP SWAP2 SWAP1 POP JUMP JUMPDEST PUSH0 PUSH1 0x20 PUSH1 0x1F DUP4 ADD DIV SWAP1 POP SWAP2 SWAP1 POP JUMP JUMPDEST PUSH0 DUP3 DUP3 SHL SWAP1 POP SWAP3 SWAP2 POP POP JUMP JUMPDEST PUSH0 PUSH1 0x8 DUP4 MUL PUSH2 0xEAC PUSH32 0xFFFFFFFFFFFFFFFFFFFFFFFFFFFFFFFFFFFFFFFFFFFFFFFFFFFFFFFFFFFFFFFF DUP3 PUSH2 0xE71 JUMP JUMPDEST PUSH2 0xEB6 DUP7 DUP4 PUSH2 0xE71 JUMP JUMPDEST SWAP6 POP DUP1 NOT DUP5 AND SWAP4 POP DUP1 DUP7 AND DUP5 OR SWAP3 POP POP POP SWAP4 SWAP3 POP POP POP JUMP JUMPDEST PUSH0 PUSH2 0xEE8 PUSH2 0xEE3 PUSH2 0xEDE DUP5 PUSH2 0x85B JUMP JUMPDEST PUSH2 0xDCE JUMP JUMPDEST PUSH2 0x85B JUMP JUMPDEST SWAP1 POP SWAP2 SWAP1 POP JUMP JUMPDEST PUSH0 DUP2 SWAP1 POP SWAP2 SWAP1 POP JUMP JUMPDEST PUSH2 0xF01 DUP4 PUSH2 0xECE JUMP JUMPDEST PUSH2 0xF15 PUSH2 0xF0D DUP3 PUSH2 0xEEF JUMP JUMPDEST DUP5 DUP5 SLOAD PUSH2 0xE7D JUMP JUMPDEST DUP3 SSTORE POP POP POP POP JUMP JUMPDEST PUSH0 SWAP1 JUMP JUMPDEST PUSH2 0xF29 PUSH2 0xF1D JUMP JUMPDEST PUSH2 0xF34 DUP2 DUP5 DUP5 PUSH2 0xEF8 JUMP JUMPDEST POP POP POP JUMP JUMPDEST JUMPDEST DUP2 DUP2 LT ISZERO PUSH2 0xF57 JUMPI PUSH2 0xF4C PUSH0 DUP3 PUSH2 0xF21 JUMP JUMPDEST PUSH1 0x1 DUP2 ADD SWAP1 POP PUSH2 0xF3A JUMP JUMPDEST POP POP JUMP JUMPDEST PUSH1 0x1F DUP3 GT ISZERO PUSH2 0xF9C JUMPI PUSH2 0xF6D DUP2 PUSH2 0xE50 JUMP JUMPDEST PUSH2 0xF76 DUP5 PUSH2 0xE62 JUMP JUMPDEST DUP2 ADD PUSH1 0x20 DUP6 LT ISZERO PUSH2 0xF85 JUMPI DUP2 SWAP1 POP JUMPDEST PUSH2 0xF99 PUSH2 0xF91 DUP6 PUSH2 0xE62 JUMP JUMPDEST DUP4 ADD DUP3 PUSH2 0xF39 JUMP JUMPDEST POP POP JUMPDEST POP POP POP JUMP JUMPDEST PUSH0 DUP3 DUP3 SHR SWAP1 POP SWAP3 SWAP2 POP POP JUMP JUMPDEST PUSH0 PUSH2 0xFBC PUSH0 NOT DUP5 PUSH1 0x8 MUL PUSH2 0xFA1 JUMP JUMPDEST NOT DUP1 DUP4 AND SWAP2 POP POP SWAP3 SWAP2 POP POP JUMP JUMPDEST PUSH0 PUSH2 0xFD4 DUP4 DUP4 PUSH2 0xFAD JUMP JUMPDEST SWAP2 POP DUP3 PUSH1 0x2 MUL DUP3 OR SWAP1 POP SWAP3 SWAP2 POP POP JUMP JUMPDEST PUSH2 0xFED DUP3 PUSH2 0x8F8 JUMP JUMPDEST PUSH8 0xFFFFFFFFFFFFFFFF DUP2 GT ISZERO PUSH2 0x1006 JUMPI PUSH2 0x1005 PUSH2 0xA47 JUMP JUMPDEST JUMPDEST PUSH2 0x1010 DUP3 SLOAD PUSH2 0xC89 JUMP JUMPDEST PUSH2 0x101B DUP3 DUP3 DUP6 PUSH2 0xF5B JUMP JUMPDEST PUSH0 PUSH1 0x20 SWAP1 POP PUSH1 0x1F DUP4 GT PUSH1 0x1 DUP2 EQ PUSH2 0x104C JUMPI PUSH0 DUP5 ISZERO PUSH2 0x103A JUMPI DUP3 DUP8 ADD MLOAD SWAP1 POP JUMPDEST PUSH2 0x1044 DUP6 DUP3 PUSH2 0xFC9 JUMP JUMPDEST DUP7 SSTORE POP PUSH2 0x10AB JUMP JUMPDEST PUSH1 0x1F NOT DUP5 AND PUSH2 0x105A DUP7 PUSH2 0xE50 JUMP JUMPDEST PUSH0 JUMPDEST DUP3 DUP2 LT ISZERO PUSH2 0x1081 JUMPI DUP5 DUP10 ADD MLOAD DUP3 SSTORE PUSH1 0x1 DUP3 ADD SWAP2 POP PUSH1 0x20 DUP6 ADD SWAP5 POP PUSH1 0x20 DUP2 ADD SWAP1 POP PUSH2 0x105C JUMP JUMPDEST DUP7 DUP4 LT ISZERO PUSH2 0x109E JUMPI DUP5 DUP10 ADD MLOAD PUSH2 0x109A PUSH1 0x1F DUP10 AND DUP3 PUSH2 0xFAD JUMP JUMPDEST DUP4 SSTORE POP JUMPDEST PUSH1 0x1 PUSH1 0x2 DUP9 MUL ADD DUP9 SSTORE POP POP POP JUMPDEST POP POP POP POP POP POP JUMP JUMPDEST PUSH0 PUSH2 0x10BD DUP3 PUSH2 0x85B JUMP JUMPDEST SWAP2 POP PUSH2 0x10C8 DUP4 PUSH2 0x85B JUMP JUMPDEST SWAP3 POP DUP3 DUP3 MUL PUSH2 0x10D6 DUP2 PUSH2 0x85B JUMP JUMPDEST SWAP2 POP DUP3 DUP3 DIV DUP5 EQ DUP4 ISZERO OR PUSH2 0x10ED JUMPI PUSH2 0x10EC PUSH2 0xD47 JUMP JUMPDEST JUMPDEST POP SWAP3 SWAP2 POP POP JUMP JUMPDEST PUSH0 PUSH2 0x10FE DUP3 PUSH2 0x85B JUMP JUMPDEST SWAP2 POP PUSH32 0xFFFFFFFFFFFFFFFFFFFFFFFFFFFFFFFFFFFFFFFFFFFFFFFFFFFFFFFFFFFFFFFF DUP3 SUB PUSH2 0x1130 JUMPI PUSH2 0x112F PUSH2 0xD47 JUMP JUMPDEST JUMPDEST PUSH1 0x1 DUP3 ADD SWAP1 POP SWAP2 SWAP1 POP JUMP JUMPDEST PUSH0 DUP2 SWAP1 POP SWAP3 SWAP2 POP POP JUMP JUMPDEST PUSH0 PUSH2 0x114F DUP3 PUSH2 0x8F8 JUMP JUMPDEST PUSH2 0x1159 DUP2 DUP6 PUSH2 0x113B JUMP JUMPDEST SWAP4 POP PUSH2 0x1169 DUP2 DUP6 PUSH1 0x20 DUP7 ADD PUSH2 0x912 JUMP JUMPDEST DUP1 DUP5 ADD SWAP2 POP POP SWAP3 SWAP2 POP POP JUMP JUMPDEST PUSH0 PUSH2 0x1180 DUP3 DUP5 PUSH2 0x1145 JUMP JUMPDEST SWAP2 POP DUP2 SWAP1 POP SWAP3 SWAP2 POP POP JUMP JUMPDEST PUSH0 DUP2 SLOAD PUSH2 0x1197 DUP2 PUSH2 0xC89 JUMP JUMPDEST PUSH2 0x11A1 DUP2 DUP7 PUSH2 0x113B JUMP JUMPDEST SWAP5 POP PUSH1 0x1 DUP3 AND PUSH0 DUP2 EQ PUSH2 0x11BB JUMPI PUSH1 0x1 DUP2 EQ PUSH2 0x11D0 JUMPI PUSH2 0x1202 JUMP JUMPDEST PUSH1 0xFF NOT DUP4 AND DUP7 MSTORE DUP2 ISZERO ISZERO DUP3 MUL DUP7 ADD SWAP4 POP PUSH2 0x1202 JUMP JUMPDEST PUSH2 0x11D9 DUP6 PUSH2 0xE50 JUMP JUMPDEST PUSH0 JUMPDEST DUP4 DUP2 LT ISZERO PUSH2 0x11FA JUMPI DUP2 SLOAD DUP2 DUP10 ADD MSTORE PUSH1 0x1 DUP3 ADD SWAP2 POP PUSH1 0x20 DUP2 ADD SWAP1 POP PUSH2 0x11DB JUMP JUMPDEST DUP4 DUP9 ADD SWAP6 POP POP POP JUMPDEST POP POP POP SWAP3 SWAP2 POP POP JUMP JUMPDEST PUSH0 PUSH2 0x1216 DUP3 DUP5 PUSH2 0x118B JUMP JUMPDEST SWAP2 POP DUP2 SWAP1 POP SWAP3 SWAP2 POP POP JUMP JUMPDEST PUSH0 DUP2 SLOAD PUSH2 0x122D DUP2 PUSH2 0xC89 JUMP JUMPDEST PUSH2 0x1237 DUP2 DUP7 PUSH2 0x902 JUMP JUMPDEST SWAP5 POP PUSH1 0x1 DUP3 AND PUSH0 DUP2 EQ PUSH2 0x1251 JUMPI PUSH1 0x1 DUP2 EQ PUSH2 0x1267 JUMPI PUSH2 0x1299 JUMP JUMPDEST PUSH1 0xFF NOT DUP4 AND DUP7 MSTORE DUP2 ISZERO ISZERO PUSH1 0x20 MUL DUP7 ADD SWAP4 POP PUSH2 0x1299 JUMP JUMPDEST PUSH2 0x1270 DUP6 PUSH2 0xE50 JUMP JUMPDEST PUSH0 JUMPDEST DUP4 DUP2 LT ISZERO PUSH2 0x1291 JUMPI DUP2 SLOAD DUP2 DUP10 ADD MSTORE PUSH1 0x1 DUP3 ADD SWAP2 POP PUSH1 0x20 DUP2 ADD SWAP1 POP PUSH2 0x1272 JUMP JUMPDEST DUP1 DUP9 ADD SWAP6 POP POP POP JUMPDEST POP POP POP SWAP3 SWAP2 POP POP JUMP JUMPDEST PUSH0 PUSH1 0x60 DUP3 ADD SWAP1 POP DUP2 DUP2 SUB PUSH0 DUP4 ADD MSTORE PUSH2 0x12BA DUP2 DUP7 PUSH2 0x1221 JUMP JUMPDEST SWAP1 POP PUSH2 0x12C9 PUSH1 0x20 DUP4 ADD DUP6 PUSH2 0x9A2 JUMP JUMPDEST PUSH2 0x12D6 PUSH1 0x40 DUP4 ADD DUP5 PUSH2 0x9A2 JUMP JUMPDEST SWAP5 SWAP4 POP POP POP POP JUMP JUMPDEST PUSH0 PUSH1 0x20 DUP3 ADD SWAP1 POP DUP2 DUP2 SUB PUSH0 DUP4 ADD MSTORE PUSH2 0x12F6 DUP2 DUP5 PUSH2 0x1221 JUMP JUMPDEST SWAP1 POP SWAP3 SWAP2 POP POP JUMP INVALID LOG2 PUSH5 0x6970667358 0x22 SLT KECCAK256 0xDC 0x4A ADDRESS 0xEF 0xE9 0x5D CHAINID CODESIZE MOD PUSH31 0x75975FC223B70947B0080D7DD8AFCBA06A8A3E9CF5AC64736F6C6343000816 STOP CALLER "
				},
				"gasEstimates": {
					"creation": {
						"codeDepositCost": "983200",
						"executionCost": "6024",
						"totalCost": "989224"
					},
					"external": {
						"campaigns(uint256)": "infinite",
						"createCampaign(string,address,uint256,uint256)": "infinite",
						"donateToCampaign(string)": "infinite",
						"releaseFundToDonators(uint256)": "399",
						"releaseFundToReceiver(uint256)": "infinite"
					},
					"internal": {
						"campaignIsActive(string memory)": "infinite",
						"campaignNameMatches(string memory)": "infinite",
						"checkCampaignState(uint256)": "infinite",
						"isDeadlineReached(uint256)": "infinite",
						"isTargetReached(uint256)": "4431"
					}
				},
				"methodIdentifiers": {
					"campaigns(uint256)": "141961bc",
					"createCampaign(string,address,uint256,uint256)": "de932cee",
					"donateToCampaign(string)": "45f25d63",
					"releaseFundToDonators(uint256)": "c7cba632",
					"releaseFundToReceiver(uint256)": "dcb64d86"
				}
			},
			"storageLayout": {
				"storage": [
					{
						"astId": 25,
						"contract": "contracts/crowdfunding.sol:CrowdFunding",
						"label": "campaigns",
						"offset": 0,
						"slot": "0",
						"type": "t_mapping(t_uint256,t_struct(Campaign)20_storage)"
					},
					{
						"astId": 28,
						"contract": "contracts/crowdfunding.sol:CrowdFunding",
						"label": "campaignNo",
						"offset": 0,
						"slot": "1",
						"type": "t_uint256"
					}
				],
				"types": {
					"t_address": {
						"encoding": "inplace",
						"label": "address",
						"numberOfBytes": "20"
					},
					"t_address_payable": {
						"encoding": "inplace",
						"label": "address payable",
						"numberOfBytes": "20"
					},
					"t_bool": {
						"encoding": "inplace",
						"label": "bool",
						"numberOfBytes": "1"
					},
					"t_mapping(t_address,t_uint256)": {
						"encoding": "mapping",
						"key": "t_address",
						"label": "mapping(address => uint256)",
						"numberOfBytes": "32",
						"value": "t_uint256"
					},
					"t_mapping(t_uint256,t_struct(Campaign)20_storage)": {
						"encoding": "mapping",
						"key": "t_uint256",
						"label": "mapping(uint256 => struct CrowdFunding.Campaign)",
						"numberOfBytes": "32",
						"value": "t_struct(Campaign)20_storage"
					},
					"t_string_storage": {
						"encoding": "bytes",
						"label": "string",
						"numberOfBytes": "32"
					},
					"t_struct(Campaign)20_storage": {
						"encoding": "inplace",
						"label": "struct CrowdFunding.Campaign",
						"members": [
							{
								"astId": 3,
								"contract": "contracts/crowdfunding.sol:CrowdFunding",
								"label": "owner",
								"offset": 0,
								"slot": "0",
								"type": "t_address"
							},
							{
								"astId": 5,
								"contract": "contracts/crowdfunding.sol:CrowdFunding",
								"label": "campaignName",
								"offset": 0,
								"slot": "1",
								"type": "t_string_storage"
							},
							{
								"astId": 7,
								"contract": "contracts/crowdfunding.sol:CrowdFunding",
								"label": "donationReceiver",
								"offset": 0,
								"slot": "2",
								"type": "t_address_payable"
							},
							{
								"astId": 9,
								"contract": "contracts/crowdfunding.sol:CrowdFunding",
								"label": "target",
								"offset": 0,
								"slot": "3",
								"type": "t_uint256"
							},
							{
								"astId": 11,
								"contract": "contracts/crowdfunding.sol:CrowdFunding",
								"label": "isOpen",
								"offset": 0,
								"slot": "4",
								"type": "t_bool"
							},
							{
								"astId": 13,
								"contract": "contracts/crowdfunding.sol:CrowdFunding",
								"label": "totalBalance",
								"offset": 0,
								"slot": "5",
								"type": "t_uint256"
							},
							{
								"astId": 15,
								"contract": "contracts/crowdfunding.sol:CrowdFunding",
								"label": "deadline",
								"offset": 0,
								"slot": "6",
								"type": "t_uint256"
							},
							{
								"astId": 19,
								"contract": "contracts/crowdfunding.sol:CrowdFunding",
								"label": "donators",
								"offset": 0,
								"slot": "7",
								"type": "t_mapping(t_address,t_uint256)"
							}
						],
						"numberOfBytes": "256"
					},
					"t_uint256": {
						"encoding": "inplace",
						"label": "uint256",
						"numberOfBytes": "32"
					}
				}
			},
			"userdoc": {
				"kind": "user",
				"methods": {},
				"version": 1
			}
		}
	}
}