{
	"contracts/crowdfunding.sol": {
		"CrowdFunding": {
			"abi": [
				{
					"anonymous": false,
					"inputs": [
						{
							"indexed": false,
							"internalType": "string",
							"name": "_campaignName",
							"type": "string"
						}
					],
					"name": "campaignDeadlineReached",
					"type": "event"
				},
				{
					"anonymous": false,
					"inputs": [
						{
							"indexed": false,
							"internalType": "string",
							"name": "_campaignName",
							"type": "string"
						}
					],
					"name": "campaignFailedToReachTarget",
					"type": "event"
				},
				{
					"anonymous": false,
					"inputs": [
						{
							"indexed": false,
							"internalType": "address",
							"name": "_donatorAddress",
							"type": "address"
						},
						{
							"indexed": false,
							"internalType": "uint256",
							"name": "_amount",
							"type": "uint256"
						}
					],
					"name": "donationReceived",
					"type": "event"
				},
				{
					"anonymous": false,
					"inputs": [
						{
							"indexed": false,
							"internalType": "address[]",
							"name": "_donatorAddress",
							"type": "address[]"
						}
					],
					"name": "donatorsRefunded",
					"type": "event"
				},
				{
					"anonymous": false,
					"inputs": [
						{
							"indexed": false,
							"internalType": "address",
							"name": "_receiverAddress",
							"type": "address"
						},
						{
							"indexed": false,
							"internalType": "uint256",
							"name": "_receivedAmount",
							"type": "uint256"
						}
					],
					"name": "fundSentToReceiver",
					"type": "event"
				},
				{
					"anonymous": false,
					"inputs": [
						{
							"indexed": false,
							"internalType": "string",
							"name": "_campaignName",
							"type": "string"
						},
						{
							"indexed": false,
							"internalType": "uint256",
							"name": "_targetAmount",
							"type": "uint256"
						},
						{
							"indexed": false,
							"internalType": "uint256",
							"name": "_currentBalance",
							"type": "uint256"
						}
					],
					"name": "targetReached",
					"type": "event"
				},
				{
					"inputs": [
						{
							"internalType": "uint256",
							"name": "",
							"type": "uint256"
						}
					],
					"name": "campaigns",
					"outputs": [
						{
							"internalType": "address",
							"name": "owner",
							"type": "address"
						},
						{
							"internalType": "string",
							"name": "campaignName",
							"type": "string"
						},
						{
							"internalType": "address",
							"name": "donationReceiver",
							"type": "address"
						},
						{
							"internalType": "uint256",
							"name": "target",
							"type": "uint256"
						},
						{
							"internalType": "bool",
							"name": "isOpen",
							"type": "bool"
						},
						{
							"internalType": "uint256",
							"name": "totalBalance",
							"type": "uint256"
						},
						{
							"internalType": "uint256",
							"name": "deadline",
							"type": "uint256"
						},
						{
							"internalType": "bool",
							"name": "isFailed",
							"type": "bool"
						}
					],
					"stateMutability": "view",
					"type": "function"
				},
				{
					"inputs": [
						{
							"internalType": "string",
							"name": "_campaignName",
							"type": "string"
						},
						{
							"internalType": "address payable",
							"name": "_donatonReceiver",
							"type": "address"
						},
						{
							"internalType": "uint256",
							"name": "_target",
							"type": "uint256"
						},
						{
							"internalType": "uint256",
							"name": "_campaignDuration",
							"type": "uint256"
						}
					],
					"name": "createCampaign",
					"outputs": [],
					"stateMutability": "nonpayable",
					"type": "function"
				},
				{
					"inputs": [
						{
							"internalType": "string",
							"name": "_campaignName",
							"type": "string"
						}
					],
					"name": "donateToCampaign",
					"outputs": [],
					"stateMutability": "payable",
					"type": "function"
				},
				{
					"inputs": [
						{
							"internalType": "uint256",
							"name": "_campaignNo",
							"type": "uint256"
						}
					],
					"name": "releaseFundToReceiver",
					"outputs": [],
					"stateMutability": "payable",
					"type": "function"
				},
				{
					"inputs": [
						{
							"internalType": "uint256",
							"name": "_campaignNo",
							"type": "uint256"
						}
					],
					"name": "withdrawHeldFund",
					"outputs": [],
					"stateMutability": "payable",
					"type": "function"
				}
			],
			"devdoc": {
				"kind": "dev",
				"methods": {},
				"version": 1
			},
			"evm": {
				"assembly": "    /* \"contracts/crowdfunding.sol\":57:6344  contract CrowdFunding {... */\n  mstore(0x40, 0x80)\n    /* \"contracts/crowdfunding.sol\":477:478  0 */\n  0x00\n    /* \"contracts/crowdfunding.sol\":456:478  uint256 campaignNo = 0 */\n  0x01\n  sstore\n    /* \"contracts/crowdfunding.sol\":57:6344  contract CrowdFunding {... */\n  callvalue\n  dup1\n  iszero\n  tag_1\n  jumpi\n  0x00\n  dup1\n  revert\ntag_1:\n  pop\n  dataSize(sub_0)\n  dup1\n  dataOffset(sub_0)\n  0x00\n  codecopy\n  0x00\n  return\nstop\n\nsub_0: assembly {\n        /* \"contracts/crowdfunding.sol\":57:6344  contract CrowdFunding {... */\n      mstore(0x40, 0x80)\n      jumpi(tag_1, lt(calldatasize, 0x04))\n      shr(0xe0, calldataload(0x00))\n      dup1\n      0x141961bc\n      eq\n      tag_2\n      jumpi\n      dup1\n      0x45f25d63\n      eq\n      tag_3\n      jumpi\n      dup1\n      0xd1446c72\n      eq\n      tag_4\n      jumpi\n      dup1\n      0xdcb64d86\n      eq\n      tag_5\n      jumpi\n      dup1\n      0xde932cee\n      eq\n      tag_6\n      jumpi\n    tag_1:\n      0x00\n      dup1\n      revert\n        /* \"contracts/crowdfunding.sol\":405:450  mapping(uint256 => Campaign) public campaigns */\n    tag_2:\n      callvalue\n      dup1\n      iszero\n      tag_7\n      jumpi\n      0x00\n      dup1\n      revert\n    tag_7:\n      pop\n      tag_8\n      0x04\n      dup1\n      calldatasize\n      sub\n      dup2\n      add\n      swap1\n      tag_9\n      swap2\n      swap1\n      tag_10\n      jump\t// in\n    tag_9:\n      tag_11\n      jump\t// in\n    tag_8:\n      mload(0x40)\n      tag_12\n      swap9\n      swap8\n      swap7\n      swap6\n      swap5\n      swap4\n      swap3\n      swap2\n      swap1\n      tag_13\n      jump\t// in\n    tag_12:\n      mload(0x40)\n      dup1\n      swap2\n      sub\n      swap1\n      return\n        /* \"contracts/crowdfunding.sol\":4213:4798  function donateToCampaign(string memory _campaignName)... */\n    tag_3:\n      tag_14\n      0x04\n      dup1\n      calldatasize\n      sub\n      dup2\n      add\n      swap1\n      tag_15\n      swap2\n      swap1\n      tag_16\n      jump\t// in\n    tag_15:\n      tag_17\n      jump\t// in\n    tag_14:\n      stop\n        /* \"contracts/crowdfunding.sol\":5948:6342  function withdrawHeldFund(uint256 _campaignNo)... */\n    tag_4:\n      tag_18\n      0x04\n      dup1\n      calldatasize\n      sub\n      dup2\n      add\n      swap1\n      tag_19\n      swap2\n      swap1\n      tag_10\n      jump\t// in\n    tag_19:\n      tag_20\n      jump\t// in\n    tag_18:\n      stop\n        /* \"contracts/crowdfunding.sol\":5574:5942  function releaseFundToReceiver(uint256 _campaignNo) public payable {... */\n    tag_5:\n      tag_21\n      0x04\n      dup1\n      calldatasize\n      sub\n      dup2\n      add\n      swap1\n      tag_22\n      swap2\n      swap1\n      tag_10\n      jump\t// in\n    tag_22:\n      tag_23\n      jump\t// in\n    tag_21:\n      stop\n        /* \"contracts/crowdfunding.sol\":3564:4207  function createCampaign(... */\n    tag_6:\n      callvalue\n      dup1\n      iszero\n      tag_24\n      jumpi\n      0x00\n      dup1\n      revert\n    tag_24:\n      pop\n      tag_25\n      0x04\n      dup1\n      calldatasize\n      sub\n      dup2\n      add\n      swap1\n      tag_26\n      swap2\n      swap1\n      tag_27\n      jump\t// in\n    tag_26:\n      tag_28\n      jump\t// in\n    tag_25:\n      stop\n        /* \"contracts/crowdfunding.sol\":405:450  mapping(uint256 => Campaign) public campaigns */\n    tag_11:\n      mstore(0x20, 0x00)\n      dup1\n      0x00\n      mstore\n      keccak256(0x00, 0x40)\n      0x00\n      swap2\n      pop\n      swap1\n      pop\n      dup1\n      0x00\n      add\n      0x00\n      swap1\n      sload\n      swap1\n      0x0100\n      exp\n      swap1\n      div\n      0xffffffffffffffffffffffffffffffffffffffff\n      and\n      swap1\n      dup1\n      0x01\n      add\n      dup1\n      sload\n      tag_29\n      swap1\n      tag_30\n      jump\t// in\n    tag_29:\n      dup1\n      0x1f\n      add\n      0x20\n      dup1\n      swap2\n      div\n      mul\n      0x20\n      add\n      mload(0x40)\n      swap1\n      dup2\n      add\n      0x40\n      mstore\n      dup1\n      swap3\n      swap2\n      swap1\n      dup2\n      dup2\n      mstore\n      0x20\n      add\n      dup3\n      dup1\n      sload\n      tag_31\n      swap1\n      tag_30\n      jump\t// in\n    tag_31:\n      dup1\n      iszero\n      tag_32\n      jumpi\n      dup1\n      0x1f\n      lt\n      tag_33\n      jumpi\n      0x0100\n      dup1\n      dup4\n      sload\n      div\n      mul\n      dup4\n      mstore\n      swap2\n      0x20\n      add\n      swap2\n      jump(tag_32)\n    tag_33:\n      dup3\n      add\n      swap2\n      swap1\n      0x00\n      mstore\n      keccak256(0x00, 0x20)\n      swap1\n    tag_34:\n      dup2\n      sload\n      dup2\n      mstore\n      swap1\n      0x01\n      add\n      swap1\n      0x20\n      add\n      dup1\n      dup4\n      gt\n      tag_34\n      jumpi\n      dup3\n      swap1\n      sub\n      0x1f\n      and\n      dup3\n      add\n      swap2\n    tag_32:\n      pop\n      pop\n      pop\n      pop\n      pop\n      swap1\n      dup1\n      0x02\n      add\n      0x00\n      swap1\n      sload\n      swap1\n      0x0100\n      exp\n      swap1\n      div\n      0xffffffffffffffffffffffffffffffffffffffff\n      and\n      swap1\n      dup1\n      0x03\n      add\n      sload\n      swap1\n      dup1\n      0x04\n      add\n      0x00\n      swap1\n      sload\n      swap1\n      0x0100\n      exp\n      swap1\n      div\n      0xff\n      and\n      swap1\n      dup1\n      0x05\n      add\n      sload\n      swap1\n      dup1\n      0x06\n      add\n      sload\n      swap1\n      dup1\n      0x07\n      add\n      0x00\n      swap1\n      sload\n      swap1\n      0x0100\n      exp\n      swap1\n      div\n      0xff\n      and\n      swap1\n      pop\n      dup9\n      jump\t// out\n        /* \"contracts/crowdfunding.sol\":4213:4798  function donateToCampaign(string memory _campaignName)... */\n    tag_17:\n        /* \"contracts/crowdfunding.sol\":4323:4356  fetchCampaignIndex(_campaignName) */\n      tag_35\n        /* \"contracts/crowdfunding.sol\":4342:4355  _campaignName */\n      dup2\n        /* \"contracts/crowdfunding.sol\":4323:4341  fetchCampaignIndex */\n      tag_36\n        /* \"contracts/crowdfunding.sol\":4323:4356  fetchCampaignIndex(_campaignName) */\n      jump\t// in\n    tag_35:\n        /* \"contracts/crowdfunding.sol\":1496:1511  block.timestamp */\n      timestamp\n        /* \"contracts/crowdfunding.sol\":1462:1471  campaigns */\n      0x00\n        /* \"contracts/crowdfunding.sol\":1462:1484  campaigns[_campaignNo] */\n      dup1\n        /* \"contracts/crowdfunding.sol\":1472:1483  _campaignNo */\n      dup4\n        /* \"contracts/crowdfunding.sol\":1462:1484  campaigns[_campaignNo] */\n      dup2\n      mstore\n      0x20\n      add\n      swap1\n      dup2\n      mstore\n      0x20\n      add\n      0x00\n      keccak256\n        /* \"contracts/crowdfunding.sol\":1462:1493  campaigns[_campaignNo].deadline */\n      0x06\n      add\n      sload\n        /* \"contracts/crowdfunding.sol\":1462:1511  campaigns[_campaignNo].deadline > block.timestamp */\n      gt\n        /* \"contracts/crowdfunding.sol\":1441:1604  require(... */\n      tag_38\n      jumpi\n      mload(0x40)\n      0x08c379a000000000000000000000000000000000000000000000000000000000\n      dup2\n      mstore\n      0x04\n      add\n      tag_39\n      swap1\n      tag_40\n      jump\t// in\n    tag_39:\n      mload(0x40)\n      dup1\n      swap2\n      sub\n      swap1\n      revert\n    tag_38:\n        /* \"contracts/crowdfunding.sol\":4383:4416  fetchCampaignIndex(_campaignName) */\n      tag_41\n        /* \"contracts/crowdfunding.sol\":4402:4415  _campaignName */\n      dup3\n        /* \"contracts/crowdfunding.sol\":4383:4401  fetchCampaignIndex */\n      tag_36\n        /* \"contracts/crowdfunding.sol\":4383:4416  fetchCampaignIndex(_campaignName) */\n      jump\t// in\n    tag_41:\n        /* \"contracts/crowdfunding.sol\":1044:1053  campaigns */\n      0x00\n        /* \"contracts/crowdfunding.sol\":1044:1066  campaigns[_campaignNo] */\n      dup1\n        /* \"contracts/crowdfunding.sol\":1054:1065  _campaignNo */\n      dup3\n        /* \"contracts/crowdfunding.sol\":1044:1066  campaigns[_campaignNo] */\n      dup2\n      mstore\n      0x20\n      add\n      swap1\n      dup2\n      mstore\n      0x20\n      add\n      0x00\n      keccak256\n        /* \"contracts/crowdfunding.sol\":1044:1073  campaigns[_campaignNo].isOpen */\n      0x04\n      add\n      0x00\n      swap1\n      sload\n      swap1\n      0x0100\n      exp\n      swap1\n      div\n      0xff\n      and\n        /* \"contracts/crowdfunding.sol\":1023:1133  require(... */\n      tag_43\n      jumpi\n      mload(0x40)\n      0x08c379a000000000000000000000000000000000000000000000000000000000\n      dup2\n      mstore\n      0x04\n      add\n      tag_44\n      swap1\n      tag_45\n      jump\t// in\n    tag_44:\n      mload(0x40)\n      dup1\n      swap2\n      sub\n      swap1\n      revert\n    tag_43:\n        /* \"contracts/crowdfunding.sol\":4441:4454  _campaignName */\n      dup3\n        /* \"contracts/crowdfunding.sol\":1277:1294  type(uint256).max */\n      0xffffffffffffffffffffffffffffffffffffffffffffffffffffffffffffffff\n        /* \"contracts/crowdfunding.sol\":1240:1273  fetchCampaignIndex(_campaignName) */\n      tag_47\n        /* \"contracts/crowdfunding.sol\":1259:1272  _campaignName */\n      dup3\n        /* \"contracts/crowdfunding.sol\":1240:1258  fetchCampaignIndex */\n      tag_36\n        /* \"contracts/crowdfunding.sol\":1240:1273  fetchCampaignIndex(_campaignName) */\n      jump\t// in\n    tag_47:\n        /* \"contracts/crowdfunding.sol\":1240:1294  fetchCampaignIndex(_campaignName) != type(uint256).max */\n      sub\n        /* \"contracts/crowdfunding.sol\":1219:1362  require(... */\n      tag_48\n      jumpi\n      mload(0x40)\n      0x08c379a000000000000000000000000000000000000000000000000000000000\n      dup2\n      mstore\n      0x04\n      add\n      tag_49\n      swap1\n      tag_50\n      jump\t// in\n    tag_49:\n      mload(0x40)\n      dup1\n      swap2\n      sub\n      swap1\n      revert\n    tag_48:\n        /* \"contracts/crowdfunding.sol\":2430:2431  1 */\n      0x01\n        /* \"contracts/crowdfunding.sol\":2417:2426  msg.value */\n      callvalue\n        /* \"contracts/crowdfunding.sol\":2417:2431  msg.value >= 1 */\n      lt\n      iszero\n        /* \"contracts/crowdfunding.sol\":2409:2471  require(msg.value >= 1, \"Minimun transaction amount is 1 Wei\") */\n      tag_52\n      jumpi\n      mload(0x40)\n      0x08c379a000000000000000000000000000000000000000000000000000000000\n      dup2\n      mstore\n      0x04\n      add\n      tag_53\n      swap1\n      tag_54\n      jump\t// in\n    tag_53:\n      mload(0x40)\n      dup1\n      swap2\n      sub\n      swap1\n      revert\n    tag_52:\n        /* \"contracts/crowdfunding.sol\":4501:4510  uint256 i */\n      0x00\n        /* \"contracts/crowdfunding.sol\":4513:4546  fetchCampaignIndex(_campaignName) */\n      tag_56\n        /* \"contracts/crowdfunding.sol\":4532:4545  _campaignName */\n      dup6\n        /* \"contracts/crowdfunding.sol\":4513:4531  fetchCampaignIndex */\n      tag_36\n        /* \"contracts/crowdfunding.sol\":4513:4546  fetchCampaignIndex(_campaignName) */\n      jump\t// in\n    tag_56:\n        /* \"contracts/crowdfunding.sol\":4501:4546  uint256 i = fetchCampaignIndex(_campaignName) */\n      swap1\n      pop\n        /* \"contracts/crowdfunding.sol\":4593:4602  msg.value */\n      callvalue\n        /* \"contracts/crowdfunding.sol\":4557:4566  campaigns */\n      0x00\n        /* \"contracts/crowdfunding.sol\":4557:4569  campaigns[i] */\n      dup1\n        /* \"contracts/crowdfunding.sol\":4567:4568  i */\n      dup4\n        /* \"contracts/crowdfunding.sol\":4557:4569  campaigns[i] */\n      dup2\n      mstore\n      0x20\n      add\n      swap1\n      dup2\n      mstore\n      0x20\n      add\n      0x00\n      keccak256\n        /* \"contracts/crowdfunding.sol\":4557:4578  campaigns[i].donators */\n      0x09\n      add\n        /* \"contracts/crowdfunding.sol\":4557:4590  campaigns[i].donators[msg.sender] */\n      0x00\n        /* \"contracts/crowdfunding.sol\":4579:4589  msg.sender */\n      caller\n        /* \"contracts/crowdfunding.sol\":4557:4590  campaigns[i].donators[msg.sender] */\n      0xffffffffffffffffffffffffffffffffffffffff\n      and\n      0xffffffffffffffffffffffffffffffffffffffff\n      and\n      dup2\n      mstore\n      0x20\n      add\n      swap1\n      dup2\n      mstore\n      0x20\n      add\n      0x00\n      keccak256\n        /* \"contracts/crowdfunding.sol\":4557:4602  campaigns[i].donators[msg.sender] = msg.value */\n      dup2\n      swap1\n      sstore\n      pop\n        /* \"contracts/crowdfunding.sol\":4612:4621  campaigns */\n      0x00\n        /* \"contracts/crowdfunding.sol\":4612:4624  campaigns[i] */\n      dup1\n        /* \"contracts/crowdfunding.sol\":4622:4623  i */\n      dup3\n        /* \"contracts/crowdfunding.sol\":4612:4624  campaigns[i] */\n      dup2\n      mstore\n      0x20\n      add\n      swap1\n      dup2\n      mstore\n      0x20\n      add\n      0x00\n      keccak256\n        /* \"contracts/crowdfunding.sol\":4612:4640  campaigns[i].donatorsAddress */\n      0x08\n      add\n        /* \"contracts/crowdfunding.sol\":4646:4656  msg.sender */\n      caller\n        /* \"contracts/crowdfunding.sol\":4612:4657  campaigns[i].donatorsAddress.push(msg.sender) */\n      swap1\n      dup1\n      0x01\n      dup2\n      sload\n      add\n      dup1\n      dup3\n      sstore\n      dup1\n      swap2\n      pop\n      pop\n      0x01\n      swap1\n      sub\n      swap1\n      0x00\n      mstore\n      keccak256(0x00, 0x20)\n      add\n      0x00\n      swap1\n      swap2\n      swap1\n      swap2\n      swap1\n      swap2\n      0x0100\n      exp\n      dup2\n      sload\n      dup2\n      0xffffffffffffffffffffffffffffffffffffffff\n      mul\n      not\n      and\n      swap1\n      dup4\n      0xffffffffffffffffffffffffffffffffffffffff\n      and\n      mul\n      or\n      swap1\n      sstore\n      pop\n        /* \"contracts/crowdfunding.sol\":4696:4705  msg.value */\n      callvalue\n        /* \"contracts/crowdfunding.sol\":4667:4676  campaigns */\n      0x00\n        /* \"contracts/crowdfunding.sol\":4667:4679  campaigns[i] */\n      dup1\n        /* \"contracts/crowdfunding.sol\":4677:4678  i */\n      dup4\n        /* \"contracts/crowdfunding.sol\":4667:4679  campaigns[i] */\n      dup2\n      mstore\n      0x20\n      add\n      swap1\n      dup2\n      mstore\n      0x20\n      add\n      0x00\n      keccak256\n        /* \"contracts/crowdfunding.sol\":4667:4692  campaigns[i].totalBalance */\n      0x05\n      add\n      0x00\n        /* \"contracts/crowdfunding.sol\":4667:4705  campaigns[i].totalBalance += msg.value */\n      dup3\n      dup3\n      sload\n      tag_58\n      swap2\n      swap1\n      tag_59\n      jump\t// in\n    tag_58:\n      swap3\n      pop\n      pop\n      dup2\n      swap1\n      sstore\n      pop\n        /* \"contracts/crowdfunding.sol\":4721:4760  donationReceived(msg.sender, msg.value) */\n      0xe2639ef551ad89950da1145fe1fd600e818336d6e8aa88426efe387c49accebb\n        /* \"contracts/crowdfunding.sol\":4738:4748  msg.sender */\n      caller\n        /* \"contracts/crowdfunding.sol\":4750:4759  msg.value */\n      callvalue\n        /* \"contracts/crowdfunding.sol\":4721:4760  donationReceived(msg.sender, msg.value) */\n      mload(0x40)\n      tag_60\n      swap3\n      swap2\n      swap1\n      tag_61\n      jump\t// in\n    tag_60:\n      mload(0x40)\n      dup1\n      swap2\n      sub\n      swap1\n      log1\n        /* \"contracts/crowdfunding.sol\":4770:4791  checkCampaignState(i) */\n      tag_62\n        /* \"contracts/crowdfunding.sol\":4789:4790  i */\n      dup2\n        /* \"contracts/crowdfunding.sol\":4770:4788  checkCampaignState */\n      tag_63\n        /* \"contracts/crowdfunding.sol\":4770:4791  checkCampaignState(i) */\n      jump\t// in\n    tag_62:\n        /* \"contracts/crowdfunding.sol\":4491:4798  {... */\n      pop\n        /* \"contracts/crowdfunding.sol\":1143:1144  _ */\n      pop\n        /* \"contracts/crowdfunding.sol\":1614:1615  _ */\n      pop\n        /* \"contracts/crowdfunding.sol\":4213:4798  function donateToCampaign(string memory _campaignName)... */\n      pop\n      pop\n      jump\t// out\n        /* \"contracts/crowdfunding.sol\":5948:6342  function withdrawHeldFund(uint256 _campaignNo)... */\n    tag_20:\n        /* \"contracts/crowdfunding.sol\":6053:6064  _campaignNo */\n      dup1\n        /* \"contracts/crowdfunding.sol\":2260:2269  campaigns */\n      0x00\n        /* \"contracts/crowdfunding.sol\":2260:2282  campaigns[_campaignNo] */\n      dup1\n        /* \"contracts/crowdfunding.sol\":2270:2281  _campaignNo */\n      dup3\n        /* \"contracts/crowdfunding.sol\":2260:2282  campaigns[_campaignNo] */\n      dup2\n      mstore\n      0x20\n      add\n      swap1\n      dup2\n      mstore\n      0x20\n      add\n      0x00\n      keccak256\n        /* \"contracts/crowdfunding.sol\":2260:2288  campaigns[_campaignNo].owner */\n      0x00\n      add\n      0x00\n      swap1\n      sload\n      swap1\n      0x0100\n      exp\n      swap1\n      div\n      0xffffffffffffffffffffffffffffffffffffffff\n      and\n        /* \"contracts/crowdfunding.sol\":2246:2288  msg.sender != campaigns[_campaignNo].owner */\n      0xffffffffffffffffffffffffffffffffffffffff\n      and\n        /* \"contracts/crowdfunding.sol\":2246:2256  msg.sender */\n      caller\n        /* \"contracts/crowdfunding.sol\":2246:2288  msg.sender != campaigns[_campaignNo].owner */\n      0xffffffffffffffffffffffffffffffffffffffff\n      and\n      sub\n        /* \"contracts/crowdfunding.sol\":2225:2343  require(... */\n      tag_65\n      jumpi\n      mload(0x40)\n      0x08c379a000000000000000000000000000000000000000000000000000000000\n      dup2\n      mstore\n      0x04\n      add\n      tag_66\n      swap1\n      tag_67\n      jump\t// in\n    tag_66:\n      mload(0x40)\n      dup1\n      swap2\n      sub\n      swap1\n      revert\n    tag_65:\n        /* \"contracts/crowdfunding.sol\":6089:6100  _campaignNo */\n      dup2\n        /* \"contracts/crowdfunding.sol\":1704:1713  campaigns */\n      0x00\n        /* \"contracts/crowdfunding.sol\":1704:1726  campaigns[_campaignNo] */\n      dup1\n        /* \"contracts/crowdfunding.sol\":1714:1725  _campaignNo */\n      dup3\n        /* \"contracts/crowdfunding.sol\":1704:1726  campaigns[_campaignNo] */\n      dup2\n      mstore\n      0x20\n      add\n      swap1\n      dup2\n      mstore\n      0x20\n      add\n      0x00\n      keccak256\n        /* \"contracts/crowdfunding.sol\":1704:1735  campaigns[_campaignNo].isFailed */\n      0x07\n      add\n      0x00\n      swap1\n      sload\n      swap1\n      0x0100\n      exp\n      swap1\n      div\n      0xff\n      and\n        /* \"contracts/crowdfunding.sol\":1683:1842  require(... */\n      tag_69\n      jumpi\n      mload(0x40)\n      0x08c379a000000000000000000000000000000000000000000000000000000000\n      dup2\n      mstore\n      0x04\n      add\n      tag_70\n      swap1\n      tag_71\n      jump\t// in\n    tag_70:\n      mload(0x40)\n      dup1\n      swap2\n      sub\n      swap1\n      revert\n    tag_69:\n        /* \"contracts/crowdfunding.sol\":6131:6142  _campaignNo */\n      dup3\n        /* \"contracts/crowdfunding.sol\":1995:1996  0 */\n      0x00\n        /* \"contracts/crowdfunding.sol\":1948:1957  campaigns */\n      dup1\n        /* \"contracts/crowdfunding.sol\":1948:1970  campaigns[_campaignNo] */\n      0x00\n        /* \"contracts/crowdfunding.sol\":1958:1969  _campaignNo */\n      dup4\n        /* \"contracts/crowdfunding.sol\":1948:1970  campaigns[_campaignNo] */\n      dup2\n      mstore\n      0x20\n      add\n      swap1\n      dup2\n      mstore\n      0x20\n      add\n      0x00\n      keccak256\n        /* \"contracts/crowdfunding.sol\":1948:1979  campaigns[_campaignNo].donators */\n      0x09\n      add\n        /* \"contracts/crowdfunding.sol\":1948:1991  campaigns[_campaignNo].donators[msg.sender] */\n      0x00\n        /* \"contracts/crowdfunding.sol\":1980:1990  msg.sender */\n      caller\n        /* \"contracts/crowdfunding.sol\":1948:1991  campaigns[_campaignNo].donators[msg.sender] */\n      0xffffffffffffffffffffffffffffffffffffffff\n      and\n      0xffffffffffffffffffffffffffffffffffffffff\n      and\n      dup2\n      mstore\n      0x20\n      add\n      swap1\n      dup2\n      mstore\n      0x20\n      add\n      0x00\n      keccak256\n      sload\n        /* \"contracts/crowdfunding.sol\":1948:1996  campaigns[_campaignNo].donators[msg.sender] != 0 */\n      sub\n        /* \"contracts/crowdfunding.sol\":1927:2143  require(... */\n      tag_73\n      jumpi\n      mload(0x40)\n      0x08c379a000000000000000000000000000000000000000000000000000000000\n      dup2\n      mstore\n      0x04\n      add\n      tag_74\n      swap1\n      tag_75\n      jump\t// in\n    tag_74:\n      mload(0x40)\n      dup1\n      swap2\n      sub\n      swap1\n      revert\n    tag_73:\n        /* \"contracts/crowdfunding.sol\":6158:6188  address payable donatorAddress */\n      0x00\n        /* \"contracts/crowdfunding.sol\":6199:6209  msg.sender */\n      caller\n        /* \"contracts/crowdfunding.sol\":6158:6210  address payable donatorAddress = payable(msg.sender) */\n      swap1\n      pop\n        /* \"contracts/crowdfunding.sol\":6220:6241  uint256 donatedAmount */\n      0x00\n        /* \"contracts/crowdfunding.sol\":6244:6253  campaigns */\n      dup1\n        /* \"contracts/crowdfunding.sol\":6244:6266  campaigns[_campaignNo] */\n      0x00\n        /* \"contracts/crowdfunding.sol\":6254:6265  _campaignNo */\n      dup8\n        /* \"contracts/crowdfunding.sol\":6244:6266  campaigns[_campaignNo] */\n      dup2\n      mstore\n      0x20\n      add\n      swap1\n      dup2\n      mstore\n      0x20\n      add\n      0x00\n      keccak256\n        /* \"contracts/crowdfunding.sol\":6244:6275  campaigns[_campaignNo].donators */\n      0x09\n      add\n        /* \"contracts/crowdfunding.sol\":6244:6287  campaigns[_campaignNo].donators[msg.sender] */\n      0x00\n        /* \"contracts/crowdfunding.sol\":6276:6286  msg.sender */\n      caller\n        /* \"contracts/crowdfunding.sol\":6244:6287  campaigns[_campaignNo].donators[msg.sender] */\n      0xffffffffffffffffffffffffffffffffffffffff\n      and\n      0xffffffffffffffffffffffffffffffffffffffff\n      and\n      dup2\n      mstore\n      0x20\n      add\n      swap1\n      dup2\n      mstore\n      0x20\n      add\n      0x00\n      keccak256\n      sload\n        /* \"contracts/crowdfunding.sol\":6220:6287  uint256 donatedAmount = campaigns[_campaignNo].donators[msg.sender] */\n      swap1\n      pop\n        /* \"contracts/crowdfunding.sol\":6297:6311  donatorAddress */\n      dup2\n        /* \"contracts/crowdfunding.sol\":6297:6320  donatorAddress.transfer */\n      0xffffffffffffffffffffffffffffffffffffffff\n      and\n        /* \"contracts/crowdfunding.sol\":6297:6335  donatorAddress.transfer(donatedAmount) */\n      0x08fc\n        /* \"contracts/crowdfunding.sol\":6321:6334  donatedAmount */\n      dup3\n        /* \"contracts/crowdfunding.sol\":6297:6335  donatorAddress.transfer(donatedAmount) */\n      swap1\n      dup2\n      iszero\n      mul\n      swap1\n      mload(0x40)\n      0x00\n      mload(0x40)\n      dup1\n      dup4\n      sub\n      dup2\n      dup6\n      dup9\n      dup9\n      call\n      swap4\n      pop\n      pop\n      pop\n      pop\n      iszero\n      dup1\n      iszero\n      tag_78\n      jumpi\n      returndatasize\n      0x00\n      dup1\n      returndatacopy\n      revert(0x00, returndatasize)\n    tag_78:\n      pop\n        /* \"contracts/crowdfunding.sol\":6148:6342  {... */\n      pop\n      pop\n        /* \"contracts/crowdfunding.sol\":1852:1853  _ */\n      pop\n        /* \"contracts/crowdfunding.sol\":2353:2354  _ */\n      pop\n        /* \"contracts/crowdfunding.sol\":5948:6342  function withdrawHeldFund(uint256 _campaignNo)... */\n      pop\n      pop\n      jump\t// out\n        /* \"contracts/crowdfunding.sol\":5574:5942  function releaseFundToReceiver(uint256 _campaignNo) public payable {... */\n    tag_23:\n        /* \"contracts/crowdfunding.sol\":5651:5682  address payable receiverAddress */\n      0x00\n        /* \"contracts/crowdfunding.sol\":5706:5715  campaigns */\n      dup1\n        /* \"contracts/crowdfunding.sol\":5706:5728  campaigns[_campaignNo] */\n      0x00\n        /* \"contracts/crowdfunding.sol\":5716:5727  _campaignNo */\n      dup4\n        /* \"contracts/crowdfunding.sol\":5706:5728  campaigns[_campaignNo] */\n      dup2\n      mstore\n      0x20\n      add\n      swap1\n      dup2\n      mstore\n      0x20\n      add\n      0x00\n      keccak256\n        /* \"contracts/crowdfunding.sol\":5706:5745  campaigns[_campaignNo].donationReceiver */\n      0x02\n      add\n      0x00\n      swap1\n      sload\n      swap1\n      0x0100\n      exp\n      swap1\n      div\n      0xffffffffffffffffffffffffffffffffffffffff\n      and\n        /* \"contracts/crowdfunding.sol\":5651:5755  address payable receiverAddress = payable(... */\n      swap1\n      pop\n        /* \"contracts/crowdfunding.sol\":5765:5785  uint256 totalBalance */\n      0x00\n        /* \"contracts/crowdfunding.sol\":5788:5797  campaigns */\n      dup1\n        /* \"contracts/crowdfunding.sol\":5788:5810  campaigns[_campaignNo] */\n      0x00\n        /* \"contracts/crowdfunding.sol\":5798:5809  _campaignNo */\n      dup5\n        /* \"contracts/crowdfunding.sol\":5788:5810  campaigns[_campaignNo] */\n      dup2\n      mstore\n      0x20\n      add\n      swap1\n      dup2\n      mstore\n      0x20\n      add\n      0x00\n      keccak256\n        /* \"contracts/crowdfunding.sol\":5788:5823  campaigns[_campaignNo].totalBalance */\n      0x05\n      add\n      sload\n        /* \"contracts/crowdfunding.sol\":5765:5823  uint256 totalBalance = campaigns[_campaignNo].totalBalance */\n      swap1\n      pop\n        /* \"contracts/crowdfunding.sol\":5833:5848  receiverAddress */\n      dup2\n        /* \"contracts/crowdfunding.sol\":5833:5857  receiverAddress.transfer */\n      0xffffffffffffffffffffffffffffffffffffffff\n      and\n        /* \"contracts/crowdfunding.sol\":5833:5871  receiverAddress.transfer(totalBalance) */\n      0x08fc\n        /* \"contracts/crowdfunding.sol\":5858:5870  totalBalance */\n      dup3\n        /* \"contracts/crowdfunding.sol\":5833:5871  receiverAddress.transfer(totalBalance) */\n      swap1\n      dup2\n      iszero\n      mul\n      swap1\n      mload(0x40)\n      0x00\n      mload(0x40)\n      dup1\n      dup4\n      sub\n      dup2\n      dup6\n      dup9\n      dup9\n      call\n      swap4\n      pop\n      pop\n      pop\n      pop\n      iszero\n      dup1\n      iszero\n      tag_81\n      jumpi\n      returndatasize\n      0x00\n      dup1\n      returndatacopy\n      revert(0x00, returndatasize)\n    tag_81:\n      pop\n        /* \"contracts/crowdfunding.sol\":5886:5935  fundSentToReceiver(receiverAddress, totalBalance) */\n      0x9450824ff67d7a8a9a13a233327b29a923ff6e7572a146e9ee18f38e7e423c06\n        /* \"contracts/crowdfunding.sol\":5905:5920  receiverAddress */\n      dup3\n        /* \"contracts/crowdfunding.sol\":5922:5934  totalBalance */\n      dup3\n        /* \"contracts/crowdfunding.sol\":5886:5935  fundSentToReceiver(receiverAddress, totalBalance) */\n      mload(0x40)\n      tag_82\n      swap3\n      swap2\n      swap1\n      tag_83\n      jump\t// in\n    tag_82:\n      mload(0x40)\n      dup1\n      swap2\n      sub\n      swap1\n      log1\n        /* \"contracts/crowdfunding.sol\":5641:5942  {... */\n      pop\n      pop\n        /* \"contracts/crowdfunding.sol\":5574:5942  function releaseFundToReceiver(uint256 _campaignNo) public payable {... */\n      pop\n      jump\t// out\n        /* \"contracts/crowdfunding.sol\":3564:4207  function createCampaign(... */\n    tag_28:\n        /* \"contracts/crowdfunding.sol\":3750:3778  Campaign storage newCampaign */\n      0x00\n        /* \"contracts/crowdfunding.sol\":3781:3790  campaigns */\n      dup1\n        /* \"contracts/crowdfunding.sol\":3781:3802  campaigns[campaignNo] */\n      0x00\n        /* \"contracts/crowdfunding.sol\":3791:3801  campaignNo */\n      sload(0x01)\n        /* \"contracts/crowdfunding.sol\":3781:3802  campaigns[campaignNo] */\n      dup2\n      mstore\n      0x20\n      add\n      swap1\n      dup2\n      mstore\n      0x20\n      add\n      0x00\n      keccak256\n        /* \"contracts/crowdfunding.sol\":3750:3802  Campaign storage newCampaign = campaigns[campaignNo] */\n      swap1\n      pop\n        /* \"contracts/crowdfunding.sol\":3832:3842  msg.sender */\n      caller\n        /* \"contracts/crowdfunding.sol\":3812:3823  newCampaign */\n      dup2\n        /* \"contracts/crowdfunding.sol\":3812:3829  newCampaign.owner */\n      0x00\n      add\n      0x00\n        /* \"contracts/crowdfunding.sol\":3812:3842  newCampaign.owner = msg.sender */\n      0x0100\n      exp\n      dup2\n      sload\n      dup2\n      0xffffffffffffffffffffffffffffffffffffffff\n      mul\n      not\n      and\n      swap1\n      dup4\n      0xffffffffffffffffffffffffffffffffffffffff\n      and\n      mul\n      or\n      swap1\n      sstore\n      pop\n        /* \"contracts/crowdfunding.sol\":3879:3892  _campaignName */\n      dup5\n        /* \"contracts/crowdfunding.sol\":3852:3863  newCampaign */\n      dup2\n        /* \"contracts/crowdfunding.sol\":3852:3876  newCampaign.campaignName */\n      0x01\n      add\n        /* \"contracts/crowdfunding.sol\":3852:3892  newCampaign.campaignName = _campaignName */\n      swap1\n      dup2\n      tag_85\n      swap2\n      swap1\n      tag_86\n      jump\t// in\n    tag_85:\n      pop\n        /* \"contracts/crowdfunding.sol\":3933:3949  _donatonReceiver */\n      dup4\n        /* \"contracts/crowdfunding.sol\":3902:3913  newCampaign */\n      dup2\n        /* \"contracts/crowdfunding.sol\":3902:3930  newCampaign.donationReceiver */\n      0x02\n      add\n      0x00\n        /* \"contracts/crowdfunding.sol\":3902:3949  newCampaign.donationReceiver = _donatonReceiver */\n      0x0100\n      exp\n      dup2\n      sload\n      dup2\n      0xffffffffffffffffffffffffffffffffffffffff\n      mul\n      not\n      and\n      swap1\n      dup4\n      0xffffffffffffffffffffffffffffffffffffffff\n      and\n      mul\n      or\n      swap1\n      sstore\n      pop\n        /* \"contracts/crowdfunding.sol\":3980:3987  _target */\n      dup3\n        /* \"contracts/crowdfunding.sol\":3959:3970  newCampaign */\n      dup2\n        /* \"contracts/crowdfunding.sol\":3959:3977  newCampaign.target */\n      0x03\n      add\n        /* \"contracts/crowdfunding.sol\":3959:3987  newCampaign.target = _target */\n      dup2\n      swap1\n      sstore\n      pop\n        /* \"contracts/crowdfunding.sol\":4018:4022  true */\n      0x01\n        /* \"contracts/crowdfunding.sol\":3997:4008  newCampaign */\n      dup2\n        /* \"contracts/crowdfunding.sol\":3997:4015  newCampaign.isOpen */\n      0x04\n      add\n      0x00\n        /* \"contracts/crowdfunding.sol\":3997:4022  newCampaign.isOpen = true */\n      0x0100\n      exp\n      dup2\n      sload\n      dup2\n      0xff\n      mul\n      not\n      and\n      swap1\n      dup4\n      iszero\n      iszero\n      mul\n      or\n      swap1\n      sstore\n      pop\n        /* \"contracts/crowdfunding.sol\":4059:4060  0 */\n      0x00\n        /* \"contracts/crowdfunding.sol\":4032:4043  newCampaign */\n      dup2\n        /* \"contracts/crowdfunding.sol\":4032:4056  newCampaign.totalBalance */\n      0x05\n      add\n        /* \"contracts/crowdfunding.sol\":4032:4060  newCampaign.totalBalance = 0 */\n      dup2\n      swap1\n      sstore\n      pop\n        /* \"contracts/crowdfunding.sol\":4093:4098  false */\n      0x00\n        /* \"contracts/crowdfunding.sol\":4070:4081  newCampaign */\n      dup2\n        /* \"contracts/crowdfunding.sol\":4070:4090  newCampaign.isFailed */\n      0x07\n      add\n      0x00\n        /* \"contracts/crowdfunding.sol\":4070:4098  newCampaign.isFailed = false */\n      0x0100\n      exp\n      dup2\n      sload\n      dup2\n      0xff\n      mul\n      not\n      and\n      swap1\n      dup4\n      iszero\n      iszero\n      mul\n      or\n      swap1\n      sstore\n      pop\n        /* \"contracts/crowdfunding.sol\":4170:4176  1 days */\n      0x015180\n        /* \"contracts/crowdfunding.sol\":4150:4167  _campaignDuration */\n      dup3\n        /* \"contracts/crowdfunding.sol\":4150:4176  _campaignDuration * 1 days */\n      tag_87\n      swap2\n      swap1\n      tag_88\n      jump\t// in\n    tag_87:\n        /* \"contracts/crowdfunding.sol\":4131:4146  block.timestamp */\n      timestamp\n        /* \"contracts/crowdfunding.sol\":4131:4177  block.timestamp + (_campaignDuration * 1 days) */\n      tag_89\n      swap2\n      swap1\n      tag_59\n      jump\t// in\n    tag_89:\n        /* \"contracts/crowdfunding.sol\":4108:4119  newCampaign */\n      dup2\n        /* \"contracts/crowdfunding.sol\":4108:4128  newCampaign.deadline */\n      0x06\n      add\n        /* \"contracts/crowdfunding.sol\":4108:4177  newCampaign.deadline = block.timestamp + (_campaignDuration * 1 days) */\n      dup2\n      swap1\n      sstore\n      pop\n        /* \"contracts/crowdfunding.sol\":4188:4198  campaignNo */\n      0x01\n      0x00\n        /* \"contracts/crowdfunding.sol\":4188:4200  campaignNo++ */\n      dup2\n      sload\n      dup1\n      swap3\n      swap2\n      swap1\n      tag_90\n      swap1\n      tag_91\n      jump\t// in\n    tag_90:\n      swap2\n      swap1\n      pop\n      sstore\n      pop\n        /* \"contracts/crowdfunding.sol\":3740:4207  {... */\n      pop\n        /* \"contracts/crowdfunding.sol\":3564:4207  function createCampaign(... */\n      pop\n      pop\n      pop\n      pop\n      jump\t// out\n        /* \"contracts/crowdfunding.sol\":2536:2968  function fetchCampaignIndex(string memory _campaignName)... */\n    tag_36:\n        /* \"contracts/crowdfunding.sol\":2639:2653  uint256 _index */\n      0x00\n        /* \"contracts/crowdfunding.sol\":2674:2683  uint256 i */\n      dup1\n        /* \"contracts/crowdfunding.sol\":2686:2687  0 */\n      0x00\n        /* \"contracts/crowdfunding.sol\":2674:2687  uint256 i = 0 */\n      swap1\n      pop\n        /* \"contracts/crowdfunding.sol\":2669:2928  for (uint256 i = 0; i <= campaignNo; i++) {... */\n    tag_93:\n        /* \"contracts/crowdfunding.sol\":2694:2704  campaignNo */\n      sload(0x01)\n        /* \"contracts/crowdfunding.sol\":2689:2690  i */\n      dup2\n        /* \"contracts/crowdfunding.sol\":2689:2704  i <= campaignNo */\n      gt\n        /* \"contracts/crowdfunding.sol\":2669:2928  for (uint256 i = 0; i <= campaignNo; i++) {... */\n      tag_94\n      jumpi\n        /* \"contracts/crowdfunding.sol\":2847:2860  _campaignName */\n      dup3\n        /* \"contracts/crowdfunding.sol\":2830:2861  abi.encodePacked(_campaignName) */\n      add(0x20, mload(0x40))\n      tag_96\n      swap2\n      swap1\n      tag_97\n      jump\t// in\n    tag_96:\n      mload(0x40)\n      0x20\n      dup2\n      dup4\n      sub\n      sub\n      dup2\n      mstore\n      swap1\n      0x40\n      mstore\n        /* \"contracts/crowdfunding.sol\":2820:2862  keccak256(abi.encodePacked(_campaignName)) */\n      dup1\n      mload\n      swap1\n      0x20\n      add\n      keccak256\n        /* \"contracts/crowdfunding.sol\":2773:2782  campaigns */\n      0x00\n        /* \"contracts/crowdfunding.sol\":2773:2785  campaigns[i] */\n      dup1\n        /* \"contracts/crowdfunding.sol\":2783:2784  i */\n      dup4\n        /* \"contracts/crowdfunding.sol\":2773:2785  campaigns[i] */\n      dup2\n      mstore\n      0x20\n      add\n      swap1\n      dup2\n      mstore\n      0x20\n      add\n      0x00\n      keccak256\n        /* \"contracts/crowdfunding.sol\":2773:2798  campaigns[i].campaignName */\n      0x01\n      add\n        /* \"contracts/crowdfunding.sol\":2756:2799  abi.encodePacked(campaigns[i].campaignName) */\n      add(0x20, mload(0x40))\n      tag_98\n      swap2\n      swap1\n      tag_99\n      jump\t// in\n    tag_98:\n      mload(0x40)\n      0x20\n      dup2\n      dup4\n      sub\n      sub\n      dup2\n      mstore\n      swap1\n      0x40\n      mstore\n        /* \"contracts/crowdfunding.sol\":2746:2800  keccak256(abi.encodePacked(campaigns[i].campaignName)) */\n      dup1\n      mload\n      swap1\n      0x20\n      add\n      keccak256\n        /* \"contracts/crowdfunding.sol\":2746:2862  keccak256(abi.encodePacked(campaigns[i].campaignName)) ==... */\n      sub\n        /* \"contracts/crowdfunding.sol\":2725:2918  if (... */\n      tag_100\n      jumpi\n        /* \"contracts/crowdfunding.sol\":2902:2903  i */\n      dup1\n        /* \"contracts/crowdfunding.sol\":2895:2903  return i */\n      swap2\n      pop\n      pop\n      jump(tag_92)\n        /* \"contracts/crowdfunding.sol\":2725:2918  if (... */\n    tag_100:\n        /* \"contracts/crowdfunding.sol\":2706:2709  i++ */\n      dup1\n      dup1\n      tag_101\n      swap1\n      tag_91\n      jump\t// in\n    tag_101:\n      swap2\n      pop\n      pop\n        /* \"contracts/crowdfunding.sol\":2669:2928  for (uint256 i = 0; i <= campaignNo; i++) {... */\n      jump(tag_93)\n    tag_94:\n      pop\n        /* \"contracts/crowdfunding.sol\":2944:2961  type(uint256).max */\n      0xffffffffffffffffffffffffffffffffffffffffffffffffffffffffffffffff\n        /* \"contracts/crowdfunding.sol\":2937:2961  return type(uint256).max */\n      swap1\n      pop\n        /* \"contracts/crowdfunding.sol\":2536:2968  function fetchCampaignIndex(string memory _campaignName)... */\n    tag_92:\n      swap2\n      swap1\n      pop\n      jump\t// out\n        /* \"contracts/crowdfunding.sol\":4804:5568  function checkCampaignState(uint256 _campaignNo) private {... */\n    tag_63:\n        /* \"contracts/crowdfunding.sol\":4875:4903  isTargetReached(_campaignNo) */\n      tag_103\n        /* \"contracts/crowdfunding.sol\":4891:4902  _campaignNo */\n      dup2\n        /* \"contracts/crowdfunding.sol\":4875:4890  isTargetReached */\n      tag_104\n        /* \"contracts/crowdfunding.sol\":4875:4903  isTargetReached(_campaignNo) */\n      jump\t// in\n    tag_103:\n        /* \"contracts/crowdfunding.sol\":4871:5562  if (isTargetReached(_campaignNo)) {... */\n      iszero\n      tag_105\n      jumpi\n        /* \"contracts/crowdfunding.sol\":4951:4956  false */\n      0x00\n        /* \"contracts/crowdfunding.sol\":4919:4928  campaigns */\n      dup1\n        /* \"contracts/crowdfunding.sol\":4919:4941  campaigns[_campaignNo] */\n      0x00\n        /* \"contracts/crowdfunding.sol\":4929:4940  _campaignNo */\n      dup4\n        /* \"contracts/crowdfunding.sol\":4919:4941  campaigns[_campaignNo] */\n      dup2\n      mstore\n      0x20\n      add\n      swap1\n      dup2\n      mstore\n      0x20\n      add\n      0x00\n      keccak256\n        /* \"contracts/crowdfunding.sol\":4919:4948  campaigns[_campaignNo].isOpen */\n      0x04\n      add\n      0x00\n        /* \"contracts/crowdfunding.sol\":4919:4956  campaigns[_campaignNo].isOpen = false */\n      0x0100\n      exp\n      dup2\n      sload\n      dup2\n      0xff\n      mul\n      not\n      and\n      swap1\n      dup4\n      iszero\n      iszero\n      mul\n      or\n      swap1\n      sstore\n      pop\n        /* \"contracts/crowdfunding.sol\":4975:5155  targetReached(... */\n      0x161c6ca4afb6a9d993acb2fc7bfbd596905272215a679ae15395f8f94b36ff35\n        /* \"contracts/crowdfunding.sol\":5006:5015  campaigns */\n      0x00\n        /* \"contracts/crowdfunding.sol\":5006:5028  campaigns[_campaignNo] */\n      dup1\n        /* \"contracts/crowdfunding.sol\":5016:5027  _campaignNo */\n      dup4\n        /* \"contracts/crowdfunding.sol\":5006:5028  campaigns[_campaignNo] */\n      dup2\n      mstore\n      0x20\n      add\n      swap1\n      dup2\n      mstore\n      0x20\n      add\n      0x00\n      keccak256\n        /* \"contracts/crowdfunding.sol\":5006:5041  campaigns[_campaignNo].campaignName */\n      0x01\n      add\n        /* \"contracts/crowdfunding.sol\":5059:5068  campaigns */\n      0x00\n        /* \"contracts/crowdfunding.sol\":5059:5081  campaigns[_campaignNo] */\n      dup1\n        /* \"contracts/crowdfunding.sol\":5069:5080  _campaignNo */\n      dup5\n        /* \"contracts/crowdfunding.sol\":5059:5081  campaigns[_campaignNo] */\n      dup2\n      mstore\n      0x20\n      add\n      swap1\n      dup2\n      mstore\n      0x20\n      add\n      0x00\n      keccak256\n        /* \"contracts/crowdfunding.sol\":5059:5088  campaigns[_campaignNo].target */\n      0x03\n      add\n      sload\n        /* \"contracts/crowdfunding.sol\":5106:5115  campaigns */\n      0x00\n        /* \"contracts/crowdfunding.sol\":5106:5128  campaigns[_campaignNo] */\n      dup1\n        /* \"contracts/crowdfunding.sol\":5116:5127  _campaignNo */\n      dup6\n        /* \"contracts/crowdfunding.sol\":5106:5128  campaigns[_campaignNo] */\n      dup2\n      mstore\n      0x20\n      add\n      swap1\n      dup2\n      mstore\n      0x20\n      add\n      0x00\n      keccak256\n        /* \"contracts/crowdfunding.sol\":5106:5141  campaigns[_campaignNo].totalBalance */\n      0x05\n      add\n      sload\n        /* \"contracts/crowdfunding.sol\":4975:5155  targetReached(... */\n      mload(0x40)\n      tag_106\n      swap4\n      swap3\n      swap2\n      swap1\n      tag_107\n      jump\t// in\n    tag_106:\n      mload(0x40)\n      dup1\n      swap2\n      sub\n      swap1\n      log1\n        /* \"contracts/crowdfunding.sol\":5169:5203  releaseFundToReceiver(_campaignNo) */\n      tag_108\n        /* \"contracts/crowdfunding.sol\":5191:5202  _campaignNo */\n      dup2\n        /* \"contracts/crowdfunding.sol\":5169:5190  releaseFundToReceiver */\n      tag_23\n        /* \"contracts/crowdfunding.sol\":5169:5203  releaseFundToReceiver(_campaignNo) */\n      jump\t// in\n    tag_108:\n        /* \"contracts/crowdfunding.sol\":4871:5562  if (isTargetReached(_campaignNo)) {... */\n      jump(tag_109)\n    tag_105:\n        /* \"contracts/crowdfunding.sol\":5224:5254  isDeadlineReached(_campaignNo) */\n      tag_110\n        /* \"contracts/crowdfunding.sol\":5242:5253  _campaignNo */\n      dup2\n        /* \"contracts/crowdfunding.sol\":5224:5241  isDeadlineReached */\n      tag_111\n        /* \"contracts/crowdfunding.sol\":5224:5254  isDeadlineReached(_campaignNo) */\n      jump\t// in\n    tag_110:\n        /* \"contracts/crowdfunding.sol\":5220:5562  if (isDeadlineReached(_campaignNo)) {... */\n      iszero\n      tag_112\n      jumpi\n        /* \"contracts/crowdfunding.sol\":5302:5307  false */\n      0x00\n        /* \"contracts/crowdfunding.sol\":5270:5279  campaigns */\n      dup1\n        /* \"contracts/crowdfunding.sol\":5270:5292  campaigns[_campaignNo] */\n      0x00\n        /* \"contracts/crowdfunding.sol\":5280:5291  _campaignNo */\n      dup4\n        /* \"contracts/crowdfunding.sol\":5270:5292  campaigns[_campaignNo] */\n      dup2\n      mstore\n      0x20\n      add\n      swap1\n      dup2\n      mstore\n      0x20\n      add\n      0x00\n      keccak256\n        /* \"contracts/crowdfunding.sol\":5270:5299  campaigns[_campaignNo].isOpen */\n      0x04\n      add\n      0x00\n        /* \"contracts/crowdfunding.sol\":5270:5307  campaigns[_campaignNo].isOpen = false */\n      0x0100\n      exp\n      dup2\n      sload\n      dup2\n      0xff\n      mul\n      not\n      and\n      swap1\n      dup4\n      iszero\n      iszero\n      mul\n      or\n      swap1\n      sstore\n      pop\n        /* \"contracts/crowdfunding.sol\":5355:5359  true */\n      0x01\n        /* \"contracts/crowdfunding.sol\":5321:5330  campaigns */\n      0x00\n        /* \"contracts/crowdfunding.sol\":5321:5343  campaigns[_campaignNo] */\n      dup1\n        /* \"contracts/crowdfunding.sol\":5331:5342  _campaignNo */\n      dup4\n        /* \"contracts/crowdfunding.sol\":5321:5343  campaigns[_campaignNo] */\n      dup2\n      mstore\n      0x20\n      add\n      swap1\n      dup2\n      mstore\n      0x20\n      add\n      0x00\n      keccak256\n        /* \"contracts/crowdfunding.sol\":5321:5352  campaigns[_campaignNo].isFailed */\n      0x07\n      add\n      0x00\n        /* \"contracts/crowdfunding.sol\":5321:5359  campaigns[_campaignNo].isFailed = true */\n      0x0100\n      exp\n      dup2\n      sload\n      dup2\n      0xff\n      mul\n      not\n      and\n      swap1\n      dup4\n      iszero\n      iszero\n      mul\n      or\n      swap1\n      sstore\n      pop\n        /* \"contracts/crowdfunding.sol\":5378:5438  campaignDeadlineReached(campaigns[_campaignNo].campaignName) */\n      0x7e83bb819d77dde1b95d6fea75b0bb56f02543b94670f327c26cace89cad9444\n        /* \"contracts/crowdfunding.sol\":5402:5411  campaigns */\n      0x00\n        /* \"contracts/crowdfunding.sol\":5402:5424  campaigns[_campaignNo] */\n      dup1\n        /* \"contracts/crowdfunding.sol\":5412:5423  _campaignNo */\n      dup4\n        /* \"contracts/crowdfunding.sol\":5402:5424  campaigns[_campaignNo] */\n      dup2\n      mstore\n      0x20\n      add\n      swap1\n      dup2\n      mstore\n      0x20\n      add\n      0x00\n      keccak256\n        /* \"contracts/crowdfunding.sol\":5402:5437  campaigns[_campaignNo].campaignName */\n      0x01\n      add\n        /* \"contracts/crowdfunding.sol\":5378:5438  campaignDeadlineReached(campaigns[_campaignNo].campaignName) */\n      mload(0x40)\n      tag_113\n      swap2\n      swap1\n      tag_114\n      jump\t// in\n    tag_113:\n      mload(0x40)\n      dup1\n      swap2\n      sub\n      swap1\n      log1\n        /* \"contracts/crowdfunding.sol\":5457:5551  campaignFailedToReachTarget(... */\n      0x7ac07d159c95f4ab8b50b4c176acaf7096b7f6ef2dcbc44ed5826fa2ec9e032a\n        /* \"contracts/crowdfunding.sol\":5502:5511  campaigns */\n      0x00\n        /* \"contracts/crowdfunding.sol\":5502:5524  campaigns[_campaignNo] */\n      dup1\n        /* \"contracts/crowdfunding.sol\":5512:5523  _campaignNo */\n      dup4\n        /* \"contracts/crowdfunding.sol\":5502:5524  campaigns[_campaignNo] */\n      dup2\n      mstore\n      0x20\n      add\n      swap1\n      dup2\n      mstore\n      0x20\n      add\n      0x00\n      keccak256\n        /* \"contracts/crowdfunding.sol\":5502:5537  campaigns[_campaignNo].campaignName */\n      0x01\n      add\n        /* \"contracts/crowdfunding.sol\":5457:5551  campaignFailedToReachTarget(... */\n      mload(0x40)\n      tag_115\n      swap2\n      swap1\n      tag_114\n      jump\t// in\n    tag_115:\n      mload(0x40)\n      dup1\n      swap2\n      sub\n      swap1\n      log1\n        /* \"contracts/crowdfunding.sol\":5220:5562  if (isDeadlineReached(_campaignNo)) {... */\n    tag_112:\n        /* \"contracts/crowdfunding.sol\":4871:5562  if (isTargetReached(_campaignNo)) {... */\n    tag_109:\n        /* \"contracts/crowdfunding.sol\":4804:5568  function checkCampaignState(uint256 _campaignNo) private {... */\n      pop\n      jump\t// out\n        /* \"contracts/crowdfunding.sol\":2974:3257  function isTargetReached(uint256 _campaignNo)... */\n    tag_104:\n        /* \"contracts/crowdfunding.sol\":3066:3081  bool _isReached */\n      0x00\n        /* \"contracts/crowdfunding.sol\":3153:3162  campaigns */\n      dup1\n        /* \"contracts/crowdfunding.sol\":3153:3175  campaigns[_campaignNo] */\n      0x00\n        /* \"contracts/crowdfunding.sol\":3163:3174  _campaignNo */\n      dup4\n        /* \"contracts/crowdfunding.sol\":3153:3175  campaigns[_campaignNo] */\n      dup2\n      mstore\n      0x20\n      add\n      swap1\n      dup2\n      mstore\n      0x20\n      add\n      0x00\n      keccak256\n        /* \"contracts/crowdfunding.sol\":3153:3182  campaigns[_campaignNo].target */\n      0x03\n      add\n      sload\n        /* \"contracts/crowdfunding.sol\":3114:3123  campaigns */\n      0x00\n        /* \"contracts/crowdfunding.sol\":3114:3136  campaigns[_campaignNo] */\n      dup1\n        /* \"contracts/crowdfunding.sol\":3124:3135  _campaignNo */\n      dup5\n        /* \"contracts/crowdfunding.sol\":3114:3136  campaigns[_campaignNo] */\n      dup2\n      mstore\n      0x20\n      add\n      swap1\n      dup2\n      mstore\n      0x20\n      add\n      0x00\n      keccak256\n        /* \"contracts/crowdfunding.sol\":3114:3149  campaigns[_campaignNo].totalBalance */\n      0x05\n      add\n      sload\n        /* \"contracts/crowdfunding.sol\":3114:3182  campaigns[_campaignNo].totalBalance >= campaigns[_campaignNo].target */\n      lt\n        /* \"contracts/crowdfunding.sol\":3097:3229  if (... */\n      tag_117\n      jumpi\n        /* \"contracts/crowdfunding.sol\":3214:3218  true */\n      0x01\n        /* \"contracts/crowdfunding.sol\":3207:3218  return true */\n      swap1\n      pop\n      jump(tag_116)\n        /* \"contracts/crowdfunding.sol\":3097:3229  if (... */\n    tag_117:\n        /* \"contracts/crowdfunding.sol\":3245:3250  false */\n      0x00\n        /* \"contracts/crowdfunding.sol\":3238:3250  return false */\n      swap1\n      pop\n        /* \"contracts/crowdfunding.sol\":2974:3257  function isTargetReached(uint256 _campaignNo)... */\n    tag_116:\n      swap2\n      swap1\n      pop\n      jump\t// out\n        /* \"contracts/crowdfunding.sol\":3263:3507  function isDeadlineReached(uint256 _campaignNo)... */\n    tag_111:\n        /* \"contracts/crowdfunding.sol\":3357:3372  bool _isReached */\n      0x00\n        /* \"contracts/crowdfunding.sol\":3426:3441  block.timestamp */\n      timestamp\n        /* \"contracts/crowdfunding.sol\":3392:3401  campaigns */\n      0x00\n        /* \"contracts/crowdfunding.sol\":3392:3414  campaigns[_campaignNo] */\n      dup1\n        /* \"contracts/crowdfunding.sol\":3402:3413  _campaignNo */\n      dup5\n        /* \"contracts/crowdfunding.sol\":3392:3414  campaigns[_campaignNo] */\n      dup2\n      mstore\n      0x20\n      add\n      swap1\n      dup2\n      mstore\n      0x20\n      add\n      0x00\n      keccak256\n        /* \"contracts/crowdfunding.sol\":3392:3423  campaigns[_campaignNo].deadline */\n      0x06\n      add\n      sload\n        /* \"contracts/crowdfunding.sol\":3392:3441  campaigns[_campaignNo].deadline < block.timestamp */\n      lt\n        /* \"contracts/crowdfunding.sol\":3388:3479  if (campaigns[_campaignNo].deadline < block.timestamp) {... */\n      iszero\n      tag_119\n      jumpi\n        /* \"contracts/crowdfunding.sol\":3464:3468  true */\n      0x01\n        /* \"contracts/crowdfunding.sol\":3457:3468  return true */\n      swap1\n      pop\n      jump(tag_118)\n        /* \"contracts/crowdfunding.sol\":3388:3479  if (campaigns[_campaignNo].deadline < block.timestamp) {... */\n    tag_119:\n        /* \"contracts/crowdfunding.sol\":3495:3500  false */\n      0x00\n        /* \"contracts/crowdfunding.sol\":3488:3500  return false */\n      swap1\n      pop\n        /* \"contracts/crowdfunding.sol\":3263:3507  function isDeadlineReached(uint256 _campaignNo)... */\n    tag_118:\n      swap2\n      swap1\n      pop\n      jump\t// out\n        /* \"#utility.yul\":7:82   */\n    tag_120:\n        /* \"#utility.yul\":40:46   */\n      0x00\n        /* \"#utility.yul\":73:75   */\n      0x40\n        /* \"#utility.yul\":67:76   */\n      mload\n        /* \"#utility.yul\":57:76   */\n      swap1\n      pop\n        /* \"#utility.yul\":7:82   */\n      swap1\n      jump\t// out\n        /* \"#utility.yul\":88:205   */\n    tag_121:\n        /* \"#utility.yul\":197:198   */\n      0x00\n        /* \"#utility.yul\":194:195   */\n      dup1\n        /* \"#utility.yul\":187:199   */\n      revert\n        /* \"#utility.yul\":211:328   */\n    tag_122:\n        /* \"#utility.yul\":320:321   */\n      0x00\n        /* \"#utility.yul\":317:318   */\n      dup1\n        /* \"#utility.yul\":310:322   */\n      revert\n        /* \"#utility.yul\":334:411   */\n    tag_123:\n        /* \"#utility.yul\":371:378   */\n      0x00\n        /* \"#utility.yul\":400:405   */\n      dup2\n        /* \"#utility.yul\":389:405   */\n      swap1\n      pop\n        /* \"#utility.yul\":334:411   */\n      swap2\n      swap1\n      pop\n      jump\t// out\n        /* \"#utility.yul\":417:539   */\n    tag_124:\n        /* \"#utility.yul\":490:514   */\n      tag_194\n        /* \"#utility.yul\":508:513   */\n      dup2\n        /* \"#utility.yul\":490:514   */\n      tag_123\n      jump\t// in\n    tag_194:\n        /* \"#utility.yul\":483:488   */\n      dup2\n        /* \"#utility.yul\":480:515   */\n      eq\n        /* \"#utility.yul\":470:533   */\n      tag_195\n      jumpi\n        /* \"#utility.yul\":529:530   */\n      0x00\n        /* \"#utility.yul\":526:527   */\n      dup1\n        /* \"#utility.yul\":519:531   */\n      revert\n        /* \"#utility.yul\":470:533   */\n    tag_195:\n        /* \"#utility.yul\":417:539   */\n      pop\n      jump\t// out\n        /* \"#utility.yul\":545:684   */\n    tag_125:\n        /* \"#utility.yul\":591:596   */\n      0x00\n        /* \"#utility.yul\":629:635   */\n      dup2\n        /* \"#utility.yul\":616:636   */\n      calldataload\n        /* \"#utility.yul\":607:636   */\n      swap1\n      pop\n        /* \"#utility.yul\":645:678   */\n      tag_197\n        /* \"#utility.yul\":672:677   */\n      dup2\n        /* \"#utility.yul\":645:678   */\n      tag_124\n      jump\t// in\n    tag_197:\n        /* \"#utility.yul\":545:684   */\n      swap3\n      swap2\n      pop\n      pop\n      jump\t// out\n        /* \"#utility.yul\":690:1019   */\n    tag_10:\n        /* \"#utility.yul\":749:755   */\n      0x00\n        /* \"#utility.yul\":798:800   */\n      0x20\n        /* \"#utility.yul\":786:795   */\n      dup3\n        /* \"#utility.yul\":777:784   */\n      dup5\n        /* \"#utility.yul\":773:796   */\n      sub\n        /* \"#utility.yul\":769:801   */\n      slt\n        /* \"#utility.yul\":766:885   */\n      iszero\n      tag_199\n      jumpi\n        /* \"#utility.yul\":804:883   */\n      tag_200\n      tag_121\n      jump\t// in\n    tag_200:\n        /* \"#utility.yul\":766:885   */\n    tag_199:\n        /* \"#utility.yul\":924:925   */\n      0x00\n        /* \"#utility.yul\":949:1002   */\n      tag_201\n        /* \"#utility.yul\":994:1001   */\n      dup5\n        /* \"#utility.yul\":985:991   */\n      dup3\n        /* \"#utility.yul\":974:983   */\n      dup6\n        /* \"#utility.yul\":970:992   */\n      add\n        /* \"#utility.yul\":949:1002   */\n      tag_125\n      jump\t// in\n    tag_201:\n        /* \"#utility.yul\":939:1002   */\n      swap2\n      pop\n        /* \"#utility.yul\":895:1012   */\n      pop\n        /* \"#utility.yul\":690:1019   */\n      swap3\n      swap2\n      pop\n      pop\n      jump\t// out\n        /* \"#utility.yul\":1025:1151   */\n    tag_126:\n        /* \"#utility.yul\":1062:1069   */\n      0x00\n        /* \"#utility.yul\":1102:1144   */\n      0xffffffffffffffffffffffffffffffffffffffff\n        /* \"#utility.yul\":1095:1100   */\n      dup3\n        /* \"#utility.yul\":1091:1145   */\n      and\n        /* \"#utility.yul\":1080:1145   */\n      swap1\n      pop\n        /* \"#utility.yul\":1025:1151   */\n      swap2\n      swap1\n      pop\n      jump\t// out\n        /* \"#utility.yul\":1157:1253   */\n    tag_127:\n        /* \"#utility.yul\":1194:1201   */\n      0x00\n        /* \"#utility.yul\":1223:1247   */\n      tag_204\n        /* \"#utility.yul\":1241:1246   */\n      dup3\n        /* \"#utility.yul\":1223:1247   */\n      tag_126\n      jump\t// in\n    tag_204:\n        /* \"#utility.yul\":1212:1247   */\n      swap1\n      pop\n        /* \"#utility.yul\":1157:1253   */\n      swap2\n      swap1\n      pop\n      jump\t// out\n        /* \"#utility.yul\":1259:1377   */\n    tag_128:\n        /* \"#utility.yul\":1346:1370   */\n      tag_206\n        /* \"#utility.yul\":1364:1369   */\n      dup2\n        /* \"#utility.yul\":1346:1370   */\n      tag_127\n      jump\t// in\n    tag_206:\n        /* \"#utility.yul\":1341:1344   */\n      dup3\n        /* \"#utility.yul\":1334:1371   */\n      mstore\n        /* \"#utility.yul\":1259:1377   */\n      pop\n      pop\n      jump\t// out\n        /* \"#utility.yul\":1383:1482   */\n    tag_129:\n        /* \"#utility.yul\":1435:1441   */\n      0x00\n        /* \"#utility.yul\":1469:1474   */\n      dup2\n        /* \"#utility.yul\":1463:1475   */\n      mload\n        /* \"#utility.yul\":1453:1475   */\n      swap1\n      pop\n        /* \"#utility.yul\":1383:1482   */\n      swap2\n      swap1\n      pop\n      jump\t// out\n        /* \"#utility.yul\":1488:1657   */\n    tag_130:\n        /* \"#utility.yul\":1572:1583   */\n      0x00\n        /* \"#utility.yul\":1606:1612   */\n      dup3\n        /* \"#utility.yul\":1601:1604   */\n      dup3\n        /* \"#utility.yul\":1594:1613   */\n      mstore\n        /* \"#utility.yul\":1646:1650   */\n      0x20\n        /* \"#utility.yul\":1641:1644   */\n      dup3\n        /* \"#utility.yul\":1637:1651   */\n      add\n        /* \"#utility.yul\":1622:1651   */\n      swap1\n      pop\n        /* \"#utility.yul\":1488:1657   */\n      swap3\n      swap2\n      pop\n      pop\n      jump\t// out\n        /* \"#utility.yul\":1663:1909   */\n    tag_131:\n        /* \"#utility.yul\":1744:1745   */\n      0x00\n        /* \"#utility.yul\":1754:1867   */\n    tag_210:\n        /* \"#utility.yul\":1768:1774   */\n      dup4\n        /* \"#utility.yul\":1765:1766   */\n      dup2\n        /* \"#utility.yul\":1762:1775   */\n      lt\n        /* \"#utility.yul\":1754:1867   */\n      iszero\n      tag_212\n      jumpi\n        /* \"#utility.yul\":1853:1854   */\n      dup1\n        /* \"#utility.yul\":1848:1851   */\n      dup3\n        /* \"#utility.yul\":1844:1855   */\n      add\n        /* \"#utility.yul\":1838:1856   */\n      mload\n        /* \"#utility.yul\":1834:1835   */\n      dup2\n        /* \"#utility.yul\":1829:1832   */\n      dup5\n        /* \"#utility.yul\":1825:1836   */\n      add\n        /* \"#utility.yul\":1818:1857   */\n      mstore\n        /* \"#utility.yul\":1790:1792   */\n      0x20\n        /* \"#utility.yul\":1787:1788   */\n      dup2\n        /* \"#utility.yul\":1783:1793   */\n      add\n        /* \"#utility.yul\":1778:1793   */\n      swap1\n      pop\n        /* \"#utility.yul\":1754:1867   */\n      jump(tag_210)\n    tag_212:\n        /* \"#utility.yul\":1901:1902   */\n      0x00\n        /* \"#utility.yul\":1892:1898   */\n      dup5\n        /* \"#utility.yul\":1887:1890   */\n      dup5\n        /* \"#utility.yul\":1883:1899   */\n      add\n        /* \"#utility.yul\":1876:1903   */\n      mstore\n        /* \"#utility.yul\":1725:1909   */\n      pop\n        /* \"#utility.yul\":1663:1909   */\n      pop\n      pop\n      pop\n      jump\t// out\n        /* \"#utility.yul\":1915:2017   */\n    tag_132:\n        /* \"#utility.yul\":1956:1962   */\n      0x00\n        /* \"#utility.yul\":2007:2009   */\n      0x1f\n        /* \"#utility.yul\":2003:2010   */\n      not\n        /* \"#utility.yul\":1998:2000   */\n      0x1f\n        /* \"#utility.yul\":1991:1996   */\n      dup4\n        /* \"#utility.yul\":1987:2001   */\n      add\n        /* \"#utility.yul\":1983:2011   */\n      and\n        /* \"#utility.yul\":1973:2011   */\n      swap1\n      pop\n        /* \"#utility.yul\":1915:2017   */\n      swap2\n      swap1\n      pop\n      jump\t// out\n        /* \"#utility.yul\":2023:2400   */\n    tag_133:\n        /* \"#utility.yul\":2111:2114   */\n      0x00\n        /* \"#utility.yul\":2139:2178   */\n      tag_215\n        /* \"#utility.yul\":2172:2177   */\n      dup3\n        /* \"#utility.yul\":2139:2178   */\n      tag_129\n      jump\t// in\n    tag_215:\n        /* \"#utility.yul\":2194:2265   */\n      tag_216\n        /* \"#utility.yul\":2258:2264   */\n      dup2\n        /* \"#utility.yul\":2253:2256   */\n      dup6\n        /* \"#utility.yul\":2194:2265   */\n      tag_130\n      jump\t// in\n    tag_216:\n        /* \"#utility.yul\":2187:2265   */\n      swap4\n      pop\n        /* \"#utility.yul\":2274:2339   */\n      tag_217\n        /* \"#utility.yul\":2332:2338   */\n      dup2\n        /* \"#utility.yul\":2327:2330   */\n      dup6\n        /* \"#utility.yul\":2320:2324   */\n      0x20\n        /* \"#utility.yul\":2313:2318   */\n      dup7\n        /* \"#utility.yul\":2309:2325   */\n      add\n        /* \"#utility.yul\":2274:2339   */\n      tag_131\n      jump\t// in\n    tag_217:\n        /* \"#utility.yul\":2364:2393   */\n      tag_218\n        /* \"#utility.yul\":2386:2392   */\n      dup2\n        /* \"#utility.yul\":2364:2393   */\n      tag_132\n      jump\t// in\n    tag_218:\n        /* \"#utility.yul\":2359:2362   */\n      dup5\n        /* \"#utility.yul\":2355:2394   */\n      add\n        /* \"#utility.yul\":2348:2394   */\n      swap2\n      pop\n        /* \"#utility.yul\":2115:2400   */\n      pop\n        /* \"#utility.yul\":2023:2400   */\n      swap3\n      swap2\n      pop\n      pop\n      jump\t// out\n        /* \"#utility.yul\":2406:2524   */\n    tag_134:\n        /* \"#utility.yul\":2493:2517   */\n      tag_220\n        /* \"#utility.yul\":2511:2516   */\n      dup2\n        /* \"#utility.yul\":2493:2517   */\n      tag_123\n      jump\t// in\n    tag_220:\n        /* \"#utility.yul\":2488:2491   */\n      dup3\n        /* \"#utility.yul\":2481:2518   */\n      mstore\n        /* \"#utility.yul\":2406:2524   */\n      pop\n      pop\n      jump\t// out\n        /* \"#utility.yul\":2530:2620   */\n    tag_135:\n        /* \"#utility.yul\":2564:2571   */\n      0x00\n        /* \"#utility.yul\":2607:2612   */\n      dup2\n        /* \"#utility.yul\":2600:2613   */\n      iszero\n        /* \"#utility.yul\":2593:2614   */\n      iszero\n        /* \"#utility.yul\":2582:2614   */\n      swap1\n      pop\n        /* \"#utility.yul\":2530:2620   */\n      swap2\n      swap1\n      pop\n      jump\t// out\n        /* \"#utility.yul\":2626:2735   */\n    tag_136:\n        /* \"#utility.yul\":2707:2728   */\n      tag_223\n        /* \"#utility.yul\":2722:2727   */\n      dup2\n        /* \"#utility.yul\":2707:2728   */\n      tag_135\n      jump\t// in\n    tag_223:\n        /* \"#utility.yul\":2702:2705   */\n      dup3\n        /* \"#utility.yul\":2695:2729   */\n      mstore\n        /* \"#utility.yul\":2626:2735   */\n      pop\n      pop\n      jump\t// out\n        /* \"#utility.yul\":2741:3805   */\n    tag_13:\n        /* \"#utility.yul\":3038:3042   */\n      0x00\n        /* \"#utility.yul\":3076:3079   */\n      0x0100\n        /* \"#utility.yul\":3065:3074   */\n      dup3\n        /* \"#utility.yul\":3061:3080   */\n      add\n        /* \"#utility.yul\":3053:3080   */\n      swap1\n      pop\n        /* \"#utility.yul\":3090:3161   */\n      tag_225\n        /* \"#utility.yul\":3158:3159   */\n      0x00\n        /* \"#utility.yul\":3147:3156   */\n      dup4\n        /* \"#utility.yul\":3143:3160   */\n      add\n        /* \"#utility.yul\":3134:3140   */\n      dup12\n        /* \"#utility.yul\":3090:3161   */\n      tag_128\n      jump\t// in\n    tag_225:\n        /* \"#utility.yul\":3208:3217   */\n      dup2\n        /* \"#utility.yul\":3202:3206   */\n      dup2\n        /* \"#utility.yul\":3198:3218   */\n      sub\n        /* \"#utility.yul\":3193:3195   */\n      0x20\n        /* \"#utility.yul\":3182:3191   */\n      dup4\n        /* \"#utility.yul\":3178:3196   */\n      add\n        /* \"#utility.yul\":3171:3219   */\n      mstore\n        /* \"#utility.yul\":3236:3314   */\n      tag_226\n        /* \"#utility.yul\":3309:3313   */\n      dup2\n        /* \"#utility.yul\":3300:3306   */\n      dup11\n        /* \"#utility.yul\":3236:3314   */\n      tag_133\n      jump\t// in\n    tag_226:\n        /* \"#utility.yul\":3228:3314   */\n      swap1\n      pop\n        /* \"#utility.yul\":3324:3396   */\n      tag_227\n        /* \"#utility.yul\":3392:3394   */\n      0x40\n        /* \"#utility.yul\":3381:3390   */\n      dup4\n        /* \"#utility.yul\":3377:3395   */\n      add\n        /* \"#utility.yul\":3368:3374   */\n      dup10\n        /* \"#utility.yul\":3324:3396   */\n      tag_128\n      jump\t// in\n    tag_227:\n        /* \"#utility.yul\":3406:3478   */\n      tag_228\n        /* \"#utility.yul\":3474:3476   */\n      0x60\n        /* \"#utility.yul\":3463:3472   */\n      dup4\n        /* \"#utility.yul\":3459:3477   */\n      add\n        /* \"#utility.yul\":3450:3456   */\n      dup9\n        /* \"#utility.yul\":3406:3478   */\n      tag_134\n      jump\t// in\n    tag_228:\n        /* \"#utility.yul\":3488:3555   */\n      tag_229\n        /* \"#utility.yul\":3550:3553   */\n      0x80\n        /* \"#utility.yul\":3539:3548   */\n      dup4\n        /* \"#utility.yul\":3535:3554   */\n      add\n        /* \"#utility.yul\":3526:3532   */\n      dup8\n        /* \"#utility.yul\":3488:3555   */\n      tag_136\n      jump\t// in\n    tag_229:\n        /* \"#utility.yul\":3565:3638   */\n      tag_230\n        /* \"#utility.yul\":3633:3636   */\n      0xa0\n        /* \"#utility.yul\":3622:3631   */\n      dup4\n        /* \"#utility.yul\":3618:3637   */\n      add\n        /* \"#utility.yul\":3609:3615   */\n      dup7\n        /* \"#utility.yul\":3565:3638   */\n      tag_134\n      jump\t// in\n    tag_230:\n        /* \"#utility.yul\":3648:3721   */\n      tag_231\n        /* \"#utility.yul\":3716:3719   */\n      0xc0\n        /* \"#utility.yul\":3705:3714   */\n      dup4\n        /* \"#utility.yul\":3701:3720   */\n      add\n        /* \"#utility.yul\":3692:3698   */\n      dup6\n        /* \"#utility.yul\":3648:3721   */\n      tag_134\n      jump\t// in\n    tag_231:\n        /* \"#utility.yul\":3731:3798   */\n      tag_232\n        /* \"#utility.yul\":3793:3796   */\n      0xe0\n        /* \"#utility.yul\":3782:3791   */\n      dup4\n        /* \"#utility.yul\":3778:3797   */\n      add\n        /* \"#utility.yul\":3769:3775   */\n      dup5\n        /* \"#utility.yul\":3731:3798   */\n      tag_136\n      jump\t// in\n    tag_232:\n        /* \"#utility.yul\":2741:3805   */\n      swap10\n      swap9\n      pop\n      pop\n      pop\n      pop\n      pop\n      pop\n      pop\n      pop\n      pop\n      jump\t// out\n        /* \"#utility.yul\":3811:3928   */\n    tag_137:\n        /* \"#utility.yul\":3920:3921   */\n      0x00\n        /* \"#utility.yul\":3917:3918   */\n      dup1\n        /* \"#utility.yul\":3910:3922   */\n      revert\n        /* \"#utility.yul\":3934:4051   */\n    tag_138:\n        /* \"#utility.yul\":4043:4044   */\n      0x00\n        /* \"#utility.yul\":4040:4041   */\n      dup1\n        /* \"#utility.yul\":4033:4045   */\n      revert\n        /* \"#utility.yul\":4057:4237   */\n    tag_139:\n        /* \"#utility.yul\":4105:4182   */\n      0x4e487b7100000000000000000000000000000000000000000000000000000000\n        /* \"#utility.yul\":4102:4103   */\n      0x00\n        /* \"#utility.yul\":4095:4183   */\n      mstore\n        /* \"#utility.yul\":4202:4206   */\n      0x41\n        /* \"#utility.yul\":4199:4200   */\n      0x04\n        /* \"#utility.yul\":4192:4207   */\n      mstore\n        /* \"#utility.yul\":4226:4230   */\n      0x24\n        /* \"#utility.yul\":4223:4224   */\n      0x00\n        /* \"#utility.yul\":4216:4231   */\n      revert\n        /* \"#utility.yul\":4243:4524   */\n    tag_140:\n        /* \"#utility.yul\":4326:4353   */\n      tag_237\n        /* \"#utility.yul\":4348:4352   */\n      dup3\n        /* \"#utility.yul\":4326:4353   */\n      tag_132\n      jump\t// in\n    tag_237:\n        /* \"#utility.yul\":4318:4324   */\n      dup2\n        /* \"#utility.yul\":4314:4354   */\n      add\n        /* \"#utility.yul\":4456:4462   */\n      dup2\n        /* \"#utility.yul\":4444:4454   */\n      dup2\n        /* \"#utility.yul\":4441:4463   */\n      lt\n        /* \"#utility.yul\":4420:4438   */\n      0xffffffffffffffff\n        /* \"#utility.yul\":4408:4418   */\n      dup3\n        /* \"#utility.yul\":4405:4439   */\n      gt\n        /* \"#utility.yul\":4402:4464   */\n      or\n        /* \"#utility.yul\":4399:4487   */\n      iszero\n      tag_238\n      jumpi\n        /* \"#utility.yul\":4467:4485   */\n      tag_239\n      tag_139\n      jump\t// in\n    tag_239:\n        /* \"#utility.yul\":4399:4487   */\n    tag_238:\n        /* \"#utility.yul\":4507:4517   */\n      dup1\n        /* \"#utility.yul\":4503:4505   */\n      0x40\n        /* \"#utility.yul\":4496:4518   */\n      mstore\n        /* \"#utility.yul\":4286:4524   */\n      pop\n        /* \"#utility.yul\":4243:4524   */\n      pop\n      pop\n      jump\t// out\n        /* \"#utility.yul\":4530:4659   */\n    tag_141:\n        /* \"#utility.yul\":4564:4570   */\n      0x00\n        /* \"#utility.yul\":4591:4611   */\n      tag_241\n      tag_120\n      jump\t// in\n    tag_241:\n        /* \"#utility.yul\":4581:4611   */\n      swap1\n      pop\n        /* \"#utility.yul\":4620:4653   */\n      tag_242\n        /* \"#utility.yul\":4648:4652   */\n      dup3\n        /* \"#utility.yul\":4640:4646   */\n      dup3\n        /* \"#utility.yul\":4620:4653   */\n      tag_140\n      jump\t// in\n    tag_242:\n        /* \"#utility.yul\":4530:4659   */\n      swap2\n      swap1\n      pop\n      jump\t// out\n        /* \"#utility.yul\":4665:4973   */\n    tag_142:\n        /* \"#utility.yul\":4727:4731   */\n      0x00\n        /* \"#utility.yul\":4817:4835   */\n      0xffffffffffffffff\n        /* \"#utility.yul\":4809:4815   */\n      dup3\n        /* \"#utility.yul\":4806:4836   */\n      gt\n        /* \"#utility.yul\":4803:4859   */\n      iszero\n      tag_244\n      jumpi\n        /* \"#utility.yul\":4839:4857   */\n      tag_245\n      tag_139\n      jump\t// in\n    tag_245:\n        /* \"#utility.yul\":4803:4859   */\n    tag_244:\n        /* \"#utility.yul\":4877:4906   */\n      tag_246\n        /* \"#utility.yul\":4899:4905   */\n      dup3\n        /* \"#utility.yul\":4877:4906   */\n      tag_132\n      jump\t// in\n    tag_246:\n        /* \"#utility.yul\":4869:4906   */\n      swap1\n      pop\n        /* \"#utility.yul\":4961:4965   */\n      0x20\n        /* \"#utility.yul\":4955:4959   */\n      dup2\n        /* \"#utility.yul\":4951:4966   */\n      add\n        /* \"#utility.yul\":4943:4966   */\n      swap1\n      pop\n        /* \"#utility.yul\":4665:4973   */\n      swap2\n      swap1\n      pop\n      jump\t// out\n        /* \"#utility.yul\":4979:5125   */\n    tag_143:\n        /* \"#utility.yul\":5076:5082   */\n      dup3\n        /* \"#utility.yul\":5071:5074   */\n      dup2\n        /* \"#utility.yul\":5066:5069   */\n      dup4\n        /* \"#utility.yul\":5053:5083   */\n      calldatacopy\n        /* \"#utility.yul\":5117:5118   */\n      0x00\n        /* \"#utility.yul\":5108:5114   */\n      dup4\n        /* \"#utility.yul\":5103:5106   */\n      dup4\n        /* \"#utility.yul\":5099:5115   */\n      add\n        /* \"#utility.yul\":5092:5119   */\n      mstore\n        /* \"#utility.yul\":4979:5125   */\n      pop\n      pop\n      pop\n      jump\t// out\n        /* \"#utility.yul\":5131:5556   */\n    tag_144:\n        /* \"#utility.yul\":5209:5214   */\n      0x00\n        /* \"#utility.yul\":5234:5300   */\n      tag_249\n        /* \"#utility.yul\":5250:5299   */\n      tag_250\n        /* \"#utility.yul\":5292:5298   */\n      dup5\n        /* \"#utility.yul\":5250:5299   */\n      tag_142\n      jump\t// in\n    tag_250:\n        /* \"#utility.yul\":5234:5300   */\n      tag_141\n      jump\t// in\n    tag_249:\n        /* \"#utility.yul\":5225:5300   */\n      swap1\n      pop\n        /* \"#utility.yul\":5323:5329   */\n      dup3\n        /* \"#utility.yul\":5316:5321   */\n      dup2\n        /* \"#utility.yul\":5309:5330   */\n      mstore\n        /* \"#utility.yul\":5361:5365   */\n      0x20\n        /* \"#utility.yul\":5354:5359   */\n      dup2\n        /* \"#utility.yul\":5350:5366   */\n      add\n        /* \"#utility.yul\":5399:5402   */\n      dup5\n        /* \"#utility.yul\":5390:5396   */\n      dup5\n        /* \"#utility.yul\":5385:5388   */\n      dup5\n        /* \"#utility.yul\":5381:5397   */\n      add\n        /* \"#utility.yul\":5378:5403   */\n      gt\n        /* \"#utility.yul\":5375:5487   */\n      iszero\n      tag_251\n      jumpi\n        /* \"#utility.yul\":5406:5485   */\n      tag_252\n      tag_138\n      jump\t// in\n    tag_252:\n        /* \"#utility.yul\":5375:5487   */\n    tag_251:\n        /* \"#utility.yul\":5496:5550   */\n      tag_253\n        /* \"#utility.yul\":5543:5549   */\n      dup5\n        /* \"#utility.yul\":5538:5541   */\n      dup3\n        /* \"#utility.yul\":5533:5536   */\n      dup6\n        /* \"#utility.yul\":5496:5550   */\n      tag_143\n      jump\t// in\n    tag_253:\n        /* \"#utility.yul\":5215:5556   */\n      pop\n        /* \"#utility.yul\":5131:5556   */\n      swap4\n      swap3\n      pop\n      pop\n      pop\n      jump\t// out\n        /* \"#utility.yul\":5576:5916   */\n    tag_145:\n        /* \"#utility.yul\":5632:5637   */\n      0x00\n        /* \"#utility.yul\":5681:5684   */\n      dup3\n        /* \"#utility.yul\":5674:5678   */\n      0x1f\n        /* \"#utility.yul\":5666:5672   */\n      dup4\n        /* \"#utility.yul\":5662:5679   */\n      add\n        /* \"#utility.yul\":5658:5685   */\n      slt\n        /* \"#utility.yul\":5648:5770   */\n      tag_255\n      jumpi\n        /* \"#utility.yul\":5689:5768   */\n      tag_256\n      tag_137\n      jump\t// in\n    tag_256:\n        /* \"#utility.yul\":5648:5770   */\n    tag_255:\n        /* \"#utility.yul\":5806:5812   */\n      dup2\n        /* \"#utility.yul\":5793:5813   */\n      calldataload\n        /* \"#utility.yul\":5831:5910   */\n      tag_257\n        /* \"#utility.yul\":5906:5909   */\n      dup5\n        /* \"#utility.yul\":5898:5904   */\n      dup3\n        /* \"#utility.yul\":5891:5895   */\n      0x20\n        /* \"#utility.yul\":5883:5889   */\n      dup7\n        /* \"#utility.yul\":5879:5896   */\n      add\n        /* \"#utility.yul\":5831:5910   */\n      tag_144\n      jump\t// in\n    tag_257:\n        /* \"#utility.yul\":5822:5910   */\n      swap2\n      pop\n        /* \"#utility.yul\":5638:5916   */\n      pop\n        /* \"#utility.yul\":5576:5916   */\n      swap3\n      swap2\n      pop\n      pop\n      jump\t// out\n        /* \"#utility.yul\":5922:6431   */\n    tag_16:\n        /* \"#utility.yul\":5991:5997   */\n      0x00\n        /* \"#utility.yul\":6040:6042   */\n      0x20\n        /* \"#utility.yul\":6028:6037   */\n      dup3\n        /* \"#utility.yul\":6019:6026   */\n      dup5\n        /* \"#utility.yul\":6015:6038   */\n      sub\n        /* \"#utility.yul\":6011:6043   */\n      slt\n        /* \"#utility.yul\":6008:6127   */\n      iszero\n      tag_259\n      jumpi\n        /* \"#utility.yul\":6046:6125   */\n      tag_260\n      tag_121\n      jump\t// in\n    tag_260:\n        /* \"#utility.yul\":6008:6127   */\n    tag_259:\n        /* \"#utility.yul\":6194:6195   */\n      0x00\n        /* \"#utility.yul\":6183:6192   */\n      dup3\n        /* \"#utility.yul\":6179:6196   */\n      add\n        /* \"#utility.yul\":6166:6197   */\n      calldataload\n        /* \"#utility.yul\":6224:6242   */\n      0xffffffffffffffff\n        /* \"#utility.yul\":6216:6222   */\n      dup2\n        /* \"#utility.yul\":6213:6243   */\n      gt\n        /* \"#utility.yul\":6210:6327   */\n      iszero\n      tag_261\n      jumpi\n        /* \"#utility.yul\":6246:6325   */\n      tag_262\n      tag_122\n      jump\t// in\n    tag_262:\n        /* \"#utility.yul\":6210:6327   */\n    tag_261:\n        /* \"#utility.yul\":6351:6414   */\n      tag_263\n        /* \"#utility.yul\":6406:6413   */\n      dup5\n        /* \"#utility.yul\":6397:6403   */\n      dup3\n        /* \"#utility.yul\":6386:6395   */\n      dup6\n        /* \"#utility.yul\":6382:6404   */\n      add\n        /* \"#utility.yul\":6351:6414   */\n      tag_145\n      jump\t// in\n    tag_263:\n        /* \"#utility.yul\":6341:6414   */\n      swap2\n      pop\n        /* \"#utility.yul\":6137:6424   */\n      pop\n        /* \"#utility.yul\":5922:6431   */\n      swap3\n      swap2\n      pop\n      pop\n      jump\t// out\n        /* \"#utility.yul\":6437:6541   */\n    tag_146:\n        /* \"#utility.yul\":6482:6489   */\n      0x00\n        /* \"#utility.yul\":6511:6535   */\n      tag_265\n        /* \"#utility.yul\":6529:6534   */\n      dup3\n        /* \"#utility.yul\":6511:6535   */\n      tag_126\n      jump\t// in\n    tag_265:\n        /* \"#utility.yul\":6500:6535   */\n      swap1\n      pop\n        /* \"#utility.yul\":6437:6541   */\n      swap2\n      swap1\n      pop\n      jump\t// out\n        /* \"#utility.yul\":6547:6685   */\n    tag_147:\n        /* \"#utility.yul\":6628:6660   */\n      tag_267\n        /* \"#utility.yul\":6654:6659   */\n      dup2\n        /* \"#utility.yul\":6628:6660   */\n      tag_146\n      jump\t// in\n    tag_267:\n        /* \"#utility.yul\":6621:6626   */\n      dup2\n        /* \"#utility.yul\":6618:6661   */\n      eq\n        /* \"#utility.yul\":6608:6679   */\n      tag_268\n      jumpi\n        /* \"#utility.yul\":6675:6676   */\n      0x00\n        /* \"#utility.yul\":6672:6673   */\n      dup1\n        /* \"#utility.yul\":6665:6677   */\n      revert\n        /* \"#utility.yul\":6608:6679   */\n    tag_268:\n        /* \"#utility.yul\":6547:6685   */\n      pop\n      jump\t// out\n        /* \"#utility.yul\":6691:6846   */\n    tag_148:\n        /* \"#utility.yul\":6745:6750   */\n      0x00\n        /* \"#utility.yul\":6783:6789   */\n      dup2\n        /* \"#utility.yul\":6770:6790   */\n      calldataload\n        /* \"#utility.yul\":6761:6790   */\n      swap1\n      pop\n        /* \"#utility.yul\":6799:6840   */\n      tag_270\n        /* \"#utility.yul\":6834:6839   */\n      dup2\n        /* \"#utility.yul\":6799:6840   */\n      tag_147\n      jump\t// in\n    tag_270:\n        /* \"#utility.yul\":6691:6846   */\n      swap3\n      swap2\n      pop\n      pop\n      jump\t// out\n        /* \"#utility.yul\":6852:7813   */\n    tag_27:\n        /* \"#utility.yul\":6956:6962   */\n      0x00\n        /* \"#utility.yul\":6964:6970   */\n      dup1\n        /* \"#utility.yul\":6972:6978   */\n      0x00\n        /* \"#utility.yul\":6980:6986   */\n      dup1\n        /* \"#utility.yul\":7029:7032   */\n      0x80\n        /* \"#utility.yul\":7017:7026   */\n      dup6\n        /* \"#utility.yul\":7008:7015   */\n      dup8\n        /* \"#utility.yul\":7004:7027   */\n      sub\n        /* \"#utility.yul\":7000:7033   */\n      slt\n        /* \"#utility.yul\":6997:7117   */\n      iszero\n      tag_272\n      jumpi\n        /* \"#utility.yul\":7036:7115   */\n      tag_273\n      tag_121\n      jump\t// in\n    tag_273:\n        /* \"#utility.yul\":6997:7117   */\n    tag_272:\n        /* \"#utility.yul\":7184:7185   */\n      0x00\n        /* \"#utility.yul\":7173:7182   */\n      dup6\n        /* \"#utility.yul\":7169:7186   */\n      add\n        /* \"#utility.yul\":7156:7187   */\n      calldataload\n        /* \"#utility.yul\":7214:7232   */\n      0xffffffffffffffff\n        /* \"#utility.yul\":7206:7212   */\n      dup2\n        /* \"#utility.yul\":7203:7233   */\n      gt\n        /* \"#utility.yul\":7200:7317   */\n      iszero\n      tag_274\n      jumpi\n        /* \"#utility.yul\":7236:7315   */\n      tag_275\n      tag_122\n      jump\t// in\n    tag_275:\n        /* \"#utility.yul\":7200:7317   */\n    tag_274:\n        /* \"#utility.yul\":7341:7404   */\n      tag_276\n        /* \"#utility.yul\":7396:7403   */\n      dup8\n        /* \"#utility.yul\":7387:7393   */\n      dup3\n        /* \"#utility.yul\":7376:7385   */\n      dup9\n        /* \"#utility.yul\":7372:7394   */\n      add\n        /* \"#utility.yul\":7341:7404   */\n      tag_145\n      jump\t// in\n    tag_276:\n        /* \"#utility.yul\":7331:7404   */\n      swap5\n      pop\n        /* \"#utility.yul\":7127:7414   */\n      pop\n        /* \"#utility.yul\":7453:7455   */\n      0x20\n        /* \"#utility.yul\":7479:7540   */\n      tag_277\n        /* \"#utility.yul\":7532:7539   */\n      dup8\n        /* \"#utility.yul\":7523:7529   */\n      dup3\n        /* \"#utility.yul\":7512:7521   */\n      dup9\n        /* \"#utility.yul\":7508:7530   */\n      add\n        /* \"#utility.yul\":7479:7540   */\n      tag_148\n      jump\t// in\n    tag_277:\n        /* \"#utility.yul\":7469:7540   */\n      swap4\n      pop\n        /* \"#utility.yul\":7424:7550   */\n      pop\n        /* \"#utility.yul\":7589:7591   */\n      0x40\n        /* \"#utility.yul\":7615:7668   */\n      tag_278\n        /* \"#utility.yul\":7660:7667   */\n      dup8\n        /* \"#utility.yul\":7651:7657   */\n      dup3\n        /* \"#utility.yul\":7640:7649   */\n      dup9\n        /* \"#utility.yul\":7636:7658   */\n      add\n        /* \"#utility.yul\":7615:7668   */\n      tag_125\n      jump\t// in\n    tag_278:\n        /* \"#utility.yul\":7605:7668   */\n      swap3\n      pop\n        /* \"#utility.yul\":7560:7678   */\n      pop\n        /* \"#utility.yul\":7717:7719   */\n      0x60\n        /* \"#utility.yul\":7743:7796   */\n      tag_279\n        /* \"#utility.yul\":7788:7795   */\n      dup8\n        /* \"#utility.yul\":7779:7785   */\n      dup3\n        /* \"#utility.yul\":7768:7777   */\n      dup9\n        /* \"#utility.yul\":7764:7786   */\n      add\n        /* \"#utility.yul\":7743:7796   */\n      tag_125\n      jump\t// in\n    tag_279:\n        /* \"#utility.yul\":7733:7796   */\n      swap2\n      pop\n        /* \"#utility.yul\":7688:7806   */\n      pop\n        /* \"#utility.yul\":6852:7813   */\n      swap3\n      swap6\n      swap2\n      swap5\n      pop\n      swap3\n      pop\n      jump\t// out\n        /* \"#utility.yul\":7819:7999   */\n    tag_149:\n        /* \"#utility.yul\":7867:7944   */\n      0x4e487b7100000000000000000000000000000000000000000000000000000000\n        /* \"#utility.yul\":7864:7865   */\n      0x00\n        /* \"#utility.yul\":7857:7945   */\n      mstore\n        /* \"#utility.yul\":7964:7968   */\n      0x22\n        /* \"#utility.yul\":7961:7962   */\n      0x04\n        /* \"#utility.yul\":7954:7969   */\n      mstore\n        /* \"#utility.yul\":7988:7992   */\n      0x24\n        /* \"#utility.yul\":7985:7986   */\n      0x00\n        /* \"#utility.yul\":7978:7993   */\n      revert\n        /* \"#utility.yul\":8005:8325   */\n    tag_30:\n        /* \"#utility.yul\":8049:8055   */\n      0x00\n        /* \"#utility.yul\":8086:8087   */\n      0x02\n        /* \"#utility.yul\":8080:8084   */\n      dup3\n        /* \"#utility.yul\":8076:8088   */\n      div\n        /* \"#utility.yul\":8066:8088   */\n      swap1\n      pop\n        /* \"#utility.yul\":8133:8134   */\n      0x01\n        /* \"#utility.yul\":8127:8131   */\n      dup3\n        /* \"#utility.yul\":8123:8135   */\n      and\n        /* \"#utility.yul\":8154:8172   */\n      dup1\n        /* \"#utility.yul\":8144:8225   */\n      tag_282\n      jumpi\n        /* \"#utility.yul\":8210:8214   */\n      0x7f\n        /* \"#utility.yul\":8202:8208   */\n      dup3\n        /* \"#utility.yul\":8198:8215   */\n      and\n        /* \"#utility.yul\":8188:8215   */\n      swap2\n      pop\n        /* \"#utility.yul\":8144:8225   */\n    tag_282:\n        /* \"#utility.yul\":8272:8274   */\n      0x20\n        /* \"#utility.yul\":8264:8270   */\n      dup3\n        /* \"#utility.yul\":8261:8275   */\n      lt\n        /* \"#utility.yul\":8241:8259   */\n      dup2\n        /* \"#utility.yul\":8238:8276   */\n      sub\n        /* \"#utility.yul\":8235:8319   */\n      tag_283\n      jumpi\n        /* \"#utility.yul\":8291:8309   */\n      tag_284\n      tag_149\n      jump\t// in\n    tag_284:\n        /* \"#utility.yul\":8235:8319   */\n    tag_283:\n        /* \"#utility.yul\":8056:8325   */\n      pop\n        /* \"#utility.yul\":8005:8325   */\n      swap2\n      swap1\n      pop\n      jump\t// out\n        /* \"#utility.yul\":8331:8622   */\n    tag_150:\n        /* \"#utility.yul\":8471:8505   */\n      0x43616d706169676e20726561636865642074686520646561646c696e652e2059\n        /* \"#utility.yul\":8467:8468   */\n      0x00\n        /* \"#utility.yul\":8459:8465   */\n      dup3\n        /* \"#utility.yul\":8455:8469   */\n      add\n        /* \"#utility.yul\":8448:8506   */\n      mstore\n        /* \"#utility.yul\":8540:8574   */\n      0x6f752063616e277420646f20616e79207472616e73616374696f6e20616e796d\n        /* \"#utility.yul\":8535:8537   */\n      0x20\n        /* \"#utility.yul\":8527:8533   */\n      dup3\n        /* \"#utility.yul\":8523:8538   */\n      add\n        /* \"#utility.yul\":8516:8575   */\n      mstore\n        /* \"#utility.yul\":8609:8614   */\n      0x6f72650000000000000000000000000000000000000000000000000000000000\n        /* \"#utility.yul\":8604:8606   */\n      0x40\n        /* \"#utility.yul\":8596:8602   */\n      dup3\n        /* \"#utility.yul\":8592:8607   */\n      add\n        /* \"#utility.yul\":8585:8615   */\n      mstore\n        /* \"#utility.yul\":8331:8622   */\n      pop\n      jump\t// out\n        /* \"#utility.yul\":8628:8994   */\n    tag_151:\n        /* \"#utility.yul\":8770:8773   */\n      0x00\n        /* \"#utility.yul\":8791:8858   */\n      tag_287\n        /* \"#utility.yul\":8855:8857   */\n      0x43\n        /* \"#utility.yul\":8850:8853   */\n      dup4\n        /* \"#utility.yul\":8791:8858   */\n      tag_130\n      jump\t// in\n    tag_287:\n        /* \"#utility.yul\":8784:8858   */\n      swap2\n      pop\n        /* \"#utility.yul\":8867:8960   */\n      tag_288\n        /* \"#utility.yul\":8956:8959   */\n      dup3\n        /* \"#utility.yul\":8867:8960   */\n      tag_150\n      jump\t// in\n    tag_288:\n        /* \"#utility.yul\":8985:8987   */\n      0x60\n        /* \"#utility.yul\":8980:8983   */\n      dup3\n        /* \"#utility.yul\":8976:8988   */\n      add\n        /* \"#utility.yul\":8969:8988   */\n      swap1\n      pop\n        /* \"#utility.yul\":8628:8994   */\n      swap2\n      swap1\n      pop\n      jump\t// out\n        /* \"#utility.yul\":9000:9419   */\n    tag_40:\n        /* \"#utility.yul\":9166:9170   */\n      0x00\n        /* \"#utility.yul\":9204:9206   */\n      0x20\n        /* \"#utility.yul\":9193:9202   */\n      dup3\n        /* \"#utility.yul\":9189:9207   */\n      add\n        /* \"#utility.yul\":9181:9207   */\n      swap1\n      pop\n        /* \"#utility.yul\":9253:9262   */\n      dup2\n        /* \"#utility.yul\":9247:9251   */\n      dup2\n        /* \"#utility.yul\":9243:9263   */\n      sub\n        /* \"#utility.yul\":9239:9240   */\n      0x00\n        /* \"#utility.yul\":9228:9237   */\n      dup4\n        /* \"#utility.yul\":9224:9241   */\n      add\n        /* \"#utility.yul\":9217:9264   */\n      mstore\n        /* \"#utility.yul\":9281:9412   */\n      tag_290\n        /* \"#utility.yul\":9407:9411   */\n      dup2\n        /* \"#utility.yul\":9281:9412   */\n      tag_151\n      jump\t// in\n    tag_290:\n        /* \"#utility.yul\":9273:9412   */\n      swap1\n      pop\n        /* \"#utility.yul\":9000:9419   */\n      swap2\n      swap1\n      pop\n      jump\t// out\n        /* \"#utility.yul\":9425:9646   */\n    tag_152:\n        /* \"#utility.yul\":9565:9599   */\n      0x43616d706169676e204e6f742056616c6964206f72204f70656e20416e796d6f\n        /* \"#utility.yul\":9561:9562   */\n      0x00\n        /* \"#utility.yul\":9553:9559   */\n      dup3\n        /* \"#utility.yul\":9549:9563   */\n      add\n        /* \"#utility.yul\":9542:9600   */\n      mstore\n        /* \"#utility.yul\":9634:9638   */\n      0x7265000000000000000000000000000000000000000000000000000000000000\n        /* \"#utility.yul\":9629:9631   */\n      0x20\n        /* \"#utility.yul\":9621:9627   */\n      dup3\n        /* \"#utility.yul\":9617:9632   */\n      add\n        /* \"#utility.yul\":9610:9639   */\n      mstore\n        /* \"#utility.yul\":9425:9646   */\n      pop\n      jump\t// out\n        /* \"#utility.yul\":9652:10018   */\n    tag_153:\n        /* \"#utility.yul\":9794:9797   */\n      0x00\n        /* \"#utility.yul\":9815:9882   */\n      tag_293\n        /* \"#utility.yul\":9879:9881   */\n      0x22\n        /* \"#utility.yul\":9874:9877   */\n      dup4\n        /* \"#utility.yul\":9815:9882   */\n      tag_130\n      jump\t// in\n    tag_293:\n        /* \"#utility.yul\":9808:9882   */\n      swap2\n      pop\n        /* \"#utility.yul\":9891:9984   */\n      tag_294\n        /* \"#utility.yul\":9980:9983   */\n      dup3\n        /* \"#utility.yul\":9891:9984   */\n      tag_152\n      jump\t// in\n    tag_294:\n        /* \"#utility.yul\":10009:10011   */\n      0x40\n        /* \"#utility.yul\":10004:10007   */\n      dup3\n        /* \"#utility.yul\":10000:10012   */\n      add\n        /* \"#utility.yul\":9993:10012   */\n      swap1\n      pop\n        /* \"#utility.yul\":9652:10018   */\n      swap2\n      swap1\n      pop\n      jump\t// out\n        /* \"#utility.yul\":10024:10443   */\n    tag_45:\n        /* \"#utility.yul\":10190:10194   */\n      0x00\n        /* \"#utility.yul\":10228:10230   */\n      0x20\n        /* \"#utility.yul\":10217:10226   */\n      dup3\n        /* \"#utility.yul\":10213:10231   */\n      add\n        /* \"#utility.yul\":10205:10231   */\n      swap1\n      pop\n        /* \"#utility.yul\":10277:10286   */\n      dup2\n        /* \"#utility.yul\":10271:10275   */\n      dup2\n        /* \"#utility.yul\":10267:10287   */\n      sub\n        /* \"#utility.yul\":10263:10264   */\n      0x00\n        /* \"#utility.yul\":10252:10261   */\n      dup4\n        /* \"#utility.yul\":10248:10265   */\n      add\n        /* \"#utility.yul\":10241:10288   */\n      mstore\n        /* \"#utility.yul\":10305:10436   */\n      tag_296\n        /* \"#utility.yul\":10431:10435   */\n      dup2\n        /* \"#utility.yul\":10305:10436   */\n      tag_153\n      jump\t// in\n    tag_296:\n        /* \"#utility.yul\":10297:10436   */\n      swap1\n      pop\n        /* \"#utility.yul\":10024:10443   */\n      swap2\n      swap1\n      pop\n      jump\t// out\n        /* \"#utility.yul\":10449:10678   */\n    tag_154:\n        /* \"#utility.yul\":10589:10623   */\n      0x43616d706169676e20646f65736e27742065786973742e20506c656173652072\n        /* \"#utility.yul\":10585:10586   */\n      0x00\n        /* \"#utility.yul\":10577:10583   */\n      dup3\n        /* \"#utility.yul\":10573:10587   */\n      add\n        /* \"#utility.yul\":10566:10624   */\n      mstore\n        /* \"#utility.yul\":10658:10670   */\n      0x652d636865636b2e2e2e00000000000000000000000000000000000000000000\n        /* \"#utility.yul\":10653:10655   */\n      0x20\n        /* \"#utility.yul\":10645:10651   */\n      dup3\n        /* \"#utility.yul\":10641:10656   */\n      add\n        /* \"#utility.yul\":10634:10671   */\n      mstore\n        /* \"#utility.yul\":10449:10678   */\n      pop\n      jump\t// out\n        /* \"#utility.yul\":10684:11050   */\n    tag_155:\n        /* \"#utility.yul\":10826:10829   */\n      0x00\n        /* \"#utility.yul\":10847:10914   */\n      tag_299\n        /* \"#utility.yul\":10911:10913   */\n      0x2a\n        /* \"#utility.yul\":10906:10909   */\n      dup4\n        /* \"#utility.yul\":10847:10914   */\n      tag_130\n      jump\t// in\n    tag_299:\n        /* \"#utility.yul\":10840:10914   */\n      swap2\n      pop\n        /* \"#utility.yul\":10923:11016   */\n      tag_300\n        /* \"#utility.yul\":11012:11015   */\n      dup3\n        /* \"#utility.yul\":10923:11016   */\n      tag_154\n      jump\t// in\n    tag_300:\n        /* \"#utility.yul\":11041:11043   */\n      0x40\n        /* \"#utility.yul\":11036:11039   */\n      dup3\n        /* \"#utility.yul\":11032:11044   */\n      add\n        /* \"#utility.yul\":11025:11044   */\n      swap1\n      pop\n        /* \"#utility.yul\":10684:11050   */\n      swap2\n      swap1\n      pop\n      jump\t// out\n        /* \"#utility.yul\":11056:11475   */\n    tag_50:\n        /* \"#utility.yul\":11222:11226   */\n      0x00\n        /* \"#utility.yul\":11260:11262   */\n      0x20\n        /* \"#utility.yul\":11249:11258   */\n      dup3\n        /* \"#utility.yul\":11245:11263   */\n      add\n        /* \"#utility.yul\":11237:11263   */\n      swap1\n      pop\n        /* \"#utility.yul\":11309:11318   */\n      dup2\n        /* \"#utility.yul\":11303:11307   */\n      dup2\n        /* \"#utility.yul\":11299:11319   */\n      sub\n        /* \"#utility.yul\":11295:11296   */\n      0x00\n        /* \"#utility.yul\":11284:11293   */\n      dup4\n        /* \"#utility.yul\":11280:11297   */\n      add\n        /* \"#utility.yul\":11273:11320   */\n      mstore\n        /* \"#utility.yul\":11337:11468   */\n      tag_302\n        /* \"#utility.yul\":11463:11467   */\n      dup2\n        /* \"#utility.yul\":11337:11468   */\n      tag_155\n      jump\t// in\n    tag_302:\n        /* \"#utility.yul\":11329:11468   */\n      swap1\n      pop\n        /* \"#utility.yul\":11056:11475   */\n      swap2\n      swap1\n      pop\n      jump\t// out\n        /* \"#utility.yul\":11481:11703   */\n    tag_156:\n        /* \"#utility.yul\":11621:11655   */\n      0x4d696e696d756e207472616e73616374696f6e20616d6f756e74206973203120\n        /* \"#utility.yul\":11617:11618   */\n      0x00\n        /* \"#utility.yul\":11609:11615   */\n      dup3\n        /* \"#utility.yul\":11605:11619   */\n      add\n        /* \"#utility.yul\":11598:11656   */\n      mstore\n        /* \"#utility.yul\":11690:11695   */\n      0x5765690000000000000000000000000000000000000000000000000000000000\n        /* \"#utility.yul\":11685:11687   */\n      0x20\n        /* \"#utility.yul\":11677:11683   */\n      dup3\n        /* \"#utility.yul\":11673:11688   */\n      add\n        /* \"#utility.yul\":11666:11696   */\n      mstore\n        /* \"#utility.yul\":11481:11703   */\n      pop\n      jump\t// out\n        /* \"#utility.yul\":11709:12075   */\n    tag_157:\n        /* \"#utility.yul\":11851:11854   */\n      0x00\n        /* \"#utility.yul\":11872:11939   */\n      tag_305\n        /* \"#utility.yul\":11936:11938   */\n      0x23\n        /* \"#utility.yul\":11931:11934   */\n      dup4\n        /* \"#utility.yul\":11872:11939   */\n      tag_130\n      jump\t// in\n    tag_305:\n        /* \"#utility.yul\":11865:11939   */\n      swap2\n      pop\n        /* \"#utility.yul\":11948:12041   */\n      tag_306\n        /* \"#utility.yul\":12037:12040   */\n      dup3\n        /* \"#utility.yul\":11948:12041   */\n      tag_156\n      jump\t// in\n    tag_306:\n        /* \"#utility.yul\":12066:12068   */\n      0x40\n        /* \"#utility.yul\":12061:12064   */\n      dup3\n        /* \"#utility.yul\":12057:12069   */\n      add\n        /* \"#utility.yul\":12050:12069   */\n      swap1\n      pop\n        /* \"#utility.yul\":11709:12075   */\n      swap2\n      swap1\n      pop\n      jump\t// out\n        /* \"#utility.yul\":12081:12500   */\n    tag_54:\n        /* \"#utility.yul\":12247:12251   */\n      0x00\n        /* \"#utility.yul\":12285:12287   */\n      0x20\n        /* \"#utility.yul\":12274:12283   */\n      dup3\n        /* \"#utility.yul\":12270:12288   */\n      add\n        /* \"#utility.yul\":12262:12288   */\n      swap1\n      pop\n        /* \"#utility.yul\":12334:12343   */\n      dup2\n        /* \"#utility.yul\":12328:12332   */\n      dup2\n        /* \"#utility.yul\":12324:12344   */\n      sub\n        /* \"#utility.yul\":12320:12321   */\n      0x00\n        /* \"#utility.yul\":12309:12318   */\n      dup4\n        /* \"#utility.yul\":12305:12322   */\n      add\n        /* \"#utility.yul\":12298:12345   */\n      mstore\n        /* \"#utility.yul\":12362:12493   */\n      tag_308\n        /* \"#utility.yul\":12488:12492   */\n      dup2\n        /* \"#utility.yul\":12362:12493   */\n      tag_157\n      jump\t// in\n    tag_308:\n        /* \"#utility.yul\":12354:12493   */\n      swap1\n      pop\n        /* \"#utility.yul\":12081:12500   */\n      swap2\n      swap1\n      pop\n      jump\t// out\n        /* \"#utility.yul\":12506:12686   */\n    tag_158:\n        /* \"#utility.yul\":12554:12631   */\n      0x4e487b7100000000000000000000000000000000000000000000000000000000\n        /* \"#utility.yul\":12551:12552   */\n      0x00\n        /* \"#utility.yul\":12544:12632   */\n      mstore\n        /* \"#utility.yul\":12651:12655   */\n      0x11\n        /* \"#utility.yul\":12648:12649   */\n      0x04\n        /* \"#utility.yul\":12641:12656   */\n      mstore\n        /* \"#utility.yul\":12675:12679   */\n      0x24\n        /* \"#utility.yul\":12672:12673   */\n      0x00\n        /* \"#utility.yul\":12665:12680   */\n      revert\n        /* \"#utility.yul\":12692:12883   */\n    tag_59:\n        /* \"#utility.yul\":12732:12735   */\n      0x00\n        /* \"#utility.yul\":12751:12771   */\n      tag_311\n        /* \"#utility.yul\":12769:12770   */\n      dup3\n        /* \"#utility.yul\":12751:12771   */\n      tag_123\n      jump\t// in\n    tag_311:\n        /* \"#utility.yul\":12746:12771   */\n      swap2\n      pop\n        /* \"#utility.yul\":12785:12805   */\n      tag_312\n        /* \"#utility.yul\":12803:12804   */\n      dup4\n        /* \"#utility.yul\":12785:12805   */\n      tag_123\n      jump\t// in\n    tag_312:\n        /* \"#utility.yul\":12780:12805   */\n      swap3\n      pop\n        /* \"#utility.yul\":12828:12829   */\n      dup3\n        /* \"#utility.yul\":12825:12826   */\n      dup3\n        /* \"#utility.yul\":12821:12830   */\n      add\n        /* \"#utility.yul\":12814:12830   */\n      swap1\n      pop\n        /* \"#utility.yul\":12849:12852   */\n      dup1\n        /* \"#utility.yul\":12846:12847   */\n      dup3\n        /* \"#utility.yul\":12843:12853   */\n      gt\n        /* \"#utility.yul\":12840:12876   */\n      iszero\n      tag_313\n      jumpi\n        /* \"#utility.yul\":12856:12874   */\n      tag_314\n      tag_158\n      jump\t// in\n    tag_314:\n        /* \"#utility.yul\":12840:12876   */\n    tag_313:\n        /* \"#utility.yul\":12692:12883   */\n      swap3\n      swap2\n      pop\n      pop\n      jump\t// out\n        /* \"#utility.yul\":12889:13221   */\n    tag_61:\n        /* \"#utility.yul\":13010:13014   */\n      0x00\n        /* \"#utility.yul\":13048:13050   */\n      0x40\n        /* \"#utility.yul\":13037:13046   */\n      dup3\n        /* \"#utility.yul\":13033:13051   */\n      add\n        /* \"#utility.yul\":13025:13051   */\n      swap1\n      pop\n        /* \"#utility.yul\":13061:13132   */\n      tag_316\n        /* \"#utility.yul\":13129:13130   */\n      0x00\n        /* \"#utility.yul\":13118:13127   */\n      dup4\n        /* \"#utility.yul\":13114:13131   */\n      add\n        /* \"#utility.yul\":13105:13111   */\n      dup6\n        /* \"#utility.yul\":13061:13132   */\n      tag_128\n      jump\t// in\n    tag_316:\n        /* \"#utility.yul\":13142:13214   */\n      tag_317\n        /* \"#utility.yul\":13210:13212   */\n      0x20\n        /* \"#utility.yul\":13199:13208   */\n      dup4\n        /* \"#utility.yul\":13195:13213   */\n      add\n        /* \"#utility.yul\":13186:13192   */\n      dup5\n        /* \"#utility.yul\":13142:13214   */\n      tag_134\n      jump\t// in\n    tag_317:\n        /* \"#utility.yul\":12889:13221   */\n      swap4\n      swap3\n      pop\n      pop\n      pop\n      jump\t// out\n        /* \"#utility.yul\":13227:13406   */\n    tag_159:\n        /* \"#utility.yul\":13367:13398   */\n      0x4f776e6572732063616e27742061636365737320746869732061726561000000\n        /* \"#utility.yul\":13363:13364   */\n      0x00\n        /* \"#utility.yul\":13355:13361   */\n      dup3\n        /* \"#utility.yul\":13351:13365   */\n      add\n        /* \"#utility.yul\":13344:13399   */\n      mstore\n        /* \"#utility.yul\":13227:13406   */\n      pop\n      jump\t// out\n        /* \"#utility.yul\":13412:13778   */\n    tag_160:\n        /* \"#utility.yul\":13554:13557   */\n      0x00\n        /* \"#utility.yul\":13575:13642   */\n      tag_320\n        /* \"#utility.yul\":13639:13641   */\n      0x1d\n        /* \"#utility.yul\":13634:13637   */\n      dup4\n        /* \"#utility.yul\":13575:13642   */\n      tag_130\n      jump\t// in\n    tag_320:\n        /* \"#utility.yul\":13568:13642   */\n      swap2\n      pop\n        /* \"#utility.yul\":13651:13744   */\n      tag_321\n        /* \"#utility.yul\":13740:13743   */\n      dup3\n        /* \"#utility.yul\":13651:13744   */\n      tag_159\n      jump\t// in\n    tag_321:\n        /* \"#utility.yul\":13769:13771   */\n      0x20\n        /* \"#utility.yul\":13764:13767   */\n      dup3\n        /* \"#utility.yul\":13760:13772   */\n      add\n        /* \"#utility.yul\":13753:13772   */\n      swap1\n      pop\n        /* \"#utility.yul\":13412:13778   */\n      swap2\n      swap1\n      pop\n      jump\t// out\n        /* \"#utility.yul\":13784:14203   */\n    tag_67:\n        /* \"#utility.yul\":13950:13954   */\n      0x00\n        /* \"#utility.yul\":13988:13990   */\n      0x20\n        /* \"#utility.yul\":13977:13986   */\n      dup3\n        /* \"#utility.yul\":13973:13991   */\n      add\n        /* \"#utility.yul\":13965:13991   */\n      swap1\n      pop\n        /* \"#utility.yul\":14037:14046   */\n      dup2\n        /* \"#utility.yul\":14031:14035   */\n      dup2\n        /* \"#utility.yul\":14027:14047   */\n      sub\n        /* \"#utility.yul\":14023:14024   */\n      0x00\n        /* \"#utility.yul\":14012:14021   */\n      dup4\n        /* \"#utility.yul\":14008:14025   */\n      add\n        /* \"#utility.yul\":14001:14048   */\n      mstore\n        /* \"#utility.yul\":14065:14196   */\n      tag_323\n        /* \"#utility.yul\":14191:14195   */\n      dup2\n        /* \"#utility.yul\":14065:14196   */\n      tag_160\n      jump\t// in\n    tag_323:\n        /* \"#utility.yul\":14057:14196   */\n      swap1\n      pop\n        /* \"#utility.yul\":13784:14203   */\n      swap2\n      swap1\n      pop\n      jump\t// out\n        /* \"#utility.yul\":14209:14514   */\n    tag_161:\n        /* \"#utility.yul\":14349:14383   */\n      0x43616d706169676e2063757272656e6c7479206f70656e206f72207375636365\n        /* \"#utility.yul\":14345:14346   */\n      0x00\n        /* \"#utility.yul\":14337:14343   */\n      dup3\n        /* \"#utility.yul\":14333:14347   */\n      add\n        /* \"#utility.yul\":14326:14384   */\n      mstore\n        /* \"#utility.yul\":14418:14452   */\n      0x737366756c6c792072656163686564207468652074617267657420616d6f756e\n        /* \"#utility.yul\":14413:14415   */\n      0x20\n        /* \"#utility.yul\":14405:14411   */\n      dup3\n        /* \"#utility.yul\":14401:14416   */\n      add\n        /* \"#utility.yul\":14394:14453   */\n      mstore\n        /* \"#utility.yul\":14487:14506   */\n      0x742077697468696e20646561646c696e65000000000000000000000000000000\n        /* \"#utility.yul\":14482:14484   */\n      0x40\n        /* \"#utility.yul\":14474:14480   */\n      dup3\n        /* \"#utility.yul\":14470:14485   */\n      add\n        /* \"#utility.yul\":14463:14507   */\n      mstore\n        /* \"#utility.yul\":14209:14514   */\n      pop\n      jump\t// out\n        /* \"#utility.yul\":14520:14886   */\n    tag_162:\n        /* \"#utility.yul\":14662:14665   */\n      0x00\n        /* \"#utility.yul\":14683:14750   */\n      tag_326\n        /* \"#utility.yul\":14747:14749   */\n      0x51\n        /* \"#utility.yul\":14742:14745   */\n      dup4\n        /* \"#utility.yul\":14683:14750   */\n      tag_130\n      jump\t// in\n    tag_326:\n        /* \"#utility.yul\":14676:14750   */\n      swap2\n      pop\n        /* \"#utility.yul\":14759:14852   */\n      tag_327\n        /* \"#utility.yul\":14848:14851   */\n      dup3\n        /* \"#utility.yul\":14759:14852   */\n      tag_161\n      jump\t// in\n    tag_327:\n        /* \"#utility.yul\":14877:14879   */\n      0x60\n        /* \"#utility.yul\":14872:14875   */\n      dup3\n        /* \"#utility.yul\":14868:14880   */\n      add\n        /* \"#utility.yul\":14861:14880   */\n      swap1\n      pop\n        /* \"#utility.yul\":14520:14886   */\n      swap2\n      swap1\n      pop\n      jump\t// out\n        /* \"#utility.yul\":14892:15311   */\n    tag_71:\n        /* \"#utility.yul\":15058:15062   */\n      0x00\n        /* \"#utility.yul\":15096:15098   */\n      0x20\n        /* \"#utility.yul\":15085:15094   */\n      dup3\n        /* \"#utility.yul\":15081:15099   */\n      add\n        /* \"#utility.yul\":15073:15099   */\n      swap1\n      pop\n        /* \"#utility.yul\":15145:15154   */\n      dup2\n        /* \"#utility.yul\":15139:15143   */\n      dup2\n        /* \"#utility.yul\":15135:15155   */\n      sub\n        /* \"#utility.yul\":15131:15132   */\n      0x00\n        /* \"#utility.yul\":15120:15129   */\n      dup4\n        /* \"#utility.yul\":15116:15133   */\n      add\n        /* \"#utility.yul\":15109:15156   */\n      mstore\n        /* \"#utility.yul\":15173:15304   */\n      tag_329\n        /* \"#utility.yul\":15299:15303   */\n      dup2\n        /* \"#utility.yul\":15173:15304   */\n      tag_162\n      jump\t// in\n    tag_329:\n        /* \"#utility.yul\":15165:15304   */\n      swap1\n      pop\n        /* \"#utility.yul\":14892:15311   */\n      swap2\n      swap1\n      pop\n      jump\t// out\n        /* \"#utility.yul\":15317:15699   */\n    tag_163:\n        /* \"#utility.yul\":15457:15491   */\n      0x596f752063616e27742061636365737320746869732e20506f737369626c6520\n        /* \"#utility.yul\":15453:15454   */\n      0x00\n        /* \"#utility.yul\":15445:15451   */\n      dup3\n        /* \"#utility.yul\":15441:15455   */\n      add\n        /* \"#utility.yul\":15434:15492   */\n      mstore\n        /* \"#utility.yul\":15526:15560   */\n      0x726561736f6e733a20596f7520617265206e6f74206120646f6e61746f722069\n        /* \"#utility.yul\":15521:15523   */\n      0x20\n        /* \"#utility.yul\":15513:15519   */\n      dup3\n        /* \"#utility.yul\":15509:15524   */\n      add\n        /* \"#utility.yul\":15502:15561   */\n      mstore\n        /* \"#utility.yul\":15595:15629   */\n      0x6e20746869732063616d706169676e206f7220796f757220646f6e6174656420\n        /* \"#utility.yul\":15590:15592   */\n      0x40\n        /* \"#utility.yul\":15582:15588   */\n      dup3\n        /* \"#utility.yul\":15578:15593   */\n      add\n        /* \"#utility.yul\":15571:15630   */\n      mstore\n        /* \"#utility.yul\":15664:15691   */\n      0x66756e6420697320616c72656164792077697468647261776e00000000000000\n        /* \"#utility.yul\":15659:15661   */\n      0x60\n        /* \"#utility.yul\":15651:15657   */\n      dup3\n        /* \"#utility.yul\":15647:15662   */\n      add\n        /* \"#utility.yul\":15640:15692   */\n      mstore\n        /* \"#utility.yul\":15317:15699   */\n      pop\n      jump\t// out\n        /* \"#utility.yul\":15705:16073   */\n    tag_164:\n        /* \"#utility.yul\":15847:15850   */\n      0x00\n        /* \"#utility.yul\":15868:15936   */\n      tag_332\n        /* \"#utility.yul\":15932:15935   */\n      0x79\n        /* \"#utility.yul\":15927:15930   */\n      dup4\n        /* \"#utility.yul\":15868:15936   */\n      tag_130\n      jump\t// in\n    tag_332:\n        /* \"#utility.yul\":15861:15936   */\n      swap2\n      pop\n        /* \"#utility.yul\":15945:16038   */\n      tag_333\n        /* \"#utility.yul\":16034:16037   */\n      dup3\n        /* \"#utility.yul\":15945:16038   */\n      tag_163\n      jump\t// in\n    tag_333:\n        /* \"#utility.yul\":16063:16066   */\n      0x80\n        /* \"#utility.yul\":16058:16061   */\n      dup3\n        /* \"#utility.yul\":16054:16067   */\n      add\n        /* \"#utility.yul\":16047:16067   */\n      swap1\n      pop\n        /* \"#utility.yul\":15705:16073   */\n      swap2\n      swap1\n      pop\n      jump\t// out\n        /* \"#utility.yul\":16079:16498   */\n    tag_75:\n        /* \"#utility.yul\":16245:16249   */\n      0x00\n        /* \"#utility.yul\":16283:16285   */\n      0x20\n        /* \"#utility.yul\":16272:16281   */\n      dup3\n        /* \"#utility.yul\":16268:16286   */\n      add\n        /* \"#utility.yul\":16260:16286   */\n      swap1\n      pop\n        /* \"#utility.yul\":16332:16341   */\n      dup2\n        /* \"#utility.yul\":16326:16330   */\n      dup2\n        /* \"#utility.yul\":16322:16342   */\n      sub\n        /* \"#utility.yul\":16318:16319   */\n      0x00\n        /* \"#utility.yul\":16307:16316   */\n      dup4\n        /* \"#utility.yul\":16303:16320   */\n      add\n        /* \"#utility.yul\":16296:16343   */\n      mstore\n        /* \"#utility.yul\":16360:16491   */\n      tag_335\n        /* \"#utility.yul\":16486:16490   */\n      dup2\n        /* \"#utility.yul\":16360:16491   */\n      tag_164\n      jump\t// in\n    tag_335:\n        /* \"#utility.yul\":16352:16491   */\n      swap1\n      pop\n        /* \"#utility.yul\":16079:16498   */\n      swap2\n      swap1\n      pop\n      jump\t// out\n        /* \"#utility.yul\":16504:16564   */\n    tag_165:\n        /* \"#utility.yul\":16532:16535   */\n      0x00\n        /* \"#utility.yul\":16553:16558   */\n      dup2\n        /* \"#utility.yul\":16546:16558   */\n      swap1\n      pop\n        /* \"#utility.yul\":16504:16564   */\n      swap2\n      swap1\n      pop\n      jump\t// out\n        /* \"#utility.yul\":16570:16712   */\n    tag_166:\n        /* \"#utility.yul\":16620:16629   */\n      0x00\n        /* \"#utility.yul\":16653:16706   */\n      tag_338\n        /* \"#utility.yul\":16671:16705   */\n      tag_339\n        /* \"#utility.yul\":16680:16704   */\n      tag_340\n        /* \"#utility.yul\":16698:16703   */\n      dup5\n        /* \"#utility.yul\":16680:16704   */\n      tag_126\n      jump\t// in\n    tag_340:\n        /* \"#utility.yul\":16671:16705   */\n      tag_165\n      jump\t// in\n    tag_339:\n        /* \"#utility.yul\":16653:16706   */\n      tag_126\n      jump\t// in\n    tag_338:\n        /* \"#utility.yul\":16640:16706   */\n      swap1\n      pop\n        /* \"#utility.yul\":16570:16712   */\n      swap2\n      swap1\n      pop\n      jump\t// out\n        /* \"#utility.yul\":16718:16844   */\n    tag_167:\n        /* \"#utility.yul\":16768:16777   */\n      0x00\n        /* \"#utility.yul\":16801:16838   */\n      tag_342\n        /* \"#utility.yul\":16832:16837   */\n      dup3\n        /* \"#utility.yul\":16801:16838   */\n      tag_166\n      jump\t// in\n    tag_342:\n        /* \"#utility.yul\":16788:16838   */\n      swap1\n      pop\n        /* \"#utility.yul\":16718:16844   */\n      swap2\n      swap1\n      pop\n      jump\t// out\n        /* \"#utility.yul\":16850:16984   */\n    tag_168:\n        /* \"#utility.yul\":16908:16917   */\n      0x00\n        /* \"#utility.yul\":16941:16978   */\n      tag_344\n        /* \"#utility.yul\":16972:16977   */\n      dup3\n        /* \"#utility.yul\":16941:16978   */\n      tag_167\n      jump\t// in\n    tag_344:\n        /* \"#utility.yul\":16928:16978   */\n      swap1\n      pop\n        /* \"#utility.yul\":16850:16984   */\n      swap2\n      swap1\n      pop\n      jump\t// out\n        /* \"#utility.yul\":16990:17137   */\n    tag_169:\n        /* \"#utility.yul\":17085:17130   */\n      tag_346\n        /* \"#utility.yul\":17124:17129   */\n      dup2\n        /* \"#utility.yul\":17085:17130   */\n      tag_168\n      jump\t// in\n    tag_346:\n        /* \"#utility.yul\":17080:17083   */\n      dup3\n        /* \"#utility.yul\":17073:17131   */\n      mstore\n        /* \"#utility.yul\":16990:17137   */\n      pop\n      pop\n      jump\t// out\n        /* \"#utility.yul\":17143:17491   */\n    tag_83:\n        /* \"#utility.yul\":17272:17276   */\n      0x00\n        /* \"#utility.yul\":17310:17312   */\n      0x40\n        /* \"#utility.yul\":17299:17308   */\n      dup3\n        /* \"#utility.yul\":17295:17313   */\n      add\n        /* \"#utility.yul\":17287:17313   */\n      swap1\n      pop\n        /* \"#utility.yul\":17323:17402   */\n      tag_348\n        /* \"#utility.yul\":17399:17400   */\n      0x00\n        /* \"#utility.yul\":17388:17397   */\n      dup4\n        /* \"#utility.yul\":17384:17401   */\n      add\n        /* \"#utility.yul\":17375:17381   */\n      dup6\n        /* \"#utility.yul\":17323:17402   */\n      tag_169\n      jump\t// in\n    tag_348:\n        /* \"#utility.yul\":17412:17484   */\n      tag_349\n        /* \"#utility.yul\":17480:17482   */\n      0x20\n        /* \"#utility.yul\":17469:17478   */\n      dup4\n        /* \"#utility.yul\":17465:17483   */\n      add\n        /* \"#utility.yul\":17456:17462   */\n      dup5\n        /* \"#utility.yul\":17412:17484   */\n      tag_134\n      jump\t// in\n    tag_349:\n        /* \"#utility.yul\":17143:17491   */\n      swap4\n      swap3\n      pop\n      pop\n      pop\n      jump\t// out\n        /* \"#utility.yul\":17497:17638   */\n    tag_170:\n        /* \"#utility.yul\":17546:17550   */\n      0x00\n        /* \"#utility.yul\":17569:17572   */\n      dup2\n        /* \"#utility.yul\":17561:17572   */\n      swap1\n      pop\n        /* \"#utility.yul\":17592:17595   */\n      dup2\n        /* \"#utility.yul\":17589:17590   */\n      0x00\n        /* \"#utility.yul\":17582:17596   */\n      mstore\n        /* \"#utility.yul\":17626:17630   */\n      0x20\n        /* \"#utility.yul\":17623:17624   */\n      0x00\n        /* \"#utility.yul\":17613:17631   */\n      keccak256\n        /* \"#utility.yul\":17605:17631   */\n      swap1\n      pop\n        /* \"#utility.yul\":17497:17638   */\n      swap2\n      swap1\n      pop\n      jump\t// out\n        /* \"#utility.yul\":17644:17737   */\n    tag_171:\n        /* \"#utility.yul\":17681:17687   */\n      0x00\n        /* \"#utility.yul\":17728:17730   */\n      0x20\n        /* \"#utility.yul\":17723:17725   */\n      0x1f\n        /* \"#utility.yul\":17716:17721   */\n      dup4\n        /* \"#utility.yul\":17712:17726   */\n      add\n        /* \"#utility.yul\":17708:17731   */\n      div\n        /* \"#utility.yul\":17698:17731   */\n      swap1\n      pop\n        /* \"#utility.yul\":17644:17737   */\n      swap2\n      swap1\n      pop\n      jump\t// out\n        /* \"#utility.yul\":17743:17850   */\n    tag_172:\n        /* \"#utility.yul\":17787:17795   */\n      0x00\n        /* \"#utility.yul\":17837:17842   */\n      dup3\n        /* \"#utility.yul\":17831:17835   */\n      dup3\n        /* \"#utility.yul\":17827:17843   */\n      shl\n        /* \"#utility.yul\":17806:17843   */\n      swap1\n      pop\n        /* \"#utility.yul\":17743:17850   */\n      swap3\n      swap2\n      pop\n      pop\n      jump\t// out\n        /* \"#utility.yul\":17856:18249   */\n    tag_173:\n        /* \"#utility.yul\":17925:17931   */\n      0x00\n        /* \"#utility.yul\":17975:17976   */\n      0x08\n        /* \"#utility.yul\":17963:17973   */\n      dup4\n        /* \"#utility.yul\":17959:17977   */\n      mul\n        /* \"#utility.yul\":17998:18095   */\n      tag_354\n        /* \"#utility.yul\":18028:18094   */\n      0xffffffffffffffffffffffffffffffffffffffffffffffffffffffffffffffff\n        /* \"#utility.yul\":18017:18026   */\n      dup3\n        /* \"#utility.yul\":17998:18095   */\n      tag_172\n      jump\t// in\n    tag_354:\n        /* \"#utility.yul\":18116:18155   */\n      tag_355\n        /* \"#utility.yul\":18146:18154   */\n      dup7\n        /* \"#utility.yul\":18135:18144   */\n      dup4\n        /* \"#utility.yul\":18116:18155   */\n      tag_172\n      jump\t// in\n    tag_355:\n        /* \"#utility.yul\":18104:18155   */\n      swap6\n      pop\n        /* \"#utility.yul\":18188:18192   */\n      dup1\n        /* \"#utility.yul\":18184:18193   */\n      not\n        /* \"#utility.yul\":18177:18182   */\n      dup5\n        /* \"#utility.yul\":18173:18194   */\n      and\n        /* \"#utility.yul\":18164:18194   */\n      swap4\n      pop\n        /* \"#utility.yul\":18237:18241   */\n      dup1\n        /* \"#utility.yul\":18227:18235   */\n      dup7\n        /* \"#utility.yul\":18223:18242   */\n      and\n        /* \"#utility.yul\":18216:18221   */\n      dup5\n        /* \"#utility.yul\":18213:18243   */\n      or\n        /* \"#utility.yul\":18203:18243   */\n      swap3\n      pop\n        /* \"#utility.yul\":17932:18249   */\n      pop\n      pop\n        /* \"#utility.yul\":17856:18249   */\n      swap4\n      swap3\n      pop\n      pop\n      pop\n      jump\t// out\n        /* \"#utility.yul\":18255:18397   */\n    tag_174:\n        /* \"#utility.yul\":18305:18314   */\n      0x00\n        /* \"#utility.yul\":18338:18391   */\n      tag_357\n        /* \"#utility.yul\":18356:18390   */\n      tag_358\n        /* \"#utility.yul\":18365:18389   */\n      tag_359\n        /* \"#utility.yul\":18383:18388   */\n      dup5\n        /* \"#utility.yul\":18365:18389   */\n      tag_123\n      jump\t// in\n    tag_359:\n        /* \"#utility.yul\":18356:18390   */\n      tag_165\n      jump\t// in\n    tag_358:\n        /* \"#utility.yul\":18338:18391   */\n      tag_123\n      jump\t// in\n    tag_357:\n        /* \"#utility.yul\":18325:18391   */\n      swap1\n      pop\n        /* \"#utility.yul\":18255:18397   */\n      swap2\n      swap1\n      pop\n      jump\t// out\n        /* \"#utility.yul\":18403:18478   */\n    tag_175:\n        /* \"#utility.yul\":18446:18449   */\n      0x00\n        /* \"#utility.yul\":18467:18472   */\n      dup2\n        /* \"#utility.yul\":18460:18472   */\n      swap1\n      pop\n        /* \"#utility.yul\":18403:18478   */\n      swap2\n      swap1\n      pop\n      jump\t// out\n        /* \"#utility.yul\":18484:18753   */\n    tag_176:\n        /* \"#utility.yul\":18594:18633   */\n      tag_362\n        /* \"#utility.yul\":18625:18632   */\n      dup4\n        /* \"#utility.yul\":18594:18633   */\n      tag_174\n      jump\t// in\n    tag_362:\n        /* \"#utility.yul\":18655:18746   */\n      tag_363\n        /* \"#utility.yul\":18704:18745   */\n      tag_364\n        /* \"#utility.yul\":18728:18744   */\n      dup3\n        /* \"#utility.yul\":18704:18745   */\n      tag_175\n      jump\t// in\n    tag_364:\n        /* \"#utility.yul\":18696:18702   */\n      dup5\n        /* \"#utility.yul\":18689:18693   */\n      dup5\n        /* \"#utility.yul\":18683:18694   */\n      sload\n        /* \"#utility.yul\":18655:18746   */\n      tag_173\n      jump\t// in\n    tag_363:\n        /* \"#utility.yul\":18649:18653   */\n      dup3\n        /* \"#utility.yul\":18642:18747   */\n      sstore\n        /* \"#utility.yul\":18560:18753   */\n      pop\n        /* \"#utility.yul\":18484:18753   */\n      pop\n      pop\n      pop\n      jump\t// out\n        /* \"#utility.yul\":18759:18832   */\n    tag_177:\n        /* \"#utility.yul\":18804:18807   */\n      0x00\n        /* \"#utility.yul\":18759:18832   */\n      swap1\n      jump\t// out\n        /* \"#utility.yul\":18838:19027   */\n    tag_178:\n        /* \"#utility.yul\":18915:18947   */\n      tag_367\n      tag_177\n      jump\t// in\n    tag_367:\n        /* \"#utility.yul\":18956:19021   */\n      tag_368\n        /* \"#utility.yul\":19014:19020   */\n      dup2\n        /* \"#utility.yul\":19006:19012   */\n      dup5\n        /* \"#utility.yul\":19000:19004   */\n      dup5\n        /* \"#utility.yul\":18956:19021   */\n      tag_176\n      jump\t// in\n    tag_368:\n        /* \"#utility.yul\":18891:19027   */\n      pop\n        /* \"#utility.yul\":18838:19027   */\n      pop\n      pop\n      jump\t// out\n        /* \"#utility.yul\":19033:19219   */\n    tag_179:\n        /* \"#utility.yul\":19093:19213   */\n    tag_370:\n        /* \"#utility.yul\":19110:19113   */\n      dup2\n        /* \"#utility.yul\":19103:19108   */\n      dup2\n        /* \"#utility.yul\":19100:19114   */\n      lt\n        /* \"#utility.yul\":19093:19213   */\n      iszero\n      tag_372\n      jumpi\n        /* \"#utility.yul\":19164:19203   */\n      tag_373\n        /* \"#utility.yul\":19201:19202   */\n      0x00\n        /* \"#utility.yul\":19194:19199   */\n      dup3\n        /* \"#utility.yul\":19164:19203   */\n      tag_178\n      jump\t// in\n    tag_373:\n        /* \"#utility.yul\":19137:19138   */\n      0x01\n        /* \"#utility.yul\":19130:19135   */\n      dup2\n        /* \"#utility.yul\":19126:19139   */\n      add\n        /* \"#utility.yul\":19117:19139   */\n      swap1\n      pop\n        /* \"#utility.yul\":19093:19213   */\n      jump(tag_370)\n    tag_372:\n        /* \"#utility.yul\":19033:19219   */\n      pop\n      pop\n      jump\t// out\n        /* \"#utility.yul\":19225:19768   */\n    tag_180:\n        /* \"#utility.yul\":19326:19328   */\n      0x1f\n        /* \"#utility.yul\":19321:19324   */\n      dup3\n        /* \"#utility.yul\":19318:19329   */\n      gt\n        /* \"#utility.yul\":19315:19761   */\n      iszero\n      tag_375\n      jumpi\n        /* \"#utility.yul\":19360:19398   */\n      tag_376\n        /* \"#utility.yul\":19392:19397   */\n      dup2\n        /* \"#utility.yul\":19360:19398   */\n      tag_170\n      jump\t// in\n    tag_376:\n        /* \"#utility.yul\":19444:19473   */\n      tag_377\n        /* \"#utility.yul\":19462:19472   */\n      dup5\n        /* \"#utility.yul\":19444:19473   */\n      tag_171\n      jump\t// in\n    tag_377:\n        /* \"#utility.yul\":19434:19442   */\n      dup2\n        /* \"#utility.yul\":19430:19474   */\n      add\n        /* \"#utility.yul\":19627:19629   */\n      0x20\n        /* \"#utility.yul\":19615:19625   */\n      dup6\n        /* \"#utility.yul\":19612:19630   */\n      lt\n        /* \"#utility.yul\":19609:19658   */\n      iszero\n      tag_378\n      jumpi\n        /* \"#utility.yul\":19648:19656   */\n      dup2\n        /* \"#utility.yul\":19633:19656   */\n      swap1\n      pop\n        /* \"#utility.yul\":19609:19658   */\n    tag_378:\n        /* \"#utility.yul\":19671:19751   */\n      tag_379\n        /* \"#utility.yul\":19727:19749   */\n      tag_380\n        /* \"#utility.yul\":19745:19748   */\n      dup6\n        /* \"#utility.yul\":19727:19749   */\n      tag_171\n      jump\t// in\n    tag_380:\n        /* \"#utility.yul\":19717:19725   */\n      dup4\n        /* \"#utility.yul\":19713:19750   */\n      add\n        /* \"#utility.yul\":19700:19711   */\n      dup3\n        /* \"#utility.yul\":19671:19751   */\n      tag_179\n      jump\t// in\n    tag_379:\n        /* \"#utility.yul\":19330:19761   */\n      pop\n      pop\n        /* \"#utility.yul\":19315:19761   */\n    tag_375:\n        /* \"#utility.yul\":19225:19768   */\n      pop\n      pop\n      pop\n      jump\t// out\n        /* \"#utility.yul\":19774:19891   */\n    tag_181:\n        /* \"#utility.yul\":19828:19836   */\n      0x00\n        /* \"#utility.yul\":19878:19883   */\n      dup3\n        /* \"#utility.yul\":19872:19876   */\n      dup3\n        /* \"#utility.yul\":19868:19884   */\n      shr\n        /* \"#utility.yul\":19847:19884   */\n      swap1\n      pop\n        /* \"#utility.yul\":19774:19891   */\n      swap3\n      swap2\n      pop\n      pop\n      jump\t// out\n        /* \"#utility.yul\":19897:20066   */\n    tag_182:\n        /* \"#utility.yul\":19941:19947   */\n      0x00\n        /* \"#utility.yul\":19974:20025   */\n      tag_383\n        /* \"#utility.yul\":20022:20023   */\n      0x00\n        /* \"#utility.yul\":20018:20024   */\n      not\n        /* \"#utility.yul\":20010:20015   */\n      dup5\n        /* \"#utility.yul\":20007:20008   */\n      0x08\n        /* \"#utility.yul\":20003:20016   */\n      mul\n        /* \"#utility.yul\":19974:20025   */\n      tag_181\n      jump\t// in\n    tag_383:\n        /* \"#utility.yul\":19970:20026   */\n      not\n        /* \"#utility.yul\":20055:20059   */\n      dup1\n        /* \"#utility.yul\":20049:20053   */\n      dup4\n        /* \"#utility.yul\":20045:20060   */\n      and\n        /* \"#utility.yul\":20035:20060   */\n      swap2\n      pop\n        /* \"#utility.yul\":19948:20066   */\n      pop\n        /* \"#utility.yul\":19897:20066   */\n      swap3\n      swap2\n      pop\n      pop\n      jump\t// out\n        /* \"#utility.yul\":20071:20366   */\n    tag_183:\n        /* \"#utility.yul\":20147:20151   */\n      0x00\n        /* \"#utility.yul\":20293:20322   */\n      tag_385\n        /* \"#utility.yul\":20318:20321   */\n      dup4\n        /* \"#utility.yul\":20312:20316   */\n      dup4\n        /* \"#utility.yul\":20293:20322   */\n      tag_182\n      jump\t// in\n    tag_385:\n        /* \"#utility.yul\":20285:20322   */\n      swap2\n      pop\n        /* \"#utility.yul\":20355:20358   */\n      dup3\n        /* \"#utility.yul\":20352:20353   */\n      0x02\n        /* \"#utility.yul\":20348:20359   */\n      mul\n        /* \"#utility.yul\":20342:20346   */\n      dup3\n        /* \"#utility.yul\":20339:20360   */\n      or\n        /* \"#utility.yul\":20331:20360   */\n      swap1\n      pop\n        /* \"#utility.yul\":20071:20366   */\n      swap3\n      swap2\n      pop\n      pop\n      jump\t// out\n        /* \"#utility.yul\":20371:21766   */\n    tag_86:\n        /* \"#utility.yul\":20488:20525   */\n      tag_387\n        /* \"#utility.yul\":20521:20524   */\n      dup3\n        /* \"#utility.yul\":20488:20525   */\n      tag_129\n      jump\t// in\n    tag_387:\n        /* \"#utility.yul\":20590:20608   */\n      0xffffffffffffffff\n        /* \"#utility.yul\":20582:20588   */\n      dup2\n        /* \"#utility.yul\":20579:20609   */\n      gt\n        /* \"#utility.yul\":20576:20632   */\n      iszero\n      tag_388\n      jumpi\n        /* \"#utility.yul\":20612:20630   */\n      tag_389\n      tag_139\n      jump\t// in\n    tag_389:\n        /* \"#utility.yul\":20576:20632   */\n    tag_388:\n        /* \"#utility.yul\":20656:20694   */\n      tag_390\n        /* \"#utility.yul\":20688:20692   */\n      dup3\n        /* \"#utility.yul\":20682:20693   */\n      sload\n        /* \"#utility.yul\":20656:20694   */\n      tag_30\n      jump\t// in\n    tag_390:\n        /* \"#utility.yul\":20741:20808   */\n      tag_391\n        /* \"#utility.yul\":20801:20807   */\n      dup3\n        /* \"#utility.yul\":20793:20799   */\n      dup3\n        /* \"#utility.yul\":20787:20791   */\n      dup6\n        /* \"#utility.yul\":20741:20808   */\n      tag_180\n      jump\t// in\n    tag_391:\n        /* \"#utility.yul\":20835:20836   */\n      0x00\n        /* \"#utility.yul\":20859:20863   */\n      0x20\n        /* \"#utility.yul\":20846:20863   */\n      swap1\n      pop\n        /* \"#utility.yul\":20891:20893   */\n      0x1f\n        /* \"#utility.yul\":20883:20889   */\n      dup4\n        /* \"#utility.yul\":20880:20894   */\n      gt\n        /* \"#utility.yul\":20908:20909   */\n      0x01\n        /* \"#utility.yul\":20903:21521   */\n      dup2\n      eq\n      tag_393\n      jumpi\n        /* \"#utility.yul\":21565:21566   */\n      0x00\n        /* \"#utility.yul\":21582:21588   */\n      dup5\n        /* \"#utility.yul\":21579:21656   */\n      iszero\n      tag_394\n      jumpi\n        /* \"#utility.yul\":21631:21640   */\n      dup3\n        /* \"#utility.yul\":21626:21629   */\n      dup8\n        /* \"#utility.yul\":21622:21641   */\n      add\n        /* \"#utility.yul\":21616:21642   */\n      mload\n        /* \"#utility.yul\":21607:21642   */\n      swap1\n      pop\n        /* \"#utility.yul\":21579:21656   */\n    tag_394:\n        /* \"#utility.yul\":21682:21749   */\n      tag_395\n        /* \"#utility.yul\":21742:21748   */\n      dup6\n        /* \"#utility.yul\":21735:21740   */\n      dup3\n        /* \"#utility.yul\":21682:21749   */\n      tag_183\n      jump\t// in\n    tag_395:\n        /* \"#utility.yul\":21676:21680   */\n      dup7\n        /* \"#utility.yul\":21669:21750   */\n      sstore\n        /* \"#utility.yul\":21538:21760   */\n      pop\n        /* \"#utility.yul\":20873:21760   */\n      jump(tag_392)\n        /* \"#utility.yul\":20903:21521   */\n    tag_393:\n        /* \"#utility.yul\":20955:20959   */\n      0x1f\n        /* \"#utility.yul\":20951:20960   */\n      not\n        /* \"#utility.yul\":20943:20949   */\n      dup5\n        /* \"#utility.yul\":20939:20961   */\n      and\n        /* \"#utility.yul\":20989:21026   */\n      tag_396\n        /* \"#utility.yul\":21021:21025   */\n      dup7\n        /* \"#utility.yul\":20989:21026   */\n      tag_170\n      jump\t// in\n    tag_396:\n        /* \"#utility.yul\":21048:21049   */\n      0x00\n        /* \"#utility.yul\":21062:21270   */\n    tag_397:\n        /* \"#utility.yul\":21076:21083   */\n      dup3\n        /* \"#utility.yul\":21073:21074   */\n      dup2\n        /* \"#utility.yul\":21070:21084   */\n      lt\n        /* \"#utility.yul\":21062:21270   */\n      iszero\n      tag_399\n      jumpi\n        /* \"#utility.yul\":21155:21164   */\n      dup5\n        /* \"#utility.yul\":21150:21153   */\n      dup10\n        /* \"#utility.yul\":21146:21165   */\n      add\n        /* \"#utility.yul\":21140:21166   */\n      mload\n        /* \"#utility.yul\":21132:21138   */\n      dup3\n        /* \"#utility.yul\":21125:21167   */\n      sstore\n        /* \"#utility.yul\":21206:21207   */\n      0x01\n        /* \"#utility.yul\":21198:21204   */\n      dup3\n        /* \"#utility.yul\":21194:21208   */\n      add\n        /* \"#utility.yul\":21184:21208   */\n      swap2\n      pop\n        /* \"#utility.yul\":21253:21255   */\n      0x20\n        /* \"#utility.yul\":21242:21251   */\n      dup6\n        /* \"#utility.yul\":21238:21256   */\n      add\n        /* \"#utility.yul\":21225:21256   */\n      swap5\n      pop\n        /* \"#utility.yul\":21099:21103   */\n      0x20\n        /* \"#utility.yul\":21096:21097   */\n      dup2\n        /* \"#utility.yul\":21092:21104   */\n      add\n        /* \"#utility.yul\":21087:21104   */\n      swap1\n      pop\n        /* \"#utility.yul\":21062:21270   */\n      jump(tag_397)\n    tag_399:\n        /* \"#utility.yul\":21298:21304   */\n      dup7\n        /* \"#utility.yul\":21289:21296   */\n      dup4\n        /* \"#utility.yul\":21286:21305   */\n      lt\n        /* \"#utility.yul\":21283:21462   */\n      iszero\n      tag_400\n      jumpi\n        /* \"#utility.yul\":21356:21365   */\n      dup5\n        /* \"#utility.yul\":21351:21354   */\n      dup10\n        /* \"#utility.yul\":21347:21366   */\n      add\n        /* \"#utility.yul\":21341:21367   */\n      mload\n        /* \"#utility.yul\":21399:21447   */\n      tag_401\n        /* \"#utility.yul\":21441:21445   */\n      0x1f\n        /* \"#utility.yul\":21433:21439   */\n      dup10\n        /* \"#utility.yul\":21429:21446   */\n      and\n        /* \"#utility.yul\":21418:21427   */\n      dup3\n        /* \"#utility.yul\":21399:21447   */\n      tag_182\n      jump\t// in\n    tag_401:\n        /* \"#utility.yul\":21391:21397   */\n      dup4\n        /* \"#utility.yul\":21384:21448   */\n      sstore\n        /* \"#utility.yul\":21306:21462   */\n      pop\n        /* \"#utility.yul\":21283:21462   */\n    tag_400:\n        /* \"#utility.yul\":21508:21509   */\n      0x01\n        /* \"#utility.yul\":21504:21505   */\n      0x02\n        /* \"#utility.yul\":21496:21502   */\n      dup9\n        /* \"#utility.yul\":21492:21506   */\n      mul\n        /* \"#utility.yul\":21488:21510   */\n      add\n        /* \"#utility.yul\":21482:21486   */\n      dup9\n        /* \"#utility.yul\":21475:21511   */\n      sstore\n        /* \"#utility.yul\":20910:21521   */\n      pop\n      pop\n      pop\n        /* \"#utility.yul\":20873:21760   */\n    tag_392:\n      pop\n        /* \"#utility.yul\":20463:21766   */\n      pop\n      pop\n      pop\n        /* \"#utility.yul\":20371:21766   */\n      pop\n      pop\n      jump\t// out\n        /* \"#utility.yul\":21772:22182   */\n    tag_88:\n        /* \"#utility.yul\":21812:21819   */\n      0x00\n        /* \"#utility.yul\":21835:21855   */\n      tag_403\n        /* \"#utility.yul\":21853:21854   */\n      dup3\n        /* \"#utility.yul\":21835:21855   */\n      tag_123\n      jump\t// in\n    tag_403:\n        /* \"#utility.yul\":21830:21855   */\n      swap2\n      pop\n        /* \"#utility.yul\":21869:21889   */\n      tag_404\n        /* \"#utility.yul\":21887:21888   */\n      dup4\n        /* \"#utility.yul\":21869:21889   */\n      tag_123\n      jump\t// in\n    tag_404:\n        /* \"#utility.yul\":21864:21889   */\n      swap3\n      pop\n        /* \"#utility.yul\":21924:21925   */\n      dup3\n        /* \"#utility.yul\":21921:21922   */\n      dup3\n        /* \"#utility.yul\":21917:21926   */\n      mul\n        /* \"#utility.yul\":21946:21976   */\n      tag_405\n        /* \"#utility.yul\":21964:21975   */\n      dup2\n        /* \"#utility.yul\":21946:21976   */\n      tag_123\n      jump\t// in\n    tag_405:\n        /* \"#utility.yul\":21935:21976   */\n      swap2\n      pop\n        /* \"#utility.yul\":22125:22126   */\n      dup3\n        /* \"#utility.yul\":22116:22123   */\n      dup3\n        /* \"#utility.yul\":22112:22127   */\n      div\n        /* \"#utility.yul\":22109:22110   */\n      dup5\n        /* \"#utility.yul\":22106:22128   */\n      eq\n        /* \"#utility.yul\":22086:22087   */\n      dup4\n        /* \"#utility.yul\":22079:22088   */\n      iszero\n        /* \"#utility.yul\":22059:22142   */\n      or\n        /* \"#utility.yul\":22036:22175   */\n      tag_406\n      jumpi\n        /* \"#utility.yul\":22155:22173   */\n      tag_407\n      tag_158\n      jump\t// in\n    tag_407:\n        /* \"#utility.yul\":22036:22175   */\n    tag_406:\n        /* \"#utility.yul\":21820:22182   */\n      pop\n        /* \"#utility.yul\":21772:22182   */\n      swap3\n      swap2\n      pop\n      pop\n      jump\t// out\n        /* \"#utility.yul\":22188:22421   */\n    tag_91:\n        /* \"#utility.yul\":22227:22230   */\n      0x00\n        /* \"#utility.yul\":22250:22274   */\n      tag_409\n        /* \"#utility.yul\":22268:22273   */\n      dup3\n        /* \"#utility.yul\":22250:22274   */\n      tag_123\n      jump\t// in\n    tag_409:\n        /* \"#utility.yul\":22241:22274   */\n      swap2\n      pop\n        /* \"#utility.yul\":22296:22362   */\n      0xffffffffffffffffffffffffffffffffffffffffffffffffffffffffffffffff\n        /* \"#utility.yul\":22289:22294   */\n      dup3\n        /* \"#utility.yul\":22286:22363   */\n      sub\n        /* \"#utility.yul\":22283:22386   */\n      tag_410\n      jumpi\n        /* \"#utility.yul\":22366:22384   */\n      tag_411\n      tag_158\n      jump\t// in\n    tag_411:\n        /* \"#utility.yul\":22283:22386   */\n    tag_410:\n        /* \"#utility.yul\":22413:22414   */\n      0x01\n        /* \"#utility.yul\":22406:22411   */\n      dup3\n        /* \"#utility.yul\":22402:22415   */\n      add\n        /* \"#utility.yul\":22395:22415   */\n      swap1\n      pop\n        /* \"#utility.yul\":22188:22421   */\n      swap2\n      swap1\n      pop\n      jump\t// out\n        /* \"#utility.yul\":22427:22575   */\n    tag_184:\n        /* \"#utility.yul\":22529:22540   */\n      0x00\n        /* \"#utility.yul\":22566:22569   */\n      dup2\n        /* \"#utility.yul\":22551:22569   */\n      swap1\n      pop\n        /* \"#utility.yul\":22427:22575   */\n      swap3\n      swap2\n      pop\n      pop\n      jump\t// out\n        /* \"#utility.yul\":22581:22971   */\n    tag_185:\n        /* \"#utility.yul\":22687:22690   */\n      0x00\n        /* \"#utility.yul\":22715:22754   */\n      tag_414\n        /* \"#utility.yul\":22748:22753   */\n      dup3\n        /* \"#utility.yul\":22715:22754   */\n      tag_129\n      jump\t// in\n    tag_414:\n        /* \"#utility.yul\":22770:22859   */\n      tag_415\n        /* \"#utility.yul\":22852:22858   */\n      dup2\n        /* \"#utility.yul\":22847:22850   */\n      dup6\n        /* \"#utility.yul\":22770:22859   */\n      tag_184\n      jump\t// in\n    tag_415:\n        /* \"#utility.yul\":22763:22859   */\n      swap4\n      pop\n        /* \"#utility.yul\":22868:22933   */\n      tag_416\n        /* \"#utility.yul\":22926:22932   */\n      dup2\n        /* \"#utility.yul\":22921:22924   */\n      dup6\n        /* \"#utility.yul\":22914:22918   */\n      0x20\n        /* \"#utility.yul\":22907:22912   */\n      dup7\n        /* \"#utility.yul\":22903:22919   */\n      add\n        /* \"#utility.yul\":22868:22933   */\n      tag_131\n      jump\t// in\n    tag_416:\n        /* \"#utility.yul\":22958:22964   */\n      dup1\n        /* \"#utility.yul\":22953:22956   */\n      dup5\n        /* \"#utility.yul\":22949:22965   */\n      add\n        /* \"#utility.yul\":22942:22965   */\n      swap2\n      pop\n        /* \"#utility.yul\":22691:22971   */\n      pop\n        /* \"#utility.yul\":22581:22971   */\n      swap3\n      swap2\n      pop\n      pop\n      jump\t// out\n        /* \"#utility.yul\":22977:23252   */\n    tag_97:\n        /* \"#utility.yul\":23109:23112   */\n      0x00\n        /* \"#utility.yul\":23131:23226   */\n      tag_418\n        /* \"#utility.yul\":23222:23225   */\n      dup3\n        /* \"#utility.yul\":23213:23219   */\n      dup5\n        /* \"#utility.yul\":23131:23226   */\n      tag_185\n      jump\t// in\n    tag_418:\n        /* \"#utility.yul\":23124:23226   */\n      swap2\n      pop\n        /* \"#utility.yul\":23243:23246   */\n      dup2\n        /* \"#utility.yul\":23236:23246   */\n      swap1\n      pop\n        /* \"#utility.yul\":22977:23252   */\n      swap3\n      swap2\n      pop\n      pop\n      jump\t// out\n        /* \"#utility.yul\":23282:24156   */\n    tag_186:\n        /* \"#utility.yul\":23385:23388   */\n      0x00\n        /* \"#utility.yul\":23422:23427   */\n      dup2\n        /* \"#utility.yul\":23416:23428   */\n      sload\n        /* \"#utility.yul\":23451:23487   */\n      tag_420\n        /* \"#utility.yul\":23477:23486   */\n      dup2\n        /* \"#utility.yul\":23451:23487   */\n      tag_30\n      jump\t// in\n    tag_420:\n        /* \"#utility.yul\":23503:23592   */\n      tag_421\n        /* \"#utility.yul\":23585:23591   */\n      dup2\n        /* \"#utility.yul\":23580:23583   */\n      dup7\n        /* \"#utility.yul\":23503:23592   */\n      tag_184\n      jump\t// in\n    tag_421:\n        /* \"#utility.yul\":23496:23592   */\n      swap5\n      pop\n        /* \"#utility.yul\":23623:23624   */\n      0x01\n        /* \"#utility.yul\":23612:23621   */\n      dup3\n        /* \"#utility.yul\":23608:23625   */\n      and\n        /* \"#utility.yul\":23639:23640   */\n      0x00\n        /* \"#utility.yul\":23634:23800   */\n      dup2\n      eq\n      tag_423\n      jumpi\n        /* \"#utility.yul\":23814:23815   */\n      0x01\n        /* \"#utility.yul\":23809:24150   */\n      dup2\n      eq\n      tag_424\n      jumpi\n        /* \"#utility.yul\":23601:24150   */\n      jump(tag_422)\n        /* \"#utility.yul\":23634:23800   */\n    tag_423:\n        /* \"#utility.yul\":23718:23722   */\n      0xff\n        /* \"#utility.yul\":23714:23723   */\n      not\n        /* \"#utility.yul\":23703:23712   */\n      dup4\n        /* \"#utility.yul\":23699:23724   */\n      and\n        /* \"#utility.yul\":23694:23697   */\n      dup7\n        /* \"#utility.yul\":23687:23725   */\n      mstore\n        /* \"#utility.yul\":23780:23786   */\n      dup2\n        /* \"#utility.yul\":23773:23787   */\n      iszero\n        /* \"#utility.yul\":23766:23788   */\n      iszero\n        /* \"#utility.yul\":23758:23764   */\n      dup3\n        /* \"#utility.yul\":23754:23789   */\n      mul\n        /* \"#utility.yul\":23749:23752   */\n      dup7\n        /* \"#utility.yul\":23745:23790   */\n      add\n        /* \"#utility.yul\":23738:23790   */\n      swap4\n      pop\n        /* \"#utility.yul\":23634:23800   */\n      jump(tag_422)\n        /* \"#utility.yul\":23809:24150   */\n    tag_424:\n        /* \"#utility.yul\":23876:23914   */\n      tag_425\n        /* \"#utility.yul\":23908:23913   */\n      dup6\n        /* \"#utility.yul\":23876:23914   */\n      tag_170\n      jump\t// in\n    tag_425:\n        /* \"#utility.yul\":23936:23937   */\n      0x00\n        /* \"#utility.yul\":23950:24104   */\n    tag_426:\n        /* \"#utility.yul\":23964:23970   */\n      dup4\n        /* \"#utility.yul\":23961:23962   */\n      dup2\n        /* \"#utility.yul\":23958:23971   */\n      lt\n        /* \"#utility.yul\":23950:24104   */\n      iszero\n      tag_428\n      jumpi\n        /* \"#utility.yul\":24038:24045   */\n      dup2\n        /* \"#utility.yul\":24032:24046   */\n      sload\n        /* \"#utility.yul\":24028:24029   */\n      dup2\n        /* \"#utility.yul\":24023:24026   */\n      dup10\n        /* \"#utility.yul\":24019:24030   */\n      add\n        /* \"#utility.yul\":24012:24047   */\n      mstore\n        /* \"#utility.yul\":24088:24089   */\n      0x01\n        /* \"#utility.yul\":24079:24086   */\n      dup3\n        /* \"#utility.yul\":24075:24090   */\n      add\n        /* \"#utility.yul\":24064:24090   */\n      swap2\n      pop\n        /* \"#utility.yul\":23986:23990   */\n      0x20\n        /* \"#utility.yul\":23983:23984   */\n      dup2\n        /* \"#utility.yul\":23979:23991   */\n      add\n        /* \"#utility.yul\":23974:23991   */\n      swap1\n      pop\n        /* \"#utility.yul\":23950:24104   */\n      jump(tag_426)\n    tag_428:\n        /* \"#utility.yul\":24133:24139   */\n      dup4\n        /* \"#utility.yul\":24128:24131   */\n      dup9\n        /* \"#utility.yul\":24124:24140   */\n      add\n        /* \"#utility.yul\":24117:24140   */\n      swap6\n      pop\n        /* \"#utility.yul\":23816:24150   */\n      pop\n      pop\n        /* \"#utility.yul\":23601:24150   */\n    tag_422:\n      pop\n        /* \"#utility.yul\":23389:24156   */\n      pop\n      pop\n        /* \"#utility.yul\":23282:24156   */\n      swap3\n      swap2\n      pop\n      pop\n      jump\t// out\n        /* \"#utility.yul\":24162:24431   */\n    tag_99:\n        /* \"#utility.yul\":24291:24294   */\n      0x00\n        /* \"#utility.yul\":24313:24405   */\n      tag_430\n        /* \"#utility.yul\":24401:24404   */\n      dup3\n        /* \"#utility.yul\":24392:24398   */\n      dup5\n        /* \"#utility.yul\":24313:24405   */\n      tag_186\n      jump\t// in\n    tag_430:\n        /* \"#utility.yul\":24306:24405   */\n      swap2\n      pop\n        /* \"#utility.yul\":24422:24425   */\n      dup2\n        /* \"#utility.yul\":24415:24425   */\n      swap1\n      pop\n        /* \"#utility.yul\":24162:24431   */\n      swap3\n      swap2\n      pop\n      pop\n      jump\t// out\n        /* \"#utility.yul\":24461:25292   */\n    tag_187:\n        /* \"#utility.yul\":24546:24549   */\n      0x00\n        /* \"#utility.yul\":24583:24588   */\n      dup2\n        /* \"#utility.yul\":24577:24589   */\n      sload\n        /* \"#utility.yul\":24612:24648   */\n      tag_432\n        /* \"#utility.yul\":24638:24647   */\n      dup2\n        /* \"#utility.yul\":24612:24648   */\n      tag_30\n      jump\t// in\n    tag_432:\n        /* \"#utility.yul\":24664:24735   */\n      tag_433\n        /* \"#utility.yul\":24728:24734   */\n      dup2\n        /* \"#utility.yul\":24723:24726   */\n      dup7\n        /* \"#utility.yul\":24664:24735   */\n      tag_130\n      jump\t// in\n    tag_433:\n        /* \"#utility.yul\":24657:24735   */\n      swap5\n      pop\n        /* \"#utility.yul\":24766:24767   */\n      0x01\n        /* \"#utility.yul\":24755:24764   */\n      dup3\n        /* \"#utility.yul\":24751:24768   */\n      and\n        /* \"#utility.yul\":24782:24783   */\n      0x00\n        /* \"#utility.yul\":24777:24941   */\n      dup2\n      eq\n      tag_435\n      jumpi\n        /* \"#utility.yul\":24955:24956   */\n      0x01\n        /* \"#utility.yul\":24950:25286   */\n      dup2\n      eq\n      tag_436\n      jumpi\n        /* \"#utility.yul\":24744:25286   */\n      jump(tag_434)\n        /* \"#utility.yul\":24777:24941   */\n    tag_435:\n        /* \"#utility.yul\":24861:24865   */\n      0xff\n        /* \"#utility.yul\":24857:24866   */\n      not\n        /* \"#utility.yul\":24846:24855   */\n      dup4\n        /* \"#utility.yul\":24842:24867   */\n      and\n        /* \"#utility.yul\":24837:24840   */\n      dup7\n        /* \"#utility.yul\":24830:24868   */\n      mstore\n        /* \"#utility.yul\":24921:24927   */\n      dup2\n        /* \"#utility.yul\":24914:24928   */\n      iszero\n        /* \"#utility.yul\":24907:24929   */\n      iszero\n        /* \"#utility.yul\":24901:24905   */\n      0x20\n        /* \"#utility.yul\":24897:24930   */\n      mul\n        /* \"#utility.yul\":24892:24895   */\n      dup7\n        /* \"#utility.yul\":24888:24931   */\n      add\n        /* \"#utility.yul\":24881:24931   */\n      swap4\n      pop\n        /* \"#utility.yul\":24777:24941   */\n      jump(tag_434)\n        /* \"#utility.yul\":24950:25286   */\n    tag_436:\n        /* \"#utility.yul\":25017:25055   */\n      tag_437\n        /* \"#utility.yul\":25049:25054   */\n      dup6\n        /* \"#utility.yul\":25017:25055   */\n      tag_170\n      jump\t// in\n    tag_437:\n        /* \"#utility.yul\":25077:25078   */\n      0x00\n        /* \"#utility.yul\":25091:25245   */\n    tag_438:\n        /* \"#utility.yul\":25105:25111   */\n      dup4\n        /* \"#utility.yul\":25102:25103   */\n      dup2\n        /* \"#utility.yul\":25099:25112   */\n      lt\n        /* \"#utility.yul\":25091:25245   */\n      iszero\n      tag_440\n      jumpi\n        /* \"#utility.yul\":25179:25186   */\n      dup2\n        /* \"#utility.yul\":25173:25187   */\n      sload\n        /* \"#utility.yul\":25169:25170   */\n      dup2\n        /* \"#utility.yul\":25164:25167   */\n      dup10\n        /* \"#utility.yul\":25160:25171   */\n      add\n        /* \"#utility.yul\":25153:25188   */\n      mstore\n        /* \"#utility.yul\":25229:25230   */\n      0x01\n        /* \"#utility.yul\":25220:25227   */\n      dup3\n        /* \"#utility.yul\":25216:25231   */\n      add\n        /* \"#utility.yul\":25205:25231   */\n      swap2\n      pop\n        /* \"#utility.yul\":25127:25131   */\n      0x20\n        /* \"#utility.yul\":25124:25125   */\n      dup2\n        /* \"#utility.yul\":25120:25132   */\n      add\n        /* \"#utility.yul\":25115:25132   */\n      swap1\n      pop\n        /* \"#utility.yul\":25091:25245   */\n      jump(tag_438)\n    tag_440:\n        /* \"#utility.yul\":25274:25275   */\n      dup1\n        /* \"#utility.yul\":25269:25272   */\n      dup9\n        /* \"#utility.yul\":25265:25276   */\n      add\n        /* \"#utility.yul\":25258:25276   */\n      swap6\n      pop\n        /* \"#utility.yul\":24957:25286   */\n      pop\n      pop\n        /* \"#utility.yul\":24744:25286   */\n    tag_434:\n      pop\n        /* \"#utility.yul\":24550:25292   */\n      pop\n      pop\n        /* \"#utility.yul\":24461:25292   */\n      swap3\n      swap2\n      pop\n      pop\n      jump\t// out\n        /* \"#utility.yul\":25298:25825   */\n    tag_107:\n        /* \"#utility.yul\":25464:25468   */\n      0x00\n        /* \"#utility.yul\":25502:25504   */\n      0x60\n        /* \"#utility.yul\":25491:25500   */\n      dup3\n        /* \"#utility.yul\":25487:25505   */\n      add\n        /* \"#utility.yul\":25479:25505   */\n      swap1\n      pop\n        /* \"#utility.yul\":25551:25560   */\n      dup2\n        /* \"#utility.yul\":25545:25549   */\n      dup2\n        /* \"#utility.yul\":25541:25561   */\n      sub\n        /* \"#utility.yul\":25537:25538   */\n      0x00\n        /* \"#utility.yul\":25526:25535   */\n      dup4\n        /* \"#utility.yul\":25522:25539   */\n      add\n        /* \"#utility.yul\":25515:25562   */\n      mstore\n        /* \"#utility.yul\":25579:25654   */\n      tag_442\n        /* \"#utility.yul\":25649:25653   */\n      dup2\n        /* \"#utility.yul\":25640:25646   */\n      dup7\n        /* \"#utility.yul\":25579:25654   */\n      tag_187\n      jump\t// in\n    tag_442:\n        /* \"#utility.yul\":25571:25654   */\n      swap1\n      pop\n        /* \"#utility.yul\":25664:25736   */\n      tag_443\n        /* \"#utility.yul\":25732:25734   */\n      0x20\n        /* \"#utility.yul\":25721:25730   */\n      dup4\n        /* \"#utility.yul\":25717:25735   */\n      add\n        /* \"#utility.yul\":25708:25714   */\n      dup6\n        /* \"#utility.yul\":25664:25736   */\n      tag_134\n      jump\t// in\n    tag_443:\n        /* \"#utility.yul\":25746:25818   */\n      tag_444\n        /* \"#utility.yul\":25814:25816   */\n      0x40\n        /* \"#utility.yul\":25803:25812   */\n      dup4\n        /* \"#utility.yul\":25799:25817   */\n      add\n        /* \"#utility.yul\":25790:25796   */\n      dup5\n        /* \"#utility.yul\":25746:25818   */\n      tag_134\n      jump\t// in\n    tag_444:\n        /* \"#utility.yul\":25298:25825   */\n      swap5\n      swap4\n      pop\n      pop\n      pop\n      pop\n      jump\t// out\n        /* \"#utility.yul\":25831:26138   */\n    tag_114:\n        /* \"#utility.yul\":25941:25945   */\n      0x00\n        /* \"#utility.yul\":25979:25981   */\n      0x20\n        /* \"#utility.yul\":25968:25977   */\n      dup3\n        /* \"#utility.yul\":25964:25982   */\n      add\n        /* \"#utility.yul\":25956:25982   */\n      swap1\n      pop\n        /* \"#utility.yul\":26028:26037   */\n      dup2\n        /* \"#utility.yul\":26022:26026   */\n      dup2\n        /* \"#utility.yul\":26018:26038   */\n      sub\n        /* \"#utility.yul\":26014:26015   */\n      0x00\n        /* \"#utility.yul\":26003:26012   */\n      dup4\n        /* \"#utility.yul\":25999:26016   */\n      add\n        /* \"#utility.yul\":25992:26039   */\n      mstore\n        /* \"#utility.yul\":26056:26131   */\n      tag_446\n        /* \"#utility.yul\":26126:26130   */\n      dup2\n        /* \"#utility.yul\":26117:26123   */\n      dup5\n        /* \"#utility.yul\":26056:26131   */\n      tag_187\n      jump\t// in\n    tag_446:\n        /* \"#utility.yul\":26048:26131   */\n      swap1\n      pop\n        /* \"#utility.yul\":25831:26138   */\n      swap3\n      swap2\n      pop\n      pop\n      jump\t// out\n\n    auxdata: 0xa264697066735822122095d1d205f258933c36f0a2d38201b3e3844f6588b8c3b477321204e6259a463964736f6c63430008160033\n}\n",
				"bytecode": {
					"linkReferences": {},
					"object": "60806040525f600155348015610013575f80fd5b50611aa2806100215f395ff3fe608060405260043610610049575f3560e01c8063141961bc1461004d57806345f25d6314610090578063d1446c72146100ac578063dcb64d86146100c8578063de932cee146100e4575b5f80fd5b348015610058575f80fd5b50610073600480360381019061006e9190610c36565b61010c565b604051610087989796959493929190610d53565b60405180910390f35b6100aa60048036038101906100a59190610f02565b61022b565b005b6100c660048036038101906100c19190610c36565b6104e2565b005b6100e260048036038101906100dd9190610c36565b610715565b005b3480156100ef575f80fd5b5061010a60048036038101906101059190610f84565b6107e4565b005b5f602052805f5260405f205f91509050805f015f9054906101000a900473ffffffffffffffffffffffffffffffffffffffff169080600101805461014f90611031565b80601f016020809104026020016040519081016040528092919081815260200182805461017b90611031565b80156101c65780601f1061019d576101008083540402835291602001916101c6565b820191905f5260205f20905b8154815290600101906020018083116101a957829003601f168201915b505050505090806002015f9054906101000a900473ffffffffffffffffffffffffffffffffffffffff1690806003015490806004015f9054906101000a900460ff1690806005015490806006015490806007015f9054906101000a900460ff16905088565b61023481610917565b425f808381526020019081526020015f206006015411610289576040517f08c379a0000000000000000000000000000000000000000000000000000000008152600401610280906110f7565b60405180910390fd5b61029282610917565b5f808281526020019081526020015f206004015f9054906101000a900460ff166102f1576040517f08c379a00000000000000000000000000000000000000000000000000000000081526004016102e890611185565b60405180910390fd5b827fffffffffffffffffffffffffffffffffffffffffffffffffffffffffffffffff61031c82610917565b0361035c576040517f08c379a000000000000000000000000000000000000000000000000000000000815260040161035390611213565b60405180910390fd5b60013410156103a0576040517f08c379a0000000000000000000000000000000000000000000000000000000008152600401610397906112a1565b60405180910390fd5b5f6103aa85610917565b9050345f808381526020019081526020015f206009015f3373ffffffffffffffffffffffffffffffffffffffff1673ffffffffffffffffffffffffffffffffffffffff1681526020019081526020015f20819055505f808281526020019081526020015f2060080133908060018154018082558091505060019003905f5260205f20015f9091909190916101000a81548173ffffffffffffffffffffffffffffffffffffffff021916908373ffffffffffffffffffffffffffffffffffffffff160217905550345f808381526020019081526020015f206005015f82825461049291906112ec565b925050819055507fe2639ef551ad89950da1145fe1fd600e818336d6e8aa88426efe387c49accebb33346040516104ca92919061131f565b60405180910390a16104db816109d1565b5050505050565b805f808281526020019081526020015f205f015f9054906101000a900473ffffffffffffffffffffffffffffffffffffffff1673ffffffffffffffffffffffffffffffffffffffff163373ffffffffffffffffffffffffffffffffffffffff1603610582576040517f08c379a000000000000000000000000000000000000000000000000000000000815260040161057990611390565b60405180910390fd5b815f808281526020019081526020015f206007015f9054906101000a900460ff166105e2576040517f08c379a00000000000000000000000000000000000000000000000000000000081526004016105d990611444565b60405180910390fd5b825f805f8381526020019081526020015f206009015f3373ffffffffffffffffffffffffffffffffffffffff1673ffffffffffffffffffffffffffffffffffffffff1681526020019081526020015f205403610673576040517f08c379a000000000000000000000000000000000000000000000000000000000815260040161066a9061151e565b60405180910390fd5b5f3390505f805f8781526020019081526020015f206009015f3373ffffffffffffffffffffffffffffffffffffffff1673ffffffffffffffffffffffffffffffffffffffff1681526020019081526020015f205490508173ffffffffffffffffffffffffffffffffffffffff166108fc8290811502906040515f60405180830381858888f1935050505015801561070c573d5f803e3d5ffd5b50505050505050565b5f805f8381526020019081526020015f206002015f9054906101000a900473ffffffffffffffffffffffffffffffffffffffff1690505f805f8481526020019081526020015f206005015490508173ffffffffffffffffffffffffffffffffffffffff166108fc8290811502906040515f60405180830381858888f193505050501580156107a5573d5f803e3d5ffd5b507f9450824ff67d7a8a9a13a233327b29a923ff6e7572a146e9ee18f38e7e423c0682826040516107d7929190611597565b60405180910390a1505050565b5f805f60015481526020019081526020015f20905033815f015f6101000a81548173ffffffffffffffffffffffffffffffffffffffff021916908373ffffffffffffffffffffffffffffffffffffffff1602179055508481600101908161084b9190611752565b5083816002015f6101000a81548173ffffffffffffffffffffffffffffffffffffffff021916908373ffffffffffffffffffffffffffffffffffffffff1602179055508281600301819055506001816004015f6101000a81548160ff0219169083151502179055505f81600501819055505f816007015f6101000a81548160ff02191690831515021790555062015180826108e69190611821565b426108f191906112ec565b816006018190555060015f81548092919061090b90611862565b91905055505050505050565b5f805f90505b60015481116109a7578260405160200161093791906118e3565b604051602081830303815290604052805190602001205f808381526020019081526020015f206001016040516020016109709190611979565b604051602081830303815290604052805190602001200361099457809150506109cc565b808061099f90611862565b91505061091d565b507fffffffffffffffffffffffffffffffffffffffffffffffffffffffffffffffff90505b919050565b6109da81610b84565b15610a8a575f805f8381526020019081526020015f206004015f6101000a81548160ff0219169083151502179055507f161c6ca4afb6a9d993acb2fc7bfbd596905272215a679ae15395f8f94b36ff355f808381526020019081526020015f206001015f808481526020019081526020015f20600301545f808581526020019081526020015f2060050154604051610a7493929190611a10565b60405180910390a1610a8581610715565b610b81565b610a9381610bc4565b15610b80575f805f8381526020019081526020015f206004015f6101000a81548160ff02191690831515021790555060015f808381526020019081526020015f206007015f6101000a81548160ff0219169083151502179055507f7e83bb819d77dde1b95d6fea75b0bb56f02543b94670f327c26cace89cad94445f808381526020019081526020015f20600101604051610b2e9190611a4c565b60405180910390a17f7ac07d159c95f4ab8b50b4c176acaf7096b7f6ef2dcbc44ed5826fa2ec9e032a5f808381526020019081526020015f20600101604051610b779190611a4c565b60405180910390a15b5b50565b5f805f8381526020019081526020015f20600301545f808481526020019081526020015f206005015410610bbb5760019050610bbf565b5f90505b919050565b5f425f808481526020019081526020015f20600601541015610be95760019050610bed565b5f90505b919050565b5f604051905090565b5f80fd5b5f80fd5b5f819050919050565b610c1581610c03565b8114610c1f575f80fd5b50565b5f81359050610c3081610c0c565b92915050565b5f60208284031215610c4b57610c4a610bfb565b5b5f610c5884828501610c22565b91505092915050565b5f73ffffffffffffffffffffffffffffffffffffffff82169050919050565b5f610c8a82610c61565b9050919050565b610c9a81610c80565b82525050565b5f81519050919050565b5f82825260208201905092915050565b5f5b83811015610cd7578082015181840152602081019050610cbc565b5f8484015250505050565b5f601f19601f8301169050919050565b5f610cfc82610ca0565b610d068185610caa565b9350610d16818560208601610cba565b610d1f81610ce2565b840191505092915050565b610d3381610c03565b82525050565b5f8115159050919050565b610d4d81610d39565b82525050565b5f61010082019050610d675f83018b610c91565b8181036020830152610d79818a610cf2565b9050610d886040830189610c91565b610d956060830188610d2a565b610da26080830187610d44565b610daf60a0830186610d2a565b610dbc60c0830185610d2a565b610dc960e0830184610d44565b9998505050505050505050565b5f80fd5b5f80fd5b7f4e487b71000000000000000000000000000000000000000000000000000000005f52604160045260245ffd5b610e1482610ce2565b810181811067ffffffffffffffff82111715610e3357610e32610dde565b5b80604052505050565b5f610e45610bf2565b9050610e518282610e0b565b919050565b5f67ffffffffffffffff821115610e7057610e6f610dde565b5b610e7982610ce2565b9050602081019050919050565b828183375f83830152505050565b5f610ea6610ea184610e56565b610e3c565b905082815260208101848484011115610ec257610ec1610dda565b5b610ecd848285610e86565b509392505050565b5f82601f830112610ee957610ee8610dd6565b5b8135610ef9848260208601610e94565b91505092915050565b5f60208284031215610f1757610f16610bfb565b5b5f82013567ffffffffffffffff811115610f3457610f33610bff565b5b610f4084828501610ed5565b91505092915050565b5f610f5382610c61565b9050919050565b610f6381610f49565b8114610f6d575f80fd5b50565b5f81359050610f7e81610f5a565b92915050565b5f805f8060808587031215610f9c57610f9b610bfb565b5b5f85013567ffffffffffffffff811115610fb957610fb8610bff565b5b610fc587828801610ed5565b9450506020610fd687828801610f70565b9350506040610fe787828801610c22565b9250506060610ff887828801610c22565b91505092959194509250565b7f4e487b71000000000000000000000000000000000000000000000000000000005f52602260045260245ffd5b5f600282049050600182168061104857607f821691505b60208210810361105b5761105a611004565b5b50919050565b7f43616d706169676e20726561636865642074686520646561646c696e652e20595f8201527f6f752063616e277420646f20616e79207472616e73616374696f6e20616e796d60208201527f6f72650000000000000000000000000000000000000000000000000000000000604082015250565b5f6110e1604383610caa565b91506110ec82611061565b606082019050919050565b5f6020820190508181035f83015261110e816110d5565b9050919050565b7f43616d706169676e204e6f742056616c6964206f72204f70656e20416e796d6f5f8201527f7265000000000000000000000000000000000000000000000000000000000000602082015250565b5f61116f602283610caa565b915061117a82611115565b604082019050919050565b5f6020820190508181035f83015261119c81611163565b9050919050565b7f43616d706169676e20646f65736e27742065786973742e20506c6561736520725f8201527f652d636865636b2e2e2e00000000000000000000000000000000000000000000602082015250565b5f6111fd602a83610caa565b9150611208826111a3565b604082019050919050565b5f6020820190508181035f83015261122a816111f1565b9050919050565b7f4d696e696d756e207472616e73616374696f6e20616d6f756e742069732031205f8201527f5765690000000000000000000000000000000000000000000000000000000000602082015250565b5f61128b602383610caa565b915061129682611231565b604082019050919050565b5f6020820190508181035f8301526112b88161127f565b9050919050565b7f4e487b71000000000000000000000000000000000000000000000000000000005f52601160045260245ffd5b5f6112f682610c03565b915061130183610c03565b9250828201905080821115611319576113186112bf565b5b92915050565b5f6040820190506113325f830185610c91565b61133f6020830184610d2a565b9392505050565b7f4f776e6572732063616e277420616363657373207468697320617265610000005f82015250565b5f61137a601d83610caa565b915061138582611346565b602082019050919050565b5f6020820190508181035f8301526113a78161136e565b9050919050565b7f43616d706169676e2063757272656e6c7479206f70656e206f722073756363655f8201527f737366756c6c792072656163686564207468652074617267657420616d6f756e60208201527f742077697468696e20646561646c696e65000000000000000000000000000000604082015250565b5f61142e605183610caa565b9150611439826113ae565b606082019050919050565b5f6020820190508181035f83015261145b81611422565b9050919050565b7f596f752063616e27742061636365737320746869732e20506f737369626c65205f8201527f726561736f6e733a20596f7520617265206e6f74206120646f6e61746f72206960208201527f6e20746869732063616d706169676e206f7220796f757220646f6e617465642060408201527f66756e6420697320616c72656164792077697468647261776e00000000000000606082015250565b5f611508607983610caa565b915061151382611462565b608082019050919050565b5f6020820190508181035f830152611535816114fc565b9050919050565b5f819050919050565b5f61155f61155a61155584610c61565b61153c565b610c61565b9050919050565b5f61157082611545565b9050919050565b5f61158182611566565b9050919050565b61159181611577565b82525050565b5f6040820190506115aa5f830185611588565b6115b76020830184610d2a565b9392505050565b5f819050815f5260205f209050919050565b5f6020601f8301049050919050565b5f82821b905092915050565b5f6008830261161a7fffffffffffffffffffffffffffffffffffffffffffffffffffffffffffffffff826115df565b61162486836115df565b95508019841693508086168417925050509392505050565b5f61165661165161164c84610c03565b61153c565b610c03565b9050919050565b5f819050919050565b61166f8361163c565b61168361167b8261165d565b8484546115eb565b825550505050565b5f90565b61169761168b565b6116a2818484611666565b505050565b5b818110156116c5576116ba5f8261168f565b6001810190506116a8565b5050565b601f82111561170a576116db816115be565b6116e4846115d0565b810160208510156116f3578190505b6117076116ff856115d0565b8301826116a7565b50505b505050565b5f82821c905092915050565b5f61172a5f198460080261170f565b1980831691505092915050565b5f611742838361171b565b9150826002028217905092915050565b61175b82610ca0565b67ffffffffffffffff81111561177457611773610dde565b5b61177e8254611031565b6117898282856116c9565b5f60209050601f8311600181146117ba575f84156117a8578287015190505b6117b28582611737565b865550611819565b601f1984166117c8866115be565b5f5b828110156117ef578489015182556001820191506020850194506020810190506117ca565b8683101561180c5784890151611808601f89168261171b565b8355505b6001600288020188555050505b505050505050565b5f61182b82610c03565b915061183683610c03565b925082820261184481610c03565b9150828204841483151761185b5761185a6112bf565b5b5092915050565b5f61186c82610c03565b91507fffffffffffffffffffffffffffffffffffffffffffffffffffffffffffffffff820361189e5761189d6112bf565b5b600182019050919050565b5f81905092915050565b5f6118bd82610ca0565b6118c781856118a9565b93506118d7818560208601610cba565b80840191505092915050565b5f6118ee82846118b3565b915081905092915050565b5f815461190581611031565b61190f81866118a9565b9450600182165f8114611929576001811461193e57611970565b60ff1983168652811515820286019350611970565b611947856115be565b5f5b8381101561196857815481890152600182019150602081019050611949565b838801955050505b50505092915050565b5f61198482846118f9565b915081905092915050565b5f815461199b81611031565b6119a58186610caa565b9450600182165f81146119bf57600181146119d557611a07565b60ff198316865281151560200286019350611a07565b6119de856115be565b5f5b838110156119ff578154818901526001820191506020810190506119e0565b808801955050505b50505092915050565b5f6060820190508181035f830152611a28818661198f565b9050611a376020830185610d2a565b611a446040830184610d2a565b949350505050565b5f6020820190508181035f830152611a64818461198f565b90509291505056fea264697066735822122095d1d205f258933c36f0a2d38201b3e3844f6588b8c3b477321204e6259a463964736f6c63430008160033",
					"opcodes": "PUSH1 0x80 PUSH1 0x40 MSTORE PUSH0 PUSH1 0x1 SSTORE CALLVALUE DUP1 ISZERO PUSH2 0x13 JUMPI PUSH0 DUP1 REVERT JUMPDEST POP PUSH2 0x1AA2 DUP1 PUSH2 0x21 PUSH0 CODECOPY PUSH0 RETURN INVALID PUSH1 0x80 PUSH1 0x40 MSTORE PUSH1 0x4 CALLDATASIZE LT PUSH2 0x49 JUMPI PUSH0 CALLDATALOAD PUSH1 0xE0 SHR DUP1 PUSH4 0x141961BC EQ PUSH2 0x4D JUMPI DUP1 PUSH4 0x45F25D63 EQ PUSH2 0x90 JUMPI DUP1 PUSH4 0xD1446C72 EQ PUSH2 0xAC JUMPI DUP1 PUSH4 0xDCB64D86 EQ PUSH2 0xC8 JUMPI DUP1 PUSH4 0xDE932CEE EQ PUSH2 0xE4 JUMPI JUMPDEST PUSH0 DUP1 REVERT JUMPDEST CALLVALUE DUP1 ISZERO PUSH2 0x58 JUMPI PUSH0 DUP1 REVERT JUMPDEST POP PUSH2 0x73 PUSH1 0x4 DUP1 CALLDATASIZE SUB DUP2 ADD SWAP1 PUSH2 0x6E SWAP2 SWAP1 PUSH2 0xC36 JUMP JUMPDEST PUSH2 0x10C JUMP JUMPDEST PUSH1 0x40 MLOAD PUSH2 0x87 SWAP9 SWAP8 SWAP7 SWAP6 SWAP5 SWAP4 SWAP3 SWAP2 SWAP1 PUSH2 0xD53 JUMP JUMPDEST PUSH1 0x40 MLOAD DUP1 SWAP2 SUB SWAP1 RETURN JUMPDEST PUSH2 0xAA PUSH1 0x4 DUP1 CALLDATASIZE SUB DUP2 ADD SWAP1 PUSH2 0xA5 SWAP2 SWAP1 PUSH2 0xF02 JUMP JUMPDEST PUSH2 0x22B JUMP JUMPDEST STOP JUMPDEST PUSH2 0xC6 PUSH1 0x4 DUP1 CALLDATASIZE SUB DUP2 ADD SWAP1 PUSH2 0xC1 SWAP2 SWAP1 PUSH2 0xC36 JUMP JUMPDEST PUSH2 0x4E2 JUMP JUMPDEST STOP JUMPDEST PUSH2 0xE2 PUSH1 0x4 DUP1 CALLDATASIZE SUB DUP2 ADD SWAP1 PUSH2 0xDD SWAP2 SWAP1 PUSH2 0xC36 JUMP JUMPDEST PUSH2 0x715 JUMP JUMPDEST STOP JUMPDEST CALLVALUE DUP1 ISZERO PUSH2 0xEF JUMPI PUSH0 DUP1 REVERT JUMPDEST POP PUSH2 0x10A PUSH1 0x4 DUP1 CALLDATASIZE SUB DUP2 ADD SWAP1 PUSH2 0x105 SWAP2 SWAP1 PUSH2 0xF84 JUMP JUMPDEST PUSH2 0x7E4 JUMP JUMPDEST STOP JUMPDEST PUSH0 PUSH1 0x20 MSTORE DUP1 PUSH0 MSTORE PUSH1 0x40 PUSH0 KECCAK256 PUSH0 SWAP2 POP SWAP1 POP DUP1 PUSH0 ADD PUSH0 SWAP1 SLOAD SWAP1 PUSH2 0x100 EXP SWAP1 DIV PUSH20 0xFFFFFFFFFFFFFFFFFFFFFFFFFFFFFFFFFFFFFFFF AND SWAP1 DUP1 PUSH1 0x1 ADD DUP1 SLOAD PUSH2 0x14F SWAP1 PUSH2 0x1031 JUMP JUMPDEST DUP1 PUSH1 0x1F ADD PUSH1 0x20 DUP1 SWAP2 DIV MUL PUSH1 0x20 ADD PUSH1 0x40 MLOAD SWAP1 DUP2 ADD PUSH1 0x40 MSTORE DUP1 SWAP3 SWAP2 SWAP1 DUP2 DUP2 MSTORE PUSH1 0x20 ADD DUP3 DUP1 SLOAD PUSH2 0x17B SWAP1 PUSH2 0x1031 JUMP JUMPDEST DUP1 ISZERO PUSH2 0x1C6 JUMPI DUP1 PUSH1 0x1F LT PUSH2 0x19D JUMPI PUSH2 0x100 DUP1 DUP4 SLOAD DIV MUL DUP4 MSTORE SWAP2 PUSH1 0x20 ADD SWAP2 PUSH2 0x1C6 JUMP JUMPDEST DUP3 ADD SWAP2 SWAP1 PUSH0 MSTORE PUSH1 0x20 PUSH0 KECCAK256 SWAP1 JUMPDEST DUP2 SLOAD DUP2 MSTORE SWAP1 PUSH1 0x1 ADD SWAP1 PUSH1 0x20 ADD DUP1 DUP4 GT PUSH2 0x1A9 JUMPI DUP3 SWAP1 SUB PUSH1 0x1F AND DUP3 ADD SWAP2 JUMPDEST POP POP POP POP POP SWAP1 DUP1 PUSH1 0x2 ADD PUSH0 SWAP1 SLOAD SWAP1 PUSH2 0x100 EXP SWAP1 DIV PUSH20 0xFFFFFFFFFFFFFFFFFFFFFFFFFFFFFFFFFFFFFFFF AND SWAP1 DUP1 PUSH1 0x3 ADD SLOAD SWAP1 DUP1 PUSH1 0x4 ADD PUSH0 SWAP1 SLOAD SWAP1 PUSH2 0x100 EXP SWAP1 DIV PUSH1 0xFF AND SWAP1 DUP1 PUSH1 0x5 ADD SLOAD SWAP1 DUP1 PUSH1 0x6 ADD SLOAD SWAP1 DUP1 PUSH1 0x7 ADD PUSH0 SWAP1 SLOAD SWAP1 PUSH2 0x100 EXP SWAP1 DIV PUSH1 0xFF AND SWAP1 POP DUP9 JUMP JUMPDEST PUSH2 0x234 DUP2 PUSH2 0x917 JUMP JUMPDEST TIMESTAMP PUSH0 DUP1 DUP4 DUP2 MSTORE PUSH1 0x20 ADD SWAP1 DUP2 MSTORE PUSH1 0x20 ADD PUSH0 KECCAK256 PUSH1 0x6 ADD SLOAD GT PUSH2 0x289 JUMPI PUSH1 0x40 MLOAD PUSH32 0x8C379A000000000000000000000000000000000000000000000000000000000 DUP2 MSTORE PUSH1 0x4 ADD PUSH2 0x280 SWAP1 PUSH2 0x10F7 JUMP JUMPDEST PUSH1 0x40 MLOAD DUP1 SWAP2 SUB SWAP1 REVERT JUMPDEST PUSH2 0x292 DUP3 PUSH2 0x917 JUMP JUMPDEST PUSH0 DUP1 DUP3 DUP2 MSTORE PUSH1 0x20 ADD SWAP1 DUP2 MSTORE PUSH1 0x20 ADD PUSH0 KECCAK256 PUSH1 0x4 ADD PUSH0 SWAP1 SLOAD SWAP1 PUSH2 0x100 EXP SWAP1 DIV PUSH1 0xFF AND PUSH2 0x2F1 JUMPI PUSH1 0x40 MLOAD PUSH32 0x8C379A000000000000000000000000000000000000000000000000000000000 DUP2 MSTORE PUSH1 0x4 ADD PUSH2 0x2E8 SWAP1 PUSH2 0x1185 JUMP JUMPDEST PUSH1 0x40 MLOAD DUP1 SWAP2 SUB SWAP1 REVERT JUMPDEST DUP3 PUSH32 0xFFFFFFFFFFFFFFFFFFFFFFFFFFFFFFFFFFFFFFFFFFFFFFFFFFFFFFFFFFFFFFFF PUSH2 0x31C DUP3 PUSH2 0x917 JUMP JUMPDEST SUB PUSH2 0x35C JUMPI PUSH1 0x40 MLOAD PUSH32 0x8C379A000000000000000000000000000000000000000000000000000000000 DUP2 MSTORE PUSH1 0x4 ADD PUSH2 0x353 SWAP1 PUSH2 0x1213 JUMP JUMPDEST PUSH1 0x40 MLOAD DUP1 SWAP2 SUB SWAP1 REVERT JUMPDEST PUSH1 0x1 CALLVALUE LT ISZERO PUSH2 0x3A0 JUMPI PUSH1 0x40 MLOAD PUSH32 0x8C379A000000000000000000000000000000000000000000000000000000000 DUP2 MSTORE PUSH1 0x4 ADD PUSH2 0x397 SWAP1 PUSH2 0x12A1 JUMP JUMPDEST PUSH1 0x40 MLOAD DUP1 SWAP2 SUB SWAP1 REVERT JUMPDEST PUSH0 PUSH2 0x3AA DUP6 PUSH2 0x917 JUMP JUMPDEST SWAP1 POP CALLVALUE PUSH0 DUP1 DUP4 DUP2 MSTORE PUSH1 0x20 ADD SWAP1 DUP2 MSTORE PUSH1 0x20 ADD PUSH0 KECCAK256 PUSH1 0x9 ADD PUSH0 CALLER PUSH20 0xFFFFFFFFFFFFFFFFFFFFFFFFFFFFFFFFFFFFFFFF AND PUSH20 0xFFFFFFFFFFFFFFFFFFFFFFFFFFFFFFFFFFFFFFFF AND DUP2 MSTORE PUSH1 0x20 ADD SWAP1 DUP2 MSTORE PUSH1 0x20 ADD PUSH0 KECCAK256 DUP2 SWAP1 SSTORE POP PUSH0 DUP1 DUP3 DUP2 MSTORE PUSH1 0x20 ADD SWAP1 DUP2 MSTORE PUSH1 0x20 ADD PUSH0 KECCAK256 PUSH1 0x8 ADD CALLER SWAP1 DUP1 PUSH1 0x1 DUP2 SLOAD ADD DUP1 DUP3 SSTORE DUP1 SWAP2 POP POP PUSH1 0x1 SWAP1 SUB SWAP1 PUSH0 MSTORE PUSH1 0x20 PUSH0 KECCAK256 ADD PUSH0 SWAP1 SWAP2 SWAP1 SWAP2 SWAP1 SWAP2 PUSH2 0x100 EXP DUP2 SLOAD DUP2 PUSH20 0xFFFFFFFFFFFFFFFFFFFFFFFFFFFFFFFFFFFFFFFF MUL NOT AND SWAP1 DUP4 PUSH20 0xFFFFFFFFFFFFFFFFFFFFFFFFFFFFFFFFFFFFFFFF AND MUL OR SWAP1 SSTORE POP CALLVALUE PUSH0 DUP1 DUP4 DUP2 MSTORE PUSH1 0x20 ADD SWAP1 DUP2 MSTORE PUSH1 0x20 ADD PUSH0 KECCAK256 PUSH1 0x5 ADD PUSH0 DUP3 DUP3 SLOAD PUSH2 0x492 SWAP2 SWAP1 PUSH2 0x12EC JUMP JUMPDEST SWAP3 POP POP DUP2 SWAP1 SSTORE POP PUSH32 0xE2639EF551AD89950DA1145FE1FD600E818336D6E8AA88426EFE387C49ACCEBB CALLER CALLVALUE PUSH1 0x40 MLOAD PUSH2 0x4CA SWAP3 SWAP2 SWAP1 PUSH2 0x131F JUMP JUMPDEST PUSH1 0x40 MLOAD DUP1 SWAP2 SUB SWAP1 LOG1 PUSH2 0x4DB DUP2 PUSH2 0x9D1 JUMP JUMPDEST POP POP POP POP POP JUMP JUMPDEST DUP1 PUSH0 DUP1 DUP3 DUP2 MSTORE PUSH1 0x20 ADD SWAP1 DUP2 MSTORE PUSH1 0x20 ADD PUSH0 KECCAK256 PUSH0 ADD PUSH0 SWAP1 SLOAD SWAP1 PUSH2 0x100 EXP SWAP1 DIV PUSH20 0xFFFFFFFFFFFFFFFFFFFFFFFFFFFFFFFFFFFFFFFF AND PUSH20 0xFFFFFFFFFFFFFFFFFFFFFFFFFFFFFFFFFFFFFFFF AND CALLER PUSH20 0xFFFFFFFFFFFFFFFFFFFFFFFFFFFFFFFFFFFFFFFF AND SUB PUSH2 0x582 JUMPI PUSH1 0x40 MLOAD PUSH32 0x8C379A000000000000000000000000000000000000000000000000000000000 DUP2 MSTORE PUSH1 0x4 ADD PUSH2 0x579 SWAP1 PUSH2 0x1390 JUMP JUMPDEST PUSH1 0x40 MLOAD DUP1 SWAP2 SUB SWAP1 REVERT JUMPDEST DUP2 PUSH0 DUP1 DUP3 DUP2 MSTORE PUSH1 0x20 ADD SWAP1 DUP2 MSTORE PUSH1 0x20 ADD PUSH0 KECCAK256 PUSH1 0x7 ADD PUSH0 SWAP1 SLOAD SWAP1 PUSH2 0x100 EXP SWAP1 DIV PUSH1 0xFF AND PUSH2 0x5E2 JUMPI PUSH1 0x40 MLOAD PUSH32 0x8C379A000000000000000000000000000000000000000000000000000000000 DUP2 MSTORE PUSH1 0x4 ADD PUSH2 0x5D9 SWAP1 PUSH2 0x1444 JUMP JUMPDEST PUSH1 0x40 MLOAD DUP1 SWAP2 SUB SWAP1 REVERT JUMPDEST DUP3 PUSH0 DUP1 PUSH0 DUP4 DUP2 MSTORE PUSH1 0x20 ADD SWAP1 DUP2 MSTORE PUSH1 0x20 ADD PUSH0 KECCAK256 PUSH1 0x9 ADD PUSH0 CALLER PUSH20 0xFFFFFFFFFFFFFFFFFFFFFFFFFFFFFFFFFFFFFFFF AND PUSH20 0xFFFFFFFFFFFFFFFFFFFFFFFFFFFFFFFFFFFFFFFF AND DUP2 MSTORE PUSH1 0x20 ADD SWAP1 DUP2 MSTORE PUSH1 0x20 ADD PUSH0 KECCAK256 SLOAD SUB PUSH2 0x673 JUMPI PUSH1 0x40 MLOAD PUSH32 0x8C379A000000000000000000000000000000000000000000000000000000000 DUP2 MSTORE PUSH1 0x4 ADD PUSH2 0x66A SWAP1 PUSH2 0x151E JUMP JUMPDEST PUSH1 0x40 MLOAD DUP1 SWAP2 SUB SWAP1 REVERT JUMPDEST PUSH0 CALLER SWAP1 POP PUSH0 DUP1 PUSH0 DUP8 DUP2 MSTORE PUSH1 0x20 ADD SWAP1 DUP2 MSTORE PUSH1 0x20 ADD PUSH0 KECCAK256 PUSH1 0x9 ADD PUSH0 CALLER PUSH20 0xFFFFFFFFFFFFFFFFFFFFFFFFFFFFFFFFFFFFFFFF AND PUSH20 0xFFFFFFFFFFFFFFFFFFFFFFFFFFFFFFFFFFFFFFFF AND DUP2 MSTORE PUSH1 0x20 ADD SWAP1 DUP2 MSTORE PUSH1 0x20 ADD PUSH0 KECCAK256 SLOAD SWAP1 POP DUP2 PUSH20 0xFFFFFFFFFFFFFFFFFFFFFFFFFFFFFFFFFFFFFFFF AND PUSH2 0x8FC DUP3 SWAP1 DUP2 ISZERO MUL SWAP1 PUSH1 0x40 MLOAD PUSH0 PUSH1 0x40 MLOAD DUP1 DUP4 SUB DUP2 DUP6 DUP9 DUP9 CALL SWAP4 POP POP POP POP ISZERO DUP1 ISZERO PUSH2 0x70C JUMPI RETURNDATASIZE PUSH0 DUP1 RETURNDATACOPY RETURNDATASIZE PUSH0 REVERT JUMPDEST POP POP POP POP POP POP POP JUMP JUMPDEST PUSH0 DUP1 PUSH0 DUP4 DUP2 MSTORE PUSH1 0x20 ADD SWAP1 DUP2 MSTORE PUSH1 0x20 ADD PUSH0 KECCAK256 PUSH1 0x2 ADD PUSH0 SWAP1 SLOAD SWAP1 PUSH2 0x100 EXP SWAP1 DIV PUSH20 0xFFFFFFFFFFFFFFFFFFFFFFFFFFFFFFFFFFFFFFFF AND SWAP1 POP PUSH0 DUP1 PUSH0 DUP5 DUP2 MSTORE PUSH1 0x20 ADD SWAP1 DUP2 MSTORE PUSH1 0x20 ADD PUSH0 KECCAK256 PUSH1 0x5 ADD SLOAD SWAP1 POP DUP2 PUSH20 0xFFFFFFFFFFFFFFFFFFFFFFFFFFFFFFFFFFFFFFFF AND PUSH2 0x8FC DUP3 SWAP1 DUP2 ISZERO MUL SWAP1 PUSH1 0x40 MLOAD PUSH0 PUSH1 0x40 MLOAD DUP1 DUP4 SUB DUP2 DUP6 DUP9 DUP9 CALL SWAP4 POP POP POP POP ISZERO DUP1 ISZERO PUSH2 0x7A5 JUMPI RETURNDATASIZE PUSH0 DUP1 RETURNDATACOPY RETURNDATASIZE PUSH0 REVERT JUMPDEST POP PUSH32 0x9450824FF67D7A8A9A13A233327B29A923FF6E7572A146E9EE18F38E7E423C06 DUP3 DUP3 PUSH1 0x40 MLOAD PUSH2 0x7D7 SWAP3 SWAP2 SWAP1 PUSH2 0x1597 JUMP JUMPDEST PUSH1 0x40 MLOAD DUP1 SWAP2 SUB SWAP1 LOG1 POP POP POP JUMP JUMPDEST PUSH0 DUP1 PUSH0 PUSH1 0x1 SLOAD DUP2 MSTORE PUSH1 0x20 ADD SWAP1 DUP2 MSTORE PUSH1 0x20 ADD PUSH0 KECCAK256 SWAP1 POP CALLER DUP2 PUSH0 ADD PUSH0 PUSH2 0x100 EXP DUP2 SLOAD DUP2 PUSH20 0xFFFFFFFFFFFFFFFFFFFFFFFFFFFFFFFFFFFFFFFF MUL NOT AND SWAP1 DUP4 PUSH20 0xFFFFFFFFFFFFFFFFFFFFFFFFFFFFFFFFFFFFFFFF AND MUL OR SWAP1 SSTORE POP DUP5 DUP2 PUSH1 0x1 ADD SWAP1 DUP2 PUSH2 0x84B SWAP2 SWAP1 PUSH2 0x1752 JUMP JUMPDEST POP DUP4 DUP2 PUSH1 0x2 ADD PUSH0 PUSH2 0x100 EXP DUP2 SLOAD DUP2 PUSH20 0xFFFFFFFFFFFFFFFFFFFFFFFFFFFFFFFFFFFFFFFF MUL NOT AND SWAP1 DUP4 PUSH20 0xFFFFFFFFFFFFFFFFFFFFFFFFFFFFFFFFFFFFFFFF AND MUL OR SWAP1 SSTORE POP DUP3 DUP2 PUSH1 0x3 ADD DUP2 SWAP1 SSTORE POP PUSH1 0x1 DUP2 PUSH1 0x4 ADD PUSH0 PUSH2 0x100 EXP DUP2 SLOAD DUP2 PUSH1 0xFF MUL NOT AND SWAP1 DUP4 ISZERO ISZERO MUL OR SWAP1 SSTORE POP PUSH0 DUP2 PUSH1 0x5 ADD DUP2 SWAP1 SSTORE POP PUSH0 DUP2 PUSH1 0x7 ADD PUSH0 PUSH2 0x100 EXP DUP2 SLOAD DUP2 PUSH1 0xFF MUL NOT AND SWAP1 DUP4 ISZERO ISZERO MUL OR SWAP1 SSTORE POP PUSH3 0x15180 DUP3 PUSH2 0x8E6 SWAP2 SWAP1 PUSH2 0x1821 JUMP JUMPDEST TIMESTAMP PUSH2 0x8F1 SWAP2 SWAP1 PUSH2 0x12EC JUMP JUMPDEST DUP2 PUSH1 0x6 ADD DUP2 SWAP1 SSTORE POP PUSH1 0x1 PUSH0 DUP2 SLOAD DUP1 SWAP3 SWAP2 SWAP1 PUSH2 0x90B SWAP1 PUSH2 0x1862 JUMP JUMPDEST SWAP2 SWAP1 POP SSTORE POP POP POP POP POP POP JUMP JUMPDEST PUSH0 DUP1 PUSH0 SWAP1 POP JUMPDEST PUSH1 0x1 SLOAD DUP2 GT PUSH2 0x9A7 JUMPI DUP3 PUSH1 0x40 MLOAD PUSH1 0x20 ADD PUSH2 0x937 SWAP2 SWAP1 PUSH2 0x18E3 JUMP JUMPDEST PUSH1 0x40 MLOAD PUSH1 0x20 DUP2 DUP4 SUB SUB DUP2 MSTORE SWAP1 PUSH1 0x40 MSTORE DUP1 MLOAD SWAP1 PUSH1 0x20 ADD KECCAK256 PUSH0 DUP1 DUP4 DUP2 MSTORE PUSH1 0x20 ADD SWAP1 DUP2 MSTORE PUSH1 0x20 ADD PUSH0 KECCAK256 PUSH1 0x1 ADD PUSH1 0x40 MLOAD PUSH1 0x20 ADD PUSH2 0x970 SWAP2 SWAP1 PUSH2 0x1979 JUMP JUMPDEST PUSH1 0x40 MLOAD PUSH1 0x20 DUP2 DUP4 SUB SUB DUP2 MSTORE SWAP1 PUSH1 0x40 MSTORE DUP1 MLOAD SWAP1 PUSH1 0x20 ADD KECCAK256 SUB PUSH2 0x994 JUMPI DUP1 SWAP2 POP POP PUSH2 0x9CC JUMP JUMPDEST DUP1 DUP1 PUSH2 0x99F SWAP1 PUSH2 0x1862 JUMP JUMPDEST SWAP2 POP POP PUSH2 0x91D JUMP JUMPDEST POP PUSH32 0xFFFFFFFFFFFFFFFFFFFFFFFFFFFFFFFFFFFFFFFFFFFFFFFFFFFFFFFFFFFFFFFF SWAP1 POP JUMPDEST SWAP2 SWAP1 POP JUMP JUMPDEST PUSH2 0x9DA DUP2 PUSH2 0xB84 JUMP JUMPDEST ISZERO PUSH2 0xA8A JUMPI PUSH0 DUP1 PUSH0 DUP4 DUP2 MSTORE PUSH1 0x20 ADD SWAP1 DUP2 MSTORE PUSH1 0x20 ADD PUSH0 KECCAK256 PUSH1 0x4 ADD PUSH0 PUSH2 0x100 EXP DUP2 SLOAD DUP2 PUSH1 0xFF MUL NOT AND SWAP1 DUP4 ISZERO ISZERO MUL OR SWAP1 SSTORE POP PUSH32 0x161C6CA4AFB6A9D993ACB2FC7BFBD596905272215A679AE15395F8F94B36FF35 PUSH0 DUP1 DUP4 DUP2 MSTORE PUSH1 0x20 ADD SWAP1 DUP2 MSTORE PUSH1 0x20 ADD PUSH0 KECCAK256 PUSH1 0x1 ADD PUSH0 DUP1 DUP5 DUP2 MSTORE PUSH1 0x20 ADD SWAP1 DUP2 MSTORE PUSH1 0x20 ADD PUSH0 KECCAK256 PUSH1 0x3 ADD SLOAD PUSH0 DUP1 DUP6 DUP2 MSTORE PUSH1 0x20 ADD SWAP1 DUP2 MSTORE PUSH1 0x20 ADD PUSH0 KECCAK256 PUSH1 0x5 ADD SLOAD PUSH1 0x40 MLOAD PUSH2 0xA74 SWAP4 SWAP3 SWAP2 SWAP1 PUSH2 0x1A10 JUMP JUMPDEST PUSH1 0x40 MLOAD DUP1 SWAP2 SUB SWAP1 LOG1 PUSH2 0xA85 DUP2 PUSH2 0x715 JUMP JUMPDEST PUSH2 0xB81 JUMP JUMPDEST PUSH2 0xA93 DUP2 PUSH2 0xBC4 JUMP JUMPDEST ISZERO PUSH2 0xB80 JUMPI PUSH0 DUP1 PUSH0 DUP4 DUP2 MSTORE PUSH1 0x20 ADD SWAP1 DUP2 MSTORE PUSH1 0x20 ADD PUSH0 KECCAK256 PUSH1 0x4 ADD PUSH0 PUSH2 0x100 EXP DUP2 SLOAD DUP2 PUSH1 0xFF MUL NOT AND SWAP1 DUP4 ISZERO ISZERO MUL OR SWAP1 SSTORE POP PUSH1 0x1 PUSH0 DUP1 DUP4 DUP2 MSTORE PUSH1 0x20 ADD SWAP1 DUP2 MSTORE PUSH1 0x20 ADD PUSH0 KECCAK256 PUSH1 0x7 ADD PUSH0 PUSH2 0x100 EXP DUP2 SLOAD DUP2 PUSH1 0xFF MUL NOT AND SWAP1 DUP4 ISZERO ISZERO MUL OR SWAP1 SSTORE POP PUSH32 0x7E83BB819D77DDE1B95D6FEA75B0BB56F02543B94670F327C26CACE89CAD9444 PUSH0 DUP1 DUP4 DUP2 MSTORE PUSH1 0x20 ADD SWAP1 DUP2 MSTORE PUSH1 0x20 ADD PUSH0 KECCAK256 PUSH1 0x1 ADD PUSH1 0x40 MLOAD PUSH2 0xB2E SWAP2 SWAP1 PUSH2 0x1A4C JUMP JUMPDEST PUSH1 0x40 MLOAD DUP1 SWAP2 SUB SWAP1 LOG1 PUSH32 0x7AC07D159C95F4AB8B50B4C176ACAF7096B7F6EF2DCBC44ED5826FA2EC9E032A PUSH0 DUP1 DUP4 DUP2 MSTORE PUSH1 0x20 ADD SWAP1 DUP2 MSTORE PUSH1 0x20 ADD PUSH0 KECCAK256 PUSH1 0x1 ADD PUSH1 0x40 MLOAD PUSH2 0xB77 SWAP2 SWAP1 PUSH2 0x1A4C JUMP JUMPDEST PUSH1 0x40 MLOAD DUP1 SWAP2 SUB SWAP1 LOG1 JUMPDEST JUMPDEST POP JUMP JUMPDEST PUSH0 DUP1 PUSH0 DUP4 DUP2 MSTORE PUSH1 0x20 ADD SWAP1 DUP2 MSTORE PUSH1 0x20 ADD PUSH0 KECCAK256 PUSH1 0x3 ADD SLOAD PUSH0 DUP1 DUP5 DUP2 MSTORE PUSH1 0x20 ADD SWAP1 DUP2 MSTORE PUSH1 0x20 ADD PUSH0 KECCAK256 PUSH1 0x5 ADD SLOAD LT PUSH2 0xBBB JUMPI PUSH1 0x1 SWAP1 POP PUSH2 0xBBF JUMP JUMPDEST PUSH0 SWAP1 POP JUMPDEST SWAP2 SWAP1 POP JUMP JUMPDEST PUSH0 TIMESTAMP PUSH0 DUP1 DUP5 DUP2 MSTORE PUSH1 0x20 ADD SWAP1 DUP2 MSTORE PUSH1 0x20 ADD PUSH0 KECCAK256 PUSH1 0x6 ADD SLOAD LT ISZERO PUSH2 0xBE9 JUMPI PUSH1 0x1 SWAP1 POP PUSH2 0xBED JUMP JUMPDEST PUSH0 SWAP1 POP JUMPDEST SWAP2 SWAP1 POP JUMP JUMPDEST PUSH0 PUSH1 0x40 MLOAD SWAP1 POP SWAP1 JUMP JUMPDEST PUSH0 DUP1 REVERT JUMPDEST PUSH0 DUP1 REVERT JUMPDEST PUSH0 DUP2 SWAP1 POP SWAP2 SWAP1 POP JUMP JUMPDEST PUSH2 0xC15 DUP2 PUSH2 0xC03 JUMP JUMPDEST DUP2 EQ PUSH2 0xC1F JUMPI PUSH0 DUP1 REVERT JUMPDEST POP JUMP JUMPDEST PUSH0 DUP2 CALLDATALOAD SWAP1 POP PUSH2 0xC30 DUP2 PUSH2 0xC0C JUMP JUMPDEST SWAP3 SWAP2 POP POP JUMP JUMPDEST PUSH0 PUSH1 0x20 DUP3 DUP5 SUB SLT ISZERO PUSH2 0xC4B JUMPI PUSH2 0xC4A PUSH2 0xBFB JUMP JUMPDEST JUMPDEST PUSH0 PUSH2 0xC58 DUP5 DUP3 DUP6 ADD PUSH2 0xC22 JUMP JUMPDEST SWAP2 POP POP SWAP3 SWAP2 POP POP JUMP JUMPDEST PUSH0 PUSH20 0xFFFFFFFFFFFFFFFFFFFFFFFFFFFFFFFFFFFFFFFF DUP3 AND SWAP1 POP SWAP2 SWAP1 POP JUMP JUMPDEST PUSH0 PUSH2 0xC8A DUP3 PUSH2 0xC61 JUMP JUMPDEST SWAP1 POP SWAP2 SWAP1 POP JUMP JUMPDEST PUSH2 0xC9A DUP2 PUSH2 0xC80 JUMP JUMPDEST DUP3 MSTORE POP POP JUMP JUMPDEST PUSH0 DUP2 MLOAD SWAP1 POP SWAP2 SWAP1 POP JUMP JUMPDEST PUSH0 DUP3 DUP3 MSTORE PUSH1 0x20 DUP3 ADD SWAP1 POP SWAP3 SWAP2 POP POP JUMP JUMPDEST PUSH0 JUMPDEST DUP4 DUP2 LT ISZERO PUSH2 0xCD7 JUMPI DUP1 DUP3 ADD MLOAD DUP2 DUP5 ADD MSTORE PUSH1 0x20 DUP2 ADD SWAP1 POP PUSH2 0xCBC JUMP JUMPDEST PUSH0 DUP5 DUP5 ADD MSTORE POP POP POP POP JUMP JUMPDEST PUSH0 PUSH1 0x1F NOT PUSH1 0x1F DUP4 ADD AND SWAP1 POP SWAP2 SWAP1 POP JUMP JUMPDEST PUSH0 PUSH2 0xCFC DUP3 PUSH2 0xCA0 JUMP JUMPDEST PUSH2 0xD06 DUP2 DUP6 PUSH2 0xCAA JUMP JUMPDEST SWAP4 POP PUSH2 0xD16 DUP2 DUP6 PUSH1 0x20 DUP7 ADD PUSH2 0xCBA JUMP JUMPDEST PUSH2 0xD1F DUP2 PUSH2 0xCE2 JUMP JUMPDEST DUP5 ADD SWAP2 POP POP SWAP3 SWAP2 POP POP JUMP JUMPDEST PUSH2 0xD33 DUP2 PUSH2 0xC03 JUMP JUMPDEST DUP3 MSTORE POP POP JUMP JUMPDEST PUSH0 DUP2 ISZERO ISZERO SWAP1 POP SWAP2 SWAP1 POP JUMP JUMPDEST PUSH2 0xD4D DUP2 PUSH2 0xD39 JUMP JUMPDEST DUP3 MSTORE POP POP JUMP JUMPDEST PUSH0 PUSH2 0x100 DUP3 ADD SWAP1 POP PUSH2 0xD67 PUSH0 DUP4 ADD DUP12 PUSH2 0xC91 JUMP JUMPDEST DUP2 DUP2 SUB PUSH1 0x20 DUP4 ADD MSTORE PUSH2 0xD79 DUP2 DUP11 PUSH2 0xCF2 JUMP JUMPDEST SWAP1 POP PUSH2 0xD88 PUSH1 0x40 DUP4 ADD DUP10 PUSH2 0xC91 JUMP JUMPDEST PUSH2 0xD95 PUSH1 0x60 DUP4 ADD DUP9 PUSH2 0xD2A JUMP JUMPDEST PUSH2 0xDA2 PUSH1 0x80 DUP4 ADD DUP8 PUSH2 0xD44 JUMP JUMPDEST PUSH2 0xDAF PUSH1 0xA0 DUP4 ADD DUP7 PUSH2 0xD2A JUMP JUMPDEST PUSH2 0xDBC PUSH1 0xC0 DUP4 ADD DUP6 PUSH2 0xD2A JUMP JUMPDEST PUSH2 0xDC9 PUSH1 0xE0 DUP4 ADD DUP5 PUSH2 0xD44 JUMP JUMPDEST SWAP10 SWAP9 POP POP POP POP POP POP POP POP POP JUMP JUMPDEST PUSH0 DUP1 REVERT JUMPDEST PUSH0 DUP1 REVERT JUMPDEST PUSH32 0x4E487B7100000000000000000000000000000000000000000000000000000000 PUSH0 MSTORE PUSH1 0x41 PUSH1 0x4 MSTORE PUSH1 0x24 PUSH0 REVERT JUMPDEST PUSH2 0xE14 DUP3 PUSH2 0xCE2 JUMP JUMPDEST DUP2 ADD DUP2 DUP2 LT PUSH8 0xFFFFFFFFFFFFFFFF DUP3 GT OR ISZERO PUSH2 0xE33 JUMPI PUSH2 0xE32 PUSH2 0xDDE JUMP JUMPDEST JUMPDEST DUP1 PUSH1 0x40 MSTORE POP POP POP JUMP JUMPDEST PUSH0 PUSH2 0xE45 PUSH2 0xBF2 JUMP JUMPDEST SWAP1 POP PUSH2 0xE51 DUP3 DUP3 PUSH2 0xE0B JUMP JUMPDEST SWAP2 SWAP1 POP JUMP JUMPDEST PUSH0 PUSH8 0xFFFFFFFFFFFFFFFF DUP3 GT ISZERO PUSH2 0xE70 JUMPI PUSH2 0xE6F PUSH2 0xDDE JUMP JUMPDEST JUMPDEST PUSH2 0xE79 DUP3 PUSH2 0xCE2 JUMP JUMPDEST SWAP1 POP PUSH1 0x20 DUP2 ADD SWAP1 POP SWAP2 SWAP1 POP JUMP JUMPDEST DUP3 DUP2 DUP4 CALLDATACOPY PUSH0 DUP4 DUP4 ADD MSTORE POP POP POP JUMP JUMPDEST PUSH0 PUSH2 0xEA6 PUSH2 0xEA1 DUP5 PUSH2 0xE56 JUMP JUMPDEST PUSH2 0xE3C JUMP JUMPDEST SWAP1 POP DUP3 DUP2 MSTORE PUSH1 0x20 DUP2 ADD DUP5 DUP5 DUP5 ADD GT ISZERO PUSH2 0xEC2 JUMPI PUSH2 0xEC1 PUSH2 0xDDA JUMP JUMPDEST JUMPDEST PUSH2 0xECD DUP5 DUP3 DUP6 PUSH2 0xE86 JUMP JUMPDEST POP SWAP4 SWAP3 POP POP POP JUMP JUMPDEST PUSH0 DUP3 PUSH1 0x1F DUP4 ADD SLT PUSH2 0xEE9 JUMPI PUSH2 0xEE8 PUSH2 0xDD6 JUMP JUMPDEST JUMPDEST DUP2 CALLDATALOAD PUSH2 0xEF9 DUP5 DUP3 PUSH1 0x20 DUP7 ADD PUSH2 0xE94 JUMP JUMPDEST SWAP2 POP POP SWAP3 SWAP2 POP POP JUMP JUMPDEST PUSH0 PUSH1 0x20 DUP3 DUP5 SUB SLT ISZERO PUSH2 0xF17 JUMPI PUSH2 0xF16 PUSH2 0xBFB JUMP JUMPDEST JUMPDEST PUSH0 DUP3 ADD CALLDATALOAD PUSH8 0xFFFFFFFFFFFFFFFF DUP2 GT ISZERO PUSH2 0xF34 JUMPI PUSH2 0xF33 PUSH2 0xBFF JUMP JUMPDEST JUMPDEST PUSH2 0xF40 DUP5 DUP3 DUP6 ADD PUSH2 0xED5 JUMP JUMPDEST SWAP2 POP POP SWAP3 SWAP2 POP POP JUMP JUMPDEST PUSH0 PUSH2 0xF53 DUP3 PUSH2 0xC61 JUMP JUMPDEST SWAP1 POP SWAP2 SWAP1 POP JUMP JUMPDEST PUSH2 0xF63 DUP2 PUSH2 0xF49 JUMP JUMPDEST DUP2 EQ PUSH2 0xF6D JUMPI PUSH0 DUP1 REVERT JUMPDEST POP JUMP JUMPDEST PUSH0 DUP2 CALLDATALOAD SWAP1 POP PUSH2 0xF7E DUP2 PUSH2 0xF5A JUMP JUMPDEST SWAP3 SWAP2 POP POP JUMP JUMPDEST PUSH0 DUP1 PUSH0 DUP1 PUSH1 0x80 DUP6 DUP8 SUB SLT ISZERO PUSH2 0xF9C JUMPI PUSH2 0xF9B PUSH2 0xBFB JUMP JUMPDEST JUMPDEST PUSH0 DUP6 ADD CALLDATALOAD PUSH8 0xFFFFFFFFFFFFFFFF DUP2 GT ISZERO PUSH2 0xFB9 JUMPI PUSH2 0xFB8 PUSH2 0xBFF JUMP JUMPDEST JUMPDEST PUSH2 0xFC5 DUP8 DUP3 DUP9 ADD PUSH2 0xED5 JUMP JUMPDEST SWAP5 POP POP PUSH1 0x20 PUSH2 0xFD6 DUP8 DUP3 DUP9 ADD PUSH2 0xF70 JUMP JUMPDEST SWAP4 POP POP PUSH1 0x40 PUSH2 0xFE7 DUP8 DUP3 DUP9 ADD PUSH2 0xC22 JUMP JUMPDEST SWAP3 POP POP PUSH1 0x60 PUSH2 0xFF8 DUP8 DUP3 DUP9 ADD PUSH2 0xC22 JUMP JUMPDEST SWAP2 POP POP SWAP3 SWAP6 SWAP2 SWAP5 POP SWAP3 POP JUMP JUMPDEST PUSH32 0x4E487B7100000000000000000000000000000000000000000000000000000000 PUSH0 MSTORE PUSH1 0x22 PUSH1 0x4 MSTORE PUSH1 0x24 PUSH0 REVERT JUMPDEST PUSH0 PUSH1 0x2 DUP3 DIV SWAP1 POP PUSH1 0x1 DUP3 AND DUP1 PUSH2 0x1048 JUMPI PUSH1 0x7F DUP3 AND SWAP2 POP JUMPDEST PUSH1 0x20 DUP3 LT DUP2 SUB PUSH2 0x105B JUMPI PUSH2 0x105A PUSH2 0x1004 JUMP JUMPDEST JUMPDEST POP SWAP2 SWAP1 POP JUMP JUMPDEST PUSH32 0x43616D706169676E20726561636865642074686520646561646C696E652E2059 PUSH0 DUP3 ADD MSTORE PUSH32 0x6F752063616E277420646F20616E79207472616E73616374696F6E20616E796D PUSH1 0x20 DUP3 ADD MSTORE PUSH32 0x6F72650000000000000000000000000000000000000000000000000000000000 PUSH1 0x40 DUP3 ADD MSTORE POP JUMP JUMPDEST PUSH0 PUSH2 0x10E1 PUSH1 0x43 DUP4 PUSH2 0xCAA JUMP JUMPDEST SWAP2 POP PUSH2 0x10EC DUP3 PUSH2 0x1061 JUMP JUMPDEST PUSH1 0x60 DUP3 ADD SWAP1 POP SWAP2 SWAP1 POP JUMP JUMPDEST PUSH0 PUSH1 0x20 DUP3 ADD SWAP1 POP DUP2 DUP2 SUB PUSH0 DUP4 ADD MSTORE PUSH2 0x110E DUP2 PUSH2 0x10D5 JUMP JUMPDEST SWAP1 POP SWAP2 SWAP1 POP JUMP JUMPDEST PUSH32 0x43616D706169676E204E6F742056616C6964206F72204F70656E20416E796D6F PUSH0 DUP3 ADD MSTORE PUSH32 0x7265000000000000000000000000000000000000000000000000000000000000 PUSH1 0x20 DUP3 ADD MSTORE POP JUMP JUMPDEST PUSH0 PUSH2 0x116F PUSH1 0x22 DUP4 PUSH2 0xCAA JUMP JUMPDEST SWAP2 POP PUSH2 0x117A DUP3 PUSH2 0x1115 JUMP JUMPDEST PUSH1 0x40 DUP3 ADD SWAP1 POP SWAP2 SWAP1 POP JUMP JUMPDEST PUSH0 PUSH1 0x20 DUP3 ADD SWAP1 POP DUP2 DUP2 SUB PUSH0 DUP4 ADD MSTORE PUSH2 0x119C DUP2 PUSH2 0x1163 JUMP JUMPDEST SWAP1 POP SWAP2 SWAP1 POP JUMP JUMPDEST PUSH32 0x43616D706169676E20646F65736E27742065786973742E20506C656173652072 PUSH0 DUP3 ADD MSTORE PUSH32 0x652D636865636B2E2E2E00000000000000000000000000000000000000000000 PUSH1 0x20 DUP3 ADD MSTORE POP JUMP JUMPDEST PUSH0 PUSH2 0x11FD PUSH1 0x2A DUP4 PUSH2 0xCAA JUMP JUMPDEST SWAP2 POP PUSH2 0x1208 DUP3 PUSH2 0x11A3 JUMP JUMPDEST PUSH1 0x40 DUP3 ADD SWAP1 POP SWAP2 SWAP1 POP JUMP JUMPDEST PUSH0 PUSH1 0x20 DUP3 ADD SWAP1 POP DUP2 DUP2 SUB PUSH0 DUP4 ADD MSTORE PUSH2 0x122A DUP2 PUSH2 0x11F1 JUMP JUMPDEST SWAP1 POP SWAP2 SWAP1 POP JUMP JUMPDEST PUSH32 0x4D696E696D756E207472616E73616374696F6E20616D6F756E74206973203120 PUSH0 DUP3 ADD MSTORE PUSH32 0x5765690000000000000000000000000000000000000000000000000000000000 PUSH1 0x20 DUP3 ADD MSTORE POP JUMP JUMPDEST PUSH0 PUSH2 0x128B PUSH1 0x23 DUP4 PUSH2 0xCAA JUMP JUMPDEST SWAP2 POP PUSH2 0x1296 DUP3 PUSH2 0x1231 JUMP JUMPDEST PUSH1 0x40 DUP3 ADD SWAP1 POP SWAP2 SWAP1 POP JUMP JUMPDEST PUSH0 PUSH1 0x20 DUP3 ADD SWAP1 POP DUP2 DUP2 SUB PUSH0 DUP4 ADD MSTORE PUSH2 0x12B8 DUP2 PUSH2 0x127F JUMP JUMPDEST SWAP1 POP SWAP2 SWAP1 POP JUMP JUMPDEST PUSH32 0x4E487B7100000000000000000000000000000000000000000000000000000000 PUSH0 MSTORE PUSH1 0x11 PUSH1 0x4 MSTORE PUSH1 0x24 PUSH0 REVERT JUMPDEST PUSH0 PUSH2 0x12F6 DUP3 PUSH2 0xC03 JUMP JUMPDEST SWAP2 POP PUSH2 0x1301 DUP4 PUSH2 0xC03 JUMP JUMPDEST SWAP3 POP DUP3 DUP3 ADD SWAP1 POP DUP1 DUP3 GT ISZERO PUSH2 0x1319 JUMPI PUSH2 0x1318 PUSH2 0x12BF JUMP JUMPDEST JUMPDEST SWAP3 SWAP2 POP POP JUMP JUMPDEST PUSH0 PUSH1 0x40 DUP3 ADD SWAP1 POP PUSH2 0x1332 PUSH0 DUP4 ADD DUP6 PUSH2 0xC91 JUMP JUMPDEST PUSH2 0x133F PUSH1 0x20 DUP4 ADD DUP5 PUSH2 0xD2A JUMP JUMPDEST SWAP4 SWAP3 POP POP POP JUMP JUMPDEST PUSH32 0x4F776E6572732063616E27742061636365737320746869732061726561000000 PUSH0 DUP3 ADD MSTORE POP JUMP JUMPDEST PUSH0 PUSH2 0x137A PUSH1 0x1D DUP4 PUSH2 0xCAA JUMP JUMPDEST SWAP2 POP PUSH2 0x1385 DUP3 PUSH2 0x1346 JUMP JUMPDEST PUSH1 0x20 DUP3 ADD SWAP1 POP SWAP2 SWAP1 POP JUMP JUMPDEST PUSH0 PUSH1 0x20 DUP3 ADD SWAP1 POP DUP2 DUP2 SUB PUSH0 DUP4 ADD MSTORE PUSH2 0x13A7 DUP2 PUSH2 0x136E JUMP JUMPDEST SWAP1 POP SWAP2 SWAP1 POP JUMP JUMPDEST PUSH32 0x43616D706169676E2063757272656E6C7479206F70656E206F72207375636365 PUSH0 DUP3 ADD MSTORE PUSH32 0x737366756C6C792072656163686564207468652074617267657420616D6F756E PUSH1 0x20 DUP3 ADD MSTORE PUSH32 0x742077697468696E20646561646C696E65000000000000000000000000000000 PUSH1 0x40 DUP3 ADD MSTORE POP JUMP JUMPDEST PUSH0 PUSH2 0x142E PUSH1 0x51 DUP4 PUSH2 0xCAA JUMP JUMPDEST SWAP2 POP PUSH2 0x1439 DUP3 PUSH2 0x13AE JUMP JUMPDEST PUSH1 0x60 DUP3 ADD SWAP1 POP SWAP2 SWAP1 POP JUMP JUMPDEST PUSH0 PUSH1 0x20 DUP3 ADD SWAP1 POP DUP2 DUP2 SUB PUSH0 DUP4 ADD MSTORE PUSH2 0x145B DUP2 PUSH2 0x1422 JUMP JUMPDEST SWAP1 POP SWAP2 SWAP1 POP JUMP JUMPDEST PUSH32 0x596F752063616E27742061636365737320746869732E20506F737369626C6520 PUSH0 DUP3 ADD MSTORE PUSH32 0x726561736F6E733A20596F7520617265206E6F74206120646F6E61746F722069 PUSH1 0x20 DUP3 ADD MSTORE PUSH32 0x6E20746869732063616D706169676E206F7220796F757220646F6E6174656420 PUSH1 0x40 DUP3 ADD MSTORE PUSH32 0x66756E6420697320616C72656164792077697468647261776E00000000000000 PUSH1 0x60 DUP3 ADD MSTORE POP JUMP JUMPDEST PUSH0 PUSH2 0x1508 PUSH1 0x79 DUP4 PUSH2 0xCAA JUMP JUMPDEST SWAP2 POP PUSH2 0x1513 DUP3 PUSH2 0x1462 JUMP JUMPDEST PUSH1 0x80 DUP3 ADD SWAP1 POP SWAP2 SWAP1 POP JUMP JUMPDEST PUSH0 PUSH1 0x20 DUP3 ADD SWAP1 POP DUP2 DUP2 SUB PUSH0 DUP4 ADD MSTORE PUSH2 0x1535 DUP2 PUSH2 0x14FC JUMP JUMPDEST SWAP1 POP SWAP2 SWAP1 POP JUMP JUMPDEST PUSH0 DUP2 SWAP1 POP SWAP2 SWAP1 POP JUMP JUMPDEST PUSH0 PUSH2 0x155F PUSH2 0x155A PUSH2 0x1555 DUP5 PUSH2 0xC61 JUMP JUMPDEST PUSH2 0x153C JUMP JUMPDEST PUSH2 0xC61 JUMP JUMPDEST SWAP1 POP SWAP2 SWAP1 POP JUMP JUMPDEST PUSH0 PUSH2 0x1570 DUP3 PUSH2 0x1545 JUMP JUMPDEST SWAP1 POP SWAP2 SWAP1 POP JUMP JUMPDEST PUSH0 PUSH2 0x1581 DUP3 PUSH2 0x1566 JUMP JUMPDEST SWAP1 POP SWAP2 SWAP1 POP JUMP JUMPDEST PUSH2 0x1591 DUP2 PUSH2 0x1577 JUMP JUMPDEST DUP3 MSTORE POP POP JUMP JUMPDEST PUSH0 PUSH1 0x40 DUP3 ADD SWAP1 POP PUSH2 0x15AA PUSH0 DUP4 ADD DUP6 PUSH2 0x1588 JUMP JUMPDEST PUSH2 0x15B7 PUSH1 0x20 DUP4 ADD DUP5 PUSH2 0xD2A JUMP JUMPDEST SWAP4 SWAP3 POP POP POP JUMP JUMPDEST PUSH0 DUP2 SWAP1 POP DUP2 PUSH0 MSTORE PUSH1 0x20 PUSH0 KECCAK256 SWAP1 POP SWAP2 SWAP1 POP JUMP JUMPDEST PUSH0 PUSH1 0x20 PUSH1 0x1F DUP4 ADD DIV SWAP1 POP SWAP2 SWAP1 POP JUMP JUMPDEST PUSH0 DUP3 DUP3 SHL SWAP1 POP SWAP3 SWAP2 POP POP JUMP JUMPDEST PUSH0 PUSH1 0x8 DUP4 MUL PUSH2 0x161A PUSH32 0xFFFFFFFFFFFFFFFFFFFFFFFFFFFFFFFFFFFFFFFFFFFFFFFFFFFFFFFFFFFFFFFF DUP3 PUSH2 0x15DF JUMP JUMPDEST PUSH2 0x1624 DUP7 DUP4 PUSH2 0x15DF JUMP JUMPDEST SWAP6 POP DUP1 NOT DUP5 AND SWAP4 POP DUP1 DUP7 AND DUP5 OR SWAP3 POP POP POP SWAP4 SWAP3 POP POP POP JUMP JUMPDEST PUSH0 PUSH2 0x1656 PUSH2 0x1651 PUSH2 0x164C DUP5 PUSH2 0xC03 JUMP JUMPDEST PUSH2 0x153C JUMP JUMPDEST PUSH2 0xC03 JUMP JUMPDEST SWAP1 POP SWAP2 SWAP1 POP JUMP JUMPDEST PUSH0 DUP2 SWAP1 POP SWAP2 SWAP1 POP JUMP JUMPDEST PUSH2 0x166F DUP4 PUSH2 0x163C JUMP JUMPDEST PUSH2 0x1683 PUSH2 0x167B DUP3 PUSH2 0x165D JUMP JUMPDEST DUP5 DUP5 SLOAD PUSH2 0x15EB JUMP JUMPDEST DUP3 SSTORE POP POP POP POP JUMP JUMPDEST PUSH0 SWAP1 JUMP JUMPDEST PUSH2 0x1697 PUSH2 0x168B JUMP JUMPDEST PUSH2 0x16A2 DUP2 DUP5 DUP5 PUSH2 0x1666 JUMP JUMPDEST POP POP POP JUMP JUMPDEST JUMPDEST DUP2 DUP2 LT ISZERO PUSH2 0x16C5 JUMPI PUSH2 0x16BA PUSH0 DUP3 PUSH2 0x168F JUMP JUMPDEST PUSH1 0x1 DUP2 ADD SWAP1 POP PUSH2 0x16A8 JUMP JUMPDEST POP POP JUMP JUMPDEST PUSH1 0x1F DUP3 GT ISZERO PUSH2 0x170A JUMPI PUSH2 0x16DB DUP2 PUSH2 0x15BE JUMP JUMPDEST PUSH2 0x16E4 DUP5 PUSH2 0x15D0 JUMP JUMPDEST DUP2 ADD PUSH1 0x20 DUP6 LT ISZERO PUSH2 0x16F3 JUMPI DUP2 SWAP1 POP JUMPDEST PUSH2 0x1707 PUSH2 0x16FF DUP6 PUSH2 0x15D0 JUMP JUMPDEST DUP4 ADD DUP3 PUSH2 0x16A7 JUMP JUMPDEST POP POP JUMPDEST POP POP POP JUMP JUMPDEST PUSH0 DUP3 DUP3 SHR SWAP1 POP SWAP3 SWAP2 POP POP JUMP JUMPDEST PUSH0 PUSH2 0x172A PUSH0 NOT DUP5 PUSH1 0x8 MUL PUSH2 0x170F JUMP JUMPDEST NOT DUP1 DUP4 AND SWAP2 POP POP SWAP3 SWAP2 POP POP JUMP JUMPDEST PUSH0 PUSH2 0x1742 DUP4 DUP4 PUSH2 0x171B JUMP JUMPDEST SWAP2 POP DUP3 PUSH1 0x2 MUL DUP3 OR SWAP1 POP SWAP3 SWAP2 POP POP JUMP JUMPDEST PUSH2 0x175B DUP3 PUSH2 0xCA0 JUMP JUMPDEST PUSH8 0xFFFFFFFFFFFFFFFF DUP2 GT ISZERO PUSH2 0x1774 JUMPI PUSH2 0x1773 PUSH2 0xDDE JUMP JUMPDEST JUMPDEST PUSH2 0x177E DUP3 SLOAD PUSH2 0x1031 JUMP JUMPDEST PUSH2 0x1789 DUP3 DUP3 DUP6 PUSH2 0x16C9 JUMP JUMPDEST PUSH0 PUSH1 0x20 SWAP1 POP PUSH1 0x1F DUP4 GT PUSH1 0x1 DUP2 EQ PUSH2 0x17BA JUMPI PUSH0 DUP5 ISZERO PUSH2 0x17A8 JUMPI DUP3 DUP8 ADD MLOAD SWAP1 POP JUMPDEST PUSH2 0x17B2 DUP6 DUP3 PUSH2 0x1737 JUMP JUMPDEST DUP7 SSTORE POP PUSH2 0x1819 JUMP JUMPDEST PUSH1 0x1F NOT DUP5 AND PUSH2 0x17C8 DUP7 PUSH2 0x15BE JUMP JUMPDEST PUSH0 JUMPDEST DUP3 DUP2 LT ISZERO PUSH2 0x17EF JUMPI DUP5 DUP10 ADD MLOAD DUP3 SSTORE PUSH1 0x1 DUP3 ADD SWAP2 POP PUSH1 0x20 DUP6 ADD SWAP5 POP PUSH1 0x20 DUP2 ADD SWAP1 POP PUSH2 0x17CA JUMP JUMPDEST DUP7 DUP4 LT ISZERO PUSH2 0x180C JUMPI DUP5 DUP10 ADD MLOAD PUSH2 0x1808 PUSH1 0x1F DUP10 AND DUP3 PUSH2 0x171B JUMP JUMPDEST DUP4 SSTORE POP JUMPDEST PUSH1 0x1 PUSH1 0x2 DUP9 MUL ADD DUP9 SSTORE POP POP POP JUMPDEST POP POP POP POP POP POP JUMP JUMPDEST PUSH0 PUSH2 0x182B DUP3 PUSH2 0xC03 JUMP JUMPDEST SWAP2 POP PUSH2 0x1836 DUP4 PUSH2 0xC03 JUMP JUMPDEST SWAP3 POP DUP3 DUP3 MUL PUSH2 0x1844 DUP2 PUSH2 0xC03 JUMP JUMPDEST SWAP2 POP DUP3 DUP3 DIV DUP5 EQ DUP4 ISZERO OR PUSH2 0x185B JUMPI PUSH2 0x185A PUSH2 0x12BF JUMP JUMPDEST JUMPDEST POP SWAP3 SWAP2 POP POP JUMP JUMPDEST PUSH0 PUSH2 0x186C DUP3 PUSH2 0xC03 JUMP JUMPDEST SWAP2 POP PUSH32 0xFFFFFFFFFFFFFFFFFFFFFFFFFFFFFFFFFFFFFFFFFFFFFFFFFFFFFFFFFFFFFFFF DUP3 SUB PUSH2 0x189E JUMPI PUSH2 0x189D PUSH2 0x12BF JUMP JUMPDEST JUMPDEST PUSH1 0x1 DUP3 ADD SWAP1 POP SWAP2 SWAP1 POP JUMP JUMPDEST PUSH0 DUP2 SWAP1 POP SWAP3 SWAP2 POP POP JUMP JUMPDEST PUSH0 PUSH2 0x18BD DUP3 PUSH2 0xCA0 JUMP JUMPDEST PUSH2 0x18C7 DUP2 DUP6 PUSH2 0x18A9 JUMP JUMPDEST SWAP4 POP PUSH2 0x18D7 DUP2 DUP6 PUSH1 0x20 DUP7 ADD PUSH2 0xCBA JUMP JUMPDEST DUP1 DUP5 ADD SWAP2 POP POP SWAP3 SWAP2 POP POP JUMP JUMPDEST PUSH0 PUSH2 0x18EE DUP3 DUP5 PUSH2 0x18B3 JUMP JUMPDEST SWAP2 POP DUP2 SWAP1 POP SWAP3 SWAP2 POP POP JUMP JUMPDEST PUSH0 DUP2 SLOAD PUSH2 0x1905 DUP2 PUSH2 0x1031 JUMP JUMPDEST PUSH2 0x190F DUP2 DUP7 PUSH2 0x18A9 JUMP JUMPDEST SWAP5 POP PUSH1 0x1 DUP3 AND PUSH0 DUP2 EQ PUSH2 0x1929 JUMPI PUSH1 0x1 DUP2 EQ PUSH2 0x193E JUMPI PUSH2 0x1970 JUMP JUMPDEST PUSH1 0xFF NOT DUP4 AND DUP7 MSTORE DUP2 ISZERO ISZERO DUP3 MUL DUP7 ADD SWAP4 POP PUSH2 0x1970 JUMP JUMPDEST PUSH2 0x1947 DUP6 PUSH2 0x15BE JUMP JUMPDEST PUSH0 JUMPDEST DUP4 DUP2 LT ISZERO PUSH2 0x1968 JUMPI DUP2 SLOAD DUP2 DUP10 ADD MSTORE PUSH1 0x1 DUP3 ADD SWAP2 POP PUSH1 0x20 DUP2 ADD SWAP1 POP PUSH2 0x1949 JUMP JUMPDEST DUP4 DUP9 ADD SWAP6 POP POP POP JUMPDEST POP POP POP SWAP3 SWAP2 POP POP JUMP JUMPDEST PUSH0 PUSH2 0x1984 DUP3 DUP5 PUSH2 0x18F9 JUMP JUMPDEST SWAP2 POP DUP2 SWAP1 POP SWAP3 SWAP2 POP POP JUMP JUMPDEST PUSH0 DUP2 SLOAD PUSH2 0x199B DUP2 PUSH2 0x1031 JUMP JUMPDEST PUSH2 0x19A5 DUP2 DUP7 PUSH2 0xCAA JUMP JUMPDEST SWAP5 POP PUSH1 0x1 DUP3 AND PUSH0 DUP2 EQ PUSH2 0x19BF JUMPI PUSH1 0x1 DUP2 EQ PUSH2 0x19D5 JUMPI PUSH2 0x1A07 JUMP JUMPDEST PUSH1 0xFF NOT DUP4 AND DUP7 MSTORE DUP2 ISZERO ISZERO PUSH1 0x20 MUL DUP7 ADD SWAP4 POP PUSH2 0x1A07 JUMP JUMPDEST PUSH2 0x19DE DUP6 PUSH2 0x15BE JUMP JUMPDEST PUSH0 JUMPDEST DUP4 DUP2 LT ISZERO PUSH2 0x19FF JUMPI DUP2 SLOAD DUP2 DUP10 ADD MSTORE PUSH1 0x1 DUP3 ADD SWAP2 POP PUSH1 0x20 DUP2 ADD SWAP1 POP PUSH2 0x19E0 JUMP JUMPDEST DUP1 DUP9 ADD SWAP6 POP POP POP JUMPDEST POP POP POP SWAP3 SWAP2 POP POP JUMP JUMPDEST PUSH0 PUSH1 0x60 DUP3 ADD SWAP1 POP DUP2 DUP2 SUB PUSH0 DUP4 ADD MSTORE PUSH2 0x1A28 DUP2 DUP7 PUSH2 0x198F JUMP JUMPDEST SWAP1 POP PUSH2 0x1A37 PUSH1 0x20 DUP4 ADD DUP6 PUSH2 0xD2A JUMP JUMPDEST PUSH2 0x1A44 PUSH1 0x40 DUP4 ADD DUP5 PUSH2 0xD2A JUMP JUMPDEST SWAP5 SWAP4 POP POP POP POP JUMP JUMPDEST PUSH0 PUSH1 0x20 DUP3 ADD SWAP1 POP DUP2 DUP2 SUB PUSH0 DUP4 ADD MSTORE PUSH2 0x1A64 DUP2 DUP5 PUSH2 0x198F JUMP JUMPDEST SWAP1 POP SWAP3 SWAP2 POP POP JUMP INVALID LOG2 PUSH5 0x6970667358 0x22 SLT KECCAK256 SWAP6 0xD1 0xD2 SDIV CALLCODE PC SWAP4 EXTCODECOPY CALLDATASIZE CREATE LOG2 0xD3 DUP3 ADD 0xB3 0xE3 DUP5 0x4F PUSH6 0x88B8C3B47732 SLT DIV 0xE6 0x25 SWAP11 CHAINID CODECOPY PUSH5 0x736F6C6343 STOP ADDMOD AND STOP CALLER "
				},
				"gasEstimates": {
					"creation": {
						"codeDepositCost": "1363600",
						"executionCost": "6427",
						"totalCost": "1370027"
					},
					"external": {
						"campaigns(uint256)": "infinite",
						"createCampaign(string,address,uint256,uint256)": "infinite",
						"donateToCampaign(string)": "infinite",
						"releaseFundToReceiver(uint256)": "infinite",
						"withdrawHeldFund(uint256)": "infinite"
					},
					"internal": {
						"checkCampaignState(uint256)": "infinite",
						"fetchCampaignIndex(string memory)": "infinite",
						"isDeadlineReached(uint256)": "2251",
						"isTargetReached(uint256)": "4431"
					}
				},
				"methodIdentifiers": {
					"campaigns(uint256)": "141961bc",
					"createCampaign(string,address,uint256,uint256)": "de932cee",
					"donateToCampaign(string)": "45f25d63",
					"releaseFundToReceiver(uint256)": "dcb64d86",
					"withdrawHeldFund(uint256)": "d1446c72"
				}
			},
			"storageLayout": {
				"storage": [
					{
						"astId": 30,
						"contract": "contracts/crowdfunding.sol:CrowdFunding",
						"label": "campaigns",
						"offset": 0,
						"slot": "0",
						"type": "t_mapping(t_uint256,t_struct(Campaign)25_storage)"
					},
					{
						"astId": 33,
						"contract": "contracts/crowdfunding.sol:CrowdFunding",
						"label": "campaignNo",
						"offset": 0,
						"slot": "1",
						"type": "t_uint256"
					}
				],
				"types": {
					"t_address": {
						"encoding": "inplace",
						"label": "address",
						"numberOfBytes": "20"
					},
					"t_array(t_address)dyn_storage": {
						"base": "t_address",
						"encoding": "dynamic_array",
						"label": "address[]",
						"numberOfBytes": "32"
					},
					"t_bool": {
						"encoding": "inplace",
						"label": "bool",
						"numberOfBytes": "1"
					},
					"t_mapping(t_address,t_uint256)": {
						"encoding": "mapping",
						"key": "t_address",
						"label": "mapping(address => uint256)",
						"numberOfBytes": "32",
						"value": "t_uint256"
					},
					"t_mapping(t_uint256,t_struct(Campaign)25_storage)": {
						"encoding": "mapping",
						"key": "t_uint256",
						"label": "mapping(uint256 => struct CrowdFunding.Campaign)",
						"numberOfBytes": "32",
						"value": "t_struct(Campaign)25_storage"
					},
					"t_string_storage": {
						"encoding": "bytes",
						"label": "string",
						"numberOfBytes": "32"
					},
					"t_struct(Campaign)25_storage": {
						"encoding": "inplace",
						"label": "struct CrowdFunding.Campaign",
						"members": [
							{
								"astId": 3,
								"contract": "contracts/crowdfunding.sol:CrowdFunding",
								"label": "owner",
								"offset": 0,
								"slot": "0",
								"type": "t_address"
							},
							{
								"astId": 5,
								"contract": "contracts/crowdfunding.sol:CrowdFunding",
								"label": "campaignName",
								"offset": 0,
								"slot": "1",
								"type": "t_string_storage"
							},
							{
								"astId": 7,
								"contract": "contracts/crowdfunding.sol:CrowdFunding",
								"label": "donationReceiver",
								"offset": 0,
								"slot": "2",
								"type": "t_address"
							},
							{
								"astId": 9,
								"contract": "contracts/crowdfunding.sol:CrowdFunding",
								"label": "target",
								"offset": 0,
								"slot": "3",
								"type": "t_uint256"
							},
							{
								"astId": 11,
								"contract": "contracts/crowdfunding.sol:CrowdFunding",
								"label": "isOpen",
								"offset": 0,
								"slot": "4",
								"type": "t_bool"
							},
							{
								"astId": 13,
								"contract": "contracts/crowdfunding.sol:CrowdFunding",
								"label": "totalBalance",
								"offset": 0,
								"slot": "5",
								"type": "t_uint256"
							},
							{
								"astId": 15,
								"contract": "contracts/crowdfunding.sol:CrowdFunding",
								"label": "deadline",
								"offset": 0,
								"slot": "6",
								"type": "t_uint256"
							},
							{
								"astId": 17,
								"contract": "contracts/crowdfunding.sol:CrowdFunding",
								"label": "isFailed",
								"offset": 0,
								"slot": "7",
								"type": "t_bool"
							},
							{
								"astId": 20,
								"contract": "contracts/crowdfunding.sol:CrowdFunding",
								"label": "donatorsAddress",
								"offset": 0,
								"slot": "8",
								"type": "t_array(t_address)dyn_storage"
							},
							{
								"astId": 24,
								"contract": "contracts/crowdfunding.sol:CrowdFunding",
								"label": "donators",
								"offset": 0,
								"slot": "9",
								"type": "t_mapping(t_address,t_uint256)"
							}
						],
						"numberOfBytes": "320"
					},
					"t_uint256": {
						"encoding": "inplace",
						"label": "uint256",
						"numberOfBytes": "32"
					}
				}
			},
			"userdoc": {
				"kind": "user",
				"methods": {},
				"version": 1
			}
		}
	}
}